:020000040800F2
:10400000F0190020CD4000086D58000895410008C7
:1040100000000000000000000000000000000000A0
:104020000000000000000000000000003B5B0008F2
:104030000000000000000000134100083D5B000884
:10404000DF40000800000000DF400008DF400008FB
:10405000DF400008DF400008DF400008DF400008C4
:1040600000000000DF400008DF400008DF400008DB
:10407000DF400008DF400008DF40000800000000CB
:10408000DF400008DF400008DF400008DF40000894
:10409000DF400008DF400008DF400008DF40000884
:1040A000DF400008DF400008DF4000089D63000893
:1040B000DF400008DF4000080348854600F0C8F9EB
:1040C00000480047EB440008F019002004488047EE
:1040D00004480047FEE7FEE7FEE7FEE7FEE7FEE7EF
:1040E0004D5C0008B9400008EFF3108072B67047CD
:1040F00080F3108870472A4A1368012B03D00123EC
:104100001360284A1060284A116028482849016035
:104110007047EFF3108272B62148016800291DD064
:10412000002101601F48016800290AD0EFF30981CE
:10413000203900680160F0C144464D4656465F464E
:10414000F0C1194909680968F0C9F0B4F0C9A0467E
:10415000A946B246BB46F0BC81F3098882F31088B9
:10416000042040420047104908600E4900200860C2
:104170000B49012008600F480F4902681143016094
:104180000A480B4901600D480068006880F3088800
:1041900062B67047EFF3098000B502F03FFD00BD45
:1041A0003C020020340200203802002004ED00E030
:1041B0000000001020ED00E00000FF0008ED00E02E
:1041C00030B50B46014600202022012409E00D46AF
:1041D000D5409D4205D31D469540491B2546954037
:1041E00040191546521E002DF1DC30BDD2B201E05F
:1041F0000270401C491EFBD270470022F6E710B542
:1042000013460A4604461946FFF7F0FF204610BD44
:1042100030B505460020034600E05B1C934205D202
:10422000EC5CC85C201A01D1002CF6D130BD000036
:10423000F0B51FB488B00B9909980024484009993B
:10424000C00F490049080991C0070B990090490027
:1042500049080B9109990898A64608431CD00B9968
:104260000A98084318D0099801244000420D4800DC
:10427000410D099824050003000B204309900B9879
:104280000003000B20430B9050181C4940180022DB
:1042900001901446104605E0002001460DB0F0BD27
:1042A000032801DA034600E003239C46C11A0AAE44
:1042B0000AE05F0008ADED5B4F00F75B7D43002730
:1042C000AA187C41491C5B1E6145F2DD410004AB2C
:1042D0005A522104120C0A43240C401C0828DFDB2C
:1042E000019802900099704601910090059B049AF4
:1042F0000799069800F05AF8D0E700000DFCFFFF80
:104300000EB5C217C10F5040CA0740180021054B17
:104310000293019200910A460B4600F047F803B061
:1043200000BD00003304000070B5CD0F4A00090342
:104330000123090B1B0519430B4BED070024520DFC
:104340009A4201DA002070BD074B34339A4203DCF5
:104350009A1A00F00DF802E00449511888402C43E5
:10436000F1D0404270BD0000FF030000CDFBFFFF15
:1043700010B5202A04DB0846203AD040002110BDA9
:104380000B46D340D0402024A21A9140084319463E
:1043900010BD10B5002B08DA0024401C61419218B2
:1043A0005B411A4301D14008400010BDF0B51FB475
:1043B00082B005460C0003D0084602F06FF802E018
:1043C00002F06CF82030024600902146284600F0AA
:1043D00051F8049B059A04460F46184311430843BD
:1043E00014D0184610431BD0009840210A1A1846D2
:1043F0000599FFF7BDFF05460E46009A05990498FA
:1044000000F038F8084305D0012004E02046394682
:1044100007B0F0BD0020C11705430E432C433743BE
:1044200000990E986305401A7905E40A00220C43AE
:10443000FD0A0A3002D500200146E9E701051019FE
:1044400069410C9C0D9D00196941FFF7A2FFDFE750
:10445000064C0125064E05E0E36807CC2B430C3CD7
:1044600098471034B442F7D3FFF72AFEA487000818
:10447000C487000810B5202A04DB0146203A914089
:10448000002010BD914020239C1A0346E3401943AD
:10449000904010BD70B58C180578401C6B075B0F01
:1044A00001D10378401C2A1106D10278401C03E098
:1044B00006780E70401C491C5B1EF9D12B0705D4F1
:1044C0000023521E0DD40B70491CFAE70378401CE0
:1044D000CB1A921C03E01D780D70491C5B1C521E08
:1044E000F9D5A142D8D3002070BD10B503F048FB28
:1044F000002010BD70B5002400F068F80125ED0320
:104500000526360704E0641CE4B2012002F08FF9AE
:104510002946304600F002FA002802D0C82CF2D317
:1045200010E0C82C0ED2002404E0641CE4B2012088
:1045300002F07DF92946304600F0F0F9002803D05A
:10454000F02C04D3012070BDF02CEED3FAE700204C
:1045500070BD0121052310B5C9031B07012804D034
:104560000022184600F0DFF910BD0122F9E7000033
:1045700070B500F0B9F800F0A9F8FFF7BBFFCC2048
:1045800000F0BEF8BE2000F0BBF800F090F8044642
:1045900000F08DF8072805D9C043E143C0B2CCB282
:1045A000002500E001250002001900B2FFF7A8FE77
:1045B0000022054BFFF73CFEFFF7B6FE00B2002DD0
:1045C00001D1404200B270BD0000E43F00B50B488D
:1045D00087B0426B01210A434263406B029108405D
:1045E0000590C80300900020019002200390052050
:1045F0006946000700F0F8F807B000BD001002405F
:1046000000B50B4887B0426B01210A434263406BFF
:10461000019108400590C803009002200390029188
:1046200005206946000700F0DFF807B000BD000074
:104630000010024000B50D4887B0426B01210A43CB
:104640004263406B019108400590C803009002202E
:104650000390029105206946000700F0C5F800F0BC
:1046600035F8FFF747FF07B000BD0000001002401B
:1046700010B5FFF7C5FF0020FFF76BFF022002F027
:10468000D6F80120FFF765FFFFF7A0FF02F0B5F8AD
:1046900001210520C903000700F040F9002801D0DE
:1046A000012200E0002202F0B1F8104610BD70B502
:1046B00000250124FFF7DCFFC00169080843641CE2
:1046C000E4B2C5B2082CF5D9284670BD10B5FFF785
:1046D00097FF0020FFF73DFF02F0A4F80120FFF74D
:1046E00038FF02F08EF810BD10B5FFF7EFFFFFF7AF
:1046F00001FFCC2000F004F8442000F001F810BDC8
:1047000070B50546FFF77CFF0124E807C00F6D0870
:1047100000280BD00020FFF71CFF022002F087F8D2
:104720000120FFF716FF02F077F80AE00020FFF7FC
:1047300010FF02F071F80120FFF70BFF022002F0DA
:1047400076F8641CE4B2082CDFD970BD002805D0CF
:10475000034A1146491EFDD1401EFAD170470000A0
:104760006318000070470000F8B5014600242031AE
:1047700001220A714B79022B03D00421C163012469
:104780002DE003681D680E26B5431D6003681D6893
:104790006D086D001D60436C1D68FF260136B54332
:1047A0001D60104B5D68066C1C273E401746B740E5
:1047B0003D435D60836CC56C5D60036D002B07D06D
:1047C0001E68FF250135AE431E60436D856D5D603B
:1047D0004A7100220A71816B002900D08847204667
:1047E000F8BD000000000240F0B5002388E001227F
:1047F0009A409446144022007ED04C68022C01D08E
:10480000122C0CD1DC08A40027183C6A5D07ED0EC1
:104810000F26AE40B4430E69AE4026433E620568A3
:104820005E000324B4400F79A543BF07BF0FB74014
:104830002F4307604D68012D05D0022D03D0112DA7
:1048400001D0122D0ED18568CF68A543B7402F4304
:10485000876047686546AF430D79ED06ED0F9D40D3
:104860003D434560C568A5438C68B4402C43C46093
:104870004C68E40043D59D08244CAD002F193C6ED4
:104880009D07EE0E0F25B540AC4305252D07A84228
:1048900001D100250FE01E4DA84201D101250AE0FB
:1048A0001C4DA84201D1022505E01B4DA84201D1B3
:1048B000032500E00525B5402543144C3D66134D06
:1048C00080352E684F689643FF0300D516432E604F
:1048D0006E684F689643BF0300D516436E60256827
:1048E0004E689543F60200D51543256065684E680D
:1048F0009543B60202D500E001E0154365605B1CFC
:104900000A681446DA4000D071E7F0BD0018024092
:104910000004005000080050000C005000690840DE
:1049200000D001207047002A01D081617047816268
:10493000704700000148806870470000A401002013
:1049400010B5084800240168821511430160204613
:1049500000F00AF8002801D0012401E000F028F856
:10496000204610BD0020024070B50F4E0024716833
:104970000546002915D07D20C000FFF721FC014627
:104980000A480068FFF71CFC00F012FC002808D160
:10499000042D06D200222946401E00F02BF8356077
:1049A00000E00124204670BDA4010020B0010020D9
:1049B00008B50948016801221143016000681040F0
:1049C000009005484038C26B01040A43C263C06BC3
:1049D0000840009008BD000040100240002805DBA0
:1049E000C106C90E012088400149086070470000D7
:1049F00000E100E010B501F069FD10BDBFF34F8F7D
:104A000004490348C860BFF34F8F00BFFDE70000B3
:104A10000400FA0500ED00E010B50F4C21680322F8
:104A20005202914301432160C11FFF39FA390ED16F
:104A30000A480621006848430949FFF7C1FB401CAA
:104A400002E0002805D0401E61694905F9D4002024
:104A500010BD032010BD000000700040B001002018
:104A600040420F00F8B5044600680026524D80030E
:104A700058D5514800274038C06BC00009D44E4873
:104A80004038C26B01040A43C263C06B084001276F
:104A900000904A480168821511430160FFF74AFF00
:104AA000009005E0FFF746FF0099401A022825D83C
:104AB00042480068C005F5D5E869032109020840AD
:104AC0000FD0A16981420CD0E86903210902EA698B
:104AD0008843012109040A43EA61EA698A43EA61D9
:104AE000E861C0070FD0FFF725FF009008E0FFF74F
:104AF00021FF0099411A3248814201D9032609E079
:104B0000E8698007F3D5E869032109028843A169B0
:104B10000843E861002F05D027484038C16B0204E4
:104B20009143C1632078C00705D068696168800837
:104B30008000084368612078800705D568690C21EA
:104B40008843A168084368612078400606D56869F3
:104B5000032109038843E168084368612088400411
:104B600011D5686961698000800808436861012186
:104B700060698907884206D10F484038C168012220
:104B800012041143C1602088000512D56869032111
:104B900089038843216908436861012120698903E9
:104BA000884206D104484038C168012212041143EA
:104BB000C1603046F8BD0000401002400070004067
:104BC00088130000F8B50F46060043D04D4D286805
:104BD0004007400FB84213D22868C008C0003843CD
:104BE0002860FFF7A7FE044605E0FFF7A3FE011BC0
:104BF0004548814261D828684007400FB842F4D147
:104C00003068424C81070DD5400704D5A0680721C4
:104C100009030843A060A0680F2109028843B16816
:104C20000843A0603078C00732D0706801280AD0ED
:104C300002280BD000280FD03449403103280ED071
:104C4000C969890704E02168890301E021688901B5
:104C5000002906DB0120F8BD21684905F8E7096A4B
:104C6000EFE7A168C908C9000143A160FFF762FE30
:104C7000009006E0FFF75EFE0099411A224881424B
:104C80001BD8A068382108407168C9008842F1D15A
:104C900028684007400FB84217D91A480168C90868
:104CA000C90039430160FFF745FE054607E0FFF7FD
:104CB00041FE411B1448814201D90320F8BD11482F
:104CC00000684007400FB842F1D13078400706D560
:104CD000A068072109038843F1680843A06000F039
:104CE00031F8A1683C2289091140094A515CC90682
:104CF000C90EC8400749086007480068FFF734FE3E
:104D0000F8BD00000020024088130000001002409F
:104D100010860008B0010020A401002006480749C1
:104D200000688968064A4904490F8900515CC90630
:104D3000C90EC84070470000B001002000100240BA
:104D40005086000810B5204CA068204A8006400F0D
:104D500016D0A0688006410F501001290FD0A1681D
:104D60008906490F022912D0A0688006400F042846
:104D700023D0A0688006400F032821D0002010BD5A
:104D8000206801218004400F8140104612E0E16854
:104D90008B07E1689B0F4906490F491C032B00D084
:104DA0001046FFF70DFAE1684904490E4843E168EF
:104DB000490F491CFFF704FA10BD0120C00310BDC4
:104DC0007D20000210BD0000001002400024F4000D
:104DD000F8B504007ED020783827C007EB4D0028B6
:104DE00046D0A868E96838408907890F102802D0A2
:104DF00008280BD001E0032908D0012062680004D4
:104E000082420AD129680143296015E0286880039D
:104E10002ED560680028DDD02AE0052301211B047F
:104E200089049A422A6802D10A432A60EAE7824347
:104E30002A60286888432860606800280CD0FFF743
:104E400079FD064604E0FFF775FD801B642873D8E2
:104E500028688003F7D50BE0FFF76CFD064604E0F9
:104E6000FFF768FD801B6428F1D828688003F7D419
:104E70002078800769D5A868E96838408A07072143
:104E8000920FC902102802D0002813D001E0022A94
:104E900010D0E068002846D028688843216908437C
:104EA00028602868FF21013108432860FFF742FD90
:104EB00006462CE02A68520502D5E268002A89D00D
:104EC0006A687F231B029A4363691B021A436A6064
:104ED000002800E08DE00ED128688843216908434E
:104EE0002860286801218004400F8140A848FFF70E
:104EF00067F9A8490860A8480068FFF735FD002851
:104F000077D122E0FFF716FD801B02289FD8286882
:104F10004005F7D568687F21090288436169090265
:104F20000843686011E02968FF200130814329604F
:104F3000FFF700FD064605E098E0FFF7FBFC801B4D
:104F4000022884D828684005F7D42078934E0007BB
:104F50002ED5A8688006400F03280AD0A069002833
:104F6000306A16D0012108433062FFF7E3FC0746A0
:104F70000BE0306A80071BD5A06900289FD017E09E
:104F8000FFF7D8FCC01B022870D8306A8007F7D51D
:104F90000EE0400840003062FFF7CCFC074604E01A
:104FA000FFF7C8FCC01B022860D8306A8007F7D41E
:104FB000207840076CD5A86800278006400F042899
:104FC00018D0E86BC00008D4E96B0120000701434A
:104FD000E963E96B01400127009171480168C90547
:104FE00019D40168821511430160FFF7A3FC0090FA
:104FF0000DE083E0F06980074AD5A06800287DD0E5
:1050000046E0FFF797FC0099401A02282ED8644822
:105010000068C005F5D5A168012910D00420052934
:10502000F16911D049084900F161F1698143F161E9
:10503000A068002816D0FFF77DFC00900EE0F06914
:1050400001210843F061F3E70143F161F7E7FFF75E
:1050500071FC0099411A534881426DD8F06980076C
:10506000F5D50EE0FFF766FC009007E064E0FFF77F
:1050700061FC0099411A4B4881425DD8F069800774
:10508000F5D4002F04D0E96B012000078143E963C8
:10509000E069002877D0A9688906490F022951D014
:1050A00001263606022828680DD0B0432860E8683B
:1050B00080088000E860E8683B490840E860FFF746
:1050C00039FC04463AE0B0432860FFF733FC07465A
:1050D00004E0FFF72FFCC01B02282DD828688001B0
:1050E000F7D4616A206AA26A0843E16A1202114396
:1050F0000843216B0843E9682C4A00E041E0114075
:105100000843E860286830432860E86801210907FF
:105110000843E860FFF70EFC044604E0FFF70AFCD2
:10512000001B022808D828688001F7D52BE0FFF77C
:1051300001FC001B022801D90320F8BD286880016A
:10514000F5D420E00128F8D0E868226A8107890FA9
:10515000914216D17021626A0140914211D17F21A2
:10516000A26A09020140120291420AD11F21490498
:10517000E26A0140914204D1400F216B400788420E
:1051800001D00120F8BD0020F8BD00000010024051
:105190000024F400B0010020A401002040100240CF
:1051A0000070004088130000FFFFFEEF8C80C11FDD
:1051B000094910B5401E884201D9012010BD074C95
:1051C00060610321081F01F081F90020A061072020
:1051D0002061002010BD0000FFFFFF0000E000E0A4
:1051E00030B5014660310A7F012A18D001220A77C2
:1051F0002423024680321446136003681A681D682F
:105200006D086D001D6001235B079A430023436610
:1052100000680260202020600B77184630BD022015
:1052200030BD7047F8B5054604466035287F012833
:105230001DD00120287724222046803007460260B6
:10524000206806680268520852000260206882687E
:1052500007235B069A430A438260204600F0FEFC67
:10526000206806602020386000202877F8BD0220E2
:10527000F8BDF8B5054604466035287F01281CD0E6
:1052800001202877242220468030074602602068CB
:105290000668026852085200026020688268D200E4
:1052A000D2080A438260204600F0D8FC20680660DD
:1052B0002020386000202877F8BD0220F8BD704714
:1052C00070477047F8B503680446DA69186899684A
:1052D00016072546360F8035002E60D0584EFF2722
:1052E00021370E400740374372D0D70706D0C70595
:1052F00004D501271F62AB683B43AB60930708D519
:10530000CB0706D0276802233B62AB6804273B43E8
:10531000AB60530708D5CB0706D0276804233B6250
:10532000AB6802273B43AB60130709D5202303403A
:10533000334305D0266808233362AE681E43AE604F
:10534000AB68002B38D092060AD520221040D20537
:105350001140084304D0E16E002901D0204688475F
:10536000A86821688968490601D4000729D5204624
:1053700000F046FD2068816849061ED582684021FC
:105380008A438260A06F002817D02E498163A06FE6
:10539000FFF7EAF900280FD0A06F816B0BE09606AB
:1053A00016D5012720263F0706400F403E430FD069
:1053B000E16E22E020468847F8BD2046FFF781FFD6
:1053C000F8BD2046FFF77DFF0020A860F8BDFFE78D
:1053D000D60208D54E0206D50120000518622046E7
:1053E000FFF76EFFF2E716060AD501278026FF05B4
:1053F000064039400E4303D0216F0029DAD1E5E79A
:1054000051060DD541060BD51A68204640218A4326
:105410001A60202129600021216700F082F9D5E778
:10542000110205D5410003D52046FFF748FFCDE71F
:10543000D101CBD50028C9DA2046FFF7F2FEC5E737
:1054400001000010ED5D000870B5040006D0204694
:10545000803005460068002802D007E0012070BDBA
:1054600000217C200155204600F026F824202860E9
:1054700020680168490849000160204600F0D4FD19
:105480000128ECD0A06A002802D0204600F016FCCB
:10549000206841680922D2029143416020688168F6
:1054A0002A22914381602068016801221143016032
:1054B000204600F069FC70BD10B586B0044614218A
:1054C0006846FEF79AFE17492068884227D1164899
:1054D0000268012189030A430260006808400590C0
:1054E00011484038426B01210A434263406B0491EA
:1054F0000840059003204002009002200190002007
:1055000002900390052069460007FFF76DF900221D
:1055100011461B20FFF76EFA1B20FFF75FFA06B05B
:1055200010BD00000038014040100240F0B50646B2
:1055300080367368202B76D100290AD0002A08D043
:105540008568DC01A54206D10369002B03D1CB0796
:1055500001D00120F0BD034660331F7F012F62D0D0
:1055600001271F778165014640318A83CA8300275E
:10557000C766FF27A54204D10569002D12D12B4D26
:1055800009E0002D09D001273F07BD4233D105694D
:10559000002D05D03F250D8405E00569002D01D0C3
:1055A0007F25F8E70F840025B5602227776007681C
:1055B000BE68BC4601273E436746BE600127466E73
:1055C0007F07BE421BD1098D914218D88168A14244
:1055D00002D10169002910D01549C1661D77016803
:1055E0000A68FF2301331A430A60006881681A05BC
:1055F0001143816012E00025CDE70E49EDE7816897
:10560000A14202D1016900290BD00B49C1661D7767
:1056100000680168FF222132114301600020F0BDC3
:1056200001E00649F2E70220F9E70000FF0100006F
:10563000895F0008895E0008295F0008295E00086C
:105640007047FFB5074604468037386885B00D4679
:10565000202864D1002D0CD00798002809D0012003
:10566000A1680003814207D12069002804D1E8071E
:1056700002D0012009B0F0BD204660300290007FCA
:1056800001284CD00298012101770020B860212028
:105690003860FFF74FF90190264640360798B082F0
:1056A0000798F0820120A1680003814202D120699D
:1056B000002802D00395002515E00020039012E099
:1056C00000228021204600F035FE002818D10398E2
:1056D000002817D02168007888620398401C039046
:1056E000F08A401EF082F08A019B00280898009002
:1056F000E6D100224021204600F01CFE002808D000
:105700000320B7E728882168C005C00D8862AD1C5A
:10571000E6E720203860029900200877AAE70220F7
:10572000A8E7704710B50B4C012240212046FFF737
:10573000FAF8012280212046FFF7F5F800228021A7
:105740002046FFF7F0F8002240212046FFF7EBF853
:1057500010BD00000004005010B5084C012240218B
:105760002046FFF7E0F8002280212046FFF7DBF813
:10577000012280212046FFF7D6F810BD000400501A
:1057800010B5064C012240212046FFF7CCF800223C
:1057900040212046FFF7C7F810BD0000000400506C
:1057A00070B586B014216846FEF727FD1348426B9A
:1057B00004210A434263426B0A400592416B012572
:1057C00029434163416B29400591416B02242143E8
:1057D0004163406B0A4E2040059000221021304664
:1057E000FFF7A1F810200090002002900195694673
:1057F00003943046FEF7F8FF06B070BD001002407B
:105800000004005010B5184816490160E121490212
:10581000416000218160C16001618161C1610162FB
:105820000C22416242618162FFF70EFE002801D026
:10583000FEF798FF00210C48FFF71BFD002801D060
:10584000FEF790FF00210848FFF7ECFC002801D08C
:10585000FEF788FF0448FFF7C3FC002801D0FEF7DD
:1058600081FF10BD003801400C130020704770B557
:10587000002420460021B03000F054F900210846F1
:1058800000F050F90021102000F04CF90025012112
:10589000002000F047F96D1CEDB2802DF7D3641C99
:1058A000E4B2082CE5D370BDF0B585B040200024EB
:1058B0000125009002946946019503944D48FEF736
:1058C00093FF802000900294694601950394494813
:1058D000FEF78AFF05272E023F07029469463846E5
:1058E000009601950394FEF77FFF0022314638466B
:1058F000FFF719F80420009002946946019503947B
:105900003C48FEF771FF002204213A48FFF70BF8EC
:105910000A20FEF71BFF0021AE2000F003F9002152
:10592000084600F0FFF80021102000F0FBF80021ED
:10593000402000F0F7F80021B02000F0F3F800213B
:10594000812000F0EFF80021FF2000F0EBF80021AB
:10595000A12000F0E7F80021A62000F0E3F80021E4
:10596000A82000F0DFF800213F2000F0DBF8002144
:10597000C82000F0D7F80021D32000F0D3F8002190
:10598000084600F0CFF80021D52000F0CBF8002128
:10599000802000F0C7F80021D82000F0C3F80021D3
:1059A000052000F0BFF80021D92000F0BBF800214D
:1059B000F12000F0B7F80021DA2000F0B3F8002160
:1059C000122000F0AFF80021DB2000F0ABF800213E
:1059D000302000F0A7F800218D2000F0A3F800216E
:1059E000142000F09FF80021AF2000F09BF805B0D4
:1059F000F0BD00000004005010B50A4604461046F1
:105A00000021B03000F08EF820090021103000F0A5
:105A100089F82007000F002100F084F810BD000075
:105A2000F8B515460E460746FFF7E6FF0E49002477
:105A3000A8014518285D012100F074F8641CE4B247
:105A4000102CF7D3761CF1B23846FFF7D5FF0024AF
:105A5000281920300078012100F064F8641CE4B2B9
:105A6000102CF5D3F8BD000024000020FFB581B054
:105A7000203A019800240D46D6B27F2803D9002091
:105A80008D1CEDB20190102B29460FD0FFF7B4FF0B
:105A90000620464314483518285D012100F042F8DD
:105AA000641CE4B2062CF7D305B0F0BDFFF7A4FFE9
:105AB00037010E4E3819305C012100F033F8641CB8
:105AC000E4B2082CF6D36D1CE9B20198FFF794FFFD
:105AD000002438198019007A012100F023F8641C91
:105AE000E4B2082CF5D3DFE7F87D00082080000839
:105AF000FFB581B017460E46044600250DE031463D
:105B00002046049BFFF7B2FF0834E4B2782C02D998
:105B10000024B61CF6B26D1CEDB27A5D002AEED1FF
:105B200005B0F0BD10B5002903D0C0B200F07CFC78
:105B300010BDC0B200F062FC10BD704710B501F09E
:105B400001F901F0FDFD01F009F910BD30B599B082
:105B500034216846FEF751FB00240D940E940F94F7
:105B60001C2111A81094FEF748FB01204002FEF70B
:105B700053FF0225E801039000954020059008207E
:105B80000A9080030B900795000304940C900895ED
:105B900009946846FFF71CF907200D900F94022125
:105BA0000E9510940DA8FFF70DF801201190129496
:105BB00011A8FEF757FF19B030BD000070B51F4D9A
:105BC000A968382001401E481E4C08290DD043000A
:105BD00010291BD0182913D0202914D0286801219E
:105BE0008004400F8140184624E02060A8683C21D2
:105BF000800908401449085C2168C140216070BDDB
:105C00007D200002F1E70120C003EEE7E9688A0782
:105C1000E968920F4906490F491C032A00D018462B
:105C2000FEF7CEFA0146E8684004400E4843E968B2
:105C3000490F491CFEF7C4FAD7E7000000100240E4
:105C400000127A00B00100201086000802490148C5
:105C5000886070470040000800ED00E0F0B513A137
:105C600006C985B00192009112A206CA0392029160
:105C70000446416E4034002915D000688168806870
:105C800009014D0F400F02AE315C6F46385CC00019
:105C9000FEF796FA6085785D715DC000FEF790FAB8
:105CA000208505B0F0BD01206085F9E70101010301
:105CB00007010000080402040801010110B5018D6C
:105CC000C90707D001684A6801235B049A43C36A85
:105CD0001A434A60018D890707D501684A68012384
:105CE0001B049A43036B1A434A60018D490707D589
:105CF00001684A6801239B049A43436B1A434A6034
:105D0000018D090707D501684A680123DB039A431F
:105D1000836B1A434A60018DC90607D502689168F2
:105D200001231B039943C36B19439160018D8906BD
:105D300007D501688A6801235B039A43036C1A4301
:105D40008A60018D490612D503685A680121090548
:105D5000446C8A4322435A60426C8A4207D10268EB
:105D6000516803235B059943836C19435160018D8E
:105D7000090607D501684A680123DB04C06C9A4311
:105D800002434A6010BD0000FEB50546002680357E
:105D90000446AE60FEF7CEFD019020680068124F09
:105DA000000709D501210097002249052046019BE3
:105DB00000F0C0FA00280DD12068006840070BD51C
:105DC00001210097002289052046019B00F0B2FACC
:105DD000002801D00320FEBD2020286068606034C8
:105DE00026770020FEBD0000FFFFFF0110B5806A8E
:105DF000002201464031CA83CA82FFF762FA10BD11
:105E000001680A68FF2321339A430A6001688A689F
:105E1000044B1A408A60202284210A500021C16666
:105E200070470000FEFFFFEF70B5014640310246AB
:105E300080320B8C556814460268222D04D090697C
:105E400008210843906170BD526A856D1A402A800E
:105E5000826D921C8265CA8B521ECA83C98B00292F
:105E6000F1D101680A68FF2321339A430A6001686F
:105E70008A68520852008A60202161600021C16650
:105E8000FFF7DEFB70BD0000F8B50546403504465F
:105E90002F8C803000904068222805D020688169CE
:105EA000082211438161F8BD2E8D22E02068406AEE
:105EB000A16D38400880A06D801CA065E88B401E55
:105EC000E883E88B002812D120680168FF220132A4
:105ED0009143016020688168114A114081600099F6
:105EE000202048600020E0662046FFF7A9FB761ED0
:105EF000B6B2002EDAD1E88B0028D4D0298D8142A9
:105F0000D1D9206881680122120791438160054838
:105F1000E06620680168202211430160F8BD00009E
:105F2000FEFFFFEF295E000870B5014640310246D2
:105F300080320B8C556814460268222D04D090697B
:105F400008210843906170BD526A1A40836D1A702F
:105F5000826D521C8265CA8B521ECA83C98B00296E
:105F6000F1D101680A68FF2321339A430A6001686E
:105F70008A68520852008A60202161600021C1664F
:105F8000FFF75EFB70BD0000F8B5054640350446DE
:105F90002F8C803000904068222805D020688169CD
:105FA000082211438161F8BD2E8D22E02068406AED
:105FB000A16D38400870A06D401CA065E88B401EA4
:105FC000E883E88B002812D120680168FF220132A3
:105FD0009143016020688168114A114081600099F5
:105FE000202048600020E0662046FFF729FB761E4F
:105FF000B6B2002EDAD1E88B0028D4D0298D8142A8
:10600000D1D9206881680122120791438160054837
:10601000E06620680168202211430160F8BD00009D
:10602000FEFFFFEF295F0008F8B50446806821698C
:10603000E26908436169002611430843616E014328
:1060400020680268B24B1A400A430260216848681F
:10605000032212039043E26810434860A169206A5A
:10606000226808439168AB4B194001439160206856
:10607000C16A626A090909011143C162A64A20681E
:10608000A64990420CD148698007800F23D001288F
:1060900004D002281FD003281CD111E004201AE0EC
:1060A0009F4A90420ED148690C21084013D0042821
:1060B00011D0082802D00C280CD101E002200AE0FF
:1060C000082008E09749884202D09749884201D1C8
:1060D000002000E010200122D203E169D511934B8A
:1060E000934F91426FD1002806D0022835D0042862
:1060F0007AD0082869D17AE0FEF710FE76E0012810
:1061000015D0022815D0032815D0042815D005284D
:1061100015D0062815D0072815D0082815D009282D
:1061200015D00A2815D00B2814D0012512E002251D
:1061300010E004250EE006250CE008250AE00A25FB
:1061400008E00C2506E0102504E0202502E04025AB
:1061500000E08025294610461BE0606A002815D023
:1061600001282AD002282AD003282AD004282DD09A
:1061700005282DD006282DD007282DD008282DD071
:1061800009282DD00A282DD00B2800D0012529461A
:106190001846FEF715F8616840004A088018FEF7B7
:1061A0000FF880B201461039B9420ED86049491C37
:1061B00001400007400F08437FE00225E7E7042580
:1061C000E5E70625E3E716E00EE08CE00825DEE7CC
:1061D0000A25DCE70C25DAE71025D8E72025D6E7E5
:1061E0004025D4E78025D2E7FEF7ACFD0246606A81
:1061F00000289AD083E7002806D0022835D004284A
:1062000074D0082879D174E0FEF788FD70E0012889
:1062100015D0022815D0032815D0042815D005283C
:1062200015D0062815D0072815D0082815D009281C
:1062300015D00A2815D00B2814D0012512E002250C
:1062400010E004250EE006250CE008250AE00A25EA
:1062500008E00C2506E0102504E0202502E040259A
:1062600000E08025294610461BE0606A002815D012
:10627000012825D0022825D0032825D0042825D0A0
:10628000052825D0062825D0072825D0082825D080
:10629000092825D00A2827D00B2800D00125294617
:1062A0001846FDF78DFF61684A088018FDF788FFE2
:1062B00080B201461039B9421FD82168C8601DE07C
:1062C0000225ECE70425EAE70625E8E70825E6E7E6
:1062D0000A25E4E70C25E2E71025E0E72025DEE7C4
:1062E0004025DCE702E008E08025D8E7FEF72AFD3C
:1062F0000246606A0028A0D089E7012620460121D5
:106300004030418501850020E06620673046F8BDB9
:10631000F369FFCFFFF4FF11003801404010024045
:106320000044004000480040004C00400024F400BD
:10633000EFFF0000FFB581B017460E4604460A9DE8
:1063400009E0681C07D0FEF7F5FA0499401AA84244
:106350000CD8002D0AD02068C169304688431AD075
:106360000020B842EDD0002005B0F0BD20680168E3
:10637000FF22A132914301602068816849084900E9
:10638000816020212046803001604160002060341F
:1063900020770320E8E70120E3E7000010B502487A
:1063A000FEF790FF10BD00000C13002070B5124ED8
:1063B0000446002240213046FEF7B5FA0025E009E8
:1063C000C001802815D0002280213046FEF7ABFAAC
:1063D0006006040E012240213046FEF7A4FA002296
:1063E00040213046FEF79FFA6D1CEDB2082DE6D332
:1063F00070BD0122E8E700000004005010B504461B
:10640000FFF790F97820FFF7D1FFFFF7B9F90020E7
:10641000FFF7CCFFFFF7B4F92046FFF7C7FFFFF700
:10642000AFF9FFF799F910BD10B50446FFF77AF9F7
:106430007820FFF7BBFFFFF7A3F94020FFF7B6FF77
:10644000FFF79EF92046FFF7B1FFFFF799F9FFF735
:1064500083F910BD0FB410B503A9044B044A029888
:1064600000F090F810BC08BC04B018473968000868
:10647000400200200FB410B504A9074B02AA0398EC
:1064800000F080F8044602A9002000F0B1F920468F
:1064900010BC08BC04B01847F16700082021020CAA
:1064A00001D010211046020A01D010460839020915
:1064B00001D01046091F820801D01046891E4208EB
:1064C00001D0881E7047081A704700008307FF221A
:1064D000DB0E9A408907090E9940002808DB8308E3
:1064E00009489B001B1818689043084318607047C0
:1064F0000007000F0838830804489B001B18D86960
:1065000090430843D861704700E400E000ED00E0EC
:10651000002806D002060D49120E03D0C0B2085C56
:10652000401C70470204120E04D00004000E085CE8
:10653000093070470202120E04D00002000E085CFF
:1065400011307047000E085C1930704770860008E3
:1065500002E008C8121F08C1002AFAD1704770472C
:10656000002001E001C1121F002AFBD1704700008A
:1065700003480168814201D0012070470020704724
:1065800020020020FFB58DB00F460546002606E02C
:1065900025280AD0109A0F9990476D1C761C2878F0
:1065A0000028F5D1304611B0F0BD00240121674A22
:1065B000009400E004436D1C2B780846203B984073
:1065C0001042F7D128782E2815D10420044368788A
:1065D0006D1C2A280AD101CF6D1C00900BE0009998
:1065E0000A225143303940186D1C0090287801462A
:1065F00030390929F3D92878692843D006DC0028E6
:10660000D0D063280BD0642804D13BE073280FD08E
:1066100075284CD0109A0F999047761C94E03878E2
:10662000694608720020487202A80190012003E028
:10663000386801900020C0433F1D61070CD500243D
:1066400000E0641C00998C420FDA8442F9DB019966
:10665000095D0029F5D108E0002400E0641C8442B3
:10666000FCDB0199095D0029F8D1361907E0019892
:1066700001990078491C0191109A0F999047641E66
:10668000F5D261E00A20019001CF002802DA4042F1
:106690002D2102E0210504D52B216A46117201212A
:1066A00003E0E10701D02021F7E70C9104E00A2084
:1066B000019001CF00210C910BA90B9108E00199E9
:1066C000FDF77EFD0A460B993032491E0B910A7088
:1066D0000028F4D10B9803A9081A20300190600714
:1066E00001D5009801E0012000900199884203DD66
:1066F00001460198081A00E000200024009006E0FE
:1067000002A8109A005D0F999047641C761C0C98A3
:106710008442F5DB04E0109A30200F999047761CF4
:106720000099481E00900029F5DC08E00B980B99B1
:106730000078491C0B91109A0F999047761C01998B
:10674000481E01900029F1DC6D1C28E70928010092
:10675000FEB5044609A8E0C8194620461430089B37
:10676000A061226261626061E56218462A462321C7
:10677000A36200F0DBFBE16AA06A0F4B4218121F14
:10678000616A206A00F0C2FA2146E06120318E750C
:106790004E750020E763A0632764206308752067B7
:1067A00060670090019023462046044A1946443011
:1067B00001F035F80020FEBD8D740008B9760008A0
:1067C00010B5029C6408640044720262C161002139
:1067D0004362816214304060006010BD143006C80E
:1067E00008384A6006C80838116040600060704789
:1067F0000A68531C0B6010707047F820401EFDD2D1
:106800007047FF203730401EFDD270478320C00004
:10681000401EFDD2704700000148401EFDD2704767
:10682000EC0400007D20C001401EFDD270470A210B
:106830004843401EFDD2704713B5044B0122694600
:106840000348FEF7FEFE00981CBD0000FFFF00009D
:106850000C13002010B5FEF773F8FFF777F9FEF779
:106860009FFFFEF7CFFFFDF7E5FE01F071FA00286C
:1068700002D102A0FFF7EEFD002010BD5468726542
:106880006164206372656174696F6E206661696C12
:1068900065642121212121210A00000010B500F0AA
:1068A000F3F8FFF7D7FF10BD30B5144942680B6805
:1068B0001C46D218083490420ED05588002D0BD1BA
:1068C0004D68AA4208D08D68954200D1886055680D
:1068D00045605268C51A15518268D21882420BD0A1
:1068E0005588002D08D18D68854200D18A604168A5
:1068F00051604068D11A015130BD0000BC01002038
:10690000FFB589B00446149E1298139F019000971A
:10691000700601D54A4801E0494811380890F00650
:1069200001D576087600F00701D0302000E0202065
:10693000079000200690B0070DD5002A03DA2D201D
:106940005242069007E0700701D52B2002E0300785
:1069500001D5202006900025002A04D13020694668
:10696000087201250CE00C980A2815D01107090FB0
:1069700012090898415C02A841556D1C002AF2D109
:10698000BD4200DD2F460198112132460A40C01B4E
:106990002021002A06D015E010460A21FDF710FC40
:1069A0000246E6E7069A002A08D0002806DD401EC7
:1069B00004E00A9A944200D22170641C0246401EF0
:1069C000002AF6DC069A002A06D00A9A944201D2DE
:1069D000069A2270401E641CF20606D509E00A9A47
:1069E000944201D2079A2270641C0246401E002A7B
:1069F000F5DC30223B467F1EAB420CDD0A9B9C42FD
:106A000000D22270641CF5E70A9B9C4201D2535DC0
:106A10002370641C00E002AA2B466D1E002B08DDCB
:106A2000009B002BF0D104E00A9A944200D221701E
:106A3000641C0246401E002AF6DC20460DB0F0BD64
:106A4000818700081CB502201421C3010191009028
:106A50000022034903A000F0F4FC00F0F7FD1CBD88
:106A60009D6800086D61696E0000000070B5044CFF
:106A7000044D02E020688047241DAC42FAD370BD6B
:106A8000988700089C87000870B5044C044D02E00C
:106A900020688047241DAC42FAD370BD9C87000853
:106AA000A087000810B5FDF71FFB034A5188491C59
:106AB0005180FDF71DFB10BD1402002010B5FDF73D
:106AC00013FB0A4C6188491E09B26180002909DC68
:106AD00000216180FDF70CFB6068002801D000F008
:106AE000C9FA10BDFDF704FB10BD00001402002020
:106AF00070B5002832D01A4D296888422ED36968B3
:106B000088422BD2044600210C3CC943154800F0B2
:106B100062FB6088F5267601002802D02088B0420A
:106B200008D011A000F04EF923886288214615A0F4
:106B300000F048F9002060802680A868844200D2D6
:106B4000AC6029686068611A401A2969081A2861CE
:106B50002046FFF7A9FE034800F022FB70BD0000AD
:106B6000BC01002090150020746F206672656520BE
:106B70006120626164206461746120626C6F636B88
:106B80003A0A00006D656D3A203078253038782C4F
:106B9000207573656420666C61673A2025642C203B
:106BA0006D6167696320636F64653A2030782530D2
:106BB00034780A00004870474402002000487047BB
:106BC0004412002010B5FEF7F9FF0F487D21C900DF
:106BD0000068FDF7F5FA0D49401E884208D80C49B7
:106BE0000C4A4861FF20D0700020886107200861AE
:106BF000FFF73CFFFFF7E2FF0446FFF7DBFF21460C
:106C000000F096FB10BD0000B0010020FFFFFF0068
:106C100000E000E020ED00E0704700000446C1699C
:106C200012A000F0CFF815A0A16900F0CBF817A0D2
:106C3000616900F0C7F819A0216900F0C3F81BA032
:106C4000E16800F0BFF81DA0A16800F0BBF81FA02C
:106C5000616800F0B7F821A0216800F0B3F823487C
:106C6000016823A000F0AEF8FEE700007073723AEE
:106C7000203078253038780A000000002070633A10
:106C8000203078253038780A00000000206C723AF5
:106C9000203078253038780A000000007231323A0E
:106CA000203078253038780A000000007230333AFE
:106CB000203078253038780A000000007230323AEF
:106CC000203078253038780A000000007230313AE0
:106CD000203078253038780A000000007230303AD1
:106CE000203078253038780A000000001802002093
:106CF00068617264206661756C74206F6E207468C0
:106D0000726561643A2025730A000000F0B50546FB
:106D1000121DD008C0004038094E02460024A700CA
:106D2000641CD651102CFAD3116200215162916279
:106D3000D16230322AC201210906C163F0BD0000D0
:106D4000EFBEADDE10B5FDF7CFF9034A1178491C4F
:106D50001170FDF7CDF910BDB801002010B5FDF799
:106D6000C3F9034A1178491E1170FDF7C1F910BD2E
:106D7000B8010020F8B5064614460D46084600F056
:106D80007BFC2F461437002C15D0012C17D1203551
:106D900034680CE0212120466A7D095D14388A425E
:106DA00004D23946143000F034F802E02468B442CA
:106DB000F0D1B44203D13946304600F02AF8002021
:106DC000F8BD00000FB410B503AB7F210548029A4F
:106DD00000F098FD0348FFF71FFF10BC08BC04B08B
:106DE00018470000101500200268516002680A6010
:106DF0000160486070470268516002680A60016083
:106E0000486070470268516002680A60016048602B
:106E100070474268116042684A604160086070478C
:106E200006C808384A6006C808381160406000602B
:106E3000704706C808384A6006C8083811604060C4
:106E400000607047F8B5002807D0C01C354C860894
:106E5000E068B600864201D90020F8BD0C2E00D2B1
:106E60000C260021C943304800F0B5F9A06821681C
:106E7000E2688646401A9446921B4CE00D186B88D7
:106E8000002B47D16B681B1A0C3BB34242D36A6894
:106E9000131A324618320C3B93422DD383190C330C
:106EA000F527CA187F011780002757806F68576041
:106EB000906001206B606880506862460C3290429E
:106EC00002D00A4608328350206980190C302061B4
:106ED0006269824200D26061F520400128807545D8
:106EE00012D1A0684288002A0ED0626890420BD06E
:106EF00040684018A060F5E70120688068686A1A59
:106F0000801A22698018E2E7074800F049F928460C
:106F10000C30F8BD68688242B0D8034800F040F9F0
:106F20009AE70000BC0100209015002030B5034610
:106F3000C9B2042A16D3840714D10D020D432C04C0
:106F40002C4305E01C605C609C60103ADC601033F0
:106F5000102AF7D201E010C3121F042AFBD201E06D
:106F600019705B1C521EFBD230BDF8B50F460646A9
:106F700000F042F80546C068FFF764FF040018D02F
:106F80000021EA68FFF7D2FF267200206072082213
:106F90003946204600F0B8F9FDF7A6F80646214626
:106FA0000C31281DFFF720FF3046FDF7A1F82046E1
:106FB000F8BD0020F8BD70B5044600202072FDF732
:106FC00093F8054620460C30FFF72AFF2846FDF7C8
:106FD0008FF82046FFF78CFD70BD70B50446002089
:106FE0002072FDF781F8054620460C30FFF718FFA8
:106FF0002846FDF77DF870BD064A00210B01D35CE1
:10700000834202D1080180187047491C0429F5DB2E
:1070100000207047D4010020F8B5044616460D46FE
:107020000846FFF7E9FF0746FFF73CFD381D796882
:1070300000E009688142FCD1FFF740FD8020054354
:10704000257208223146204600F05EF9FDF74CF823
:10705000054621460C31381DFFF7C6FE2846FDF7D0
:1070600047F8F8BD007A000601D5012070470020DE
:107070007047000070B5FDF737F8124C0546608880
:10708000002815D1A068FFF743FA401E0E4AC10040
:1070900051586268143991420AD020700B486160DF
:1070A0000078002808D010461C301C31FDF723F86A
:1070B0002846FDF71DF870BD10461C301C31FDF749
:1070C0001AF8F5E714020020B0150020B8010020DE
:1070D00010B50446FDF708F8024620462030017D31
:1070E00009090901491C0175407D0A49C000411880
:1070F00020464B68143018604B68A361486061619A
:107100000548A16B8368194381601046FCF7F0FFC6
:1071100010BD0000B01500201402002010B5044678
:10712000FCF7E2FF214614310CC9083953600CC941
:1071300008391A60496009603521095DCA000649AD
:107140008B5851188B4204D10449A36B8A689A4327
:107150008A60FCF7CDFF10BDB0150020140200209E
:1071600070B50C46014615460220FFF7FEFE0028CA
:1071700005D001461431816141618483457270BD3F
:10718000F8B516460A461F4605460221FFF744FF9A
:107190002C461434AC616C61AE836F720020F8BD74
:1071A00070B50446FCF7A0FF05462146606914311E
:1071B000884208D0143800F004FA2846FCF798FFFB
:1071C000FFF758FF05E0A08B401CA0832846FCF782
:1071D0008FFF002070BD73B50546FCF785FF06469E
:1071E000A88B002805D0401EA8833046FCF780FFFE
:1071F00022E00198002821D000F002FA0446002085
:10720000206328466A7A21461430FFF7B3FD0198BF
:10721000002809DD2046443001AA0021054600F07F
:10722000D5FA284600F00EFB3046FCF761FFFFF769
:1072300021FF206B002800D100207CBD3046FCF7E8
:1072400057FF0120C0437CBD08B509A0FFF7BAFD78
:107250000AA0FFF7B7FD12A00323009001221946F0
:1072600012A0FFF7AFFD19A0FFF7ACFD08BD0000AD
:107270000A205C207C202F0A000000002D205254A0
:10728000202D2020202020546872656164204F70DA
:1072900065726174696E672053797374656D0A0055
:1072A0004A756C203137203230323000202F207C5C
:1072B000205C202020202025642E25642E2564209B
:1072C0006275696C642025730A000000203230303A
:1072D00036202D203230313920436F707972696742
:1072E00068742062792072742D74687265616420FC
:1072F0007465616D0A000000014600E0491C0A78CF
:10730000002AFBD1081A704710B5002A08D003469E
:107310000C781C70491C5B1C002C05D0521EF7D148
:1073200010BD19705B1C00E00021521EF9D110BD88
:107330000A46C11C8908930810B589009B00182BC8
:107340001ED91C46183C8C421AD3581A0F4C1838B8
:107350002160F522E06052010A8000230C308B602E
:1073600048604B80411861600A8001224A80486071
:10737000886007A10848FFF703FF2068A06010BDE0
:10738000014606A0FFF71EFD10BD0000BC01002055
:107390006865617000000000901500206D656D202B
:1073A000696E69742C206572726F722062656769FC
:1073B0006E206164647265737320307825782C20A8
:1073C000616E6420656E642061646472657373200D
:1073D000307825780A00000010B5002209480A4CD0
:1073E00042801146CB001B195B60491C1B600829B9
:1073F000F8DB072101704260826002480C30406077
:10740000006010BD14020020B015002010B5074C1C
:10741000A068FFF77DF8401E0549C00008581438E1
:1074200060601C30FCF79FFE10BD000014020020BD
:10743000B015002001484060006070472C02002019
:107440007047FFB585B01D4601200E9F0F9E059920
:10745000FFF78BFD041E0DD02846FFF7F3FC002834
:107460000AD069460396A1C105A90EC92046FFF7B7
:107470006FF9204609B0F0BD2046FFF79CFD0020C3
:10748000F8E710B500F0C2F810BD000070B5134861
:107490000468FCF729FE05462046FFF73FFE04215D
:1074A000342001552046443000F0A9F92046FFF76A
:1074B000D9FD012802D1206F00280AD021461431BD
:1074C0000748FFF798FC2846FCF712FEFFF7D2FDAD
:1074D00070BD2046FFF781FDF5E70000180200208F
:1074E0002002002000F002F8FCE7000070B529E05F
:1074F000FCF7FAFD0546FFF73BF800282CD01848AA
:1075000001680C4605C90839426005C90839106090
:107510004960143C0960FFF7C5FA216F002901D0CA
:10752000204688472046FFF79DFD01280FD0FFF732
:10753000C5FA2846FCF7DCFDA06AFFF7D9FA204619
:10754000FFF739FDFFF714F80028D1D170BD2046B0
:10755000FFF743FDFFF7B2FA2846FCF7C9FD70BDFF
:10756000200200201FB5202307480722D9006C46BF
:107570000FC40023054A06A1783800F00DF8024830
:10758000783800F063F81FBD10140020E57400087F
:107590007469646C65000000FFB585B00FADE0CD87
:1075A0000C460A4601210598FFF736FD0E986A46FB
:1075B000E1C22146089B079A0598FFF7C9F809B070
:1075C000F0BD70B504462030007D0007000F022892
:1075D00002D00020C04370BDFCF786FD0546204662
:1075E0001430FFF726FC2046443000F073F928469B
:1075F000FCF77EFD2046FFF76BFD002070BD00000C
:10760000014800687047000018020020F1B5FCF73F
:107610006BFD05460C480468204600F02DF8204616
:1076200044306A460021064600F0D0F8304600F0AB
:1076300009F92846FCF75CFDFFF71CFD206B801C58
:1076400000D120630020F8BD1802002010B50146CB
:1076500020318A7D01234A759340022283630A7593
:10766000FFF7AFFF03480068002801D0FFF702FDD5
:10767000002010BD1802002070B5054604462035D4
:10768000287D0007000F012802D00020C04370BDF4
:10769000FCF72AFD0646287D00090001801C28759C
:1076A0002046FFF73BFD2046443000F013F93046FA
:1076B000FCF71EFD002070BD10B504460120C0433C
:1076C000206320461430FFF7B4FB2046FFF700FD8F
:1076D000FFF7D0FC10BD000070B5FCF705FD0546B6
:1076E0001248006806462036317D0907090F012936
:1076F00017D182694169914213D014300446FFF7D3
:1077000098FB707D0A49C000401841680C604168D0
:107710006160446020602846FCF7EAFCFFF7AAFCA1
:1077200002E02846FCF7E4FC002070BD18020020AF
:10773000B01500200148006870470000B401002027
:1077400010B508480168491C0160FFF759FF016C3A
:10775000491E016403D1C16B0164FFF7BDFF00F056
:1077600003F810BDB4010020F8B5FFF7E3FF0646AB
:10777000FCF7BAFC0746134D1DE060691249301A48
:10778000143C88421AD22046FFF728F8E169206AA3
:107790008847FFF7CFFF0646607A810708D5C10703
:1077A00006D0400840006072204600F04BF802E02E
:1077B0004008400060722C68AC42DED13846FCF7CD
:1077C00097FCF8BD2C020020FFFFFF7F002909D0A5
:1077D000012904D0022908D003290ED109E0406A0A
:1077E00010600AE01168416207E0417AFD22114011
:1077F00002E0417A0222114341720020704770B5C5
:107800000546FCF771FC04462846FEF7E7FF2046D4
:10781000FCF76EFC2846FFF7E0FB002070BDFFB5CB
:1078200081B00A461F4606460A210B9D0A9CFFF7B7
:10783000F3FB23463A46009530460399FEF7C0FF16
:1078400005B0F0BDF8B50446FCF74EFC05462046F1
:10785000FEF7C4FF607A4008400060722846FCF7DB
:1078600047FCFFF767FF616A4018A062FCF73CFC29
:10787000164B0021CA000093D318054668468900BC
:107880005B6846580CE03668B446B61A7769A66A53
:10789000B74203D0BF1B0E4EB74203D366464650D5
:1078A0009E42F0D10948001F0168491C0160214631
:1078B00014310098FFF7A6FA607A0121084360723C
:1078C0002846FCF715FC0020F8BD00002C02002023
:1078D000FFFFFF7F70B50446407AC0070ED0FCF76B
:1078E00003FC05462046FEF779FF2846FCF700FC1E
:1078F000607A400840006072002070BD0020C043E4
:1079000070BD0000FFB583B0039C04982718A74200
:1079100003D20027FF43381B049006E1252803D03B
:10792000BC4200D220700DE10026042208230599F4
:10793000491C059108782D2812D02B2812D0202818
:1079400012D0232812D0302812D00A780025ED4317
:10795000303A0A2A0FD205A800F027F9054616E0AA
:10796000102006E01643E2E71E43E0E7202000E097
:1079700001200643DBE72A2809D1491C0698059116
:1079800020C80690002D02DA6D4210200643002028
:10799000C0430090059801782E2918D1401C05900D
:1079A00001780A46303A0A2A04D205A800F0FDF808
:1079B000009008E02A2908D1401C0590069802C8CA
:1079C000069000910846002801DA002000900599F1
:1079D00000200A78682A01D06C2A02D1491C10467E
:1079E000059109780A236F297CD00CDC63291FD00C
:1079F00004DC25297AD058290DD17DE064297FD077
:107A0000692908D17CE070295ED073292CD07529B2
:107A100078D0782972D0BC4201D2252020700599F7
:107A2000641C0878002800D07AE7491E059179E0A7
:107A3000F00608D420206D1E002D04DDBC4200D2CB
:107A40002070641CF7E706980178001D0690BC4280
:107A500000D22170202002E0BC4200D22070641CC1
:107A60006D1E002DF8DC5DE0069808C80690002B1E
:107A700000D13DA31846FFF73FFC0099002902DD25
:107A8000884200DD0846F10609D420212A466D1EF1
:107A9000824204DDBC4200D22170641CF6E7002162
:107AA00006E0BC4201D21A782270491C5B1C641C9F
:107AB0008142F6DB20212A466D1E824232DDBC4225
:107AC00000D22170641CF6E7681C02D10825012051
:107AD00006430098019006980296009504C810236A
:107AE00006901AE006E001E00CE007E0BC4229D273
:107AF000252017E7082305E040210E43102301E06D
:107B000002210E436C2801D068281DD0069804C8B5
:107B10000690009802960095019039462046FEF79F
:107B2000EFFE04460598401C059005980078002853
:107B300000D0F3E60498002811D00020BC420CD2FB
:107B400020700CE0641CEDE706980188001D06908B
:107B50008AB2B007DDD512B2DBE7203FF877039891
:107B600007B0201AF0BD0000284E554C4C290000EB
:107B700000207047002070470020704700207047A9
:107B800010B5FCF7B1FAFFF71DF8FFF75DFBFFF743
:107B900051FCFFF721FCFEF755FFFFF751FCFFF703
:107BA000E1FCFFF733FC002010BD0146002006E099
:107BB000531C0B600A2312785843303810180A6897
:107BC0001378303B0A2BF3D3704700000027FF43A4
:107BD000114C124EFF25F5353946E068FFF7FBFAE8
:107BE000FCF7C6FC2061E068FFF7DAFA0CA0216917
:107BF000FEF730FC002210213046FCF794FE2846A8
:107C0000FFF73FFC012210213046FCF78CFE28468E
:107C1000FFF737FCE0E70000000000200004005000
:107C200025640A001CB5FDF73FFEFDF720FE00228B
:107C300011461046FDF7F4FE012200211020FDF749
:107C4000EFFE022200212020FDF7EAFE03220021A0
:107C50003020FDF7E5FE042200214020FDF7E0FE84
:107C6000052200217020FDF7DBFE00261A4C1B4D7B
:107C7000F6430A212069FCF7A3FA0B46024618A135
:107C80006846FEF7F7FB3146E068FFF7A4FA1023D9
:107C90006A4600215020FDF72BFFE068FFF780FACD
:107CA0002069A84212D110230FA202210020FDF763
:107CB0001FFF02E00A20FFF7E4FB2069A842F9D089
:107CC00010230DA202210020FDF712FFFF20F53046
:107CD000FFF7D7FBCDE700000000002052030000B3
:107CE00025642E256400000044733138623230452B
:107CF00072726F722100000020202020202020209E
:107D000020202020200000000D4CFF25F5353222D8
:107D10000B490C48FDF70AFC207800280CD00849D4
:107D200009A0FEF797FB0F2208490548FCF770FAF7
:107D3000002801D1FCF762FE2846FFF7A2FBE6E728
:107D4000441200200C13002025730A0014000020A8
:107D5000FEB50022012118A0FFF702FA194C0426F3
:107D6000E0601425F7013B460022174917A0009652
:107D70000195FFF766FB206000281CD0FFF766FC2A
:107D80003B460022144915A000960195FFF759FBC8
:107D9000606000280FD0FFF759FC3B4600221249D3
:107DA00012A000960195FFF74CFBA060002802D0BE
:107DB000FFF74CFC0120FEBD746573745F73656D45
:107DC0000000000000000020CD7B00087461736B90
:107DD000315F313842323000257C00087461736BAA
:107DE000325F4F4C45440000097D00087461736B9D
:107DF000335F7573617274000000000000000000C2
:107E0000002F000000000700070000147F147F14FB
:107E100000242A7F2A120062640813230036495581
:107E2000225000000503000000001C224100000059
:107E300041221C000014083E08140008083E0808EF
:107E4000000000A06000000808080808000060604A
:107E50000000002010080402003E5149453E000089
:107E6000427F4000004261514946002141454B316B
:107E7000001814127F10002745454539003C4A4937
:107E800049300001710905030036494949360006A9
:107E90004949291E00003636000000005636000011
:107EA000000814224100001414141414000041228C
:107EB000140800020151090600324959513E007C64
:107EC0001211127C007F49494936003E414141224E
:107ED000007F4141221C007F49494941007F090937
:107EE0000901003E4149497A007F0808087F0000E7
:107EF000417F4100002040413F01007F08142241A2
:107F0000007F40404040007F020C027F007F040859
:107F1000107F003E4141413E007F09090906003EB5
:107F20004151215E007F09192946004649494931DE
:107F30000001017F0101003F4040403F001F204001
:107F4000201F003F4038403F0063140814630007BF
:107F50000870080700615149454300007F41410016
:107F600000552A552A55000041417F0000040201B6
:107F70000204004040404040000001020400002094
:107F800054545478007F48444438003844444420D2
:107F900000384444487F00385454541800087E097F
:107FA00001020018A4A4A47C007F08040478000047
:107FB000447D4000004080847D00007F1028440004
:107FC0000000417F4000007C04180478007C080415
:107FD000047800384444443800FC24242418001851
:107FE000242418FC007C080404080048545454203D
:107FF00000043F444020003C4040207C001C2040C6
:10800000201C003C4030403C004428102844001C08
:10801000A0A0A07C004464544C4414141414141400
:108020000000000000000000000000000000000050
:10803000000000F8000000000000003330000000E5
:1080400000100C06100C06000000000000000000EC
:1080500040C07840C0784000043F04043F0404005E
:10806000007088FC08300000001820FF211E00006E
:10807000F008F000E018000000211C031E211E0083
:1080800000F00888700000001E2123241927211009
:1080900010160E00000000000000000000000000AC
:1080A000000000E018040200000000071820400053
:1080B00000020418E0000000004020180700000043
:1080C000404080F0804040000202010F01020200A7
:1080D000000000F0000000000101011F010101008B
:1080E000000000000000000080B0700000000000F0
:1080F0000000000000000000000101010101010179
:10810000000000000000000000303000000000000F
:1081100000000000806018040060180601000000E4
:1081200000E010080810E000000F102020100F00E1
:10813000001010F8000000000020203F2020000068
:1081400000700808088870000030282422213000C0
:1081500000300888884830000018202020110E00C8
:108160000000C02010F8000000070424243F240071
:1081700000F80888880808000019212020110E0046
:1081800000E0108888180000000F112020110E0058
:1081900000380808C83808000000003F0000000050
:1081A0000070880808887000001C222121221C0011
:1081B00000E010080810E0000000312222110F003A
:1081C000000000C0C00000000000003030000000CF
:1081D000000000800000000000008060000000003F
:1081E0000000804020100800000102040810200058
:1081F00040404040404040000404040404040400A3
:108200000008102040800000002010080402010037
:10821000007048080808F000000000303601000037
:10822000C030C828E810E0000718272423140B00EA
:108230000000C038E0000000203C23020227382064
:1082400008F8888888700000203F202020110E0048
:10825000C03008080808380007182020201008003F
:1082600008F808080810E000203F202020100F0028
:1082700008F88888E8081000203F202023201800F4
:1082800008F88888E8081000203F2000030000005C
:10829000C03008080838000007182020221E0200FD
:1082A00008F808000008F808203F210101213F20BC
:1082B000000808F8080800000020203F20200000E7
:1082C00000000808F8080800C08080807F000000D7
:1082D00008F888C028180800203F20012638200010
:1082E00008F8080000000000203F20202020300077
:1082F00008F8F800F8F80800203F003F003F200091
:1083000008F830C00008F808203F200007183F0098
:10831000E01008080810E0000F10202020100F00C7
:1083200008F808080808F000203F210101010000BA
:10833000E01008080810E0000F18242438504F00FF
:1083400008F8888888887000203F2000030C3020BF
:1083500000708808080838000038202121221C00FD
:10836000180808F8080818000000203F2000000046
:1083700008F808000008F808001F202020201F002F
:108380000878880000C83808000007380E0100008F
:10839000F80800F80008F800033C0700073C030059
:1083A000081868808068180820302C03032C3020BF
:1083B0000838C800C83808000000203F200000002E
:1083C00010080808C8380800203826212020180086
:1083D000000000FE020202000000007F404040005A
:1083E000000C30C000000000000000010638C00092
:1083F00000020202FE000000004040407F0000003A
:10840000000004020202040000000000000000005E
:10841000000000000000000080808080808080805C
:108420000002020400000000000000000000000044
:1084300000008080808000000019242222223F203A
:1084400008F8008080000000003F112020110E007D
:108450000000008080800000000E1120202011000C
:10846000000000808088F800000E112020103F20BE
:108470000000808080800000001F22222222130042
:10848000008080F0888888180020203F202000008D
:108490000000808080808000006B94949493600042
:1084A00008F8008080800000203F210000203F204D
:1084B00000809898000000000020203F202000004D
:1084C000000000809898000000C08080807F00003D
:1084D00008F8000080808000203F24022D3020001A
:1084E000000808F8000000000020203F20200000C5
:1084F0008080808080808000203F20003F20003FDF
:108500008080008080800000203F210000203F20EC
:108510000000808080800000001F202020201F009D
:10852000808000808000000080FFA12020110E00CC
:108530000000008080808000000E112020A0FF80BD
:10854000808080008080800020203F21200001006A
:1085500000008080808080000033242424241900BF
:10856000008080E0808000000000001F20200000CC
:108570008080000000808000001F202020103F200D
:10858000808080000080808000010E30080601009D
:1085900080800080008080800F300C030C300F0042
:1085A00000808000808080000020312E0E3120006D
:1085B000808080000080808080818E70180601009D
:1085C00000808080808080000021302C22213000BB
:1085D00000000000807C020200000000003F4040DC
:1085E00000000000FF00000000000000FF0000008D
:1085F0000002027C800000000040403F00000000BC
:108600000006010102020404000000000000000056
:10861000000000000000000000000000000000005A
:10862000000000000000000000000000000000004A
:108630000100000002000000030000000400000030
:10864000060000000700000008000000090000000C
:10865000000000000000000000000000000000001A
:108660000100000002000000030000000400000000
:1086700000000100020001000300010002000100EF
:1086800004000100020001000300010002000100DB
:1086900005000100020001000300010002000100CA
:1086A00004000100020001000300010002000100BB
:1086B00006000100020001000300010002000100A9
:1086C000040001000200010003000100020001009B
:1086D000050001000200010003000100020001008A
:1086E000040001000200010003000100020001007B
:1086F0000700010002000100030001000200010068
:10870000040001000200010003000100020001005A
:108710000500010002000100030001000200010049
:10872000040001000200010003000100020001003A
:108730000600010002000100030001000200010028
:10874000040001000200010003000100020001001A
:108750000500010002000100030001000200010009
:1087600004000100020001000300010002000100FA
:108770003031323334353637383961626364656697
:10878000003031323334353637383941424344458D
:10879000460000007D7B0008757B0008717B0008A7
:1087A000797B0008C4870008000000204402000014
:1087B000944400089488000844020020AC1700008C
:1087C00060650008011428093A46463431303030DB
:1087D0000424304246000D144042445840407F403B
:1087E000405048C67B4044010213FF180D0808E8BA
:1087F000292E28E80808C80C0B06011326FF094992
:10880000897F1C0F4080060111251060028C2BFE11
:1088100092010213FE180A04047E01407E42427E49
:10882000020413427E402809FC242424FC2526242B
:10883000080A1004BF000F33308F80844C55252563
:1088400025554C808080031C36362809060909E628
:10885000F80C0402010315041E2E071F30204001EE
:108860000B112010E0318201032124F4292C13D8AC
:10887000012A2004327832021AE80C29043220320C
:10888000051AF80C29043230320A1308022A20048F
:0488900002332C0083
:04000005080040B9F6
:00000001FF
