:020000040800F2
:10000000A80C0020CD000008C9150008E112000866
:1000100000000000000000000000000000000000E0
:10002000000000000000000000000000CD150008E6
:100030000000000000000000CB150008CF150008EC
:10004000DF00000800000000DF000008DF000008FB
:10005000DF000008DF000008DF000008DF00000804
:1000600000000000DF000008DF000008DF000008DB
:10007000DF000008DF000008DF00000800000000CB
:10008000DF000008DF000008DF000008DF000008D4
:10009000DF000008DF000008DF000008DF000008C4
:1000A000DF000008DF000008DF000008B51B0008C3
:1000B000DF000008DF0000080348854600F03CF838
:1000C00000480047311D0008A80C00200448804764
:1000D00004480047FEE7FEE7FEE7FEE7FEE7FEE72F
:1000E00035160008B900000830B50B46014600205F
:1000F0002022012409E00D46D5409D4205D31D462E
:100100009540491B2546954040191546521E002D25
:10011000F1DC30BDD2B201E00270401C491EFBD2BE
:1001200070470022F6E710B513460A460446194602
:10013000FFF7F0FF204610BD064C0125064E05E0F6
:10014000E36807CC2B430C3C98471034B442F7D3F8
:10015000FFF7B6FF981E0008B81E000870B5002310
:100160001A46084D0AE0EC5C5B1C0B34E4B2402BF1
:1001700000D30023865C66408654521C8A42F2D328
:1001800070BD0000340000201F21C9064018C20ABB
:1001900010B50D480D490260098C02230906890B30
:1001A000491EC90A891A491C416009480024036094
:1001B0004260816000F0A0F903490548083100F071
:1001C0001DF9204610BD000074000020C075FF1FFF
:1001D0000401002002484169024A1143416170470D
:1001E0000020024004000100054A5169FF23F93351
:1001F0009943C00008430349084350617047000019
:10020000002002400200010030B505494C6901257B
:100210002C434C610260BFF36F8F436030BD000020
:100220000020024030B50B4C002362690125AD046B
:100230002A436261EFF3108272B620C95B1C20C0B2
:10024000DBB2402BF9D32069C003FCD482F31088C1
:1002500030BD00000020024070B5054600F008FAED
:100260004619174C03E000F003FAB0421FD2206990
:10027000C043C003F7D5216912480140401C2061EA
:10028000A26901208007024003D0A0691043A06149
:100290001143002903D00C484160012070BD00F0DB
:1002A000E7F9451905E000F0E3F9A84201D303207E
:1002B00070BD2069C0434003F5D5002070BD00002B
:1002C00000200240FA830000EC0000201F21C90634
:1002D000401810B5C30A094901200B60486008495D
:1002E000022288600CC1002400F006F9034904488A
:1002F000083100F083F8204610BD00007400002093
:100300000401002070B515460E46044600F0F4F8CE
:10031000002305E0590020885B1C70529BB2A41C8E
:10032000AB42F7D300F0AAF870BDF7B5002615462A
:100330000F46344600F0E0F809E0E00039180CC937
:1003400000994118012000F0A7F8641CA4B2AC4247
:10035000F3D33046FEBD0000F8B50146002420313D
:1003600001220A714B79022B03D00421C1630124BD
:100370002DE003681D680E26B5431D6003681D68E7
:100380006D086D001D60436C1D68FF260136B54386
:100390001D60104B5D68066C1C273E401746B74039
:1003A0003D435D60836CC56C5D60036D002B07D0C1
:1003B0001E68FF250135AE431E60436D856D5D608F
:1003C0004A7100220A71816B002900D088472046BB
:1003D000F8BD00000000024070B5044600F048F986
:1003E0000546601C02D004484068241800F040F91B
:1003F000401BA042FAD370BD20000020F8B51D4D6F
:10040000064628780F4601280AD0012028700020CF
:1004100068607D20C000FFF71FFF002802D026E0A3
:100420000220F8BD3168042904D00021C943396095
:10043000746812E0FFF7CEFE7D20C000FFF70CFFCE
:1004400015E02046FFF7D0FE7D20C000FFF704FF37
:10045000002801D03C6005E0641CB268716889180E
:10046000A142EED804494A6902239A434A61002115
:100470002970F8BDEC000020002002400549012051
:100480004A69C3071A434A614969002900DA002012
:100490007047000000200240F0B51FB4144C06461F
:1004A0002078154601280AD00120207000277D20E1
:1004B000C0006760FFF7D0FE002803D010E00220E4
:1004C00005B0F0BD012E0DD029460198FFF7AAFE18
:1004D0007D20C000FFF7C0FE06494A69B2434A6169
:1004E0002770EDE72A46039B0198FFF78DFEEFE7A3
:1004F000EC00002000200240064900204A69002A42
:1005000007DA054A8A60054A8A604969002900DAE3
:10051000012070470020024023016745AB89EFCDE1
:10052000F0B5002388E001229A409446144022004E
:100530007ED04C68022C01D0122C0CD1DC08A40017
:1005400027183C6A5D07ED0E0F26AE40B4430E69D6
:10055000AE4026433E6205685E000324B4400F7936
:10056000A543BF07BF0FB7402F4307604D68012D5C
:1005700005D0022D03D0112D01D0122D0ED185688A
:10058000CF68A543B7402F43876047686546AF43B0
:100590000D79ED06ED0F9D403D434560C568A543CF
:1005A0008C68B4402C43C4604C68E40043D59D087B
:1005B000244CAD002F193C6E9D07EE0E0F25B54063
:1005C000AC4305252D07A84201D100250FE01E4DA3
:1005D000A84201D101250AE01C4DA84201D1022503
:1005E00005E01B4DA84201D1032500E00525B540DB
:1005F0002543144C3D66134D80352E684F68964355
:10060000FF0300D516432E606E684F689643BF0304
:1006100000D516436E6025684E689543F60200D5F6
:100620001543256065684E689543B60202D500E023
:1006300001E0154365605B1C0A681446DA4000D08F
:1006400071E7F0BD0018024000040050000800509F
:10065000000C005042690A4201D0816270478161FA
:100660007047002A01D081617047816270470000A5
:10067000014880687047000020000020024881681F
:1006800042688918816070472000002010B5084832
:1006900000240168821511430160204600F00AF829
:1006A000002801D0012401E000F028F8204610BD08
:1006B0000020024070B50F4E0024716805460029E5
:1006C00015D07D20C000FFF70FFD01460A480068E5
:1006D000FFF70AFD00F054FB002808D1042D06D2D4
:1006E00000222946401E00F02BF8356000E001246E
:1006F000204670BD200000202C00002008B50948CD
:100700000168012211430160006810400090054813
:100710004038C26B01040A43C263C06B08400090BA
:1007200008BD000040100240002805DBC106C90ECC
:1007300001208840014908607047000000E100E0A6
:1007400010B501F0C3FA10BD10B50F4C216803229B
:100750005202914301432160C11FFF39FA390ED182
:100760000A480621006848430949FFF7BDFC401CC0
:1007700002E0002805D0401E61694905F9D4002037
:1007800010BD032010BD0000007000402C000020B0
:1007900040420F00F8B50F46060043D04D4D286883
:1007A0004007400FB84213D22868C008C000384341
:1007B0002860FFF75DFF044605E0FFF759FF011BC6
:1007C0004548814261D828684007400FB842F4D1BB
:1007D0003068424C81070DD5400704D5A068072139
:1007E00009030843A060A0680F2109028843B1688B
:1007F0000843A0603078C00732D0706801280AD062
:1008000002280BD000280FD03449403103280ED0E5
:10081000C969890704E02168890301E02168890129
:10082000002906DB0120F8BD21684905F8E7096ABF
:10083000EFE7A168C908C9000143A160FFF718FFED
:10084000009006E0FFF714FF0099411A2248814208
:100850001BD8A068382108407168C9008842F1D1CE
:1008600028684007400FB84217D91A480168C908DC
:10087000C90039430160FFF7FBFE054607E0FFF7BB
:10088000F7FE411B1448814201D90320F8BD1148ED
:1008900000684007400FB842F1D13078400706D5D4
:1008A000A068072109038843F1680843A06000F0AD
:1008B00031F8A1683C2289091140094A515CC906F6
:1008C000C90EC8400749086007480068FFF7F2FEF4
:1008D000F8BD000000200240881300000010024014
:1008E000381E00082C000020200000200648074980
:1008F00000688968064A4904490F8900515CC906A5
:10090000C90EC840704700002C00002000100240B3
:10091000781E000810B5204CA068204A8006400FC1
:1009200016D0A0688006410F501001290FD0A16891
:100930008906490F022912D0A0688006400F0428BA
:1009400023D0A0688006400F032821D0002010BDCE
:10095000206801218004400F8140104612E0E168C8
:100960008B07E1689B0F4906490F491C032B00D0F8
:100970001046FFF7B9FBE1684904490E4843E168B6
:10098000490F491CFFF7B0FB10BD0120C00310BD8B
:100990007D20000210BD0000001002400024F40081
:1009A000F8B504007ED020783827C007EB4D00282A
:1009B00046D0A868E96838408907890F102802D016
:1009C00008280BD001E0032908D001206268000448
:1009D00082420AD129680143296015E02868800312
:1009E0002ED560680028DDD02AE0052301211B04F4
:1009F00089049A422A6802D10A432A60EAE78243BC
:100A00002A60286888432860606800280CD0FFF7B7
:100A10002FFE064604E0FFF72BFE801B642873D8E8
:100A200028688003F7D50BE0FFF722FE064604E0B6
:100A3000FFF71EFE801B6428F1D828688003F7D4D6
:100A40002078800769D5A868E96838408A070721B7
:100A5000920FC902102802D0002813D001E0022A08
:100A600010D0E068002846D02868884321690843F0
:100A700028602868FF21013108432860FFF7F8FD4E
:100A800006462CE02A68520502D5E268002A89D081
:100A90006A687F231B029A4363691B021A436A60D8
:100AA000002800E08DE00ED12868884321690843C2
:100AB0002860286801218004400F8140A848FFF782
:100AC00013FBA8490860A8480068FFF7F3FD002859
:100AD00077D122E0FFF7CCFD801B02289FD8286841
:100AE0004005F7D568687F210902884361690902DA
:100AF0000843686011E02968FF20013081432960C4
:100B0000FFF7B6FD064605E098E0FFF7B1FD801B54
:100B1000022884D828684005F7D42078934E00072F
:100B20002ED5A8688006400F03280AD0A0690028A7
:100B3000306A16D0012108433062FFF799FD07465D
:100B40000BE0306A80071BD5A06900289FD017E012
:100B5000FFF78EFDC01B022870D8306A8007F7D5DA
:100B60000EE0400840003062FFF782FD074604E0D7
:100B7000FFF77EFDC01B022860D8306A8007F7D4DB
:100B8000207840076CD5A86800278006400F04280D
:100B900018D0E86BC00008D4E96B012000070143BE
:100BA000E963E96B01400127009171480168C905BB
:100BB00019D40168821511430160FFF759FD0090B7
:100BC0000DE083E0F06980074AD5A06800287DD059
:100BD00046E0FFF74DFD0099401A02282ED86448E0
:100BE0000068C005F5D5A168012910D004200529A9
:100BF000F16911D049084900F161F1698143F1615E
:100C0000A068002816D0FFF733FD00900EE0F069D1
:100C100001210843F061F3E70143F161F7E7FFF7D2
:100C200027FD0099411A534881426DD8F069800729
:100C3000F5D50EE0FFF71CFD009007E064E0FFF73C
:100C400017FD0099411A4B4881425DD8F069800731
:100C5000F5D4002F04D0E96B012000078143E9633C
:100C6000E069002877D0A9688906490F022951D088
:100C700001263606022828680DD0B0432860E868AF
:100C800080088000E860E8683B490840E860FFF7BA
:100C9000EFFC04463AE0B0432860FFF7E9FC074662
:100CA00004E0FFF7E5FCC01B02282DD8286880016E
:100CB000F7D4616A206AA26A0843E16A120211430A
:100CC0000843216B0843E9682C4A00E041E01140E9
:100CD0000843E860286830432860E8680121090774
:100CE0000843E860FFF7C4FC044604E0FFF7C0FCDB
:100CF000001B022808D828688001F7D52BE0FFF7F1
:100D0000B7FC001B022801D90320F8BD2868800128
:100D1000F5D420E00128F8D0E868226A8107890F1D
:100D2000914216D17021626A0140914211D17F2116
:100D3000A26A09020140120291420AD11F2149040C
:100D4000E26A0140914204D1400F216B4007884282
:100D500001D00120F8BD0020F8BD000000100240C5
:100D60000024F4002C00002020000020401002404D
:100D70000070004088130000FFFFFEEF8C80C11F51
:100D8000094910B5401E884201D9012010BD074C09
:100D900060610321081F00F099FF0020A061072077
:100DA0002061002010BD0000FFFFFF0000E000E018
:100DB0007047704770477047F8B503680446DA69B2
:100DC0001868996816072546360F8035002E60D0C2
:100DD000584EFF2721370E400740374372D0D707C0
:100DE00006D0C70504D501271F62AB683B43AB6043
:100DF000930708D5CB0706D0276802233B62AB6870
:100E000004273B43AB60530708D5CB0706D02768C0
:100E100004233B62AB6802273B43AB60130709D551
:100E200020230340334305D0266808233362AE688D
:100E30001E43AE60AB68002B38D092060AD5202244
:100E40001040D2051140084304D0E16E002901D0C2
:100E500020468847A86821688968490601D40007A8
:100E600029D5204600F0D8FC2068816849061ED5A7
:100E7000826840218A438260A06F002817D02E49E3
:100E80008163A06FFFF768FA00280FD0A06F816B15
:100E90000BE0960616D5012720263F0706400F4097
:100EA0003E430FD0E16E22E020468847F8BD204641
:100EB000FFF781FFF8BD2046FFF77DFF0020A86007
:100EC000F8BDFFE7D60208D54E0206D50120000581
:100ED00018622046FFF76EFFF2E716060AD50127D3
:100EE0008026FF05064039400E4303D0216F0029BC
:100EF000DAD1E5E751060DD541060BD51A68204633
:100F000040218A431A60202129600021216700F0D6
:100F10004EF8D5E7110205D5410003D52046FFF76D
:100F200048FFCDE7D101CBD50028C9DA2046FFF72D
:100F30003FFFC5E7010000100518000870B5040068
:100F400006D02046803005460068002802D007E021
:100F5000012070BD00217C200155204600F026F8BC
:100F60002420286020680168490849000160204663
:100F700000F066FC0128ECD0A06A002802D02046D0
:100F800000F0A8FB206841680922D2029143416029
:100F9000206881682A2291438160206801680122CB
:100FA00011430160204600F0FBFB70BD70477047A5
:100FB000FEB502A9C44800F057FA8446C2484178F9
:100FC000412979D10178002976D001918278C378BE
:100FD0001202D21897B2027943791202D21896B24D
:100FE0008279C3791202D21895B2027A437A120238
:100FF000D2186B461B8992B29B1FB3425CD1B34897
:101000004378994201D0FF2956D10179002903D0B4
:10101000042F01D0012F4FD10021AD4C4171034667
:10102000A9485979405C6054491CC8B258710428D9
:10103000F6D3A64B002158792154401CC1B201209F
:101040006054491CC9B260465971032801D002227C
:1010500065E0A048012F06D0022F5DD0032F7CD081
:10106000042F5BD1FBE0994A0021117172B618225E
:10107000974998483039FFF745F99548FF213038AE
:1010800001709448FFF722F99149062230399148BE
:10109000FFF74BF962B600218C4840792154401C7F
:1010A0008A49C0B24871002E07D0022E05D0012116
:1010B00020182038C177C8E005E1844C0020208149
:1010C000E080854E08E06D1EADB2B54209D072B623
:1010D0008048FFF7FBF862B60120C0028542F2D3D8
:1010E000B3E0E0780C2801D0C028ECD172B6182209
:1010F000774978483039FFF705F97548E178303895
:1011000041717448FFF7E2F871490622303971489D
:10111000FFF70BF962B6D6E7002E02D001226B482A
:1011200090E06A4D0C21E97072B6182268490646B3
:101130003039FFF7E7F86648E978303841713046D2
:10114000FFF7C4F86249062230393046FFF7EDF860
:1011500062B672B6614E304600E005E0FFF714F863
:1011600062B600216E614DE0584803899C46002B11
:1011700003D1012D01D9002A10D0AC4557D1012D42
:1011800055D95248C388501E834250D194454ED9F8
:101190000020361FB6B24C4D00901AE0002282614A
:1011A000C2610581C2806254491C4171464B11469F
:1011B0005C18A47A1202491CA21889B20429F7D338
:1011C000826142E029188A7A00995118401C80B245
:1011D0000091B042F6D33C4831460A30FEF7BEFFDC
:1011E000002004E02918897A2954401C80B2B042BA
:1011F000F8D3364D3449F2086869FFF796F80028AD
:1012000005D0012168792154401C68711DE068698E
:10121000002180196861E888401CE88068792154C1
:10122000401C6871E96900980818E8610DE02748DA
:10123000AC4530D1012D2ED9C38893422BD1944592
:1012400029D900226254491C41710198002831D0EB
:101250001E4C6178814220D0FF281ED02AE01B4816
:10126000C3698269934204D1C2880389521C9A429D
:1012700002D00289002A01D1002E01D00222E1E72A
:1012800003890A22002B01D00271DAE7C3780C2B04
:1012900001D0FF2BF8D10122D4E7042F06D1322050
:1012A00000F0DAF900F0DEF90028FBD06179084897
:1012B00000F02AF9042F06D1642000F0CDF900F0E7
:1012C000D1F90028FBD0FEBD6803002000000020FB
:1012D000B800002000380008FE07000000400008A9
:1012E000FEE7000006480169490849000161054917
:1012F0004868054A1061D060096881F30888004792
:1013000000E000E0004000080000002030B5054685
:10131000C80701D0002030BD4C08002306E058006B
:10132000401900F007F8D0545B1C9BB2A342F6D3DF
:10133000204630BD0178412901D2303904E06129CD
:1013400001D2373900E0573909074078090E4128A2
:1013500001D2303904E0612801D2373900E0573931
:101360004018C0B2704710B500220DE0835C302BEE
:101370000CD31C463A3C072C08D30D3C1A2C05D341
:10138000662B03D8521C92B28A42EFD38A4201D113
:10139000012010BD002010BD30B50446C80701D0A3
:1013A000002030BD4D0800231A4607E05000001908
:1013B000FFF7C0FFC018521CC3B292B2AA42F5D3C5
:1013C000D843401CC0B230BD70B51B4900230E7815
:1013D00001220225194C002E04D0012E14D0022E19
:1013E00016D126E03A2802D00D2802D002E04B8028
:1013F00000E00A704A88A054521C90B24B22D200DE
:101400004880904204D270BD3A2803D00A2805D003
:101410000D7070BD0B7020704A8070BD0D704B88D0
:10142000E0545B1C4B800648064902700C20087093
:1014300070BD3A28EED070BD800000206803002007
:10144000870000200000002002090A2A01D2303261
:1014500000E037320007000F0A700A2801D230304E
:1014600000E0373048707047F3B5060021D01949C5
:10147000087800281DD0184C6088002819D0002258
:101480000A70C01E154D81B2681CFFF76CFF002862
:1014900011D06088401F81B2681CFFF77DFF0246B3
:1014A00060882818001FFFF745FF904205D00227EB
:1014B00004E00020FCBD0120FCBD0327608832460B
:1014C000401F81B2681CFFF721FF01990880384650
:1014D000FCBD000087000020800000206803002081
:1014E000F0B507464804050C16460C46002306E0F6
:1014F00058008119F85CFFF7A7FF5B1C9BB2A34261
:10150000F6D32846F0BD000070B5002907D00028AA
:1015100005D04A004B23DB00521D9A4201D900201E
:1015200070BD0F4C3A222270621CFFF7D9FF401C9D
:1015300085B2681E81B2601CFFF72EFF6119FFF7AC
:1015400083FFAD1CA8B20D212154401C80B20A219A
:101550002154401C81B2204600F08EF880B270BD4C
:101560001001002070B586B014216846FEF7D9FD41
:101570001348426B04210A434263426B0A400592BE
:10158000416B012529434163416B29400591416B22
:10159000022421434163406B0A4E20400590002203
:1015A00010213046FFF75DF81020009000200290D7
:1015B0000195694603943046FEF7B2FF06B070BD50
:1015C000001002400004005070477047704710B58B
:1015D00000F038F8FFF752F810BD30B591B0342163
:1015E0006846FEF79EFD002401200D940E940F9492
:1015F00040021094FFF7A8F80225E8010390009537
:101600004020059008200A9080030B900795000366
:1016100004940C90089509946846FFF7C1F90720D7
:101620000D900F9402210E9510940DA8FFF7B2F8BB
:1016300011B030BD01200249C0068860704700002B
:1016400000ED00E003480168002901D0491E016057
:10165000704700003000002001490860704700001A
:101660003000002003480068002801D000207047A7
:10167000012070473000002030B5024600200029CC
:1016800005D0002A03D00F4C2378002B01D0002076
:1016900030BD4B23DB000C4D994203D91946135C36
:1016A0002B54401C8842FAD3084A287890620120C3
:1016B0006070074821700068026840231A43026086
:1016C000084630BD84000020C005002000380140DD
:1016D0001808002010B5018DC90707D001684A68B5
:1016E00001235B049A43C36A1A434A60018D890748
:1016F00007D501684A6801231B049A43036B1A4308
:101700004A60018D490707D501684A6801239B0497
:101710009A43436B1A434A60018D090707D5016854
:101720004A680123DB039A43836B1A434A60018DA5
:10173000C90607D50268916801231B039943C36B4F
:1017400019439160018D890607D501688A680123D4
:101750005B039A43036C1A438A60018D490612D5D4
:1017600003685A6801210905446C8A4322435A6080
:10177000426C8A4207D10268516803235B05994392
:10178000836C19435160018D090607D501684A68C9
:101790000123DB04C06C9A4302434A6010BD000081
:1017A000FEB50546002680350446AE60FEF760FFB4
:1017B000019020680068124F000709D501210097A9
:1017C000002249052046019B00F0C0F900280DD1F8
:1017D0002068006840070BD5012100970022890589
:1017E0002046019B00F0B2F9002801D00320FEBD85
:1017F000202028606860603426770020FEBD00004D
:10180000FFFFFF0110B5806A002201464031CA8304
:10181000CA82FFF7D0FA10BD01680A68FF2321339E
:101820009A430A6001688A68044B1A408A60202241
:1018300084210A500021C16670470000FEFFFFEFBF
:10184000F8B5044680682169E269084361690026A9
:1018500011430843616E014320680268B24B1A408D
:101860000A43026021684868032212039043E26839
:1018700010434860A169206A226808439168AB4B15
:101880001940014391602068C16A626A090909012F
:101890001143C162A64A2068A64990420CD148690A
:1018A0008007800F23D0012804D002281FD00328EE
:1018B0001CD111E004201AE09F4A90420ED14869E1
:1018C0000C21084013D0042811D0082802D00C287D
:1018D0000CD101E002200AE0082008E09749884284
:1018E00002D09749884201D1002000E01020012257
:1018F000D203E169D511934B934F91426FD10028E8
:1019000006D0022835D004287AD0082869D17AE098
:10191000FEF7ECFF76E0012815D0022815D0032849
:1019200015D0042815D0052815D0062815D007286D
:1019300015D0082815D0092815D00A2815D00B284D
:1019400014D0012512E0022510E004250EE0062542
:101950000CE008250AE00A2508E00C2506E0102521
:1019600004E0202502E0402500E0802529461046BD
:101970001BE0606A002815D001282AD002282AD04E
:1019800003282AD004282DD005282DD006282DD0B4
:1019900007282DD008282DD009282DD00A282DD091
:1019A0000B2800D0012529461846FEF79DFB6168EB
:1019B00040004A088018FEF797FB80B201461039B4
:1019C000B9420ED86049491C01400007400F084346
:1019D0007FE00225E7E70425E5E70625E3E716E0D3
:1019E0000EE08CE00825DEE70A25DCE70C25DAE7C7
:1019F0001025D8E72025D6E74025D4E78025D2E773
:101A0000FEF788FF0246606A00289AD083E7002824
:101A100006D0022835D0042874D0082879D174E083
:101A2000FEF764FF70E0012815D0022815D00328C6
:101A300015D0042815D0052815D0062815D007285C
:101A400015D0082815D0092815D00A2815D00B283C
:101A500014D0012512E0022510E004250EE0062531
:101A60000CE008250AE00A2508E00C2506E0102510
:101A700004E0202502E0402500E0802529461046AC
:101A80001BE0606A002815D0012825D0022825D047
:101A9000032825D0042825D0052825D0062825D0C0
:101AA000072825D0082825D0092825D00A2827D09E
:101AB0000B2800D0012529461846FEF715FB616862
:101AC0004A088018FEF710FB80B201461039B9426F
:101AD0001FD82168C8601DE00225ECE70425EAE76D
:101AE0000625E8E70825E6E70A25E4E70C25E2E70E
:101AF0001025E0E72025DEE74025DCE702E008E0EE
:101B00008025D8E7FEF706FF0246606A0028A0D0CD
:101B100089E70126204601214030418501850020CA
:101B2000E06620673046F8BDF369FFCFFFF4FF1190
:101B3000003801404010024000440040004800408E
:101B4000004C00400024F400EFFF0000FFB581B01E
:101B500017460E4604460A9D09E0681C07D0FEF7AA
:101B600087FD0499401AA8420CD8002D0AD020689D
:101B7000C169304688431AD00020B842EDD0002019
:101B800005B0F0BD20680168FF22A13291430160D9
:101B90002068816849084900816020212046803002
:101BA000016041600020603420770320E8E70120D5
:101BB000E3E7000070B5144C2068C169134D890635
:101BC00005D513490162686AC0B2FFF7FDFB2068C2
:101BD000C169490613D50F4901620F48417802785F
:101BE000914207D30021017020680168402291438F
:101BF000016004E0094A525CAA62491C4170024833
:101C0000FFF7DAF870BD0000180800200038014026
:101C1000250500002606000084000020C0050020E5
:101C200038B519480268012189030A430260006837
:101C30000840009000F02EF8012211461B20FEF70C
:101C40007FFD1B20FEF770FD114C10482060E12045
:101C50004002606000202061A060E060A06120621E
:101C600060620C21A062616160662046FFF766F940
:101C70002068016820221143016020680168012268
:101C80001143016038BD000040100240003801409F
:101C90001808002000B50C4887B0426B01210A43A8
:101CA0004263406B0491084005901220019000208F
:101CB000029003900320400200900520694600072F
:101CC000FEF72EFC07B000BD001002408307FF2284
:101CD000DB0E9A408907090E9940002808DB83082B
:101CE00009489B001B181868904308431860704708
:101CF0000007000F0838830804489B001B18D869A8
:101D000090430843D861704700E400E000ED00E034
:101D100002E008C8121F08C1002AFAD170477047B4
:101D2000002001E001C1121F002AFBD17047000012
:101D3000FEF7ACFCFFF751FCFFF714FCFFF770FF58
:101D400072B6062236493748FEF7DCFA62B6344DE1
:101D5000354C2878A0706978617069790026E17047
:101D60000C2824D0FF2822D00C2920D0022020715A
:101D70007D27FF003846FFF76FFCFFF773FC002854
:101D80000BD0207900280BD00A2806D2012810D0C9
:101D9000401E20713846FFF75FFC20790A2808D0E2
:101DA00020780C28E9D12670FFF702F9E5E72671C3
:101DB000DEE71E4800681E490840012149078842A5
:101DC00023D172B61822174C15492046FEF79AFA0D
:101DD0002E702046FEF77AFA062211492046FEF7B9
:101DE000A4FA62B672B618220D492046FEF78AFAA6
:101DF000C02068712046FEF769FA0622084920468D
:101E0000FEF793FA62B6FFF76DFA0A4CFF25F53537
:101E100010212046FEF71EFC2846FEF7DDFAF7E704
:101E20008800002000380008000000200040000862
:101E30000000FE2F00040050000000000000000021
:101E40000000000000000000000000000000000092
:101E5000000000000000000001000000020000007F
:101E6000030000000400000006000000070000005E
:101E70000800000009000000000000000000000051
:101E8000000000000000000001000000020000004F
:101E90000300000004000000B81E0008000000203D
:101EA00088000000101D0008401F00088800002066
:101EB000200C0000201D00080000000000000000B1
:101EC0000000000000000000000000000000000012
:101ED00000000000000000000400000001000000FD
:101EE000000000000024F400000000005368656E4C
:101EF0005A68656E20536F77617920536369656E08
:101F0000636520616E6420546563686E6F6C6F67F3
:101F10007920446576656C6F706D656E7420436FD3
:101F20002E2C204C74642E20202020000000000065
:101F3000000000000000000002000000000000009F
:04000005080000B936
:00000001FF
