:020000040800F2
:1040000080170020CD400008B16C0008CD5D00088D
:1040100000000000000000000000000000000000A0
:10402000000000000000000000000000916E000889
:104030000000000000000000696D0008A96E000883
:10404000DF40000800000000DF400008DF400008FB
:10405000DF400008DF400008DF400008DF400008C4
:1040600000000000DF400008DF400008DF400008DB
:10407000DF400008416F0008DF400008000000003A
:10408000996F0008DF400008DF400008DF400008AB
:10409000DF400008DF400008DF400008DF40000884
:1040A000DF400008DF400008DF400008DF40000874
:1040B000DF400008DF4000080348854600F0ECF8C8
:1040C000004800473D8100088017002004488047D1
:1040D00004480047FEE7FEE7FEE7FEE7FEE7FEE7EF
:1040E000316F0008B940000830B50B46014600208A
:1040F0002022012409E00D46D5409D4205D31D46EE
:104100009540491B2546954040191546521E002DE5
:10411000F1DC30BD70B500242546002801DA012409
:104120004042002901DA01254942FFF7DDFFAC4298
:1041300000D04042002C00D0494270BDF0B51FB401
:104140000646002082B005464024019100901BE005
:10415000019922460F46304600F08CF8049A059BE0
:10416000801A994110D310461946224600F072F881
:10417000361A8F410197224601200021009F00F04E
:1041800069F838184D4100902046641E0028DFDC95
:10419000019B00982946324607B0F0BDF0B51FB428
:1041A00086B000200090019002900698069980B297
:1041B00004900798090C020400141143079000278B
:1041C000089D099806913E463C4603900398A9B283
:1041D0000204000C039004982D0C15434843002161
:1041E000224600F037F8C719714110340E46402CB2
:1041F000ECDB3846029A00F02DF8009A019B8018FB
:104200000090594102980191103002904028CCDB77
:1042100000980BB0F0BDD2B201E00270401C491E04
:10422000FBD270470022F6E710B513460A46044653
:104230001946FFF7F0FF204610BD30B504460020B8
:10424000034600E05B1C934203D2E05CCD5C401B64
:10425000F8D030BD10B5202A04DB0146203A914049
:10426000002010BD914020239C1A0346E3401943CF
:10427000904010BD10B5202A04DB0846203AD040FB
:10428000002110BD0B46D340D0402024A21A9140FB
:104290000843194610BD0000064C0125064E05E0F6
:1042A000E36807CC2B430C3C98471034B442F7D357
:1042B000FFF706FF348200085482000870B58D189D
:1042C0000478401CA207920F01D10278401C2311F0
:1042D00006D10378401C03E006780E70401C491C90
:1042E000521EF9D1002B15D002780C268A1A3440C0
:1042F000401C0C2C03D0A401121B9B1C08E004786A
:104300002402121B401CF8E714780C70491C521C44
:104310005B1EF9D5A942D3D3002070BD10B58CB077
:10432000032400BF72B60F4800F060F906220E4960
:104330000C4800F0BBF9182269460A4800F0A3F9BE
:1043400062B6302208496846FFF777FF002800D19F
:1043500004E02046611ECCB20028E3D100BF0CB0BF
:1043600010BD000000300008840F002010B50020B0
:1043700000221F4B1B78D91ECB0F5B18DB031A0CD6
:1043800001201CE01B49095C302909DB1949095C43
:10439000392905DC1749095C3039164B19540CE0F2
:1043A0001449095C412908DB1249095C462904DCEF
:1043B0001049095C37390F4B1954411C88B20C491C
:1043C0000978891E8142DDDC00200DE04100491C96
:1043D000084B595C0B014100891C064C615C591863
:1043E00023461954411C88B29042EFDB10BD0000F7
:1043F0006B0F0020B40F002000201F4908701F48D9
:10440000807948701D48007A88701C48807AC8708E
:104410001A48007D087119480088088217484188A9
:104420001548418215488188134881821348C18804
:104430001148C182114801890F4801830F48418901
:104440000D4841830D4881890B4881830B48C18900
:104450000948C1830948418A074841840748818A3D
:10446000054881840548C18A0348C1840348018BFB
:104470000148018570470000840F0020360D0020A0
:104480000146002000BF00E0401C0628FCD3704716
:1044900070470000034840690349084301494861E7
:1044A000704700000020024004000100074A5269E2
:1044B000FF23F9339A431146C20001231B041A4318
:1044C000921C0A43014B5A617047000000200240D1
:1044D00010B50849496901242143064C6161026015
:1044E00000BF00BF00BFBFF36F8F00BF00BF00BFA2
:1044F000436010BD00200240F0B502460023144680
:104500000D46114E76690127BF043E430E4F7E6172
:1045100000BFEFF31086304672B605E02E682660C5
:104520002D1D241D5E1CF3B2402BF7D300BF064E99
:10453000366901273F043E40002EF8D100BF80F3CA
:10454000108800BFF0BD00000020024070B5044696
:1045500000F0B8FA061908E0601C002805D000F049
:10456000B1FAB04201D3032070BD1D48006901219A
:1045700009040840000C0028EED1194800691949C7
:104580000840054616488069490708400543002D44
:104590000FD0154840682843134948601148104916
:1045A000086108468069490408430D498861012073
:1045B000DAE700F087FA061908E0601C002805D049
:1045C00000F080FAB04201D30320CDE7044800692F
:1045D000012189040840800C0028EED100BFC3E708
:1045E00000200240FAC300006413002070B50446A6
:1045F0000025204600F0BEF810490860012010494F
:10460000086002200F4908600C48006848600C48A8
:104610000068886000F04EF90B490A4800F0B0F8D5
:1046200000BF0A4880690321890708430749886158
:104630000748086100BF284670BD0000E006002062
:10464000E40600207C100020EC0600200020024040
:10465000FAC3000010B5084800F012F804460748F5
:10466000844206D0FFF7C8FE03F0F6FCFFF756FEC3
:1046700001E002F07BFB10BD10380008555500002A
:10468000014608887047F8B504460E46174600F004
:1046900011F9002505E0208869007052A41C681CEF
:1046A00085B2BD42F7DB00F0B7F8F8BDF0B585B0D4
:1046B00005460E461746002400BF0FE0E000301804
:1046C00003C803910290E000401901900B46014697
:1046D0000120029A00F0B2F8601C84B2BC42EDDB0B
:1046E00005B0F0BD10B500241E480088002805D094
:1046F00000201C4908801124204610BD1A48808CD7
:10470000012803D119480078052807DB1648808C5A
:10471000022806D115480078092802DA122420461A
:10472000EBE71148808C022801D1FFF71FFE0F48EC
:1047300001780F4801F04CFB002802D010242046DD
:10474000DBE70B4802F023F80749C98A884207D003
:10475000074802F01CF8002802D013242046CCE7BA
:104760002046CAE7C0020020840F00206B0F002003
:10477000B40F002001460120C006081AC00A704785
:10478000F8B504460F4600BF21480078012801D142
:104790000220F8BD01201E49087000BF00204860BB
:1047A0007D20C000FFF7D2FE0646002E28D12068EB
:1047B000042807D1FFF76EFE7D20C000FFF7C6FE7C
:1047C00006461DE00020C043386065680CE02846BE
:1047D000FFF76CFE7D20C000FFF7B8FE0646002EF6
:1047E00001D03D6005E06D1CA16860684018A842DA
:1047F000EDD800BF07484069022188430549486158
:1048000000BF00200249087000BF3046C1E7000029
:104810006413002000200240012007494969C207B3
:104820001143054A516111464969C90FC907002959
:1048300000D000207047000000200240F0B51FB4F7
:10484000064614461D4600BF18480078012802D1CC
:10485000022005B0F0BD01201449087000BF0020FF
:1048600048607D20C000FFF771FE0746002F15D17C
:10487000012E05D122462B460198FFF729FE03E0C1
:1048800021460198FFF738FE7D20C000FFF75EFE4D
:10489000074607484069B0430549486100BF00200A
:1048A0000249087000BF3846D3E7000064130020B7
:1048B00000200240002009494969C90FC9070029A1
:1048C0000BD00749054A9160064991601146496934
:1048D000C90FC907002900D00120704700200240FD
:1048E00023016745AB89EFCD70B503460022D5E0C3
:1048F000012696400C683440002C71D04D68022D82
:1049000002D04D68122D15D1D508AE001D462035B8
:10491000A8595507EE0E0F25B5400646AE43304662
:104920005607F60E0D69B5402843D508AD001E4662
:1049300020367051186856000325B5400646AE4330
:1049400030460D79AD07AD0F5600B54028431860CD
:104950004D68012D08D04D68022D05D04D68112DF0
:1049600002D04D68122D18D1986856000325B54025
:104970000646AE4330465600CD68B54028439860A1
:104980005868012595400646AE43304610264D68CE
:1049900035402D09954028435860D86856000325B6
:1049A000B5400646AE43304656008D68B5402843B4
:1049B000D860012636074D683540B5426DD13A4D75
:1049C0009608B600A8599507EE0E0F25B540064685
:1049D000AE43304605252D07AB4202D1002510E03D
:1049E0005BE0324DAB4201D101250AE0304DAB42D4
:1049F00001D1022505E02F4DAB4201D1032500E096
:104A000005259607F60EB5402843274D9608B600B3
:104A1000A851254D203528680546A543284601267E
:104A200036044D683540B54202D105462543284637
:104A30001D4D2035286068680546A5432846012697
:104A400076044D683540B54202D1054625432846D7
:104A5000154D20356860144D603D28680546A54316
:104A60002846012636054D683540B54202D1054637
:104A7000254328460C4D603D286068680546A543DF
:104A80002846012676054D683540B54202D10546D7
:104A900025432846044D603D6860521C0D68D54092
:104AA000002D00D024E770BD6018024000040050C3
:104AB00000080050000C0050002A01D0816100E085
:104AC000816270470148006870470000740F002041
:104AD00003480068034909684018014908607047A5
:104AE000740F00207C0F002010B5002408480068D7
:104AF000FF210131084306490860002000F00AF850
:104B0000002801D0012401E000F034F8204610BD57
:104B100000200240F8B5044600251348006800282C
:104B20001ED0114801687D20C000FFF7DDFA07465E
:104B300039460E480068FFF7D7FA064600F04AFEED
:104B400000280BD1042C07D200222146401E00F081
:104B50003FF80748046004E0012502E0012500E079
:104B600001252846F8BD00007C0F0020800F0020A2
:104B7000780F002008B500BF0E48006801210843E7
:104B80000C49086008460068C007C00F009000BFCD
:104B900000BF00BF07484038C06B8905084305497E
:104BA0004039C8630846C06B09040840009000BF44
:104BB00000BF08BD4010024000BFC206D20E012156
:104BC0009140024A116000BF7047000000E100E020
:104BD00070B504460D4616462946204602F06AF88E
:104BE00070BD000070B504461148006803214902F9
:104BF000884320430E4908604815844216D10D4968
:104C000009680622514308460B49FFF76DFA451C17
:104C100005E0002D01D06D1E01E0032070BD0448A9
:104C200040690121890208408842F2D00020F5E75E
:104C300000700040800F002040420F00FEB5044687
:104C40000027002002900121490420680840884282
:104C50007BD100200190B348C06BC90208400028F6
:104C60000ED100BFAF48C06B0843AE49C8630846C9
:104C7000C06B09040840009000BF00BF01200190F4
:104C8000A9480068FF2101310843A7490860FFF7E0
:104C900019FF064606E0FFF715FF801B022801D921
:104CA000032706E0A0480068FF21013108400028E2
:104CB000F1D000BF002F4BD19A484030C569032185
:104CC00009020D40002D1AD0206BA84217D095483C
:104CD0004030C0698843054692484030C069012190
:104CE000090408438F494031C8610846C069012161
:104CF000090488438B494031C8610846C561E8070B
:104D0000C00F002813D0FFF7DDFE064607E0FFF7CF
:104D1000D9FE801B8549884201D9032706E08148D6
:104D20004030C069022108400028F0D000BF002FA9
:104D30000CD17C484030C069032109028843216BB3
:104D4000084378494031C86103E00DE0029700E074
:104D500002970198012806D17248C06B012109070A
:104D600088437049C86300BF2078C007C00F00287F
:104D700009D06C4840304069800880006168084371
:104D8000684940314861022120680840022809D161
:104D90006448403040690C218843A1680843614958
:104DA0004031486120212068084020280AD15D4810
:104DB00040304069032189028843E168084359492A
:104DC00040314861012149022068084088420AD1E7
:104DD000544840304069032189048843A16908434D
:104DE00050494031486101218902206808408842C9
:104DF0000AD14C4840304069032109058843E169E4
:104E00000843484940314861402120680840402813
:104E10000AD144484030406903210903884321698D
:104E20000843404940314861012189032068084016
:104E3000884213D13B484030406980008008216A95
:104E400008433849403148610906206A884205D143
:104E50003448C068891308433249C8600121C90435
:104E600020680840884209D12E48403040694021DE
:104E70008843616A08432B49403148610121490553
:104E800020680840884214D12648403040694900D3
:104E90008843A16A084323494031486101218905BB
:104EA000A06A884205D11F48C068890008431D498F
:104EB000C8600121890520680840884213D119483B
:104EC0004030406989008843E16A08431549403110
:104ED000486101210906E06A884204D11148C0688E
:104EE00008431049C8600121C9022068084088426F
:104EF00015D10C484030406903218903884361691A
:104F000008430849403148610121890360698842AA
:104F100005D10448C068890008430249C860029866
:104F2000FEBD000000100240007000408813000029
:104F300070B504460D46002C01D1012070BD6A48B1
:104F400000684007400FA84218D267480068C008B0
:104F5000C000284364490860FFF7B4FD064607E037
:104F6000FFF7B0FD801B6149884201D90320E5E7C6
:104F70005D4800684007400FA842F1D10221206837
:104F80000840022815D1042120680840042807D1D0
:104F900057488068072109038843401854498860AE
:104FA000534880680F2109028843A168084350498B
:104FB00088602078C007C00F002854D0606801289E
:104FC00008D14B48006801214904084000282ED12F
:104FD0000120B3E76068022808D145480068012134
:104FE00049060840002822D10120A7E76068002870
:104FF00008D13F480068012189020840002816D1E5
:1050000001209BE76068032808D139484030006AD6
:105010000221084000280AD101208FE7344840309F
:10502000C06902210840002801D1012086E73048EC
:105030008068C008C000616808432D498860FFF798
:1050400041FD064607E0FFF73DFD801B27498842EA
:1050500001D9032072E7264880683821084061683A
:10506000C9008842EFD1204800684007400FA8429D
:1050700018D91D480068C008C00028431A490860B4
:10508000FFF720FD064607E0FFF71CFD801B1749D0
:10509000884201D9032051E7134800684007400FB8
:1050A000A842F1D1042120680840042808D1104802
:1050B0008068072109038843E16808430C49886038
:1050C00000F036F80A4989680F2212021140090AD5
:1050D0008900084A515CC906C90EC84006490860E3
:1050E0000020FFF717FD29E7002002408813000089
:1050F00000100240D4810008800F002001480068A1
:1051000070470000800F002000B5FFF7F7FF064949
:105110008968072212031140090B8900034A515C78
:10512000C906C90EC84000BD001002401482000824
:10513000FEB5354880683821084000280DD1324836
:10514000006809020840C10A0120884000902F48E9
:105150000099FEF7C9FF044654E02B4880683821C7
:105160000840082801D12A4C4CE0274880683821A3
:105170000840102834D12448C0688607B60F22485A
:10518000C068702108400009401C0190022E0FD019
:10519000032E0CD11E480199FEF7A6FF1A49C968D3
:1051A0007F2212021140090A484305460DE000BF64
:1051B00016480199FEF798FF1349C9687F22120229
:1051C0001140090A4843054600BF00BF0E48C068A9
:1051D000400F471C39462846FEF786FF044611E07B
:1051E0000948806838210840202801D1840209E05C
:1051F0000548806838210840182802D17D242402FF
:1052000000E000242046FEBD001002400024F4000F
:1052100000127A00FEB50446002C01D10120FEBD2B
:105220002078C007C00F00286FD0F7488768382162
:105230000F40C0688607B60F102F01D1032E01D092
:10524000082F0BD1F04800680121490408400028CC
:105250005BD06068002858D10120E0E700BF012141
:1052600009046068884205D1E74800680843E649B8
:10527000086021E005210904606888420ED1E248F7
:105280000068012189040843DF4908600846006876
:10529000012109040843DC4908600DE0DA48006890
:1052A000012109048843D8490860084600680121A3
:1052B00089048843D449086000BF6068002812D080
:1052C000FFF700FC054606E0FFF7FCFB401B6428E7
:1052D00001D90320A3E7CC48006801214904084014
:1052E0000028F1D011E0FFF7EDFB054606E0FFF7DF
:1052F000E9FB401B642801D9032090E7C2480068FD
:105300000121490408400028F1D102212068084009
:10531000022872D1BC488068382108400746BA4844
:10532000C0688607B60F102F01D1022E01D0002FC2
:1053300035D1B5480068012189020840002804D011
:10534000E068002801D1012069E7AF4840687F216B
:1053500009028843616909020843AB494860002F8C
:1053600016D1084600680721C9028843216908430D
:10537000A5490860084600680722D2021040C20A08
:10538000012090400146A148FEF7AEFEA04908600A
:105390000020FFF7BFFB002849D001203FE7E0686D
:1053A00000282BD0984800680721C902884321694A
:1053B00008439549086008460068891508439249E2
:1053C0000860FFF77FFB054606E0FFF77BFB401B0D
:1053D000022801D9032022E78B48006801218902B5
:1053E00008400028F1D0884840687F21090288439E
:1053F0006169090208438449486018E082480068EE
:10540000FF210131884380490860FFF75BFB0546B7
:1054100006E0FFF757FB401B022801D90320FEE6F8
:10542000794800680121890208400028F1D108214B
:1054300020680840082849D173488068382108400E
:1054400018280BD170484030006A0221084000281B
:105450003CD0A069002839D10120E0E6A0690028ED
:105460001AD069484030006A01210843664940313A
:105470000862FFF727FB054606E0FFF723FB401B0A
:10548000022801D90320CAE65F484030006A0221A1
:1054900008400028F1D019E05B484030006A40081D
:1054A0004000594940310862FFF70CFB054606E011
:1054B000FFF708FB401B022801D90320AFE6524842
:1054C0004030006A022108400028F1D10421206800
:1054D000084004287DD1002001904B488068382185
:1054E000084020280BD148484030C06902210840BC
:1054F00000286FD0A06800286CD101208FE64248B8
:10550000C06B010F01208843002810D000BF3E4827
:10551000C06B0121090708433B49C8630846C06BBB
:1055200009040840009000BF00BF012001903948E5
:105530000068FF2101310840002816D13548006875
:10554000084334490860FFF7BDFA054606E0FFF757
:10555000B9FA401B022801D9032060E62D480068F3
:10556000FF21013108400028F1D000BFA0680128C8
:1055700008D125484030C069012108432249403103
:10558000C86121E0A06805280FD11F484030C069DC
:10559000042108431C494031C8610846C069012103
:1055A000084319494031C8610EE017484030C069CE
:1055B0004008400014494031C8610846C0690421D0
:1055C000884311494031C86100BFA068002816D047
:1055D00001E03EE03CE0FFF775FA054607E0FFF723
:1055E00071FA401B0C49884201D9032017E606488E
:1055F0004030C069022108400028F0D01CE0FFF7CD
:1056000061FA054612E00000001002400024F40098
:10561000800F00200070004088130000FFF752FA4E
:10562000411B6848814201D90320F8E56648C069FA
:10563000022108400028F1D10198012808D16248D0
:105640004038C06B0121090788435F494039C8636E
:1056500000BFE06900285CD05B4840388068382192
:10566000084010286FD0E069022853D156484038CE
:105670000068012109068843534940390860FFF753
:1056800021FA054606E0FFF71DFA401B022801D962
:105690000320C4E54C484038006801214906084011
:1056A0000028F0D1616A206A0843A16A0902084310
:1056B000E16A0843216B0843616B08434249403962
:1056C000C968424A114008433F494039C86008460A
:1056D00000680121090608433B4940390860084633
:1056E000C0680904084338494039C860FFF7EAF93F
:1056F000054606E0FFF7E6F9401B022801D9032022
:105700008DE53148403800680121490608400028ED
:10571000F0D054E02C484038006801210906884345
:105720002949403908600846C06880088000C86080
:105730000846C0682649084023494039C860FFF739
:10574000C1F9054607E00FE0FFF7BCF9401B02284E
:1057500001D9032063E51C4840380068012149064F
:1057600008400028F0D12AE0E069012800D156E580
:1057700015484038C668B107890F206A81421CD19C
:1057800070203040616A884217D17F20000230408B
:10579000A16A0902884210D11F2040043040E16A0A
:1057A00088420AD1072040063040216B884204D14C
:1057B000710F4907606B814201D001202FE5002065
:1057C0002DE5000088130000401002408C80C111BC
:1057D000FFFFFEEE70B504462546681E0949884263
:1057E00001D901200CE0681E074948610321081F08
:1057F00001F060FA00200449886107200861002058
:1058000070BD0000FFFFFF0000E000E030B5024681
:105810000B4600BF3C20805C012801D1022030BD36
:1058200001253C20855400BF02253D208554106889
:10583000416810688468124D1068A84206D10F258F
:105840002D050846A84301465868014370250846BF
:10585000A84301461868014380252046A843044612
:1058600098680443106841601068846001253D20F9
:10587000855400BF00253C20855400BF0020CEE7A2
:10588000002C014010B50446002C01D1012010BDB0
:105890003D20005D002805D100213C200155204617
:1058A00000F00CF802213D200155211D206801F077
:1058B000B1FB01213D2001550020E8E770470000C1
:1058C000014602233D20435408688068094B184074
:1058D0000246062A08D0D81F824205D00868006810
:1058E000012318430B68186001233D204354002016
:1058F000704700000700010001460868C0680123E6
:1059000018430B68D86008688068084B1840024646
:10591000062A08D0D81F824205D0086800680123F3
:1059200018430B6818600020704700000700010052
:10593000014602223D20425400BF0868006A0B4A1B
:10594000104000280BD10868006A9210104000280F
:1059500005D108680068400840000A68106000BF70
:1059600001223D2042540020704700001111000028
:10597000F8B504460D4600BF3C20005D012801D16A
:105980000220F8BD01213C20015500BF02213D202D
:1059900001552068866839480640FF2109023046D3
:1059A00088430646206886602868502834D00CDC7E
:1059B000202851D004DC00284CD0102852D14AE0D5
:1059C00030284AD040284DD13AE060282ED07028A7
:1059D00007D001210903401A02D0401A42D10DE03C
:1059E00041E0EB686A68A968206801F06BFB2068F9
:1059F0008668772006432068866034E0EB686A6832
:105A0000A968206801F05EFB206880680121890395
:105A100008432168886026E0EA686968206801F028
:105A20006BFB5021206801F05BFB1CE0EA686968B1
:105A3000206801F07AFB6021206801F051FB12E040
:105A4000EA686968206801F057FB4021206801F08E
:105A500047FB08E000BF00BF00BF2968206801F0D5
:105A60003FFB00E000BF00BF01213D20015500BF0A
:105A700000213C20015500BF002082E788FFCEFFB7
:105A8000014600BF7C20405C012801D10220704704
:105A900001237C20435400BF242380204350086806
:105AA000026808680068400840000B68186001231D
:105AB0005B0710469843024600204866086802606B
:105AC00020238020435000BF00237C20435400BF8C
:105AD0000020DCE770B504460D4600BF7C20005D69
:105AE000012801D1022070BD01217C20015500BF99
:105AF0002421802001512068066820680068400841
:105B000040002168086020688068072149068843B2
:105B1000284321688860204601F020FB2068066049
:105B200020218020015100BF00217C20015500BFB1
:105B30000020D8E770B504460D4600BF7C20005D0C
:105B4000012801D1022070BD01217C20015500BF38
:105B500024218020015120680668206800684008E0
:105B600040002168086020688068C000C0082843A1
:105B700021688860204601F0F1FA20680660202143
:105B80008020015100BF00217C20015500BF002072
:105B9000D9E710B50446002C01D1012010BDA06941
:105BA000002800D000E000BF80200059002805D167
:105BB00000217C200155204600F02CF82421802073
:105BC00001512068006840084000216808602046B4
:105BD00001F0B8FB012800D1E0E7A06A002802D05C
:105BE000204601F0FDFA206840680921C902884377
:105BF00021684860206880682A218843216888607D
:105C0000206800680121084321680860204601F0EF
:105C10005FFBC3E710B586B00446142101A8FEF768
:105C200001FB25492068884244D100BF2348C06B4E
:105C3000490108432149C8630846C06B0121090591
:105C40000840009000BF00BF00BF1C48406B01210E
:105C500008431A4948630846406BC007C00F0090CC
:105C600000BF00BF00BF0846406B02210843134934
:105C700048630846406B02210840009000BF00BF07
:105C80000C2001900220029000200390022004903A
:105C90000620059001A905200007FEF725FE022039
:105CA00001900120029003900220049001A9044871
:105CB000FEF71AFE06B010BD008000400010024042
:105CC00000040050FFB583B004460D4617468020FF
:105CD0000059202878D1002D01D0002F02D10120B9
:105CE00007B0F0BD01210903A068884208D12069EE
:105CF000002805D1E807C00F002801D00120EFE7F8
:105D000000BF7C20005D012801D10220E8E70121CD
:105D10007C20015500BF00218820015121218020D5
:105D20000151FEF7CFFE0190542007535620075330
:105D300001210903A068884205D12069002802D109
:105D40000026029502E02E460020029021E00698EF
:105D50000090002280212046019B02F045F9002896
:105D600001D00320BCE7002E09D102980088C005AD
:105D7000C00D216888620298801C029003E0307890
:105D800021688862761C5620005B401E81B2562036
:105D900001535620005B0028D9D1069800900022BC
:105DA00040212046019B02F01FF9002801D003206A
:105DB00096E720218020015100BF00217C20015561
:105DC00000BF00208CE7FFE7022089E700BFFEE765
:105DD000F0B506460C4600270E48808C012807D1F6
:105DE0002146304600F0A4FC002810D010270EE019
:105DF0000848808C02280AD1E51EE80F4019C0052A
:105E0000010E304600F0B0FC002800D010273846C4
:105E1000F0BD0000840F002010B5002000210022FA
:105E2000144B9B781B02134CE4781B1999B2114B4D
:105E30001B791B020F4C64791B199AB20D4B5B78CE
:105E4000032B01D0012010BD302901D1012A01D03E
:105E50000220F8E70223084CA370084BDB8A1B12D0
:105E6000E370064B9B7D23710523054C237000BF17
:105E7000E9E70000B40F002088100020840F002004
:105E8000F1080020FCB5002100200022002300249E
:105E9000002500950195234DEE8A6D462E80214DFB
:105EA0002E8B6D466E801F4D6E8B6D46AE801E4DE7
:105EB0002D792D021C4E7679AD19AAB21A4DAD7806
:105EC0002D02194EF678AD19ABB29D186D1EACB20D
:105ED000322C01DC032A01DD0220FCBD55062D0E0B
:105EE000124EB570002115E01D46303D6D186D0055
:105EF0006E46755B2E124D00ED1C0C4F7E551D46F7
:105F0000303D6D186D006E46765D4D002D1D7E5541
:105F10004D1CE9B29142E7DB5500ED1C044E357093
:105F200000BFDAE7840F0020B40F002088100020A3
:105F3000F108002030B500240025124880780002C6
:105F40001049C978401885B2322D0CD004DC302DB0
:105F500007D0312D10D105E03F2D08D0602D0BD199
:105F600006E000BF00BFFFF78DFF044606E000BF5C
:105F700000F00AF8044601E0022400BF00BF2046FA
:105F800030BD0000B40F002010B500200022002119
:105F9000164B9B781B02154CE4781B1999B2134BD6
:105FA0001B791B02114C64791B199AB2012A01D08A
:105FB000022010BD02230E4CA3703F2906D10D4BC9
:105FC000DB8B1B12E3700B4B9B7F2371602908D185
:105FD000084B9B8C1B12064CE370064B10331B7D49
:105FE00023710523044C237000BFE2E7B40F0020A7
:105FF00088100020840F0020F108002010B5002038
:1060000000210022714B1B791B02704C64791B1913
:1060100099B26E4B9B781B026C4CE4781B199AB2B8
:10602000022A04D0042A75D0062A70D1B0E00229D1
:1060300014D10423664CA3700023E370654B1B78D6
:106040002371644B5B786371624B9B78F02423402F
:106050005F4CA3710723604C23705AE0042922D1BE
:1060600008235B4CA3700023E3705A4B1B78237109
:10607000584B5B786371574B9B78F0242340544C0A
:10608000A3710023E371554B1B782372534B5B784C
:106090006372524B9B78F02423404D4CA3720B2328
:1060A0004D4C237035E0062932D10C23484CA370A7
:1060B0000023E370474B1B782371464B5B78637179
:1060C000444B9B78F0242340414CA3710023E3719F
:1060D000424B1B782372414B5B7863723F4B9B783A
:1060E000F02423403A4CA3720023E3723C4B1B780C
:1060F00023733B4B5B786373394B9B78F0242340CD
:10610000334CA3730F23344C237002E002E058E0B9
:10611000022058E0022914D104232D4CA37000233F
:10612000E3702E4B1B7823712C4B5B7863712B4BE8
:106130009B78F0242340264CA3710723264C237020
:1061400025E0042922D10823214CA3700023E37108
:10615000224B1B782372214B5B7863721F4B9B7819
:10616000F02423401A4CA3720023E3721C4B1B78CB
:1061700023731B4B5B786373194B9B78F02423408C
:10618000134CA3730F23144C237000E002201AE079
:10619000022914D104230E4CA3700023E3700F4B8B
:1061A0001B7823710D4B5B7863710C4B9B78F0244B
:1061B0002340074CA3710723074C237000E0022003
:1061C00001E0022000BF00BF10BD0000B40F00209E
:1061D00088100020C8020020F1080020CB02002017
:1061E000CE02002070B50024002509488078000206
:1061F0000749C978401885B2512D03D100F00AF83B
:10620000044601E0022400BF00BF204670BD00002C
:10621000B40F002070B50024002519480079000251
:1062200017494979401885B216482818002804D023
:106230001549401800280ED102E0FEF76FF80DE076
:10624000182212491248FEF71EFA01F005FF052038
:106250001049087002E00324204670BD00BF0020F2
:106260000D4988705120C8700548007908710448AC
:10627000407948710620094908702046EDE7000082
:10628000B40F002056AAFFFFAA56FFFF840F00207C
:1062900000300008F008002088100020F1080020DD
:1062A000FCB50021002000220023002400250095D9
:1062B0000195454D2D792D02434E7679AD19AAB23F
:1062C000414DAD782D02404EF678AD19ABB29D1818
:1062D0006D1EACB2322C01DC032A01DD0220FCBDB4
:1062E0003A4DEE8A6D462E80384D2E8B6D466E806F
:1062F000364D6E8B6D46AE80002112E04D00ED1DD7
:10630000314E755D2E024D0008352F4F7D5D75199C
:10631000AEB21D46303D6D186D006F467E534D1C6C
:10632000E9B29142EADB294D2D8B6E467688B54263
:1063300005D1264D6D8B6E46B688B54202D001253B
:10634000234E35706D462D88002D13D06D462D8857
:10635000F72D0FDC6D466D88002D0BD06D466D88D6
:10636000072D07DC6D46AD88002D03D06D46AD8846
:10637000032D01DD0320B2E76D462E88134DEE821A
:106380006D466E88114D2E836D46AE880F4D6E831F
:106390006D462D880D4E75706D466D88B5706D46D5
:1063A000AD88F570084DAD780A4EB570064DED78A4
:1063B000F570054D2D793571034D6D797571062593
:1063C000054E357000BF8AE7B40F0020840F00200F
:1063D000F008002088100020F108002070B500248B
:1063E00000251348807800021149C978401885B209
:1063F000322D0CD004DC302D07D0312D10D105E02A
:106400003F2D08D0602D0BD106E000BF00BFFFF785
:1064100047FF044606E000BF00F00CF8044601E028
:10642000022400BF00BF01F017FE204670BD00002F
:10643000B40F002070B500200022002300240021AA
:10644000254DAD782D02244EF678AD19AAB2224D15
:106450002D792D02204E7679AD19ABB21E4DAC7957
:10646000ED792D021C4E367AAD19A9B2012B01D15E
:10647000022C01D0022070BD3F2A0FD1002901D08B
:10648000082901DD0320F6E7144DE9830025144EA9
:10649000B5703F25F5700325124E3570602A11D175
:1064A000012903D0022901D00320E4E70B4DA98480
:1064B0002E46317100250A4EB5706025F570022513
:1064C000084E35700025064E35710125757106257B
:1064D000054E357000BFCEE7B40F0020840F0020BA
:1064E00088100020F0080020F108002070B500247A
:1064F00000250948807800020749C978401885B20C
:10650000402D03D100F00AF8044601E0022400BF48
:1065100000BF204670BD0000B40F002070B50024FD
:10652000002515480079000213494979401885B2C1
:10653000FF200002854217D1FF201049087000217A
:106540000E48018404200E49087000200D4988700F
:106550004020C870084800790871074840794871A0
:1065600006200949087002E00324204670BD01F0AE
:1065700073FD2046FAE70000B40F0020840F0020CE
:10658000F008002088100020F108002070B50025D8
:10659000002400260F4800780F4908700D48407805
:1065A00048700C48807800020A49C978401884B2C3
:1065B000802C02DB872C00DC0126012E04D1204632
:1065C00000F00CF8054601E0022500BF00BF284698
:1065D00070BD0000B40F002088100020FEB50546F5
:1065E00000200290002400260190009021480079AC
:1065F000000220494979401886B21E4880790190EE
:10660000A819401E80B200900098872801DD022062
:10661000FEBD71000198814201D00320F8E71548C2
:106620008078154988701348C078C870114800797F
:106630000871104840794871062010490870104FC1
:10664000002411E06000C01D0A49085C01026000DE
:106650000830084A105C081881B2284680380019B2
:1066600040003952601C84B2B442EBDB01F0F4FC10
:106670000298CDE7B40F002088100020F108002018
:10668000960F002070B50024002526484578007834
:10669000254908702348407848702248007800282F
:1066A00002D1FFF7B9FB29E0102D18D006DC032D2D
:1066B00009D0042D0BD0052D1DD10CE0252D12D0B5
:1066C000272D18D113E0FFF735FC044615E0FFF73E
:1066D00095FC044611E0FFF785FD04460DE0FFF749
:1066E0007DFE044609E0FFF701FF044605E0FFF7E1
:1066F0004DFF044601E0012400BF00BF002C0AD07A
:10670000094840788021084307494870084684704A
:1067100003200649087005480178034800F046F850
:10672000204670BDB40F002088100020F108002022
:1067300070B502460B46FF25FF2408E01178521C75
:1067400069400748405C604005460648445C18467E
:106750005E1EF3B20028F1D12002284370BD000074
:10676000E0020020E003002010B502460B460021A5
:10677000002400BF04E0505C0019C4B2481CC1B240
:106780009942F8DBFF200130001BC0B210BD01466A
:106790000878704710B50346002000BF03E00C5C8A
:1067A0001C54441CE0B29042F9DB10BDF0B5B5B00A
:1067B00006460D460024002700200290019046481E
:1067C0000088012820D129463046FFF7B1FF01900B
:1067D000694601980872019800124872012202214C
:1067E0003E48FEF769F93E4B2A4631463D48FFF7E1
:1067F00069FA3B4B022202A93A48FFF763FA0022EA
:1068000002213648FEF758F93348008802285BD148
:106810003A206946087300240DE0305D01116000E4
:10682000401C03AA1154305D0107090F6000801C51
:106830001154601CC4B2AC42EFDB29463046FFF76E
:1068400093FF074639116800401C03AA1154390709
:10685000090F6800801C1154012417E003A8005D93
:10686000092804DC03A8005D303003A9085503A8FB
:10687000005D0A2808DB03A8005D0F2804DC03A8DC
:10688000005D373003A90855601CC4B26800801C45
:10689000A042E3DA0D216800C01C03AA11540A21AA
:1068A0006800001D1154012202210C48FEF704F972
:1068B0006800421D0A4B03A90A48FFF703FA0022A9
:1068C00002210648FEF7F8F807480078002801D0B2
:1068D00001F0EAFB35B0F0BDC20200200004005018
:1068E000FFFF000010120020F008002000B587B064
:1068F000142102A8FDF796FC00BF3048406B01212F
:1069000008432E4948630846406BC007C00F0190FA
:1069100000BF00BF00BF0846406B02210843274963
:1069200048630846406B02210840019000BF00BF49
:106930000220029001200390002004900320059083
:1069400002A905200007FDF7CFFF01200290039068
:10695000022004900320059002A91948FDF7C4FF06
:1069600080200290002003900120049003200590D5
:1069700002A905200007FDF7B7FF40200290012083
:106980000390002004900320059002A90520000731
:10699000FDF7AAFF0022022105200007FEF78CF870
:1069A0000022402105200007FEF786F80022012181
:1069B0000348FEF781F807B000BD00000010024058
:1069C0000004005010B53E483E4908604B20C0010D
:1069D000486000213B488160C16001610C21416138
:1069E0000021816101624162002036498862486667
:1069F0004B20C00148603448008B01280ADB324834
:106A0000008B072806DC3048008B80002F4908588F
:106A10002C49486000212B48816001612A48408B45
:106A2000012805D003280BD12648816001610EE0C2
:106A3000012109032348816003214902016106E025
:106A4000012109031F4881608910016100BF00BF57
:106A50001C48FFF79EF8002801D0FDF719FD002122
:106A60001848FFF767F8002801D0FDF711FD002155
:106A70001448FFF72FF8002801D0FDF709FD114851
:106A8000FEF7FEFF002801D0FDF702FD00220121E4
:106A90001D20FEF79DF81D20FEF78EF809480068BE
:106AA0000068202108430749096808600548006814
:106AB00000680121084303490968086010BD00000F
:106AC0000080004010120020840F0020F80C0020ED
:106AD00000B589B0002005900690079008900290BC
:106AE0000390049000BF314800680121C9020843A7
:106AF0002E49086008460068C9140840019000BF8C
:106B000000BF2B482B4908602B48486000212948CA
:106B100081602A49C1602A48C08B01280ADB2848C5
:106B2000C08B072806DA2648C08B40002549095A41
:106B30002048C16000211F4801618161FEF7A2FE6B
:106B4000002801D0FDF7A4FC01200003059005A951
:106B50001848FEF70DFF002801D0FDF799FC002032
:106B60000290049002A91348FEF750FE002801D0BD
:106B7000FDF78EFC0120C0430E4909680861002220
:106B800011460D20FEF724F80D20FEF715F80948F0
:106B9000FEF7B2FE0748FEF793FE0948C08B0728B0
:106BA00002D10448FEF7C4FE09B000BD4010024007
:106BB000002C014050110020FFF90000E703000005
:106BC000840F0020560D002000B589B000200590EC
:106BD00006900790089002900390049000BF2F4801
:106BE000C06B022108432D49C8630846C06B0221CF
:106BF0000840019000BF00BF29482A4908600F20C3
:106C00004860002127488160016181612648C08871
:106C1000401E2449C8602548008B01280BDB23480F
:106C2000008B072807DC2148008B40001E49085ACA
:106C3000401E1C49C8601B48FEF724FE002801D0F6
:106C4000FDF726FC01200003059005A91548FEF775
:106C50008FFE002801D0FDF71BFC0020029004905D
:106C600002A91048FEF7D2FD002801D0FDF710FC64
:106C70000120C0430B49096808610122022110204C
:106C8000FDF7A6FF1020FDF797FF0648FEF734FE3C
:106C90000448FEF74DFE09B000BD000000100240A0
:106CA00000040040D0110020180D0020840F0020A7
:106CB0007047000010B5002819DA1A4A03071B0FA5
:106CC000083B9B089B00D2588307DC0EFF23A340A0
:106CD0009A438B071B0E8407E40EA3401A43114B03
:106CE0000407240F083CA408A4001A5118E00E4A17
:106CF00003231B02D21883089B00D2588307DC0EA3
:106D0000FF23A3409A438B071B0E8407E40EA34086
:106D10001A43054B032424021B198408A4001A51AA
:106D200010BD00001CED00E000E100E000BF00BF6E
:106D300000BFBFF34F8F00BF00BF00BF0648074929
:106D4000C86000BF00BF00BFBFF34F8F00BF00BFD0
:106D500000BF00BF00BFFDE70400FA0500ED00E042
:106D600000B500F097F800BD7047000010B572B68E
:106D7000182203490348FDF786FC62B610BD0000E7
:106D8000840F00200038000808B5002007E08100CB
:106D90000F4A8918096882000E4B9950401C302810
:106DA000F5D300BF0C480068012108430A49086078
:106DB00008460068C007C00F009000BF00BF07482A
:106DC000006880088000C01C0449086008BD0000FD
:106DD0000040000800000020401002400000014078
:106DE00010B50022402105200007FDF765FE0120B7
:106DF000FDF746FB0122022105200007FDF75CFE9E
:106E00000120FDF73DFB0022022105200007FDF7D0
:106E100053FE0120FDF734FB10BD10B501224021C7
:106E200005200007FDF748FE0120FDF729FB0122A0
:106E3000022105200007FDF73FFE0120FDF720FBA2
:106E40000022022105200007FDF736FE0120FDF794
:106E500017FB10BD70B504462646002515E000223C
:106E6000022105200007FDF727FE0220FDF708FBA1
:106E700080203040002802D0FFF7CFFF01E0FFF76D
:106E8000AFFF7006060E681CC5B2082DE7DB70BDAB
:106E9000704700000248808C02490880704700005B
:106EA000840F0020C202002010B5FDF711FE10BDB6
:106EB00000B59FB0382111A8FDF7B4F900200D905E
:106EC0000E900F90109034216846FDF7ABF9012029
:106ED0004002FDF787FE02201190C00114900020AF
:106EE0001590402016900020189011A8FEF792F9F6
:106EF000002801D0FDF7CCFA07200D9000200E905D
:106F00000F90109000210DA8FEF712F8002801D074
:106F1000FDF7BEFA20200090002003906846FDF7A0
:106F20008DFE002801D0FDF7B3FA1FB000BD0000B0
:106F300001480249886070470040000800ED00E009
:106F4000104800680069C007C00F01214840484050
:106F5000002816D0C81E0B490968086101200A499B
:106F600008700A480088401C80B208490880084917
:106F70000988884205DB0020044908800120054972
:106F80000880704750110020F20A0020F40A002007
:106F9000C6020020C402002010B51648006800692F
:106FA000C007C00F012148404840002820D0C81E1B
:106FB0001049096808610F48FEF7BAFC00200E4925
:106FC00048620E48007801280FD10D4800780D491D
:106FD000087000200949087001200B490870094811
:106FE00002780A490A48FFF7D5FB002004490870D7
:106FF00010BD0000D0110020000400406A0F0020E6
:10700000690F00206B0F00206C0F00209C120020E5
:10701000B40F002010B50268244B984206D001231B
:107020009B07984202D0224B984205D17024134608
:10703000A3431A464B681A431C4B984212D00123B3
:107040009B0798420ED01A4B98420BD0194B98428E
:1070500008D0194B984205D0184B984202D0184BD3
:10706000984206D1032424021346A3431A46CB6850
:107070001A4380241346A3434C6923431A460260F3
:107080008B68C3620B688362084B984208D00A4B36
:10709000984205D0094B984202D0094B984201D141
:1070A0000B6903630123436110BD0000002C014004
:1070B0000004004000200040004001400044014026
:1070C0000048014070B50C468168FF2636020D4627
:1070D000B54329461D02154325432943816070BDF0
:1070E0000A468168034B1940072313431943816003
:1070F000704700008FFFCFFF70B50B461446026A41
:10710000056A6D086D0005628169F0260D46B5437C
:107110002946250129430A261546B5432A46154620
:107120001D432A468161026270BD70B50B4614464C
:10713000056A1026B54305628169026A0F26360387
:107140000D46B543294625032943A0261546B543D8
:107150002A461D012A438161026270BDF0B585B0E7
:1071600004461BA103C9039102901BA103C901910D
:107170000090606E002805D101216A20015368202B
:10718000015322E008270822049220688068072122
:1071900049060840450E20688068460F6A46915DA2
:1071A00002AA935D049A53431846FCF7B3FF81B2D9
:1071B0006A2001536A46515D02AA525D7A43104625
:1071C000FCF7A8FF81B26820015305B0F0BD0000B4
:1071D0000101010307010000080402040801010184
:1071E000018DC907C90F002908D00168496801222B
:1071F00052049143C26A1143026851600222816ABB
:107200001140022907D101684968D2039143026BFA
:107210001143026851600422816A1140042907D198
:107220000168496812049143426B1143026851603E
:107230000822816A1140082907D1016849681203B0
:107240009143826B1143026851601022816A1140A0
:10725000102907D10168896812029143C26B11435A
:10726000026891602022816A1140202907D10168BB
:10727000896812029143026C1143026891604022B6
:10728000816A1140402915D10168496892039143F0
:10729000426C11430268516001221205416C914217
:1072A00008D101684968032252059143826C114359
:1072B000026851608022816A1140802907D10168EB
:1072C000496812039143C26C1143026851607047D0
:1072D00038B50446002188200151FDF7F3FB05462F
:1072E000206800680821084008280BD114482B4664
:1072F000002289040090204600F076FE002801D08C
:10730000032038BD206800680421084004280BD100
:107310000B482B46002209050090204600F064FE31
:10732000002801D00320ECE7202180200151842097
:10733000015100BF00217C20015500BF0020E0E783
:10734000FFFFFF01F0B599B004460026002007902A
:107350000690F8492068884200D100E000BF21690A
:10736000A068084361690843E16908430746606E05
:10737000074320680068F0490840384321680860E6
:1073800020684068032109038843E16808432168B5
:107390004860A769E7492068884201D0206A07430E
:1073A00020688068E5490840384321688860206883
:1073B000C06A00090001616A08432168C86200BF11
:1073C000DF492068884217D1DE4840698007800F76
:1073D000002806D0012808D0022804D0032808D1AC
:1073E00005E0002507E0022505E0042503E0082567
:1073F00001E0102500BF47E0D3492068884217D13B
:10740000D04840690C210840002806D0042808D044
:10741000082804D00C2808D105E0002507E0022543
:1074200005E0042503E0082501E0102500BF2BE05E
:10743000C6492068884201D1002525E0C44920685A
:10744000884201D100251FE0BA49206888421AD13C
:10745000BC484069032189020840002808D0012166
:107460008902401A08D0401A04D0401A08D105E019
:10747000002507E0022505E0042503E0082501E0DA
:10748000102500BF00E0102500BFAA4920688842EF
:1074900072D1002D06D0022D4BD0042D6DD0082DB9
:1074A0006CD1D4E0FDF730FE0590606A002801D170
:1074B000012038E0606A012801D1022033E0606ACF
:1074C000022801D104202EE0606A032801D10620A1
:1074D00029E0606A042801D1082024E0606A0528B8
:1074E00001D10A201FE0606A062801D10C201AE0B1
:1074F000606A072801D1102015E0606A082801D1D0
:10750000202010E0606A092801D140200BE0606A69
:107510000A2801D1802006E0606A0B2802D1FF20F2
:10752000013000E0012001460598FCF7DDFD0690E2
:10753000D5E0606A002801D101203BE0606A0128A3
:1075400001D1022036E0606A022801D1042031E036
:10755000606A032801D106202CE0606A042801D16A
:10756000082027E0606A052801D10A2022E0606A2D
:10757000062804D10C201DE076E221E0ACE0606A30
:10758000072801D1102015E0606A082801D12020C9
:1075900010E0606A092801D140200BE0606A0A28E7
:1075A00001D1802006E0606A0B2802D1FF20013063
:1075B00000E0012001466748FCF796FD06908EE04A
:1075C000FDF7B6FD0590606A002801D1012038E082
:1075D000606A012801D1022033E0606A022801D1EB
:1075E00004202EE0606A032801D1062029E0606AA9
:1075F000042801D1082024E0606A052801D10A206E
:107600001FE0606A062801D10C201AE0606A072892
:1076100001D1102015E0606A082801D1202010E077
:10762000606A092801D140200BE0606A0A2801D174
:10763000802006E0606A0B2802D1FF20013000E0C4
:10764000012001460598FCF74FFD069047E0606A6F
:10765000002801D1012038E0606A012801D1022010
:1076600033E0606A022801D104202EE0606A03281A
:1076700001D1062029E0606A042801D1082024E015
:10768000606A052801D10A201FE0606A062801D13E
:107690000C201AE0606A072801D1102015E0606A0A
:1076A000082801D1202010E0606A092801D140207B
:1076B0000BE0606A0A2801D1802006E0606A0B288E
:1076C00002D1FF20013000E0012001460120C0036B
:1076D000FCF70AFD069002E00120079000BF00BF02
:1076E000069800280CD06068410041180698814235
:1076F00004D8606801030698814202D201200790F5
:1077000013E3002D06D0022D7DD0042D79D0082D55
:1077100078D139E1FDF7F8FC002103910290606A0D
:10772000002801D101224BE0606A012814D1022215
:1077300046E0000000800040F369FFCFFFF4FF1136
:107740000038014040100240004400400048004022
:10775000004C00400024F400606A022801D1042299
:107760002EE0606A032801D1062229E0606A04281D
:1077700001D1082224E0606A052801D10A221FE015
:10778000606A062801D10C221AE0606A072801D13C
:10779000102215E0606A082801D1202210E0606AFA
:1077A000092801D140220BE0606A0A2801D1802219
:1077B00006E0606A0B2802D1FF22013200E00122BC
:1077C0000023019203990298FCF7B8FCFF230133D0
:1077D00000220A9309920B910C901A46099BFCF720
:1077E000DDFC62685208002380185941059104901D
:1077F0006068024603900498FCF7A0FC064625E169
:1078000001E05EE01FE1606A002801D1012238E05A
:10781000606A012801D1022233E0606A022801D1A6
:1078200004222EE0606A032801D1062229E0606A62
:10783000042801D1082224E0606A052801D10A2227
:107840001FE0606A062801D10C221AE0606A07284E
:1078500001D1102215E0606A082801D1202210E031
:10786000606A092801D140220BE0606A0A2801D130
:10787000802206E0606A0B2802D1FF22013200E07C
:1078800001220023F84819460392FCF757FCFF2316
:10789000013300220E930D920F9110901A460D9B0A
:1078A000FCF77CFC6268520800238018594105915E
:1078B00004906068024603900498FCF73FFC06467B
:1078C000C4E0FDF735FC002103910290606A0028B6
:1078D00001D1012238E0606A012801D1022233E09F
:1078E000606A022801D104222EE0606A032801D1D7
:1078F000062229E0606A042801D1082224E0606A97
:10790000052801D10A221FE0606A062801D10C2255
:107910001AE0606A072801D1102215E0606A082881
:1079200001D1202210E0606A092801D140220BE039
:10793000606A0A2801D1802206E0606A0B2802D121
:10794000FF22013200E001220023019203990298F4
:10795000FCF7F4FBFF2301330022129311921391E1
:1079600014901A46119BFCF719FC62685208002318
:10797000801859410591049060680246039004986C
:10798000FCF7DCFB064661E0606A002801D10122B9
:1079900038E0606A012801D1022233E0606A0228DF
:1079A00001D104222EE0606A032801D1062229E0D9
:1079B000606A042801D1082224E0606A052801D108
:1079C0000A221FE0606A062801D10C221AE0606AD0
:1079D000072801D1102215E0606A082801D1202271
:1079E00010E0606A092801D140220BE0606A0A2891
:1079F00001D1802206E0606A0B2802D1FF22013209
:107A000000E0012200230120C00319460392FCF785
:107A100095FBFF23013300221693159217911890BE
:107A20001A46159BFCF7BAFB6268520800238018BF
:107A30005941059104906068024603900498FCF750
:107A40007DFB064602E00120079000BF00BF032037
:107A50000002864205D38548864202D82068C66067
:107A6000B3E201200790B0E20121C903E069884236
:107A700070D1002D06D0022D53D0042D6BD0082DCF
:107A80006AD1ECE0FDF740FB0490606A002801D168
:107A9000012038E0606A012801D1022033E0606AE9
:107AA000022801D104202EE0606A032801D10620BB
:107AB00029E0606A042801D1082024E0606A0528D2
:107AC00001D10A201FE0606A062801D10C201AE0CB
:107AD000606A072801D1102015E0606A082801D1EA
:107AE000202010E0606A092801D140200BE0606A84
:107AF0000A2801D1802006E0606A0B2802D1FF200D
:107B0000013000E0012001460498FCF7EDFA400046
:107B100061684908401805906168FCF7E5FA86B28B
:107B2000F1E0606A002801D101203BE0606A012891
:107B300001D1022036E0606A022801D1042031E040
:107B4000606A032801D106202CE0606A042804D171
:107B5000082027E0EDE033E0D2E0606A052801D19B
:107B60000A201FE0606A062801D10C201AE0606A32
:107B7000072801D1102015E0606A082801D12020D3
:107B800010E0606A092801D140200BE0606A0A28F1
:107B900001D1802006E0606A0B2802D1FF2001306D
:107BA00000E0012001463048FCF79EFA4000616881
:107BB0004908401805906168FCF796FA86B2A2E081
:107BC000FDF7B6FA0490606A002801D1012038E080
:107BD000606A012801D1022033E0606A022801D1E5
:107BE00004202EE0606A032801D1062029E0606AA3
:107BF000042801D1082024E0606A052801D10A2068
:107C00001FE0606A062801D10C201AE0606A07288C
:107C100001D1102015E0606A082801D1202010E071
:107C2000606A092801D140200BE0606A0A2801D16E
:107C3000802006E0606A0B2802D1FF20013000E0BE
:107C4000012001460498FCF74FFA4000616849089A
:107C5000401805906168FCF747FA86B253E0606A05
:107C6000002805D101203CE00024F400FFFF0F00B4
:107C7000606A012801D1022033E0606A022801D144
:107C800004202EE0606A032801D1062029E0606A02
:107C9000042801D1082024E0606A052801D10A20C7
:107CA0001FE0606A062801D10C201AE0606A0728EC
:107CB00001D1102015E0606A082801D1202010E0D1
:107CC000606A092801D140200BE0606A0A2801D1CE
:107CD000802006E0606A0B2802D1FF20013000E01E
:107CE000012001460120C003FCF7FEF94000616855
:107CF0004908401805906168FCF7F6F986B202E081
:107D00000120079000BF00BF102E0FD3B448864259
:107D10000CD8B3480F38304008903007400F08990E
:107D20000843089008982168C8604EE10120079038
:107D30004BE1002D06D0022D52D0042D73D0082D1A
:107D400072D1E8E0FDF7E0F90490606A002801D103
:107D5000012038E0606A012801D1022033E0606A26
:107D6000022801D104202EE0606A032801D10620F8
:107D700029E0606A042801D1082024E0606A05280F
:107D800001D10A201FE0606A062801D10C201AE008
:107D9000606A072801D1102015E0606A082801D127
:107DA000202010E0606A092801D140200BE0606AC1
:107DB0000A2801D1802006E0606A0B2802D1FF204A
:107DC000013000E0012001460498FCF78DF961685C
:107DD0004908401805906168FCF786F986B2E9E029
:107DE000606A002801D101203AE0606A012801D1CF
:107DF000022035E0606A022801D1042030E0606A88
:107E0000032801D106202BE0606A042801D1082054
:107E100026E0606A052801D10A2021E0606A062870
:107E200003D10C201CE028E0C1E0606A072801D1E2
:107E3000102015E0606A082801D1202010E0606A57
:107E4000092801D140200BE0606A0A2801D1802076
:107E500006E0606A0B2802D1FF20013000E001201B
:107E600001466048FCF740F96168490840180590F0
:107E70006168FCF739F986B29CE0FDF759F9049086
:107E8000606A002801D1012038E0606A012801D130
:107E9000022033E0606A022801D104202EE0606AEB
:107EA000032801D1062029E0606A042801D10820B6
:107EB00024E0606A052801D10A201FE0606A0628D4
:107EC00001D10C201AE0606A072801D1102015E0CA
:107ED000606A082801D1202010E0606A092801D1D9
:107EE00040200BE0606A0A2801D1802006E0606A29
:107EF0000B2802D1FF20013000E001200146049848
:107F0000FCF7F2F861684908401805906168FCF7D1
:107F1000EBF886B24EE0606A002801D1012038E01B
:107F2000606A012801D1022033E0606A022801D191
:107F300004202EE0606A032801D1062029E0606A4F
:107F4000042801D1082024E0606A052801D10A2014
:107F50001FE0606A062801D10C201AE0606A072839
:107F600001D1102015E0606A082801D1202010E01E
:107F7000606A092801D140200BE0606A0A2801D11B
:107F8000802006E0606A0B2802D1FF20013000E06B
:107F9000012001460120C003FCF7A6F861684908EA
:107FA000401805906168FCF79FF886B202E0012056
:107FB000079000BF00BF102E05D30948864202D8A3
:107FC0002068C66001E00120079001216A2001536A
:107FD000682001530020E0662067079819B0F0BDC3
:107FE000FFFF00000024F400FFB581B004460D46F9
:107FF00017460A9E24E0701C002821D0FCF762FD81
:108000000499401AB04201D8002E19D120680068A6
:10801000FF21A131884321680860206880684008FA
:108020004000216888602021802001518420015176
:1080300000BF00217C20015500BF032005B0F0BD2A
:108040002068C0692840A84201D1012000E000203A
:10805000B842D0D00020F1E710B58CB0032400BFA7
:1080600072B60F48FCF7C2FA06220E490C48FCF71C
:108070001DFB182269460A48FCF705FB62B6302250
:1080800008496846FCF7D9F8002800D104E02046EA
:10809000611ECCB20028E3D100BF0CB010BD0000BF
:1080A00000380008840F002010B511480078030044
:1080B00000F026F8061804090E141618FEF784FDC1
:1080C000FEF780FC0FE00B48808C0B4908800AE02B
:1080D000FEF7FEFC00200949088004E0FEF726FEBA
:1080E000FEF724FE00BF00BF00200149087010BD4C
:1080F000F0080020840F0020C2020020C4020020EB
:1081000030B47446641E2578641CAB4204D3635DAE
:108110005B00E31830BC18471D46F8E702E008C8CA
:10812000121F08C1002AFAD170477047002001E0F1
:1081300001C1121F002AFBD170470000FEF724FE88
:10814000FCF7D2FCFEF7B4FEFCF784FAFEF708FE5B
:10815000FEF7BEFCFEF738FDFEF734FCFEF7C6FB6B
:10816000002202211948FCF7A7FC00220121174830
:10817000FCF7A2FC5820FEF76DFE8320FEF76AFE96
:10818000012211461148FCF797FC002201210F48FB
:10819000FCF792FC5A20FEF75DFE0020FEF75AFE27
:1081A000012211460948FCF787FC0EE008480078D8
:1081B000012809D1002006490870FCF793FA00282D
:1081C00000D002E0FEF75EFA00BFEFE700040050C7
:1081D0006C0F002000000000000000000000000004
:1081E000000000000000000000000000000000008F
:1081F0000000000001000000020000000300000079
:108200000400000006000000070000000800000055
:108210000900000000000000000000000000000055
:108220000000000001000000020000000300000048
:108230000400000054820008C0000020C40E0000AA
:10824000BC42000810840008840F0020FC070000D6
:108250002C810008200900C1814001C080410461D7
:108260000C2108E118A11C011A30011638013660F2
:10827000012E70012F6000FF00C0C101C30302C2C4
:10828000C60607C705C5C404CC0C0DCD0FCFCE0E56
:108290000ACACB0BC90908C8D81819D91BDBDA1AC6
:1082A0001EDEDF1FDD1D1CDC14D4D515D71716D636
:1082B000D21213D311D1D010F03031F133F3F232A6
:1082C00036F6F737F53534F43CFCFD3DFF3F3EFE16
:1082D000FA3A3BFB39F9F83828E8E929EB2B2AEA86
:1082E000EE2E2FEF2DEDEC2CE42425E527E7E626F6
:1082F00022E2E323E12120E0A06061A163A3A26266
:1083000066A6A767A56564A46CACAD6DAF6F6EAED5
:10831000AA6A6BAB69A9A86878B8B979BB7B7ABA45
:10832000BE7E7FBF7DBDBC7CB47475B577B7B676B5
:1083300072B2B373B17170B0509091519353529225
:1083400096565797559594549C5C5D9D5F9F9E5E95
:108350005A9A9B5B99595898884849894B8B8A4A05
:108360004E8E8F4F8D4D4C8C448485458747468675
:1083700082424383418180031E40000109FF20099E
:10838000FD2009FF000DFF20040DFF100409FF1060
:10839000C91009FF0209FD020EFF01080409FF06CA
:1083A0004D1806100B60090000C012000080250D5A
:1083B0001A4B141E96300A12E1042AC223100EAA88
:1083C0003E551FAB0FD607EB039D024F11100FE870
:1083D00003F401C80064003200140055553610053E
:1083E0000C010003025A0251BE01770A080DFFE793
:1083F00003CF0787130F272F755FEA7009FF700DF2
:108400001088086A043200040024F4000000000010
:04000005080040B9F6
:00000001FF
