:020000040800F2
:10000000B80C0020CD0000080913000843110008B7
:1000100000000000000000000000000000000000E0
:100020000000000000000000000000000D130008A8
:1000300000000000000000000B1300080F13000870
:10004000DF00000800000000DF000008DF000008FB
:10005000DF000008DF000008DF000008DF00000804
:1000600000000000DF000008DF000008DF000008DB
:10007000DF000008DF000008DF00000800000000CB
:10008000DF000008DF000008DF000008DF000008D4
:10009000DF000008DF000008DF000008DF000008C4
:1000A000DF000008DF000008DF000008D5180008A6
:1000B000DF000008DF0000080348854600F03CF838
:1000C0000048004749190008B80C00200448804740
:1000D00004480047FEE7FEE7FEE7FEE7FEE7FEE72F
:1000E00085130008B900000830B50B460146002012
:1000F0002022012409E00D46D5409D4205D31D462E
:100100009540491B2546954040191546521E002D25
:10011000F1DC30BDD2B201E00270401C491EFBD2BE
:1001200070470022F6E710B513460A460446194602
:10013000FFF7F0FF204610BD064C0125064E05E0F6
:10014000E36807CC2B430C3C98471034B442F7D3F8
:10015000FFF7B6FFE0190008001A0008704700001A
:1001600002484169024A1143416170470020024040
:1001700004000100054A5169FF23F9339943C00087
:1001800008430349084350617047000000200240C3
:100190000200010030B505494C6901252C434C6132
:1001A0000260BFF36F8F436030BD0000002002404B
:1001B00030B50B4C002362690125AD042A4362610E
:1001C000EFF3108272B620C95B1C20C0DBB2402B5B
:1001D000F9D32069C003FCD482F3108830BD00003D
:1001E0000020024070B5054600F0B4F94619174CDE
:1001F00003E000F0AFF9B0421FD22069C043C00352
:10020000F7D5216912480140401C2061A2690120F4
:100210008007024003D0A0691043A0611143002968
:1002200003D00C484160012070BD00F093F94519DE
:1002300005E000F08FF9A84201D3032070BD2069CA
:10024000C0434003F5D5002070BD000000200240EF
:10025000FA8300009C080020F8B5014600242031F4
:1002600001220A714B79022B03D00421C1630124BE
:100270002DE003681D680E26B5431D6003681D68E8
:100280006D086D001D60436C1D68FF260136B54387
:100290001D60104B5D68066C1C273E401746B7403A
:1002A0003D435D60836CC56C5D60036D002B07D0C2
:1002B0001E68FF250135AE431E60436D856D5D6090
:1002C0004A7100220A71816B002900D088472046BC
:1002D000F8BD00000000024070B5044600F03AF995
:1002E0000546601C02D004484068241800F032F92A
:1002F000401BA042FAD370BD00000020F8B51D4D90
:10030000064628780F4601280AD0012028700020D0
:1003100068607D20C000FFF765FF002802D026E05E
:100320000220F8BD3168042904D00021C943396096
:10033000746812E0FFF714FF7D20C000FFF752FF42
:1003400015E02046FFF716FF7D20C000FFF74AFFAB
:10035000002801D03C6005E0641CB268716889180F
:10036000A142EED804494A6902239A434A61002116
:100370002970F8BD9C08002000200240054901209A
:100380004A69C3071A434A614969002900DA002013
:100390007047000000200240F0B51FB4144C064620
:1003A0002078154601280AD00120207000277D20E2
:1003B000C0006760FFF716FF002803D010E002209E
:1003C00005B0F0BD012E0DD029460198FFF7F0FED3
:1003D0007D20C000FFF706FF06494A69B2434A6123
:1003E0002770EDE72A46039B0198FFF7D3FEEFE75E
:1003F0009C08002000200240064900204A69002A8B
:1004000007DA054A8A60054A8A604969002900DAE4
:10041000012070470020024023016745AB89EFCDE2
:10042000F0B5002388E001229A409446144022004F
:100430007ED04C68022C01D0122C0CD1DC08A40018
:1004400027183C6A5D07ED0E0F26AE40B4430E69D7
:10045000AE4026433E6205685E000324B4400F7937
:10046000A543BF07BF0FB7402F4307604D68012D5D
:1004700005D0022D03D0112D01D0122D0ED185688B
:10048000CF68A543B7402F43876047686546AF43B1
:100490000D79ED06ED0F9D403D434560C568A543D0
:1004A0008C68B4402C43C4604C68E40043D59D087C
:1004B000244CAD002F193C6E9D07EE0E0F25B54064
:1004C000AC4305252D07A84201D100250FE01E4DA4
:1004D000A84201D101250AE01C4DA84201D1022504
:1004E00005E01B4DA84201D1032500E00525B540DC
:1004F0002543144C3D66134D80352E684F68964356
:10050000FF0300D516432E606E684F689643BF0305
:1005100000D516436E6025684E689543F60200D5F7
:100520001543256065684E689543B60202D500E024
:1005300001E0154365605B1C0A681446DA4000D090
:1005400071E7F0BD001802400004005000080050A0
:10055000000C005001488068704700000000002037
:100560000248816842688918816070470000002055
:1005700010B5084800240168821511430160204627
:1005800000F00AF8002801D0012401E000F028F86A
:10059000204610BD0020024070B50F4E0024716847
:1005A0000546002915D07D20C000FFF79DFD0146BE
:1005B0000A480068FFF798FD00F004FC002808D105
:1005C000042D06D200222946401E00F02BF835608B
:1005D00000E00124204670BD000000200C00002037
:1005E00008B5094801680122114301600068104004
:1005F000009005484038C26B01040A43C263C06BD7
:100600000840009008BD000040100240002805DBB3
:10061000C106C90E012088400149086070470000EA
:1006200000E100E010B501F05DF910BD10B50F4C10
:10063000216803225202914301432160C11FFF3907
:10064000FA390ED10A480621006848430949FFF7E4
:100650004BFD401C02E0002805D0401E61694905A1
:10066000F9D4002010BD032010BD00000070004030
:100670000C00002040420F00F8B504460068002638
:10068000524D800358D5514800274038C06BC000F8
:1006900009D44E484038C26B01040A43C263C06BA0
:1006A0000840012700904A48016882151143016003
:1006B000FFF750FF009005E0FFF74CFF0099401A4C
:1006C000022825D842480068C005F5D5E86903210D
:1006D000090208400FD0A16981420CD0E8690321CA
:1006E0000902EA698843012109040A43EA61EA69C7
:1006F0008A43EA61E861C0070FD0FFF72BFF009043
:1007000008E0FFF727FF0099411A3248814201D9DA
:10071000032609E0E8698007F3D5E86903210902A7
:100720008843A1690843E861002F05D02748403875
:10073000C16B02049143C1632078C00705D068698A
:10074000616880088000084368612078800705D5CB
:1007500068690C218843A1680843686120784006D5
:1007600006D56869032109038843E1680843686185
:100770002088400411D568696169800080080843B9
:100780006861012160698907884206D10F484038B5
:10079000C168012212041143C1602088000512D5EE
:1007A000686903218903884321690843686101213D
:1007B00020698903884206D104484038C168012273
:1007C00012041143C1603046F8BD000040100240E1
:1007D0000070004088130000F8B50F46060043D0B3
:1007E0004D4D28684007400FB84213D22868C00812
:1007F000C00038432860FFF7ADFE044605E0FFF770
:10080000A9FE011B4548814261D828684007400F76
:10081000B842F4D13068424C81070DD5400704D569
:10082000A068072109030843A060A0680F210902FE
:100830008843B1680843A0603078C00732D0706840
:1008400001280AD002280BD000280FD034494031AB
:1008500003280ED0C969890704E02168890301E0F3
:1008600021688901002906DB0120F8BD21684905BE
:10087000F8E7096AEFE7A168C908C9000143A16068
:10088000FFF768FE009006E0FFF764FE0099411A4A
:10089000224881421BD8A068382108407168C900ED
:1008A0008842F1D128684007400FB84217D91A484A
:1008B0000168C908C90039430160FFF74BFE0546CE
:1008C00007E0FFF747FE411B1448814201D903208E
:1008D000F8BD114800684007400FB842F1D13078A8
:1008E000400706D5A068072109038843F16808433B
:1008F000A06000F031F8A1683C2289091140094A42
:10090000515CC906C90EC84007490860074800681D
:10091000FFF742FEF8BD00000020024088130000EF
:1009200000100240801900080C0000200000002088
:100930000648074900688968064A4904490F890042
:10094000515CC906C90EC840704700000C00002069
:1009500000100240C019000810B5204CA068204AC1
:100960008006400F16D0A0688006410F5010012964
:100970000FD0A1688906490F022912D0A06880060D
:10098000400F042823D0A0688006400F032821D000
:10099000002010BD206801218004400F81401046D6
:1009A00012E0E1688B07E1689B0F4906490F491C7B
:1009B000032B00D01046FFF797FBE1684904490E6E
:1009C0004843E168490F491CFFF78EFB10BD012029
:1009D000C00310BD7D20000210BD000000100240C9
:1009E0000024F400F8B504007ED020783827C00732
:1009F000EB4D002846D0A868E96838408907890F80
:100A0000102802D008280BD001E0032908D00120CB
:100A10006268000482420AD129680143296015E016
:100A2000286880032ED560680028DDD02AE00523E1
:100A300001211B0489049A422A6802D10A432A60D0
:100A4000EAE782432A6028688843286060680028B3
:100A50000CD0FFF77FFD064604E0FFF77BFD801B0F
:100A6000642873D828688003F7D50BE0FFF772FD80
:100A7000064604E0FFF76EFD801B6428F1D8286865
:100A80008003F7D42078800769D5A868E9683840E2
:100A90008A070721920FC902102802D0002813D01C
:100AA00001E0022A10D0E068002846D02868884378
:100AB0002169084328602868FF2101310843286024
:100AC000FFF748FD06462CE02A68520502D5E26889
:100AD000002A89D06A687F231B029A4363691B023C
:100AE0001A436A60002800E08DE00ED12868884330
:100AF000216908432860286801218004400F814053
:100B0000A848FFF7F1FAA8490860A8480068FFF76D
:100B100043FD002877D122E0FFF71CFD801B02284F
:100B20009FD828684005F7D568687F210902884367
:100B3000616909020843686011E02968FF200130FB
:100B400081432960FFF706FD064605E098E0FFF7C0
:100B500001FD801B022884D828684005F7D420783E
:100B6000934E00072ED5A8688006400F03280AD0B0
:100B7000A0690028306A16D0012108433062FFF7CF
:100B8000E9FC07460BE0306A80071BD5A069002806
:100B90009FD017E0FFF7DEFCC01B022870D8306A38
:100BA0008007F7D50EE0400840003062FFF7D2FC26
:100BB000074604E0FFF7CEFCC01B022860D8306A6D
:100BC0008007F7D4207840076CD5A86800278006F6
:100BD000400F042818D0E86BC00008D4E96B01204E
:100BE00000070143E963E96B014001270091714867
:100BF0000168C90519D40168821511430160FFF726
:100C0000A9FC00900DE083E0F06980074AD5A06858
:100C100000287DD046E0FFF79DFC0099401A02288D
:100C20002ED864480068C005F5D5A168012910D008
:100C300004200529F16911D049084900F161F169E1
:100C40008143F161A068002816D0FFF783FC009073
:100C50000EE0F06901210843F061F3E70143F1611F
:100C6000F7E7FFF777FC0099411A534881426DD8A6
:100C7000F0698007F5D50EE0FFF76CFC009007E007
:100C800064E0FFF767FC0099411A4B4881425DD848
:100C9000F0698007F5D4002F04D0E96B012000072C
:100CA0008143E963E069002877D0A9688906490F84
:100CB000022951D001263606022828680DD0B043FB
:100CC0002860E86880088000E860E8683B490840E0
:100CD000E860FFF73FFC04463AE0B0432860FFF7C6
:100CE00039FC074604E0FFF735FCC01B02282DD86D
:100CF00028688001F7D4616A206AA26A0843E16A21
:100D0000120211430843216B0843E9682C4A00E0B2
:100D100041E011400843E860286830432860E868F3
:100D2000012109070843E860FFF714FC044604E0CA
:100D3000FFF710FC001B022808D828688001F7D5AF
:100D40002BE0FFF707FC001B022801D90320F8BDA8
:100D500028688001F5D420E00128F8D0E868226AEC
:100D60008107890F914216D17021626A0140914238
:100D700011D17F21A26A09020140120291420AD1D7
:100D80001F214904E26A0140914204D1400F216BC6
:100D90004007884201D00120F8BD0020F8BD0000C6
:100DA000001002400024F4000C000020000000208D
:100DB000401002400070004088130000FFFFFEEF6B
:100DC0008C80C11F094910B5401E884201D90120FD
:100DD00010BD074C60610321081F00F083FD002057
:100DE000A06107202061002010BD0000FFFFFF0070
:100DF00000E000E030B5014660310A7F012A18D0DA
:100E000001220A77242302468032144613600368C5
:100E10001A681D686D086D001D6001235B079A4309
:100E20000023436600680260202020600B7718468C
:100E300030BD022030BD7047F8B505460446603528
:100E4000287F01281DD001202877242220468030C9
:100E50000746026020680668026852085200026075
:100E60002068826807235B069A430A438260204613
:100E700000F090FA20680660202038600020287773
:100E8000F8BD0220F8BDF8B5054604466035287F58
:100E900001281CD0012028772422204680300746D4
:100EA00002602068066802685208520002602068EA
:100EB0008268D200D2080A438260204600F06AFAB3
:100EC000206806602020386000202877F8BD0220C6
:100ED000F8BD704770477047F8B503680446DA6993
:100EE0001868996816072546360F8035002E60D0A1
:100EF000584EFF2721370E400740374372D0D7079F
:100F000006D0C70504D501271F62AB683B43AB6021
:100F1000930708D5CB0706D0276802233B62AB684E
:100F200004273B43AB60530708D5CB0706D027689F
:100F300004233B62AB6802273B43AB60130709D530
:100F400020230340334305D0266808233362AE686C
:100F50001E43AE60AB68002B38D092060AD5202223
:100F60001040D2051140084304D0E16E002901D0A1
:100F700020468847A86821688968490601D4000787
:100F800029D5204600F0D8FA2068816849061ED588
:100F9000826840218A438260A06F002817D02E49C2
:100FA0008163A06FFFF758F900280FD0A06F816B05
:100FB0000BE0960616D5012720263F0706400F4076
:100FC0003E430FD0E16E22E020468847F8BD204620
:100FD000FFF781FFF8BD2046FFF77DFF0020A860E6
:100FE000F8BDFFE7D60208D54E0206D50120000560
:100FF00018622046FFF76EFFF2E716060AD50127B2
:101000008026FF05064039400E4303D0216F00299A
:10101000DAD1E5E751060DD541060BD51A68204611
:1010200040218A431A60202129600021216700F0B5
:1010300087F8D5E7110205D5410003D52046FFF713
:1010400048FFCDE7D101CBD50028C9DA2046FFF70C
:10105000F2FEC5E7010000102515000870B5040078
:1010600006D02046803005460068002802D007E000
:10107000012070BD00217C200155204600F026F89B
:101080002420286020680168490849000160204642
:1010900000F066FA0128ECD0A06A002802D02046B1
:1010A00000F0A8F9206841680922D202914341600A
:1010B000206881682A2291438160206801680122AA
:1010C00011430160204600F0FBF970BD10B586B0F9
:1010D000044614216846FFF724F81749206888421F
:1010E00027D116480268012189030A43026000687B
:1010F0000840059011484038426B01210A43426381
:10110000406B0491084005900320400200900220AB
:101110000190002002900390052069460007FFF728
:101120007FF9002211461B20FFF77CFA1B20FFF7F6
:101130006DFA06B010BD00000038014040100240BA
:101140007047FEE71FB5C00A0B4AC00280181F2275
:10115000D2068018C00A0222009202910190FFF785
:101160004BF903A96846FFF7C9F80446FFF706F9EB
:10117000204604B010BD000000E8010830B50D465F
:101180000446002307E0204600F008F8641CE854F9
:101190005B1CA4B29BB29342F5D330BD0149401809
:1011A0000078704700E80108F0B585B00391334935
:1011B00001913349154688425BD8C10A4605012092
:1011C000C902760DC002841B0091A54200D81446C6
:1011D000002046E00122D20201990098FFF7CEFFDD
:1011E000002006E003998319095C019A401CD15440
:1011F00080B2A042F6D301210098FFF7A3FF002898
:1012000037D1FFF7F9F80026F00881001B480023CA
:101210004258009881191B4809180120FFF7BCF8B3
:10122000070002D0FFF7AAF823E008360120B6B283
:10123000C0028642E8D3FFF7A1F801200099C0025E
:10124000091889B200910399002609190391291BF5
:101250008DB2854201D9044600E02C460298401C1C
:10126000C0B20290E80A0299401C8842B2D8002F0E
:1012700002D0FF2005B0F0BD0020FBE79C0000205D
:10128000FF17000000E8010808B50448416B01227F
:1012900011434163406B1040009008BD00100240B4
:1012A00010B5184816490160E1214902416000214A
:1012B0008160C16001618161C16101620C22416292
:1012C00042618162FFF7CAFE002801D0FEF746FFA7
:1012D00000210C48FFF7D7FD002801D0FEF73EFFA4
:1012E00000210848FFF7A8FD002801D0FEF736FFCF
:1012F0000448FFF77FFD002801D0FEF72FFF10BD47
:10130000003801401000002070477047704710B54A
:10131000FFF726F910BD30B599B034216846FEF7C5
:1013200000FF00240D940E940F941C2111A810941A
:10133000FEF7F7FE01204002FFF778F90225E801E9
:10134000039000954020059008200A9080030B90A0
:101350000795000304940C90089509946846FFF7DC
:1013600041FB07200D900F9402210E9510940DA8BB
:10137000FFF732FA01201190129411A8FFF77CF9BF
:1013800019B030BD01200249C006886070470000D6
:1013900000ED00E0F0B513A106C985B001920091FF
:1013A00012A206CA039202910446416E40340029FB
:1013B00015D000688168806809014D0F400F02AEAA
:1013C000315C6F46385CC000FEF78EFE6085785D4C
:1013D000715DC000FEF788FE208505B0F0BD0120DC
:1013E0006085F9E701010103070100000804020418
:1013F0000801010110B5018DC90707D001684A68CD
:1014000001235B049A43C36A1A434A60018D89072A
:1014100007D501684A6801231B049A43036B1A43EA
:101420004A60018D490707D501684A6801239B047A
:101430009A43436B1A434A60018D090707D5016837
:101440004A680123DB039A43836B1A434A60018D88
:10145000C90607D50268916801231B039943C36B32
:1014600019439160018D890607D501688A680123B7
:101470005B039A43036C1A438A60018D490612D5B7
:1014800003685A6801210905446C8A4322435A6063
:10149000426C8A4207D10268516803235B05994375
:1014A000836C19435160018D090607D501684A68AC
:1014B0000123DB04C06C9A4302434A6010BD000064
:1014C000FEB50546002680350446AE60FFF742F8BB
:1014D000019020680068124F000709D5012100978C
:1014E000002249052046019B00F0C0F900280DD1DB
:1014F0002068006840070BD501210097002289056C
:101500002046019B00F0B2F9002801D00320FEBD67
:10151000202028606860603426770020FEBD00002F
:10152000FFFFFF0110B5806A002201464031CA83E7
:10153000CA82FFF7D0FC10BD01680A68FF2321337F
:101540009A430A6001688A68044B1A408A60202224
:1015500084210A500021C16670470000FEFFFFEFA2
:10156000F8B5044680682169E2690843616900268C
:1015700011430843616E014320680268B24B1A4070
:101580000A43026021684868032212039043E2681C
:1015900010434860A169206A226808439168AB4BF8
:1015A0001940014391602068C16A626A0909090112
:1015B0001143C162A64A2068A64990420CD14869ED
:1015C0008007800F23D0012804D002281FD00328D1
:1015D0001CD111E004201AE09F4A90420ED14869C4
:1015E0000C21084013D0042811D0082802D00C2860
:1015F0000CD101E002200AE0082008E09749884267
:1016000002D09749884201D1002000E01020012239
:10161000D203E169D511934B934F91426FD10028CA
:1016200006D0022835D004287AD0082869D17AE07B
:10163000FFF77EF976E0012815D0022815D003289F
:1016400015D0042815D0052815D0062815D0072850
:1016500015D0082815D0092815D00A2815D00B2830
:1016600014D0012512E0022510E004250EE0062525
:101670000CE008250AE00A2508E00C2506E0102504
:1016800004E0202502E0402500E0802529461046A0
:101690001BE0606A002815D001282AD002282AD031
:1016A00003282AD004282DD005282DD006282DD097
:1016B00007282DD008282DD009282DD00A282DD074
:1016C0000B2800D0012529461846FEF70DFD61685C
:1016D00040004A088018FEF707FD80B20146103925
:1016E000B9420ED86049491C01400007400F084329
:1016F0007FE00225E7E70425E5E70625E3E716E0B6
:101700000EE08CE00825DEE70A25DCE70C25DAE7A9
:101710001025D8E72025D6E74025D4E78025D2E755
:10172000FFF71AF90246606A00289AD083E700287A
:1017300006D0022835D0042874D0082879D174E066
:10174000FFF7F6F870E0012815D0022815D003281D
:1017500015D0042815D0052815D0062815D007283F
:1017600015D0082815D0092815D00A2815D00B281F
:1017700014D0012512E0022510E004250EE0062514
:101780000CE008250AE00A2508E00C2506E01025F3
:1017900004E0202502E0402500E08025294610468F
:1017A0001BE0606A002815D0012825D0022825D02A
:1017B000032825D0042825D0052825D0062825D0A3
:1017C000072825D0082825D0092825D00A2827D081
:1017D0000B2800D0012529461846FEF785FC6168D4
:1017E0004A088018FEF780FC80B201461039B942E1
:1017F0001FD82168C8601DE00225ECE70425EAE750
:101800000625E8E70825E6E70A25E4E70C25E2E7F0
:101810001025E0E72025DEE74025DCE702E008E0D0
:101820008025D8E7FFF798F80246606A0028A0D024
:1018300089E70126204601214030418501850020AD
:10184000E06620673046F8BDF369FFCFFFF4FF1173
:101850000038014040100240004400400048004071
:10186000004C00400024F400EFFF0000FFB581B001
:1018700017460E4604460A9D09E0681C07D0FEF78D
:1018800069FE0499401AA8420CD8002D0AD020689D
:10189000C169304688431AD00020B842EDD00020FC
:1018A00005B0F0BD20680168FF22A13291430160BC
:1018B00020688168490849008160202120468030E5
:1018C000016041600020603420770320E8E70120B8
:1018D000E3E7000010B50248FFF7FEFA10BD000074
:1018E000100000208307FF22DB0E9A408907090EB3
:1018F0009940002808DB830809489B001B181868DA
:1019000090430843186070470007000F08388308A9
:1019100004489B001B18D86990430843D86170475E
:1019200000E400E000ED00E002E008C8121F08C17A
:10193000002AFAD170477047002001E001C1121F50
:10194000002AFBD1704700001CB50BA103C901910F
:101950000090FEF70DFEFFF7DEFCFFF795FCFFF7AA
:101960009FFC7D24E400082269460020FFF71CFC50
:101970002046FEF7B1FCF6E76655332288447736F9
:101980000000000000000000000000000000000057
:101990000000000000000000000000000000000047
:1019A000010000000200000003000000040000002D
:1019B0000600000007000000080000000900000009
:1019C0000000000000000000000000000000000017
:1019D00001000000020000000300000004000000FD
:1019E000001A00080000002010000000281900085C
:1019F000101A000810000020A80C00003819000878
:101A00000400000001000000000000000024F400B9
:04000005080000B936
:00000001FF
