:020000040800F2
:10000000E02B00201949000801480008C920000819
:1000100000000000000000000000000000000000E0
:10002000000000000000000000000000034800087D
:10003000000000000000000043200008B544000854
:10004000E3110008000000009F1900083F1C000891
:10005000172000084B240008772500084B2B0008C8
:1000600000000000054800080F4800082F2F000876
:100070008F3F0008AD480008F74800080000000066
:100080001F4800080349000855490008574900085F
:10009000594900085B4900085D4900085F490008AC
:1000A000614900086349000865490008C30D00085C
:1000B000674900086949000838B5040014D02500D4
:1000C0007C356868002803D12870200000F008FE05
:1000D00024206860206801680122914301602000AB
:1000E00000F0D2F9012801D1012032BDA06A002818
:1000F00002D0200000F0F2FB20684168084A0A4064
:100100004260206881682A2291438160FFE720686D
:10011000016801220A430260200000F049FC32BD60
:10012000FFB7FFFF70B505002E007C3670682028F1
:1001300045D100290BD0100009D0A86880235B01AD
:10014000984206D12869002803D1C80701D50120AB
:1001500070BD7C20285C012831D0012030702965D9
:1001600028005430028042800024F4602121716014
:10017000016A002918D05C4BCB625C49036A1963A1
:100180005B49036A5963016A8C6313002A68283249
:10019000296D006A00F092FE002805D01020F06062
:1001A000347020207060D2E74020296808623470E3
:1001B0002868816880220A438260002070BD022086
:1001C00070BDF8B505002E007C36B068202849D1F6
:1001D00000290BD0130009D0A86880225201904258
:1001E00006D12869002803D1C80701D50120F2BD36
:1001F0007C20285C012835D001273770A9652800AC
:100200005C3003800024F4602221B160C1690029C0
:1002100017D0384ACA623849C26911633449C26981
:100220005163C1698C63AA6D29682431C06900F0EB
:1002300045FE002805D01020F0603470202070604A
:10024000D4E73470286801683A020A4302602868DB
:1002500081680F4387602868816840220A43826072
:100260000020F2BD0220F2BD70B5040080202158AC
:10027000250084352E6820688268120614D521294D
:1002800012D18168802291438160606F002808D07C
:1002900000F05DFE002804D0606F00F051FF2028C0
:1002A00018D0200000F0E7FB20688168490618D5C7
:1002B000222E16D18168402291438160A06F0028D0
:1002C0000CD000F044FE002808D0A06F00F038FFEA
:1002D000202803D110206860032070BD200000F0AA
:1002E000D8FB002070BD0000BD0A0008ED0A000820
:1002F000670B0008F70A00085D0B0008F8B504005A
:100300002668F0693168B26807073F0F202300258F
:10031000002F0BD1870602D58F0601D4D70079D5DF
:10032000E16E002901D020008847F1BD544F1740ED
:1003300003D190277F000F406CD0C70708D5CF05A9
:1003400006D5012737628826A65937438826A75144
:1003500086070AD5D60708D5022627683E62882672
:10036000A75904263E438827E65146070AD5D607F3
:1003700008D5042627683E628826A75902263E43F0
:100380008827E651082630420BD00B4002D13C4B67
:10039000134006D023681E62230088331F683E4343
:1003A0001E60260088363368002B67D0800608D58B
:1003B000880601D4D00004D5E16E002901D02000C8
:1003C0008847306821688968490601D400071CD530
:1003D000200000F05EFB20688168490611D5816825
:1003E000402291438160A06F00280AD02549816393
:1003F000A06F00F0E7FD002840D0A06F816B884718
:10040000F1BD200000F0ECFEF1BD200000F0E8FEA0
:100410003560F1BDC70207D5570205D5D803306254
:10042000200000F077FFF1BD070609D50F0601D4C3
:10043000120205D5216F002920D020008847F1BD88
:1004400042060CD54A060AD5306840218843306000
:10045000802023502567200000F05DFFF1BD0202DF
:1004600005D54A0003D5200000F056FFF1BDC001BC
:1004700004D5002902D5200000F04FFFF1BD000097
:1004800001000010B50B000851B582B000206A468B
:100490001070029909680A689B4B1340029A92688F
:1004A0001A43029B1B691343029A52691A43029B27
:1004B000DB691343029A526E1A430A604A68994BE9
:1004C0001340029AD2681A434A608A68964B1340D6
:1004D000029A92691A43029B1B6A13438B60CA6A91
:1004E0000F239A43029B5B6A1343CB62934A944B5C
:1004F000994208D111688907890F21D0022910D0AB
:1005000011D303290BE0934B994210D111680C22AF
:100510000A4012D0042A06D0082A02D00C2A04D09D
:100520000DE002210CE004210AE0082108E0904AD5
:10053000914202D08F4A914201D1002100E0102166
:10054000019180267600B20153000299C96999424F
:10055000019900D0C2E0002906D0022907D0042961
:100560003BD0082975D0ABE001F0C2F937E0029822
:10057000406A00282BD0012801D1824828E00228B7
:1005800001D1814824E0032801D1804820E00428DB
:1005900001D17F481CE0052801D17E4818E00628DB
:1005A00001D17D4814E0072801D17C4810E00828DB
:1005B00001D17B480CE0092801D17A4808E00A28DB
:1005C00001D1794804E00B2801D1784800E078484F
:1005D000029949684A0880186EE001F045F90299CD
:1005E000496A00292BD0012901D1022128E00229E2
:1005F00001D1042124E0032901D1062120E00429AE
:1006000001D108211CE0052901D10A2118E00629A1
:1006100001D10C2114E0072901D1102110E0082993
:1006200001D120210CE0092901D1402108E00A294B
:1006300001D1802104E00B2901D1310000E001212A
:10064000029A546801F090F94000610840182100B6
:1006500032E00298406A002829D0012828D00228D8
:1006600001D1130024E0032801D1984B20E0042895
:1006700001D153081CE0052801D1954B18E006284C
:1006800001D1944B14E0072801D1930810E0082809
:1006900001D1D3080CE0092801D1130908E00A2888
:1006A00001D1530904E00B2801D1330000E093008D
:1006B000029841684808181801F056F980B202E023
:1006C00001216A46117001001039834A914200D31A
:1006D000EEE002400007400F1043E5E0002907D09C
:1006E000022908D0042965D0082900D19DE0D3E073
:1006F00001F0FEF860E00298406A00283CD0012832
:1007000004D1214839E000BFF369FFCF022801D1AD
:100710001F4832E0032801D11F482EE0042805D1EC
:100720001E482AE0FFCFFFFFFFF4FF11052801D18B
:100730009C4822E0062805D19B481EE05410024048
:1007400000380140072801D1154816E0082803D1D8
:10075000144812E000440040092801D112480CE07E
:100760000A2801D1114808E00B2805D18F4804E080
:1007700000480040004C00400248029949684A087D
:10078000801885E00024F40000127A0054615100C2
:1007900000093D0000D43000AAB0280080841E006B
:1007A00040420F0020A1070090D0030048E801005C
:1007B0000048E80101F058F80299496A00292BD055
:1007C000012901D1022128E0022901D1042124E0DC
:1007D000032901D1062120E0042901D108211CE0D0
:1007E000052901D10A2118E0062901D10C2114E0C4
:1007F000072901D1102110E0082901D120210CE0A6
:10080000092901D1402108E00A2901D1802104E011
:100810000B2901D1310000E00121029A546801F056
:10082000A3F861084018210032E00298406A0028CD
:1008300029D0012828D0022801D1520824E0032819
:1008400001D19C4A20E0042801D192081CE005282F
:1008500001D1994A18E0062801D1B54A14E00728C9
:1008600001D1D20810E0082801D112090CE00928B2
:1008700001D1520908E00A2801D1320004E00B2816
:1008800001D1802200E01A0002984168480810183F
:1008900001F06AF880B202E001216A46117001009D
:1008A00010390D4A914203D202990968C86002E0EA
:1008B000012069460870029868300121418001805A
:1008C000002141608160684600785EBDAA2A000070
:1008D0009819000054150000F0FF00002821415C29
:1008E000C90706D501684A68924B1340C26A1A4389
:1008F0004A602821415C890706D501684A688E4B09
:100900001340026B1A434A602821415C490706D50F
:1009100001684A68894B1340426B1A434A60282198
:10092000415C090706D501684A68854B1340826B14
:100930001A434A602821415CC90606D501688A68C5
:10094000804B1340C26B1A438A602821415C8906A0
:1009500006D501688A687C4B1340026C1A438A6092
:100960002821415C490611D501684A68774B13403C
:10097000426C1A434A60426C80235B039A4205D161
:100980004A68734B1340826C1A434A602821415CC9
:10099000090606D501684A686E4B1340C06C1843BF
:1009A00048607047006A18005558140024F400008D
:1009B000F8B5040000257C30C56000F0F1FF0700A9
:1009C000654E20680068000709D500963B000022AC
:1009D00080218903200000F01AF800280DD120683A
:1009E000006840070BD500963B0000228021C90318
:1009F000200000F00CF8002801D00320F2BD2100F7
:100A00007C312020486088600D700020F2BDFEB56A
:100A1000089E002405000F006846027001932868B4
:100A2000C0693840B84201D1012000E00020694689
:100A3000097888421DD10020C0438642EFD000F0E3
:100A4000AFFF0199401A864201D3002EE7D12868F2
:100A500001685D4A0A40026028688168012291436A
:100A6000816028007C302021416081600470032077
:100A7000FEBD0020FEBD01680A68C0239A430A60DB
:100A800001688A68514B13408B602021802281507D
:100A9000704701680A684E4B13400B6001688A6812
:100AA0004C4B13408B602021842281500021C16671
:100AB0007047000055150000CC0C000080B5010007
:100AC000886A0968096889060DD400215622815276
:100AD00001688A6880239A438A600068016840221E
:100AE0000A43026001BD00F016FC01BD80B5806ABA
:100AF00000F05CFF01BD10B50100886A2022096882
:100B00000968114012D15E23C15201680B68324C52
:100B10001C400C6001688B680124A3438B60016852
:100B20008B684024A3438B608421425056E0000030
:100B3000AA0A0000FFFFFDFFFFFFFEFFFFFFFBFF14
:100B4000FF7FFFFFFFEFFFFFFFDFFFFFFFFFEFFF75
:100B5000FFFF9FFFFFFFF7FFFFFFFF0180B5806AE8
:100B600000F025FF01BDF8B5876A3C00803420689D
:100B7000616800913D00563500263968896809068C
:100B800005D5212803D12E803800FFF774FF38687F
:100B90008068400606D50098222803D12E813800AF
:100BA000FFF777FFA06810210143A160380000F033
:100BB00017FBF1BD80B5806A0100563100220A8121
:100BC0000A8000F00DFB01BD5FFEFFFFFFFF7FFF0E
:100BD000DFFEFFFFFEFFFFEFFFFEFFFF00F0E8FE7E
:100BE00010BDF1B401684218416848081318009814
:100BF0008068C9071ED5494640181BE01778521C6B
:100C00000770401C761EF9D1002C13D01678521CA8
:100C100089080D40032D01D11578521C2902711845
:100C20004D424119A41C05D00D78491C0570401C8B
:100C3000641EF9D19A420FD01178521C0325032665
:100C40000E4002D11678F61C521C0C090F2CD9D17B
:100C500014780F34521CD5E700980C30F2BC704762
:100C600010B5684C68486060E1204002A060002038
:100C7000E060206160610C21A161E061206260623E
:100C8000A062E062201DFFF717FA002801D000F0F3
:100C900098FE0021201D00F0C3FA002801D000F0CA
:100CA00090FE0021201D00F0D5FA002801D000F0B0
:100CB00088FE201D00F096FA002801D000F081FE89
:100CC0006068016820220A430260016810220A431A
:100CD0000260962221009031201DFFF772FA10BDAC
:100CE000F1B586B001A8142100F06CFE06980068EA
:100CF0004549884258D145498020C001CA6802430D
:100D0000CA60CA6810400090009801200A68024337
:100D10000A600968014000910099C021C900019151
:100D200002210291002403940494059001A9A020BB
:100D3000C00500F04FFE364E364F376032207060EF
:100D4000B460F460802535617461B461F46134622B
:100D5000300000F065F8002801D000F032FE06985F
:100D600086670698B0622C4E38001430306033200D
:100D700070601020B060F46035617461B461F4613A
:100D80003462300000F04CF8002801D000F019FE69
:100D9000069846670698B062002200211B2000F0EA
:100DA000FEFE1B2000F0FFFE07B0F0BD80B50A007C
:100DB00001001A48FFF7B6F9FFE7002800D001202C
:100DC00002BD38B50F4C201DFFF798FA606810215E
:100DD000C2690A4014D00162201DFFF745FA96202F
:100DE0000B4909684968411A21802500903589B26C
:100DF0002800FFF7DBFF96222900201DFFF7E1F90D
:100E000031BD00009C220020003801403410024017
:100E1000042600201C00024060260020A0220020A2
:100E200038B5040001D1012032BD25688548281855
:100E3000142100F099FD80002064022025216054D7
:100E4000286881490140296020680168A268E36838
:100E5000134322691A4363691343A2691A43E3697E
:100E60001343226A1A430A430260200000F089F902
:100E70000025A0688021C901884200D165602079E1
:100E8000616C0860E06CA16C4860606800280AD062
:100E9000052808D2200000F089F9206D0560A06DBA
:100EA000616D486002E025656565A565E563012023
:100EB0002521605424202554002032BDF3B581B093
:100EC0000400002500272420205C012801D10220F5
:100ED000FEBD01262421665402202521615C0129E2
:100EE0002ED1009225216054E56320680168B1434A
:100EF0000160009A0299200000F024F92068216B1B
:100F00000029016801D00E2205E00422914301600E
:100F1000206801680A220A430260616C30020A6894
:100F2000D20302D50A6802430A60216D002902D06B
:100F30000A6810430860206801680E43066002E0FA
:100F40002422A5540227242025543800FEBDF0B5E4
:100F5000002809D00100243100222523C35C022B84
:100F600004D00423C3630A700120F0BD03681C6829
:100F70000E25AC431C60446C704B25681D402560F9
:100F8000046825680126B5432560304C2568AC46C9
:100F90004025475D1C253D400127AF4065462F4356
:100FA0002760C46C856C6C60046D002C05D02568CE
:100FB0002B402360836D446D63602523C6540A7003
:100FC0000020F0BDF8B5002100242423C1540126DF
:100FD000C6542522825C022A03D00421C163012465
:100FE0002DE0026813680E25AB4313600268136896
:100FF000B3431360436C514A1D6815401D60134B89
:101000001D68AC464025475D1C253D400127AF408B
:1010100065462F431F60C36C856C6B60036D002BAE
:1010200005D01D682A401A60826D436D5A602522E2
:10103000865424228154816B002900D088472000E7
:10104000F2BD0000F8FFFDBF0F80FFFF040002406B
:10105000FEB55D490A680292026813680193402355
:10106000C35C1C241C406B461C7020230424029D7E
:101070006E4636780427B7402F4015D0019D254095
:1010800012D015682B4002D11368A34313604A683D
:101090004023C35C1C251D40AC4014434C60016BD5
:1010A000002949D08847F7BD01240025029EB44697
:1010B00002276E463678B740664637401BD0022678
:1010C000019F374017D017683B4005D113680A27A6
:1010D000BB431360252284544A684023C35C1C240C
:1010E0001C40A64016434E6024214554C16A002985
:1010F00022D08847F7BD08236E4636780827B740C8
:101100006646374018D0019E334015D013680E262E
:10111000B34313604A684023C35C1C261E4001236E
:10112000B34013434B60C4632521445424214554E8
:10113000416B002900D08847F7BD0000FFFEFFFF8C
:10114000C06B7047F0B5C46C856C6C60046D002C8E
:1011500002D0846D456D6C601C4C26684025475D4F
:101160001C253D400127AF4037432760046863607A
:101170008068102802D1A260E160F0BDA160E26049
:10118000F0BD10B5040020780838142100F0ECFB05
:10119000216C032291430E4A891861640D49A164B0
:1011A00001211C2202409140E16410BD01798A00B6
:1011B000094BD2180265094A42650122491E890776
:1011C000890F8A4082657047000002400400024097
:1011D0000008024080080240FC080240400902402A
:1011E0007047FEE730B57C21415C012901D1022026
:1011F00030BD01007C3101220A7024224A6002685D
:10120000136814680125AC43146000224266244C24
:101210001C4000680460202048600A70002030BD37
:1012200070B504007C20205C012801D1022070BD33
:1012300026007C360120307024207060206805680C
:10124000026801239A43026020688268D200D208B3
:10125000114318E070B504007C20205C012801D106
:10126000022070BD26007C36012030702420706082
:1012700020680568026801239A430260206882683A
:10128000084B134019438160200000F00DF82068DE
:101290000560202070600020307070BD00000000EC
:1012A000FFFFFFDFFFFFFFF1F0B585B0040003A8EB
:1012B00014A10CC90CC001A814A10CC90CC0606E0B
:1012C000002802D10120012515E02068816809016C
:1012D000490F00918068410F01AE03AF785CC000F8
:1012E000715C00F02DFB05000098385CC00000998F
:1012F000715C00F025FB210068314D80088005B04D
:10130000F0BD000001010103070100000804020410
:10131000080101017047704770477047FEB505002E
:101320001BD0A04C2878C00719D5A16838200840E8
:10133000E1688027BF02102808D18807800F0328A2
:1013400006D06968780881423AD141E00828F8D18E
:101350002068074003D06868002800D17AE10220A5
:10136000009028680221014000D17DE0A16838206A
:101370000840E2688C498D4F230D019310284ED10F
:101380009207920F022A4CD0E8680028206800D10A
:101390008EE00140286908432060206899080143D5
:1013A000216000F0FDFA060020680199014000D09C
:1013B00052E100F0F5FA801B0328F5D30320FEBDAF
:1013C000A022D202914207D1216882000A43226002
:1013D00021680843206007E02068754901402160CA
:1013E0002068744901402160686800280BD000F033
:1013F000D7FA060020683840B1D100F0D1FA801B3E
:101400006528F7D3DAE700F0CBFA06002068384009
:10141000A5D000F0C5FA801B6528F7D3CEE70028D9
:10142000B2D12268134002D0EA68002A3FD0626835
:1014300017406A6912023A43626000280ED12068A0
:101440000140286908432060A848012122689204CD
:10145000520F914000F088FAA5490860A54800683D
:1014600000F0C6FB002822D1287800070BD5A06821
:101470003821014018292BD1206E0099014002D05B
:10148000A869002813D02878400700D4F7E000208E
:101490000190A0683821014020293DD1E06D0099DC
:1014A000014000D1EBE0A868002800D0E7E0D1E0DF
:1014B00091490140216000F073FA0600206801990B
:1014C0000140D1D000F06CFA801B0328F6D375E7F9
:1014D000A8690028206E0FD001210143216600F089
:1014E0005FFA0600206E00990140CCD100F058FA56
:1014F000801B0328F6D361E701218843206600F0B2
:101500004FFA0600206E00990140BCD000F048FA66
:10151000801B0328F6D351E780204005E16B014092
:1015200008D1E16B0143E163E16B08400190019850
:1015300001200190714F3868C00508D43868A10DAA
:101540000143396000F02CFA06003868C00500D568
:1015500089E000F025FA801B0328F6D32EE7052842
:10156000E06D07D104210143E165E06D01210143F4
:10157000E16506E001218843E065E06D04218843D0
:10158000E0655F4FA868002816D000F009FA060051
:10159000E06D009901406BD100F002FA801BB84267
:1015A000F6D30BE700100240FFC7FFFFFF80FFFFED
:1015B000FFFFFEFFFFFFFBFF00F0F2F90600E06D0A
:1015C0000099014054D000F0EBF9801BB842F6D3EB
:1015D000F4E600F0E5F9801B032863D3EEE600F0A3
:1015E000DFF9401B03287AD3E8E601402160E06878
:1015F00003218843E060E0689A490140E16000F01F
:10160000CFF90500206838406DD000F0C9F9401BC3
:101610000328F7D3D2E601281CD0E0688107890FA0
:101620002A6A914216D1702101406A6A914211D111
:10163000FE21C9010140AA6A120291420AD1F82191
:1016400089030140EA6A914204D1400F4007296BA7
:10165000884248D00120FEBD6068074068690002EA
:101660003843606000E7A868012800D077E77CE78E
:101670000198002803D0E06B9C490140E163E869D0
:10168000002830D0A16838220A40102AC3D0802711
:10169000BF049E4902282068A7D10140216000F0C4
:1016A0007FF906002068384093D1E06898490140EE
:1016B000286A0843696A0143A86A00020843E96A84
:1016C0000143286B0843E0602068790801432160EA
:1016D000E068F9000143E16000F062F9050020686C
:1016E000384000D17BE70020FEBD00000024F4005C
:1016F000C0000020B8000020FFFEFFFF0070004087
:1017000089130000F8B507003BD0009181480068BC
:101710004007400F88423ED27E4D2868072188430B
:1017200000990143296000F03BF9009C06002868FD
:101730004007400FA0422DD000F032F9801B7649BF
:101740008842F4D30320F2BD00F02AF9001B72494D
:10175000884247D3F6E7022803D170490968890116
:1017600004E06E4A002803D11168490530D408E02E
:10177000032803D1126E11402AD102E0D26D11402C
:1017800026D10120F2BD00F00BF9801B624988428E
:1017900043D3D7E700943A68042502210A420DD0CA
:1017A0005E482A4004D08268E023DB011343836053
:1017B00082685B4B1340BA681A4382603878C0076E
:1017C00018D578680128C6D1544909688903D8D545
:1017D000524989680722914308435049886000F0C4
:1017E000DFF804004D488068382101407868C00067
:1017F0008142A9D10098474909684907490F8842A1
:1018000011D24448006807218843009901434148A8
:10181000016000F0C5F8009C06003E4800684007E3
:10182000400FA042AFD13868054007D03B488068E0
:101830003C490140F86808433849886000F014F8D2
:101840003949364A92681205120F9200895CC9061E
:10185000C90EC840354908603548006800F0C8F92D
:10186000F2BD0000FFFFFEEF30B5072132482B4CE0
:101870003823A2681A4006D123680122DB0A1940E6
:101880008A4011001EE04208A5681D40082D01D1C4
:10189000100030BDA5681D40102D16D1E368E56825
:1018A0002D092940491C7F259B079B0F032B00D145
:1018B000100000F059F8E168090A0D406843E1683A
:1018C000490F491C00F050F830BDA068184020288E
:1018D00002D18020000230BDA0680340182B02D145
:1018E000FA20C00130BD002030BD0000FFFFFFEF37
:1018F000104801680D480068104A4904490F8900E2
:10190000515CC906C90EC84070470000FFFFFFFECA
:101910008C80C11F0020024089130000001002408B
:10192000FFF0FFFFFF8FFFFF48470008C0000020C7
:10193000B8000020081002400024F400B04800085D
:10194000CA0F00D0494203105A400DD004B500D34D
:10195000404200F009F8009AD20701D349421242EE
:1019600000D5404204BD0000094214D088420FD384
:101970000122030C01D100041204002300185B4172
:101980008B4200D35B1A5241F8D319001000704704
:1019900001000020704708B500F050F908BDFEE7CF
:1019A00001480068704700BFB400002070477047CE
:1019B000704780B500F044F9FA20800000F0A2FAE8
:1019C000FAE77047002200BF094202D0491E425484
:1019D000FCD17047FFB50A000023010032E0052466
:1019E00003E05B4CA142FAD10324AC40344300989D
:1019F0000460584C2568019EF04305405668F60384
:101A000002D52E00019D3543256065680540566866
:101A1000B60302D52E00019D35436560803C2568E4
:101A200005405668F60202D52E00019D354325601B
:101A3000656828405568AD0202D505000198284325
:101A400060605B1C10680400DC4073D00124012539
:101A50009D4003950540019501980028F1D05068FC
:101A6000022801D0122810D1D80880000D18286A49
:101A70009F001C263E400F27B740B8431769BC465D
:101A800037006646BE4006432E620D6858006E461B
:101A90003070032037780326BE40F74302973E4656
:101AA0002E40556805406F463F78BD4035430D6078
:101AB0005568012D05D0022D03D0112D01D0122D16
:101AC00011D18E68029D3540D6686F463F78BE4082
:101AD0002E438E604D68039EB543566836092640F6
:101AE0009E402E434E60CE68029D354096686F46FC
:101AF0003F78BE402E43CE605568ED00A1D5164D0F
:101B00009E08B600AD1900952E68DF0018253D40EF
:101B10000F27AF40BE43A027FF05B94201D10024E3
:101B200063E70E4FB942FBD00D4CA14200D058E7FD
:101B300002245AE7FFBD002A01D08161704781620B
:101B4000704742690A4001D08162704781617047E5
:101B5000000C005080180240601802400004005041
:101B60000008005010B5C20018231340FF249C4009
:101B7000E2438907090E9940030004D418489B08E2
:101B80009B00C01806E0174B0007000F08388008BC
:101B90008000181803681A401143016010BD80B519
:101BA000FFF7E0FF01BD010005D40121C006C00E12
:101BB00081400D480160704710B5401E80214904E6
:101BC000884201D3012010BD084C60600321002031
:101BD000C043FFF7C7FF0020A0600721216010BDB0
:101BE00000E400E01CED00E000E100E010E000E0B7
:101BF00070B5060000240F4DA968002916D0FA2000
:101C00008000FFF7B1FE01000B480068FFF7ACFE53
:101C1000FFF7D2FF002809D1042E07D2002231009D
:101C20000020C043FFF7BBFF6E6000E001242000EE
:101C300070BD00BFB4000020C00000207047FEE768
:101C40007CB5002414A60FE068690190287C009000
:101C5000EB68AA686968286800F0D7F8002801D006
:101C600000F0BEF8641CE4B20C481821614345182A
:101C70003100286800F09EF90028E5D173BD10B549
:101C8000074C20780028FCD0002020701021054847
:101C9000FFF757FFF5E7000000000000C400002038
:101CA000C127002000040050E0B5684606A10722C5
:101CB00000F0A4F907216846FFF778F8FA208000C1
:101CC00000F020F9F6E70000323432340D0A00004B
:101CD0000268516002680A600160486070474168AC
:101CE000026851600168426811604060006070479E
:101CF00038B58048056800F08FF90400280000F02E
:101D00006BFA04203C2168542800543000F0E3FAB8
:101D1000280000F02AFC012807D188202858002834
:101D200003D1280000F0DAFB04E029001C317248DE
:101D3000FFF7CEFF200000F073F900F004FA31BD88
:101D4000FEB50400089809990A9E0B9D27001C37D0
:101D50002762E761A262E362206361630A4623218E
:101D6000206B00F009FC654B206B616B4218121F61
:101D7000E16AA06A00F0EAFE60623E2026543D203F
:101D8000265400202064E5642565A0633C22A0540D
:101D9000882160508C216050019000902300584AA7
:101DA00021002000543000F085FA0020FEBDFFB570
:101DB00085B00E9F0F9E109D119C0A46012100F0D8
:101DC00067FB0394029501960097089B079A069972
:101DD0000598FFF7B5FF09B0F0BD464800687047A9
:101DE00080B53E21415C3D22815401228A4002643B
:101DF00002213C22815400F0ADF83E4800680028E2
:101E000001D000F0A0F9002002BDF1B584B00E00B1
:101E100014001D000146012000F06FFB070007D0F1
:101E2000280000F085FF002804D1380000F08BFB6B
:101E300000200CE00B990A9B32000391029301955C
:101E40000090230004993800FFF77AFF380005B0AE
:101E5000F0BD38B500F0E0F80400264805683C20E5
:101E6000285C0007000F01281CD1E869296A884214
:101E700018D028001C30FFF732FF4D483D21695C27
:101E8000C900401829001C3142681160416829626C
:101E900029001C314160E861200000F0C1F800F029
:101EA00052F902E0200000F0BBF8002032BD31B54D
:101EB00000F0B2F805000F480468200000F028F890
:101EC0006A4600212000543000F070FA200054309F
:101ED00000F011FA280000F0A3F800F034F9A06B2C
:101EE0000121C943884201D10020A063002032BDF6
:101EF00000000000A4270020AC270020F11C0008EF
:101F0000911F000880B500F0F9FFFFF7D0FF02BD78
:101F100038B504003C20205C0007000F012802D0E7
:101F20000020C04332BD00F077F805003C20205C63
:101F3000F0210140022008433C216054200000F0C1
:101F40004BF92000543000F01AFA280000F068F82D
:101F5000002032BD38B504003C20205C0007000F93
:101F6000022802D00020C04332BD00F055F8050021
:101F700020001C30FFF7B3FE2000543000F0FFF9C2
:101F8000280000F04DF8200000F003F9002032BDD9
:101F900010B504000120C043A06320001C30FFF7EF
:101FA0009EFE200000F0F5F800F0CDF810BD000016
:101FB000C423002002780B78002A03D0401C491C5F
:101FC0009A42F7D0D01A704770B4103A03D378C948
:101FD000103A78C0FBD2530701D318C918C001D5F5
:101FE00008C908C0D20704D30B880380891C801C51
:101FF000002A01D50B78037070BC70478B0701D1A4
:102000008307E1D0124205D00B78491C0370401CB5
:10201000521EF9D17047FEE7EFF3108072B6704799
:1020200080F3108870472B4A1368012B03D00123DB
:102030001360294A1060294A116029482949016022
:102040007047EFF3108272B62248016800291DD054
:10205000002101602048016800290AD0EFF30981BE
:10206000203900680160F0C144464D4656465F463F
:10207000F0C11A4909680968F0C9F0B4F0C9A0466E
:10208000A946B246BB46F0BC81F3098882F31088AA
:10209000042040420047114908600F4900200860B1
:1020A0000C49012008601048104902681143016082
:1020B0000B480C49016000BF0D480068006800BF74
:1020C00080F3088862B67047EFF3098000B500F02E
:1020D00057FD00BDD8270020D0270020D42700209E
:1020E00004ED00E00000001020ED00E00000FF0023
:1020F00008ED00E0406000607047F8B50024564DE0
:102100006C800026554FF0003818FFF7F3FF761C5F
:10211000202EF8DB1F2028706C60AC6028000C308B
:10212000FFF7E8FFF1BD10B54B4CA06800F0E5FCEF
:102130004A49C0000818083800681C38606024301C
:10214000FFF7A9FF10BD38B5FFF766FF0400424D49
:102150000220285E002818D1A86800F0CEFC401E9E
:102160003E49C20089581C396A6891420DD02870D6
:102170006960100024302431394A1278002A02D1D3
:10218000FFF751FF01E0FFF74EFF2000FFF748FF88
:1021900031BD10B50400FFF73FFF3C21615CF02228
:1021A0000A40012111433C22A1542C493D22A25C4A
:1021B000D200891822001C324B681A604A682262D9
:1021C00022001C324A60E16123498A68236C134370
:1021D0008B60FFF725FF10BD10B50400FFF71CFF53
:1021E000216AE2695160E169226A116021001C31B3
:1021F0002162E16119493D22A25CD20089180A6876
:102200008A4204D114498A68236C9A438A60FFF792
:1022100007FF10BD80B5FFF7FFFE0F494A88521C2B
:102220004A80FFF7FDFE01BD10B5FFF7F5FE0A4C31
:102230006188491E618009B2012909DA00216180A3
:10224000FFF7EEFE6068002804D0FFF77CFF10BDAA
:10225000FFF7E6FE10BD0000A0270020C4230020E9
:10226000CA27002040600060704702685160026821
:102270000A6001604860704738B5049CFE2525401F
:1022800045744162826200210163C3621C30FFF722
:10229000E9FF31BD10B50021CA0082181C32536815
:1022A0001468636013685468236052601260491CAC
:1022B000F2DD10BDF7B505001F00089E099C0A005D
:1022C0000A2100F0E5F8009433003A000299280052
:1022D000FFF7D2FFF7BD38B50400FFF79DFE0500FC
:1022E0002000FFF7D7FF2800FFF79AFE200000F03C
:1022F000F5F8002032BDF8B50500FFF78DFE0400AB
:102300002800FFF7C7FF687CFE21014069742000A8
:10231000FFF786FE00F0DAFDE96A40182863FFF750
:102320007BFE040046480090002601E06B465A50B0
:10233000F300B1006A465258C7187F68BA420BD002
:1023400012681C27FB185F42D3191B6B2F6BDB1B1A
:10235000ECD03C4FBB42E9D2761CE9D08168491CE5
:10236000816029001C310098FFF77FFF687C012104
:10237000014369742000FFF753FE0020F2BD38B519
:102380000400607CC00702D40020C04332BDFFF7C8
:1023900043FE05002000FFF77DFF2800FFF740FE09
:1023A000607CFE2101406174002032BD002908D00C
:1023B000022909D002D303290AD00DE0C06A1060B7
:1023C0000AE01168C16207E0417CFD220A4002E098
:1023D000417C02220A43427400207047F8B500F0A5
:1023E00075FD0500FFF718FE0700154C02E03000F0
:1023F000FFF781FF2668A64217D01C3E306B281AD3
:102400001049884211D23000FFF744FFB06A716A68
:10241000884700F05BFD0500717CFE2008408907BD
:10242000890F03297074E2D0E4E73800FFF7F8FD64
:10243000F1BD80B50248FFF715FF01BD00000000A7
:10244000B4270020FFFFFF7F7047FEE7026851605E
:1024500002680A6001604860704741680268516024
:1024600001684268116040600060704710B500224A
:10247000040006481301C0180378A34203D0521C7D
:10248000072AF6DB002010BD00000000000000203D
:10249000F8B507000D0016002800FFF7E7FF04005D
:1024A000FFF7B8FE6068211D00E000688842FCD19B
:1024B000FFF7BAFE8020284338741022310038001C
:1024C00000F07CF8FFF7A8FD050039001431201D4D
:1024D000FFF7BCFF2800FFF7A3FDF1BD38B50400EE
:1024E00000202074FFF798FD050020001430FFF74E
:1024F000B4FF2800FFF794FD31BDF8B507000E00CA
:10250000FFF7B4FF0400E06800F012FC050001D101
:102510000020F2BDE268002100F02EF82F740020A8
:10252000687410223100280000F048F8FFF774FDAD
:10253000060029001431201DFFF788FF3000FFF747
:102540006FFD2800F2BD38B5040000202074FFF7AD
:1025500063FD050020001430FFF77FFF2800FFF720
:102560005FFD200000F05EFC31BD007C8021084052
:1025700000D001207047FEE738B504000B001100C1
:10258000DAB2042914D3A30714D1130213431D0490
:102590001D4305E0056045608560C5601030103959
:1025A0001029F7D2042903D30560001D091FF9E79C
:1025B000002901D0FFF708FA200032BD002A00D11F
:1025C000704710B503000C78491C1C705B1C002C74
:1025D00002D0521EF7D110BD521EFCD0002119703E
:1025E0005B1CF9E7010000E0491C0A78002AFBD1D6
:1025F000081A70471CB500BF0BA000F06DFA094C1B
:10260000200000F069FA00BF0AA000900323012215
:10261000032100BF0AA000F05FFA2000243000F080
:102620005BFA13BDF84600080A205C207C202F0AC4
:10263000000000004A756C20203320323032300018
:10264000202F207C205C202020202025642E256443
:102650002E2564206275696C642025730A000000D1
:102660000100002006E0531C0B600A235843127837
:10267000801830380A681378303B0A2BF3D3704740
:10268000F3B58AB0129804901398400602D500BFA3
:1026900056A100E05AA11398C00603D5139801244F
:1026A000A0431390202030246D466C700126139CAB
:1026B00034406C4602D03024AC7000E0A07000249E
:1026C0006F463C70139DAD0711D5002A05D52D200E
:1026D0006D4628705042020009E0139D6D0701D538
:1026E0002B2002E0139D2D0701D56D46287006AC06
:1026F0000194002A64D13020207009E02C07240FB7
:102700002D090398005D0199029A8854002D5BD130
:1027100011980B9B129932008E4200DA0A00811A3E
:1027200020240A98139D11272F400FD16D462D7834
:10273000002D07D0002905DD491E03E0984200D294
:102740000470401C0D00691E002DF7DC6D462D78CD
:10275000002D06D0984202D26D462D780570491E94
:10276000401C139DED060AD46D46AD7803E09842F7
:1027700000D20570401C0F00791E002FF7DC1500F9
:102780006A1EAE420CDA984202D26D466D78057030
:10279000401CF4E7984202D2019A925D0270401CFC
:1027A0003200561E002A02DD049A002AF2D10A00E5
:1027B000511E002A18DD984200D20470401CF6E732
:1027C00015000593039100260296761C05980A28A9
:1027D00094D128000A21FFF7C7F80C0028000A212D
:1027E000FFF7C2F805008CE70CB0F0BD3031323392
:1027F00034353637383941424344454600000000FD
:102800003031323334353637383961626364656666
:1028100000000000F7B586B01C0005464018039084
:10282000069988421FD20020C04303900699401A9F
:10283000079018E0241D08E068282268FAD1241DBA
:1028400092B20498800700D512B20498C0B20290E8
:1028500005980190009603992800FFF711FF0500E5
:102860000898401C089008980078002800D113E1CF
:10287000252802D003998D4206E10021202002E0A4
:102880000A0010211143089A521C089212782D2A2E
:10289000F6D02B2A02D10A000421F3E7202A02D124
:1028A0000A000821EEE7232A01D10143EBE7302A91
:1028B00000D002E10A000121E4E72A2A0DD108989C
:1028C000401C08902668241D002E06D57042060084
:1028D000084610210143C9B204910020C04305906D
:1028E000089800782E2818D10898401C0890007885
:1028F000010030390A2903D208A8FFF7B1FE06E02B
:102900002A2808D10898401C08902068241D0590AA
:102910000598002801D50020059000200899097825
:10292000682901D06C2903D10898401C0890080040
:102930000A230499102211406A4611702521089A31
:102940001278252A00D17DE0582A00D185E0632A3B
:102950000FD0642A00D0692A00D185E06F2A76D092
:10296000702A5CD0732A24D0752A71D0782A79D045
:1029700080E06846007800280AD10398202103E00F
:10298000854200D229706D1C761E012EF8DA039064
:102990002168241D0398854200D22970691C2022D9
:1029A000761E012E00DA95E0814200D20A70491CA1
:1029B000F6E72768241D002F01D100BF60A738006B
:1029C000FFF710FE0599012902DB814200DC0800B7
:1029D0006946097800290BD1039904E08D4201D2A0
:1029E00020222A706D1C3200561E9042F6DB0391A5
:1029F0000022039B290006E0994201D23D780D7028
:102A0000491C7F1C521C8242F6DB3200561E90424B
:102A100060DA994201D220220A70491CF5E70020B1
:102A2000C043864204D10826049801210143049141
:102A30002268241D0498C0B2029005980190009667
:102A4000102308E70398854220D229701EE008234E
:102A50006C2800D0F0E62268ECE6049940220A4394
:102A6000D2B204921023F3E7049902220A43D2B2AD
:102A70000492EDE7039A954200D229706D1C0898E4
:102A80000078002804D0954200D228706D1CE7E63B
:102A90000898401E0890E3E60798002809D003989C
:102AA000854202D20020287003E000200399491ECD
:102AB00008700698281A09B0F0BD04910026F64364
:102AC000100030380A2800D3F7E608A8FFF7C8FD41
:102AD000060002E70D00C3E60EB418B5020003AB12
:102AE000154C7F212000FFF795FE200000F02CF808
:102AF00001B0019810BC04B0004700281BD00F495A
:102B0000020603D0C0B2085C401C7047FF221202CC
:102B1000024004D00004000E085C09307047FF2218
:102B20001204024004D00002000E085C113070470D
:102B3000000E085C19307047C424002008420008C9
:102B4000284E554C4C2900007047FEE7F0B50C00AC
:102B5000111D072291434039002200251D4EAF0070
:102B6000CE516D1C102DFAD30C624A628A62CA6281
:102B70000A634B63886380204004C8630800F0BD8B
:102B800010B50400E16900BF14A0FFF7A5FFA1691B
:102B900016A0FFF7A1FF616918A0FFF79DFF21694B
:102BA0001AA0FFF799FFE1681CA0FFF795FFA16845
:102BB0001EA0FFF791FF616820A0FFF78DFF21683D
:102BC00022A0FFF789FF0448016800BF23A0FFF798
:102BD00083FFFEE7EFBEADDEA42700207073723ADC
:102BE000203078253038780A000000002070633AE1
:102BF000203078253038780A00000000206C723AC6
:102C0000203078253038780A000000007231323ADE
:102C1000203078253038780A000000007230333ACE
:102C2000203078253038780A000000007230323ABF
:102C3000203078253038780A000000007230313AB0
:102C4000203078253038780A000000007230303AA1
:102C5000203078253038780A0000000068617264FE
:102C6000206661756C74206F6E2074687265616493
:102C70003A2025730A00000070B587490A68436846
:102C8000D418A04210D06588002D0DD14D68AC42FB
:102C90000AD08D68A54200D1886065684560851AB4
:102CA00016000836646835518468141984420CD0C3
:102CB0006588002D09D18D68854200D18C604168FE
:102CC0006160A11A08324068115070BD10B503232D
:102CD000DB43C21C1A400B40192B23D31C00183CA9
:102CE00094421FD3981A18386B4CE0602260F5218B
:102CF000490111800C305060002393605380536869
:102D0000D2186260118001215180506090600023D0
:102D1000012200BF64A12000183000F040F92068B3
:102D2000A06010BD0A0001005C48FFF7D5FE10BD91
:102D3000FEB5050006D0C51C03208543584CE0684D
:102D4000A84201D20020FEBD0C2D00D20C2500218E
:102D5000C9432000183000F031F920680090A068C5
:102D60000099461A2B0000E07E68E068C01A86428F
:102D70004CD2206887193D0069880029F4D1696820
:102D80008A1B0C3A9A42EFD3029626690196F526E1
:102D900076011F001837BA421CD30298C018009061
:102DA000206802000C32009FD7193E8000227A80F2
:102DB00079600299B960009A0C326A607968E768B4
:102DC0000C37B94202D0070008377A5001990C330A
:102DD000C91804E0019A5118491B009A89186269C0
:102DE000914200D30A00626101226A8021612E8033
:102DF000A1688D420FD1A1684A88002A0BD0626871
:102E0000914208D049684118A160F4E720001830C9
:102E100000F00DF996E72000183000F008F92800BE
:102E20000C30FEBD70B5060034D01B4C21688842C2
:102E300030D3616888422DD20021C9432000183068
:102E400000F0BCF80C3EF5256D017088002802D01A
:102E50003088A84209D000BF15A0FFF73DFE338897
:102E6000728831000F48FFF737FE002070803580F0
:102E7000A1688E4200D2A66021697268891A8819F9
:102E80002168401A20613000FFF7F6FE200018305C
:102E900000F0CDF870BD0000BC2600208847000877
:102EA000BC260020384800086865617000000000FA
:102EB000746F2066726565206120626164206461C0
:102EC000746120626C6F636B3A0A00000A48006804
:102ED000704780B508480168491C0160FEF77DFF16
:102EE000016D491E016503D1C16C0165FEF7B1FF9B
:102EF000FFF774FA01BD0000CC27002070B5040074
:102F000002D50020C04370BDFA25AD002900FEF7B0
:102F100017FD06006E4320002900FEF711FD6943EE
:102F2000681E08182900FEF70BFD301870BDFEE77B
:102F30004060006070474268116042684A604160CA
:102F40000860704780B51C30FFF7F2FF002002BD1B
:102F500070B504000D0016002800FEF7D9FF002E02
:102F60000FD0012E12D1206800E00068A04208D0E6
:102F70003D21695C2122825C9142F6D229001C31FC
:102F800002E029001C312000FFF7D5FF002070BDB2
:102F900080B500681C38FEF7DDFF002002BD70B56B
:102FA000040015001E000A000221FFF771FA20003C
:102FB000FFF7C8FFA5846674002070BD73B50400D8
:102FC000FFF72AF80600A08C002806D0401EA08437
:102FD0003000FFF725F8002076BD0198002805D1C4
:102FE0003000FFF71DF80120C04376BDFEF7F5FE67
:102FF00005000020A863627C290020001C30FFF738
:10300000A7FF0198002809DD01AA002128005430FB
:10301000FFF7CCF928005430FFF76DF93000FEF7C8
:10302000FFFFFFF790F8A86B0028D4D076BD70B5ED
:1030300004000025FEF7F0FF0600E06921001C31C6
:10304000884203D1A08C401CA08404E020001C30E6
:10305000FFF79EFF01253000FEF7E2FF002D01D0B3
:10306000FFF771F8002070BD10B5042319404369C3
:1030700007248C40A3438A401A43426110BD10B517
:10308000904B994201D10C3004E0A030CB0C0424C9
:103090002340C01803688D4C0C40A34311401943D2
:1030A000016010BDF8B5050000260096002D01D185
:1030B0000120F2BD2C0054346068002804D128009F
:1030C00000F044FCA660267028688168C90013D40B
:1030D00081687D4A0A4080214905114381607C480E
:1030E00000687C49FEF740FC400001E00098401E6B
:1030F000009000980028F9D129688868C00008D499
:103100006068102202436260A06801220243A2604C
:10311000012688686268D20600D4400700D5CAE05C
:1031200060686D4A02400220104360608A68802017
:103130000006D20720D4CA6818239A43AB68134309
:10314000CB602A68C021090613699B009B086F6841
:103150000F401F4317616A688A420DD041088A42B6
:103160000AD0824208D05D490F685D4B3B40F02792
:10317000BF0317401F430F60296B002900D0C10C0B
:103180002A69104002D05000400801E080208003EE
:103190000090A87E2A7E93036A7ED2031A434303DB
:1031A00013431943EA680A43009911432C22AA5C8D
:1031B00057000F432021695C01290ED1002804D15A
:1031C000380080277F02074307E060682021014321
:1031D0006160A06801210143A160686A002806D0EF
:1031E000E02149000140A86A084338430700286CE1
:1031F000696C0143AA6C0A43E86C10433C21695C8A
:10320000012902D10100012008432968CA68354B11
:1032100013403B43CB6029680A69334B1340184382
:1032200008616A6B00212868FFF71EFFAA6B2F490F
:103230002868FFF719FF2869002811D08021890329
:1032400088421FD10021E0688A000300D3401A079A
:10325000120F0F2A02D0491C0829F5D3012906D1E3
:103260002868816A0F22D2430A4382620AE02968F1
:103270008A6A0F22D243EB695B1E5B07DB0E9A4022
:10328000104388620220C04301212A68D268184B8B
:103290001340BB4206D10022A26062681040014385
:1032A00061600DE062681040102202436260A06815
:1032B0000843A06003E060681021014361600126BB
:1032C0003000F2BD0000C07CE8FFFF7FFFFFC77C3D
:1032D000C0000020400D0300FFFEFFFF0827014053
:1032E000FFFFC3FF1902FEFF02FCFFDF04FFFF0721
:1032F000E7FF3F83F1B585B000206A46507001902A
:1033000005985422805C012801D102201FE1059814
:1033100054300290012404700598036898682025B1
:10332000400700D507E101910598006903900198D5
:103330004068049087488849884E80221206049F7E
:10334000022F00D1CCE0039F974201D0B74207D1B2
:10335000019C24689D6A6403640B2C439C6280E09A
:10336000019E3668770302D17400E40E47E02642DE
:1033700044D1B70743D4740701D502243FE00824A1
:10338000264201D003243AE0F70601D5042436E0B2
:10339000354001D0052432E0750601D506242EE023
:1033A000350601D507242AE0F50528D4B40501D552
:1033B000092424E0740501D50A2420E0340501D550
:1033C0000B241CE0F40401D50C2418E0B40401D54E
:1033D0000D2414E0740401D50E2410E0340401D54A
:1033E0000F240CE0F40301D5102408E0B40301D548
:1033F000112404E0740301D5122400E000241F25E9
:10340000049F1F263E406F463E70029EF668B446FB
:103410000F276E463678B7406646BE436F463F7804
:10342000BC403443029EF460019C6768059CE469DB
:10343000BE08761CB44214D3019C26681C003D4093
:103440006B461D700F25A76ABC461F780F23BB4033
:1034500067469F43B30E1D406B461B789D403D431E
:10346000A562019B9B68019C2568059C24682D0230
:103470006669AE432B403A4D1D4035436561019B63
:103480001B681A405ED00C68C2432240354CA342F0
:1034900014D180231B041A4254D10C6820400243EB
:1034A00013430B60304800683049FEF75DFA019025
:1034B0000198002846D00198401EF8E72C4CA34202
:1034C00002D180235B0404E02A4CA3423AD180233A
:1034D000DB031A4236D10C6820400243134328E034
:1034E000039C944201D0B44206D1019C24689D6A99
:1034F0006403640BA5439D62019B1B681A4021D0A5
:103500000C68C2432240174CA34203D10B681840F9
:10351000194B0CE0164CA34203D10B681840174B13
:1035200005E0144CA3420DD10B681840144B134016
:1035300003430B6006E0029840680543029845602B
:10354000684644700020029908706846407806B0CA
:10355000F0BD0000FFFF3FFE08270140040000808F
:1035600000FFFF07001000B0C0000020400D030066
:10357000004000B8002000B4FFFF7FFFFFFFFFFE08
:10358000FFFFBFFFF1B584B05422805C012801D158
:1035900002206BE10498543001900120019A1070D0
:1035A0000498006882680091510734D400994968F2
:1035B000009A126802929F4A029B9F4CA3422BD111
:1035C00080231B0499420CD0C0231B04994207D1CD
:1035D00000998968A64B0B40C02212041A4300E0F0
:1035E00000222146FFF74BFD01984068A1490140A8
:1035F0000198416080210498006801600098007B78
:1036000001280498006802D14268114302E0416831
:10361000802291434160F5E080231B04994200D150
:10362000BAE0C0231B04994200D0B4E000998B6833
:103630001021022204240825029E8F4FBE4255D13C
:103640005E0302D15900CA0E49E0DE0701D500220F
:1036500045E0134201D0012241E023423FD12B42F9
:1036600001D003213AE00B4201D0042136E09A0652
:1036700001D5052132E05A0601D506212EE01A06B1
:1036800001D507212AE0DA0501D5082126E09A05AF
:1036900001D5092122E05A0501D50A211EE01A05AB
:1036A00001D50B211AE0DA0401D50C2116E09A04A9
:1036B00001D50D2112E05A0401D50E210EE01A04A5
:1036C00001D50F210AE0DA0308D4990301D51121AD
:1036D00004E0590301D5122100E000210A00A030C6
:1036E0000168012393400B43036058E05E0302D15D
:1036F0005900C90E48E0DE0745D4134201D001212C
:1037000042E0234201D002213EE02B4201D00321BE
:103710003AE00B4201D0042136E09A0601D505219A
:1037200032E05A0601D506212EE01A0601D50721FE
:103730002AE0DA0501D5082126E09A0501D50921FC
:1037400022E05A0501D50A211EE01A0501D50B21F8
:103750001AE0DA0401D50C2116E09A0401D50D21F6
:1037600012E05A0401D50E210EE01A0401D50F21F2
:103770000AE0DA0308D4990301D5112104E05903C2
:1037800001D5122100E00021A030426801238B40C6
:103790001343436003E000220299FFF770FC009896
:1037A0000068354988420198406814D13349014086
:1037B00001984160802040000499096808600098E1
:1037C000007B012804980068416802D180225200E1
:1037D00013E02B4A14E02B490140019841608020FE
:1037E00080000499096808600098007B012804980B
:1037F0000068416803D1802292000A4301E0224A16
:103800000A404260009800680B49884216D104992A
:103810000A6800990969D368DB085B0006241C402C
:10382000A140009B5B69D268D20852000624144074
:10383000A34007E0FFFF87000000C07C00990969F2
:10384000009A5369049A126820328402A40F8502F8
:10385000ED0F60198000101802680C4C1440090428
:1038600021430B43036000200199087005B0F0BDAF
:10387000FFFF07FCFFFFFEFFFFFF1700FFFFFDFF3D
:10388000FFFEFFFFFFFFFBFFFFFDFFFF00F000F06B
:1038900078B589B003A81821FEF794F868460C2182
:1038A000FEF790F84A4C4B4820608020C0056060CD
:1038B0000025A560E560400A206104266661258335
:1038C000A5760320E061202165546562A5622C2164
:1038D000655425636563A5633C216554E564200058
:1038E000FFF7E0FB002801D0FEF76BF8C0200004D2
:1038F000049003A92000FFF745FE002801D0FEF741
:1039000060F8354800900195029569462000FFF760
:10391000F1FC002801D0FEF754F8304800900196E1
:1039200069462000FFF7E6FC002801D0FEF749F8C1
:103930002B4800900820019069462000FFF7DAFC30
:10394000002801D0FEF73DF80AB070BD70B586B012
:10395000040001A81421FEF735F820681D498842AB
:1039600034D1204880214903C2680A43C260C2683A
:10397000114000910099012102680A430260006829
:103980000140009100981020019003200290002532
:10399000039501A9A020C005FEF71CF8124E13489C
:1039A000306005207060B560F56080203061803047
:1039B00070618000B061F56135623000FDF730FA6A
:1039C000002801D0FDF7FDFF2665B46206B070BD8A
:1039D000442500200024014010000010001000B019
:1039E000002000B434100240A82500200800024046
:1039F00010B5040001D1012010BD3D20205C00283D
:103A000004D13C216054200000F039FA11E0006834
:103A10000121C2680A43C26083680C4A1A40062A20
:103A200005D00B049A4202D00268114301600020C5
:103A3000704702203D216054211D206800F020F9CC
:103A400001203D216054002010BD0000070001004E
:103A5000F8B504002068002502260169314015D020
:103A6000C168314012D00221C9430161012121778F
:103A70008069800703D0200000F082FA05E0200072
:103A800000F07FFA200000F07DFA257720680427F7
:103A90000169394016D0C168394013D00421C943A7
:103AA000016126778069C0218900014003D0200090
:103AB00000F066FA05E0200000F063FA200000F054
:103AC00061FA2577206808260169314014D0C16861
:103AD000314011D00821C94301612777C0698007AF
:103AE00003D0200000F04CFA05E0200000F049FA75
:103AF000200000F047FA25772068102102690A406B
:103B000016D0C268114013D01021C9430161267735
:103B1000C069C0218900014003D0200000F030FAC4
:103B200005E0200000F02DFA200000F02BFA2577A8
:103B30002068012102690A4008D0C268114005D0FE
:103B40000121C9430161200000F0B1F920688025FE
:103B50000169294008D0C168294005D08021C943A6
:103B60000161200000F00FFA20680169C90507D53E
:103B7000C1680D4004D011490161200000F004FA31
:103B80002068402102690A4008D0C268114005D06F
:103B90004021C9430161200000F0F7F9206820218D
:103BA00002690A4008D0C268114005D02021C943EB
:103BB0000161200000F0EAF9F1BD0000FFFEFFFF07
:103BC00070B504003C20205C012801D1022070BDAA
:103BD00026003C360125357002203D22A054206885
:103BE0008268264B13408360086802003CD010288E
:103BF0003AD0202838D0302836D040282DD0502830
:103C00001DD0602822D0702803D06B0398420AD0C0
:103C10002EE0CB684A688968206800F0A3F8206825
:103C20008168772208E0CB684A688968206800F0DC
:103C300099F820688168AA030A43826018E0CA687C
:103C40004968206800F062F850210EE0CA684968AF
:103C5000206800F06CF8602107E0CA6849682068B5
:103C600000F054F8402100E00100206800F072F8F4
:103C70003D2025540020307070BD00008800CEFF2C
:103C8000F0B506681A4A1B4B1B4C1C4DA84201D0CC
:103C9000A04206D17027BE4337004E683E43A8427B
:103CA0000BD0A04209D0164CA04206D0984204D0B6
:103CB000904202D0144CA04203D1124C3440CE6842
:103CC00026438024A6434C69344304608C68C46254
:103CD0000C688462A84206D0984204D0904202D078
:103CE000094A904201D10969016301214161F0BD96
:103CF000004401400040014000040040002C01400D
:103D000000200040FFFCFFFF0048014030B5036A7F
:103D1000046A0125AC4304628469F025AC431201B6
:103D2000224382610A2293431943016230BD30B5B8
:103D3000036A1024A34303628469036A0F4D25407C
:103D400012032A438261A0229343090119430162AD
:103D500030BD00008268084B1340194307220A4314
:103D60008260704730B58468054D254029430A4379
:103D700019021143816030BD8FFFCFFFFF0FFFFF9E
:103D8000FF00FFFF38B594B003A81021FDF71AFE1D
:103D900068460C21FDF716FE07A83421FDF712FE38
:103DA0006C4C6D48206000256560A560E56025616C
:103DB0006561A5612000FFF71BFE002801D0FDF71B
:103DC00000FE80208001039004950595069503A9C7
:103DD0002000FFF7F5FE002801D0FDF7F2FD009569
:103DE000019502956946200000F0D2F8002801D024
:103DF000FDF7E7FD0E95129507A9200000F0F1F8F8
:103E0000002801D0FDF7DDFD2000FFF700FE15B012
:103E100030BD30B587B003A81021FDF7D3FD68464B
:103E20000C21FDF7CFFD4D4C4D4820604D486060A2
:103E30000025A5604C48E0602561A5612000FFF7E2
:103E4000D7FD002801D0FDF7BCFD80204001039084
:103E500003A92000FFF7B4FE002801D0FDF7B1FD53
:103E6000009502956946200000F092F8002801D0E4
:103E7000FDF7A7FD2000FFF7CAFD07B030BD0068C1
:103E80003749884200D0704780B5022037490A6818
:103E900002430A600968084000900098032201214B
:103EA0001020FDF77CFE1020FDF77DFE01BD0068AF
:103EB0002B49884200D07047FCB52D4CE088401C4F
:103EC000E0800125A079C00700D465702089401CDE
:103ED00020812849086880B2009000200860264EA2
:103EE000B169009A8918B1610099002902D0657101
:103EF000002106E0E178491CCAB2B52A01DB0021A5
:103F00006071E1702570E788781C01900521FDF74C
:103F100017FD002900D1A570142F0BDA2079002895
:103F200008D1E088132800D12571009841000818B5
:103F3000B060F3BD01981421FDF702FD002907D1FF
:103F4000B1690E4802888A1A53009A18B26001803B
:103F5000F3BD0000FC260020002C01403C2700207F
:103F600000040040FF1800000F2700003C10024032
:103F7000C0270020242C01407C270020A80000201E
:103F80007047704770477047704770477047FEE74B
:103F9000F0B50A003C21415C012901D10220F0BDAD
:103FA00003003C3301241C7002213D254155056866
:103FB0006E68A968304FBD4203D1304F3740566814
:103FC0003E438027B94397680F4370218E431168A1
:103FD0003143696001688F603D21445400201870AE
:103FE000F0BD10B53C22825C012A01D1022010BD37
:103FF00001223C23C254CA68214B13408A681A43E9
:10400000204B13404A681A431F4B13400A681A4357
:104010001E4B13400A691A43164B13404A691A4350
:104020001B4B13400A6B1A431A4C14408A69130441
:1040300023430268104CA24214D1174C1C40CB6998
:1040400023430E4C1C408B6A1B052343134C1C401E
:104050000B6A2343124C1C404B6A2343114C1C40F7
:10406000CB6A2343536400E0000000213C228154CA
:10407000002010BDFFDFFFFF002C0140FFFF0FFFFE
:10408000FFFCFFFFFFFBFFFFFFF7FFFFFFEFFFFF5F
:10409000FFBFFFFFFFFFF0FFFFFFFFEFFFFFFFFE90
:1040A000FFFFFFFDFFFFFFDFFEB5070000206A46B0
:1040B00010704D4C3968890354D50190802040051B
:1040C000216B014008D1216B01432163216B084022
:1040D0000190019801200190444E3068A10D0143E8
:1040E0003160FDF75DFC05003068C0050FD4FDF7B9
:1040F00057FC401B0328F7D305E0FDF751FC401B9C
:104100003B4988421FD303206946087023E0216D94
:10411000C0208000084037490E0000280ED0B96941
:1041200088420BD0206D3040216D802252020A431C
:104130002265216D304A0A4022652065C00705D5F9
:10414000FDF72EFC0500206D8007D6D5206D0640BA
:10415000B869304320650198002803D0206B2749B7
:10416000014021633878C00705D5A06C032188433E
:1041700079680143A1643878800705D5A06C0C21CB
:104180008843B9680143A1643878400605D5A06C1E
:104190001B490140F8680843A0648020C0013968C9
:1041A00001400DD0A16C890089087A690A43A26494
:1041B00079690204914203D1216882000A43226096
:1041C000396809050DD5A16C0E4A0A4039691143B9
:1041D000A1643969814204D12068802149020143E8
:1041E000216068460078FEBD0C100240007000405F
:1041F00089130000FFFCFFFFFFFFFEFFFFFFFFEF43
:10420000FFCFFFFFFF3FFFFF0000010002000100A2
:10421000030001000200010004000100020001008F
:10422000030001000200010005000100020001007E
:10423000030001000200010004000100020001006F
:10424000030001000200010006000100020001005D
:10425000030001000200010004000100020001004F
:10426000030001000200010005000100020001003E
:10427000030001000200010004000100020001002F
:10428000030001000200010007000100020001001C
:10429000030001000200010004000100020001000F
:1042A00003000100020001000500010002000100FE
:1042B00003000100020001000400010002000100EF
:1042C00003000100020001000600010002000100DD
:1042D00003000100020001000400010002000100CF
:1042E00003000100020001000500010002000100BE
:1042F00003000100020001000400010002000100AF
:10430000030001000200010070B5294E0AE0FDF72C
:104310008BFF2800FDF784FE206BFEF783FD200055
:10432000FEF711F93068B04227D0FDF775FE0500A1
:104330003068B0421ED0306804001C3C216AE2693B
:104340005160E169226A116021001C312162E06143
:10435000FDF760FF88202158002901D02000884700
:104360002000FEF702F90128D1D12000FEF7B6F8AF
:10437000FDF75AFF2800FDF753FE70BD80B5FFF72B
:10438000C3FFFCE71FB50B4C202003901F200290B9
:10439000E13001902000903000900023064A00BFD9
:1043A00006A12000FDF703FD2000FDF719FD1FBD4C
:1043B000AC2700200C2100207D4300087469646C48
:1043C0006500000000207047002070470020704703
:1043D0000020704738B5154C154D02E038B5144C27
:1043E000144D02E020688047241DAC42FAD331BD51
:1043F00080B500F03DF800F021F8002002BD80B546
:10440000FFF7ECFFFDF7D5FA01BD0000E0B5142081
:1044100001900A20009080239B000022064900BFE3
:1044200011A0FDF7F2FCFDF7DBFC07BD48490008D1
:104430004C49000850490008FF43000880B5FDF7CB
:10444000EBFD00F029F8FEF7D5F8FDF7F2FFFDF7D8
:1044500054FEFFF7DBFFFDF7F7FFFFF793FFFDF7D4
:1044600062FE002002BD00006D61696E0000000068
:1044700010B5074979441831064C7C44163404E0E1
:10448000081D0A68891888470100A142F8D110BDAB
:10449000FC0300001804000010B500F013F8FFF74B
:1044A00099FF00F021F8040000F022F82100FEF747
:1044B0000DFC10BD80B500F01FF8FEF70AFD00F0FE
:1044C00022F801BD80B500F02BF800F03DF800F0B7
:1044D00081F800F0B5F8FFF7DBF9FCF7C1FBFFF757
:1044E00051FCFFF796FC01BD004870470C210020ED
:1044F000004870470C01002080B5FDF78DFD07498D
:104500000A78521C05E080B5FDF786FD03490A785C
:10451000521E0A70FDF784FD01BD0000CA2700206D
:1045200010B5002407480168820D0A43026000208C
:10453000FDF75EFB002801D0012401E000F09EF8A9
:10454000200010BD0020024038B598B00BA83421DF
:10455000FDF738FA68461021FDF734FA04A81C214B
:10456000FDF730FA8020800000F0A0F802240B94C0
:10457000E0010E9000250F954020109012941394A6
:1045800014950820159080031690000317900BA82F
:10459000FCF7C4FE002801D0FDF713FA07200090B5
:1045A00001940295039502216846FDF7ABF80028B7
:1045B00001D0FDF706FA064804900595099504A870
:1045C000FFF772FD002801D0FDF7FBF919B030BDEF
:1045D0000140000038B586B001A81421FDF7F2F9BA
:1045E0000421154802680A430260026811400091E4
:1045F0000099012401682143016001682140009174
:104600000099022102680A4302600068014000919B
:1046100000980A4D012210212800FDF78CFA102085
:104620000190029400200390049001A92800FDF756
:10463000D1F907B030BD0000341002400004005032
:1046400080B501200C490A6802430A6009680840E5
:1046500000900098002200210920FDF7A0FA09200F
:10466000FDF7A1FA002200210A20FDF798FA0A209E
:10467000FDF799FA01BD00BF3810024081B00A4829
:10468000012142680A43426042681140009100994A
:104690008021490502680A430260006801400091D8
:1046A000009801B0704700BF3C10024010B50E4C9E
:1046B00021680E4A0A4002432260610D884210D1EF
:1046C0000B480068062148430A49FDF74DF9401C94
:1046D00000E0401E6169490503D50028F9D1032097
:1046E00010BD002010BD000000700040FFF9FFFF6A
:1046F000C000002040420F002D205254202D2020C9
:10470000202020546872656164204F706572617466
:10471000696E672053797374656D0A0020323030FA
:1047200036202D203230313920436F70797269671D
:1047300068742062792072742D74687265616420D7
:104740007465616D0A0000000000000000000000B8
:104750000000000000000000000000000000000059
:104760000000000000000000010000000200000046
:104770000300000004000000060000000700000025
:1047800008000000090000006D656D20696E697405
:104790002C206572726F7220626567696E20616499
:1047A000647265737320307825782C20616E6420E4
:1047B000656E642061646472657373203078257857
:1047C0000A00000070B40123002413E00168001DFA
:1047D000194202D04D466D1E49190C60091D121F69
:1047E000042AFAD20D00960701D50C80AD1C1A40A0
:1047F00000D02C700268001D002AE7D170BC704701
:104800007047704780B50848FCF722FC01BD80B5B1
:104810000648FCF71DFC0648FCF71AFC01BD80B5F4
:104820000448FFF715F901BDA82500200426002043
:10483000602600203C2700206D656D3A20307825E9
:104840003038782C207573656420666C61673A2077
:1048500025642C206D6167696320636F64653A206D
:104860003078253034780A006C656454687265616C
:10487000640000005A5F465F5A6875616E5F546855
:1048800072656164000000000000000039FFFFFF56
:10489000D02600000C0100200000000047C3FFFFED
:1048A000CA000000FA00000000000020FEE700003F
:1048B00000000000000000000000000000000000F8
:1048C00001000000020000000300000004000000DE
:1048D000FFF78EFD002801D0FFF7CAFD00BF00BF23
:1048E000002000BF00BFFDF764F800F000F880B5BD
:1048F00000F002F801BDFEE70746384600F002F876
:10490000FBE7FEE780B500BF00BF024A1100182098
:10491000ABBEFBE726000200014880470148004784
:1049200029490008394900080148024908607047D0
:104930000040000808ED00E000BF00BF00BF00BF5E
:10494000FFF7C6FFC5430008C9430008CD43000870
:10495000D1430008FEE7FEE7FEE7FEE7FEE7FEE7DD
:10496000FEE7FEE7FEE7FEE7FEE7200601000000A7
:10497000040000200412900C12020412140C2104F2
:1049800012280C12030412240C2104422C2C1300B4
:10499000340C52342012050412440C210412380C39
:1049A00012060412540C2104123C0C120A04126464
:1049B0000C426434F10C01F00316015103030001B1
:1049C000218821BC300A0024F400684800087F1CBC
:1049D00000083C420294217812741892A9185202DD
:0749E0001853884814D101AF
:04000005080049396D
:00000001FF
