:020000040800F2
:10000000A80C0020CD000008B9170008351500081D
:1000100000000000000000000000000000000000E0
:10002000000000000000000000000000BD170008F4
:100030000000000000000000BB170008BF17000808
:10004000DF00000800000000DF000008DF000008FB
:10005000DF000008DF000008DF000008DF00000804
:1000600000000000DF000008DF000008DF000008DB
:10007000DF000008DF000008DF00000800000000CB
:10008000DF000008DF000008DF000008DF000008D4
:10009000DF000008DF000008DF000008DF000008C4
:1000A000DF000008DF000008DF000008152100085D
:1000B000DF000008DF0000080348854600F08EF8E6
:1000C0000048004791220008A80C002004488047FF
:1000D00004480047FEE7FEE7FEE7FEE7FEE7FEE72F
:1000E00041180008B900000830B50B460146002051
:1000F0002022012409E00D46D5409D4205D31D462E
:100100009540491B2546954040191546521E002D25
:10011000F1DC30BDF0B51FB40646002082B00546C4
:100120004024019100901BE0019922460F46304681
:1001300000F042F8049A059B801A994110D31046AA
:100140001946224600F028F8361A8F4101972246B8
:1001500001200021009F00F01FF838184D41009049
:100160002046641E0028DFDC019B009829463246A9
:1001700007B0F0BDD2B201E00270401C491EFBD2B4
:1001800070470022F6E710B513460A4604461946A2
:10019000FFF7F0FF204610BD10B5202A04DB014612
:1001A000203A9140002010BD914020239C1A034624
:1001B000E3401943904010BD10B5202A04DB0846E7
:1001C000203AD040002110BD0B46D340D04020241F
:1001D000A21A91400843194610BD0000064C0125A3
:1001E000064E05E0E36807CC2B430C3C98471034DF
:1001F000B442F7D3FFF764FFDC230008FC230008B8
:1002000070B500231A46084D0AE0EC5C5B1C0B3409
:10021000E4B2402B00D30023865C66408654521C17
:100220008A42F2D370BD00002C0000201F21C906B5
:100230004018C20A10B50D480D490260098C02230E
:100240000906890B491EC90A891A491C41600948D7
:10025000002403604260816000F08EF90349054884
:10026000083100F00BF9204610BD00006C000020A2
:10027000C075FF1F8008002002484169024A1143EF
:10028000416170470020024004000100054A5169A5
:10029000FF23F9339943C0000843034908435061E1
:1002A00070470000002002400200010030B50549FF
:1002B0004C6901252C434C610260BFF36F8F436092
:1002C00030BD00000020024030B50B4C00236269B5
:1002D0000125AD042A436261EFF3108272B620C992
:1002E0005B1C20C0DBB2402BF9D32069C003FCD4D7
:1002F00082F3108830BD00000020024070B5054632
:1003000000F0E8F94619174C03E000F0E3F9B042B9
:100310001FD22069C043C003F7D5216912480140AC
:10032000401C2061A26901208007024003D0A0691F
:100330001043A0611143002903D00C484160012003
:1003400070BD00F0C7F9451905E000F0C3F9A842F7
:1003500001D3032070BD2069C0434003F5D50020C0
:1003600070BD000000200240FAC300008C0800208D
:100370001F21C906401810B5C30A094901200B60A6
:1003800048600849022288600CC1002400F0F4F89B
:1003900003490448083100F071F8204610BD000000
:1003A0006C0000208008002070B515460E460446FB
:1003B00000F0E2F8002305E0590020885B1C705231
:1003C0009BB2A41CAB42F7D300F098F870BDF7B510
:1003D000002615460F46344600F0CEF809E0E0004E
:1003E00039180CC900994118012000F095F8641CD7
:1003F000A4B2AC42F3D33046FEBD0000F8B50146CE
:100400000024203101220A714B79022B03D00421F0
:10041000C16301242DE003681D680E26B5431D60ED
:1004200003681D686D086D001D60436C1D68FF2624
:100430000136B5431D60104B5D68066C1C273E40BD
:100440001746B7403D435D60836CC56C5D60036DCE
:10045000002B07D01E68FF250135AE431E60436D9B
:10046000856D5D604A7100220A71816B002900D0A0
:1004700088472046F8BD000000000240F8B51D4D39
:10048000064628780F4601280AD00120287000204F
:1004900068607D20C000FFF731FF002802D026E011
:1004A0000220F8BD3168042904D00021C943396015
:1004B000746812E0FFF7E0FE7D20C000FFF71EFF2A
:1004C00015E02046FFF7E2FE7D20C000FFF716FF93
:1004D000002801D03C6005E0641CB268716889188E
:1004E000A142EED804494A6902239A434A61002195
:1004F0002970F8BD8C080020002002400549012029
:100500004A69C3071A434A614969002900DA002091
:100510007047000000200240F0B51FB4144C06469E
:100520002078154601280AD00120207000277D2060
:10053000C0006760FFF7E2FE002803D010E0022051
:1005400005B0F0BD012E0DD029460198FFF7BCFE85
:100550007D20C000FFF7D2FE06494A69B2434A61D6
:100560002770EDE72A46039B0198FFF79FFEEFE710
:100570008C08002000200240064900204A69002A19
:1005800007DA054A8A60054A8A604969002900DA63
:10059000012070470020024023016745AB89EFCD61
:1005A000F0B5002388E001229A40944614402200CE
:1005B0007ED04C68022C01D0122C0CD1DC08A40097
:1005C00027183C6A5D07ED0E0F26AE40B4430E6956
:1005D000AE4026433E6205685E000324B4400F79B6
:1005E000A543BF07BF0FB7402F4307604D68012DDC
:1005F00005D0022D03D0112D01D0122D0ED185680A
:10060000CF68A543B7402F43876047686546AF432F
:100610000D79ED06ED0F9D403D434560C568A5434E
:100620008C68B4402C43C4604C68E40043D59D08FA
:10063000244CAD002F193C6E9D07EE0E0F25B540E2
:10064000AC4305252D07A84201D100250FE01E4D22
:10065000A84201D101250AE01C4DA84201D1022582
:1006600005E01B4DA84201D1032500E00525B5405A
:100670002543144C3D66134D80352E684F689643D4
:10068000FF0300D516432E606E684F689643BF0384
:1006900000D516436E6025684E689543F60200D576
:1006A0001543256065684E689543B60202D500E0A3
:1006B00001E0154365605B1C0A681446DA4000D00F
:1006C00071E7F0BD0018024000040050000800501F
:1006D000000C00500148806870470000780000203E
:1006E000024881684268891881607047780000205C
:1006F00010B50848002401688215114301602046A6
:1007000000F00AF8002801D0012401E000F028F8E8
:10071000204610BD0020024070B50F4E00247168C5
:100720000546002915D07D20C000FFF7DDFC0146FD
:100730000A480068FFF7D8FC00F04CFC002808D1FC
:10074000042D06D200222946401E00F02BF8356009
:1007500000E00124204670BD7800002084000020C5
:1007600008B5094801680122114301600068104082
:10077000009005484038C26B01040A43C263C06B55
:100780000840009008BD000040100240002805DB32
:10079000C106C90E01208840014908607047000069
:1007A00000E100E010B501F041FD10BD10B50F4CA7
:1007B000216803225202914301432160C11FFF3986
:1007C000FA390ED10A480621006848430949FFF763
:1007D0008BFC401C02E0002805D0401E61694905E1
:1007E000F9D4002010BD032010BD000000700040AF
:1007F0008400002040420F00FEB504460068002738
:10080000704D714E800355D500200090F06BC000F4
:1008100007D4F16BA8050143F163F16B014001209E
:1008200000906A480168821511430160FFF752FF8A
:10083000019005E0FFF74EFF0199401A022825D8E4
:1008400062480068C005F5D5E8690321090208403F
:100850000FD0216B81420CD0E86903210902EA69BB
:100860008843012109040A43EA61EA698A43EA618B
:10087000E861C0070FD0FFF72DFF019008E0FFF7F8
:1008800029FF0199411A5248814201D9032709E001
:10089000E8698007F3D5E869032109028843216BE1
:1008A0000843E8610098002804D0F16B012000079C
:1008B0008143F1632078C00705D0686961688008CA
:1008C0008000084368612078800705D568690C219D
:1008D0008843A168084368612078800606D5686966
:1008E000032189028843E168084368612088800504
:1008F00006D56869032189048843A16908436861B2
:100900002088400506D56869032109058843E16907
:10091000084368612078400606D568690321090309
:100920008843216908436861208840040ED56869BE
:10093000216A80008008084368610121206A8907D4
:10094000884203D1F06889130843F06020680003EF
:1009500005D5686940218843616A08436861206859
:1009600081021C480BD569698210A36A914319431F
:100970006961A16A914202D1F1680143F160216885
:1009800049020AD56969E26A814311436961E16AF2
:10099000814202D1F1680143F160208800050FD542
:1009A00068690321890388436169084368610121FB
:1009B00060698903884203D1F06889000843F060C8
:1009C0003846FEBD4010024000100240007000405A
:1009D0008813000000000001F8B50F46060043D060
:1009E0004D4D28684007400FB84213D22868C00810
:1009F000C00038432860FFF76DFE044605E0FFF7AE
:100A000069FE011B4548814261D828684007400FB4
:100A1000B842F4D13068424C81070DD5400704D567
:100A2000A068072109030843A060A0680F210902FC
:100A30008843B1680843A0603078C00732D070683E
:100A400001280AD002280BD000280FD034494031A9
:100A500003280ED0C969890704E02168890301E0F1
:100A600021688901002906DB0120F8BD21684905BC
:100A7000F8E7096AEFE7A168C908C9000143A16066
:100A8000FFF728FE009006E0FFF724FE0099411AC8
:100A9000224881421BD8A068382108407168C900EB
:100AA0008842F1D128684007400FB84217D91A4848
:100AB0000168C908C90039430160FFF70BFE05460C
:100AC00007E0FFF707FE411B1448814201D90320CC
:100AD000F8BD114800684007400FB842F1D13078A6
:100AE000400706D5A068072109038843F168084339
:100AF000A06000F031F8A1683C2289091140094A40
:100B0000515CC906C90EC84007490860074800681B
:100B1000FFF702FEF8BD000000200240881300002D
:100B2000001002407C230008840000207800002090
:100B30000648074900688968064A4904490F890040
:100B4000515CC906C90EC8407047000084000020EF
:100B500000100240BC23000810B5204CA068204AB9
:100B60008006400F16D0A0688006410F5010012962
:100B70000FD0A1688906490F022912D0A06880060B
:100B8000400F042823D0A0688006400F032821D0FE
:100B9000002010BD206801218004400F81401046D4
:100BA00012E0E1688B07E1689B0F4906490F491C79
:100BB000032B00D01046FFF797FAE1684904490E6D
:100BC0004843E168490F491CFFF78EFA10BD012028
:100BD000C00310BD7D20000210BD000000100240C7
:100BE0000024F400F8B504007ED020783827C00730
:100BF000EF4D002846D0A868E96838408907890F7A
:100C0000102802D008280BD001E0032908D00120C9
:100C10006268000482420AD129680143296015E014
:100C2000286880032ED560680028DDD02AE00523DF
:100C300001211B0489049A422A6802D10A432A60CE
:100C4000EAE782432A6028688843286060680028B1
:100C50000CD0FFF73FFD064604E0FFF73BFD801B8D
:100C6000642873D828688003F7D50BE0FFF732FDBE
:100C7000064604E0FFF72EFD801B6428F1D82868A3
:100C80008003F7D42078800769D5A868E9683840E0
:100C90008A070721920FC902102802D0002813D01A
:100CA00001E0022A10D0E068002846D02868884376
:100CB0002169084328602868FF2101310843286022
:100CC000FFF708FD06462CE02A68520502D5E268C7
:100CD000002A89D06A687F231B029A4363691B023A
:100CE0001A436A60002800E08DE00ED1286888432E
:100CF000216908432860286801218004400F814051
:100D0000AC48FFF7F1F9AC490860AC480068FFF760
:100D100003FD002877D122E0FFF7DCFC801B0228CE
:100D20009FD828684005F7D568687F210902884365
:100D3000616909020843686011E02968FF200130F9
:100D400081432960FFF7C6FC064605E098E0FFF7FF
:100D5000C1FC801B022884D828684005F7D420787D
:100D6000974E00072ED5A8688006400F03280AD0AA
:100D7000A0690028306A16D0012108433062FFF7CD
:100D8000A9FC07460BE0306A80071BD5A069002844
:100D90009FD017E0FFF79EFCC01B022870D8306A76
:100DA0008007F7D50EE0400840003062FFF792FC64
:100DB000074604E0FFF78EFCC01B022860D8306AAB
:100DC0008007F7D4207840076CD5A86800278006F4
:100DD000400F042818D0E86BC00008D4E96B01204C
:100DE00000070143E963E96B014001270091754861
:100DF0000168C90519D40168821511430160FFF724
:100E000069FC00900DE083E0F06980074AD5A06896
:100E100000287DD046E0FFF75DFC0099401A0228CB
:100E20002ED868480068C005F5D5A168012910D002
:100E300004200529F16911D049084900F161F169DF
:100E40008143F161A068002816D0FFF743FC0090B1
:100E50000EE0F06901210843F061F3E70143F1611D
:100E6000F7E7FFF737FC0099411A574881426FD8DE
:100E7000F0698007F5D50EE0FFF72CFC009007E045
:100E800066E0FFF727FC0099411A4F4881425FD87E
:100E9000F0698007F5D4002F04D0E86B0121090721
:100EA0008843E863E06900287FD0A9688906490F74
:100EB000022953D001263606022828680DD0B043F7
:100EC0002860E86880088000E860E8683F490840DA
:100ED000E860FFF7FFFB04463CE0B0432860FFF703
:100EE000F9FB074604E0FFF7F5FBC01B02282FD8EB
:100EF00028688001F7D4616A206AA26A0843E16A1F
:100F0000120211430843216B0843616B084300E060
:100F100049E0E9682E4A11400843E86028683043F8
:100F20002860E868012109070843E860FFF7D2FB61
:100F3000044604E0FFF7CEFB001B022808D828680F
:100F40008001F7D531E0FFF7C5FB001B022801D96E
:100F50000320F8BD28688001F5D426E00128F8D0E8
:100F6000E868226A8107890F91421CD17021626A68
:100F70000140914217D17F21A26A09020140120269
:100F8000914210D11F214904E26A014091420AD1E5
:100F900007214906226B0140914204D1400F616B49
:100FA0004007884201D00120F8BD0020F8BD0000B4
:100FB000001002400024F40084000020780000208B
:100FC000401002400070004088130000FFFFFEEE5A
:100FD0008C80C111094910B5401E884201D90120F9
:100FE00010BD074C60610321081F01F01FF90020AC
:100FF000A06107202061002010BD0000FFFFFF005E
:1010000000E000E07047704770477047F8B503682C
:101010000446DA691868996816072546360F803540
:10102000002E60D0584EFF2721370E40074037432F
:1010300072D0D70706D0C70504D501271F62AB6859
:101040003B43AB60930708D5CB0706D02768022344
:101050003B62AB6804273B43AB60530708D5CB0723
:1010600006D0276804233B62AB6802273B43AB6092
:10107000130709D520230340334305D026680823EE
:101080003362AE681E43AE60AB68002B38D0920668
:101090000AD520221040D2051140084304D0E16E49
:1010A000002901D020468847A86821688968490638
:1010B00001D4000729D5204600F0B4FC20688168DF
:1010C00049061ED5826840218A438260A06F0028AD
:1010D00017D02E498163A06FFFF790F900280FD039
:1010E000A06F816B0BE0960616D5012720263F07DF
:1010F00006400F403E430FD0E16E22E02046884775
:10110000F8BD2046FFF781FFF8BD2046FFF77DFFC1
:101110000020A860F8BDFFE7D60208D54E0206D52C
:101120000120000518622046FFF76EFFF2E7160661
:101130000AD501278026FF05064039400E4303D01B
:10114000216F0029DAD1E5E751060DD541060BD50F
:101150001A68204640218A431A6020212960002114
:10116000216700F04EF8D5E7110205D5410003D5FF
:101170002046FFF748FFCDE7D101CBD50028C9DADB
:101180002046FFF73FFFC5E701000010111A0008D5
:1011900070B5040006D0204680300546006800285F
:1011A00002D007E0012070BD00217C2001552046BF
:1011B00000F026F8242028602068016849084900CA
:1011C0000160204600F042FC0128ECD0A06A002813
:1011D00002D0204600F084FB206841680922D20238
:1011E00091434160206881682A2291438160206890
:1011F0000168012211430160204600F0D7FB70BD59
:1012000070477047FEB502A9C44800F057FA8446FB
:10121000C2484178412979D10178002976D00191DD
:101220008278C3781202D21897B2027943791202F7
:10123000D21896B28279C3791202D21895B2027A84
:10124000437A1202D2186B461B8992B29B1FB3429B
:101250005CD1B3484378994201D0FF2956D1017936
:10126000002903D0042F01D0012F4FD10021AD4C14
:1012700041710346A9485979405C6054491CC8B281
:1012800058710428F6D3A64B002158792154401CEC
:10129000C1B201206054491CC9B26046597103288B
:1012A00001D0022265E0A048012F06D0022F5DD0B8
:1012B000032F7CD0042F5BD1FBE0994A00211171F0
:1012C00072B61822974998483039FFF76DF895485B
:1012D000FF21303801709448FFF74AF891490622FF
:1012E00030399148FFF773F862B600218C48407995
:1012F0002154401C8A49C0B24871002E07D0022EEA
:1013000005D0012120182038C177C8E005E1844CC0
:1013100000202081E080854E08E06D1EADB2B54210
:1013200009D072B68048FFF723F862B60120C002E8
:101330008542F2D3B3E0E0780C2801D0C028ECD18C
:1013400072B61822774978483039FFF72DF875487A
:10135000E178303841717448FFF70AF87149062284
:1013600030397148FFF733F862B6D6E7002E02D065
:1013700001226B4890E06A4D0C21E97072B6182288
:10138000684906463039FFF70FF86648E978303883
:1013900041713046FEF7ECFF624906223039304693
:1013A000FFF715F862B672B6614E304600E005E010
:1013B000FEF73CFF62B600216E614DE0584803899C
:1013C0009C46002B03D1012D01D9002A10D0AC4539
:1013D00057D1012D55D95248C388501E834250D150
:1013E00094454ED90020361FB6B24C4D00901AE0FD
:1013F00000228261C2610581C2806254491C417130
:10140000464B11465C18A47A1202491CA21889B2F4
:101410000429F7D3826142E029188A7A0099511889
:10142000401C80B20091B042F6D33C4831460A30AD
:10143000FEF7E6FE002004E02918897A2954401CB2
:1014400080B2B042F8D3364D3449F2086869FEF7ED
:10145000BEFF002805D0012168792154401C687125
:101460001DE06869002180196861E888401CE880F7
:1014700068792154401C6871E96900980818E8618E
:101480000DE02748AC4530D1012D2ED9C3889342B9
:101490002BD1944529D900226254491C41710198ED
:1014A000002831D01E4C6178814220D0FF281ED008
:1014B0002AE01B48C3698269934204D1C288038928
:1014C000521C9A4202D00289002A01D1002E01D07A
:1014D0000222E1E703890A22002B01D00271DAE738
:1014E000C3780C2B01D0FF2BF8D10122D4E7042FB5
:1014F00006D1322000F0B6F900F0BAF90028FBD08E
:101500006179084800F02AF9042F06D1642000F020
:10151000A9F900F0ADF90028FBD0FEBDEC000020D9
:1015200000000020B800002000380008FE0700007E
:1015300000400008FEE7000006480169490849002C
:10154000016105494868054A1061D060096881F366
:101550000888004700E000E000400008000000208C
:1015600030B50546C80701D0002030BD4C08002327
:1015700006E05800401900F007F8D0545B1C9BB2FD
:10158000A342F6D3204630BD0178412901D230393B
:1015900004E0612901D2373900E057390907407862
:1015A000090E412801D2303904E0612801D23739CF
:1015B00000E057394018C0B2704710B500220DE066
:1015C000835C302B0CD31C463A3C072C08D30D3CD3
:1015D0001A2C05D3662B03D8521C92B28A42EFD341
:1015E0008A4201D1012010BD002010BD30B5044653
:1015F000C80701D0002030BD4D0800231A4607E07F
:1016000050000019FFF7C0FFC018521CC3B292B2BD
:10161000AA42F5D3D843401CC0B230BD70B51B49B7
:1016200000230E7801220225194C002E04D0012E31
:1016300014D0022E16D126E03A2802D00D2802D06E
:1016400002E04B8000E00A704A88A054521C90B21D
:101650004B22D2004880904204D270BD3A2803D079
:101660000A2805D00D7070BD0B7020704A8070BDC7
:101670000D704B88E0545B1C4B8006480649027095
:101680000C20087070BD3A28EED070BD24000020F8
:10169000EC000020230000200000002002090A2A9C
:1016A00001D2303200E037320007000F0A700A28FA
:1016B00001D2303000E0373048707047F3B5060093
:1016C00021D01949087800281DD0184C60880028BE
:1016D00019D000220A70C01E154D81B2681CFFF798
:1016E0006CFF002811D06088401F81B2681CFFF792
:1016F0007DFF024660882818001FFFF745FF9042D3
:1017000005D0022704E00020FCBD0120FCBD03271A
:1017100060883246401F81B2681CFFF721FF0199A3
:1017200008803846FCBD0000230000202400002073
:10173000EC000020F0B507464804050C16460C46A0
:10174000002306E058008119F85CFFF7A7FF5B1C37
:101750009BB2A342F6D32846F0BD000070B5002925
:1017600007D0002805D04A004B23DB00521D9A42C7
:1017700001D9002070BD0F4C3A222270621CFFF785
:10178000D9FF401C85B2681E81B2601CFFF72EFF96
:101790006119FFF783FFAD1CA8B20D212154401C35
:1017A00080B20A212154401C81B2204600F06AF820
:1017B00080B270BD2806002070477047704710B592
:1017C00000F046F8FEF78CFF10BD000030B59FB06A
:1017D00038216846FEF7D5FC00241B941C941D9408
:1017E00034210EA81E94FEF7CCFC01204002FEF727
:1017F000DDFF0225E80103900095402005900820B8
:101800000A9080030B900895000304940D900795AF
:1018100009946846FFF7E6F907201B901D94022102
:101820001C951E941BA8FFF7D7F804480E900F9440
:1018300016940EA8FEF7E0FF1FB030BD0140000077
:1018400001200249C00688607047000000ED00E0FA
:1018500003480168002901D0491E0160704700005B
:10186000280000200149086070470000280000207F
:1018700003480068002801D000207047012070470D
:101880002800002030B502460020002905D0002A9B
:1018900003D00F4C2378002B01D0002030BD4B2308
:1018A000DB000C4D994203D91946135C2B54401CA4
:1018B0008842FAD3084A287890620120607007486D
:1018C00021700068026840231A430260084630BD58
:1018D0002000002044030020003801409C05002027
:1018E00010B5018DC90707D001684A6801235B0460
:1018F0009A43C36A1A434A60018D890707D5016874
:101900004A6801231B049A43036B1A434A60018D02
:10191000490707D501684A6801239B049A43436B32
:101920001A434A60018D090707D501684A680123F7
:10193000DB039A43836B1A434A60018DC90607D5BE
:101940000268916801231B039943C36B194391609B
:10195000018D890607D501688A6801235B039A43D4
:10196000036C1A438A60018D490612D503685A68D0
:1019700001210905446C8A4322435A60426C8A4221
:1019800007D10268516803235B059943836C1943AF
:101990005160018D090607D501684A680123DB04FF
:1019A000C06C9A4302434A6010BD0000FEB5054674
:1019B000002680350446AE60FEF78CFE019020685C
:1019C0000068124F000709D5012100970022490540
:1019D0002046019B00F06AFB00280DD120680068BA
:1019E00040070BD501210097002289052046019B65
:1019F00000F05CFB002801D00320FEBD2020286001
:101A00006860603426770020FEBD0000FFFFFF0104
:101A100010B5806A002201464031CA83CA82FFF7AE
:101A2000F4FA10BD01680A68FF2321339A430A6063
:101A300001688A68044B1A408A60202284210A5077
:101A40000021C16670470000FEFFFFEFF8B50446B5
:101A5000036880682269E6691043626900253243A1
:101A60001043626EF24902431868F24E3040104350
:101A700018602268506803231B039843E3681843E7
:101A800050602268A0698A4201D0236A1843936893
:101A9000E94E3340034393602068C26A636A1209C7
:101AA00012011A43C262E54B2068E54A98420AD106
:101AB00052699207920F39D0012A3BD0022A37D0BF
:101AC000032A25D122E0DF4B98420AD152690C2328
:101AD0001A402BD0042A2DD0082A29D00C2A17D13D
:101AE00014E0D94B984221D0D84B98421ED088425E
:101AF0000ED1536903229202134017D001229202A1
:101B00009B1A17D09B1A13D0934201D1082600E0EC
:101B10001026FF27013788426FD1002E0CD0022EED
:101B20003BD0042E7CD0082E69D182E00026F0E75D
:101B30000226EEE70426ECE7FEF7FAFF72E0022148
:101B400029E0022812D0032812D0042812D0052838
:101B500012D0062812D0072812D0082812D009283F
:101B600012D00A2812D00B2814D111E0042112E05F
:101B7000062110E008210EE00A210CE00C210AE009
:101B8000102108E0202106E0402104E0802102E04D
:101B9000394600E0012110461AE0606A002815D09D
:101BA000012824D0022824D0032824D0042827D0B8
:101BB000052827D0062827D0072827D0082827D08F
:101BC000092827D00A2827D00B2827D00121A04890
:101BD000FEF78AFA002860D0616800914A008918EF
:101BE000814259D800990903814255D356E0022118
:101BF000EDE70421EBE70621E9E73AE110E04BE0ED
:101C00000821E4E70A21E2E70C21E0E71021DEE702
:101C10002021DCE74021DAE78021D8E73946D6E702
:101C2000FEF79AFF0246606A0028B3D0012888D1E7
:101C300085E7606A002815D0012817D0022817D040
:101C4000032817D0042817D0052817D0062817D046
:101C5000072817D0082817D0092817D00A2817D026
:101C60000B2817D001210120C003B1E70221FAE7B8
:101C70000421F8E70621F6E70821F4E70A21F2E754
:101C80000C21F0E71021EEE72021ECE74021EAE704
:101C90008021E8E73946E6E70125DDE1002E31D075
:101CA000022E76D0042E75D0082EF5D1606A002859
:101CB00015D001286FD002286ED003286DD00428DB
:101CC0006CD005286BD006286AD0072869D0082870
:101CD00068D0092867D00A287ED00B2800D00127B9
:101CE000002601203A463346C0030021FEF712FACF
:101CF000020E0902114302020098400810187141B7
:101D0000009A3CE0FEF714FF85E0012815D0022878
:101D100015D0032815D0042815D0052815D006287D
:101D200015D0072815D0082815D0092815D00A285D
:101D300015D00B2814D0012712E0022710E0042749
:101D40000EE006270CE008270AE00A2708E00C2727
:101D500006E0102704E0202702E0402700E080276B
:101D6000002608463A4633463146FEF7D3F9020EBE
:101D700009021143626803025008181871410023D8
:101D8000FEF7C8F903210902421A32498A426FD983
:101D900082E709E03DE043E044E045E046E05BE007
:101DA0005CE05DE05EE05FE0606A002817D001283B
:101DB0001BD002281BD003281BD004281BD00528C9
:101DC0001BD006281BD007281BD008281BD00928A9
:101DD0001BD00A281BD000E048E00B2800D00127C8
:101DE00000263A4633461A487FE70227F8E70427D9
:101DF000F6E70627F4E70827F2E70A27F0E70C27BB
:101E0000EEE71027ECE72027EAE74027E8E78027FE
:101E1000E6E7FEF7A1FE0146606A00288BD074E772
:101E200002275DE704275BE7062759E7082757E7FE
:101E300000800040F369FFCFFFF4FF11003801403C
:101E4000401002400044004000480040004C004068
:101E50000024F400FFFC0F000A2741E70C273FE7AE
:101E600010273DE720273BE7402739E7802737E762
:101E7000F0E00122E069D20390426ED1002E06D03C
:101E8000022E35D0042E7AD0082E81D17AE0FEF7CA
:101E90004FFE76E0012815D0022815D0032815D072
:101EA000042815D0052815D0062815D0072815D0E8
:101EB000082815D0092815D00A2815D00B2814D0C9
:101EC000012712E0022710E004270EE006270CE0AD
:101ED00008270AE00A2708E00C2706E0102704E09C
:101EE000202702E0402700E08027394610461BE00B
:101EF000606A002815D001282BD002282BD0032897
:101F00002DD004282DD005282DD006282DD0072827
:101F10002DD008282DD009282DD00A282DD00B2807
:101F200000D0012739465F48FEF7DEF861684000BF
:101F30004A088018FEF7D8F880B201465A4A10398C
:101F4000914200D9A8E6511C01400007400F084308
:101F500080E00227E6E70427E4E717E00FE0062722
:101F6000E0E70827DEE70A27DCE70C27DAE7102797
:101F7000D8E72027D6E74027D4E78027D2E7FEF727
:101F8000EBFD0246606A00289AD083E7002E06D057
:101F9000022E35D0042E7ED0082ED3D17EE0FEF75F
:101FA000C7FD7AE0012815D0022815D0032815D0E6
:101FB000042815D0052815D0062815D0072815D0D7
:101FC000082815D0092815D00A2815D00B2814D0B8
:101FD000012712E0022710E004270EE006270CE09C
:101FE00008270AE00A2708E00C2706E0102704E08B
:101FF000202702E0402700E08027394610461BE0FA
:10200000606A002815D0012830D0022830D003287B
:1020100030D0042831D0052831D0062831D0072807
:1020200031D0082831D0092831D00A2831D00B28E6
:1020300000D0012739461B48FEF756F861684A0868
:102040008018FEF751F880B20146174A10399142C4
:1020500000D921E62168C860204601214030418531
:1020600001850020E06620672846F8BD0227E1E7E9
:102070000427DFE70627DDE70DE00827DAE70A2770
:10208000D8E70C27D6E71027D4E72027D2E7402748
:10209000D0E78027CEE7FEF75FFD0246606A0028A2
:1020A00096D07FE70024F400EFFF0000FFB581B079
:1020B00017460E4604460A9D09E0681C07D0FEF745
:1020C00009FB0499401AA8420CD8002D0AD02068B8
:1020D000C169304688431AD00020B842EDD00020B4
:1020E00005B0F0BD20680168FF22A1329143016074
:1020F000206881684908490081602021204680309D
:10210000016041600020603420770320E8E701206F
:10211000E3E7000070B5144C2068C169134D8906CF
:1021200005D513490162686AC0B2FFF777FA2068E3
:10213000C169490613D50F4901620F4841780278F9
:10214000914207D300210170206801684022914329
:10215000016004E0094A525CAA62491C41700248CD
:10216000FEF754FF70BD00009C05002000380140C0
:102170002505000026060000200000204403002062
:1021800038B519480268012189030A4302600068D2
:102190000840009000F02EF8012211461B20FEF7A7
:1021A00001FB1B20FEF7F2FA114C10482060E120E1
:1021B0004002606000202061A060E060A0612062B9
:1021C00060620C21A062616160662046FEF7E0FF5C
:1021D0002068016820221143016020680168012203
:1021E0001143016038BD000040100240003801403A
:1021F0009C05002000B50C4887B0426B01210A43C2
:102200004263406B04910840059012200190002029
:1022100002900390032040020090052069460007C9
:10222000FEF7BEF907B000BD001002408307FF2291
:10223000DB0E9A408907090E9940002808DB8308C5
:1022400009489B001B1818689043084318607047A2
:102250000007000F0838830804489B001B18D86942
:1022600090430843D861704700E400E000ED00E0CF
:1022700002E008C8121F08C1002AFAD1704770474F
:10228000002001E001C1121F002AFBD170470000AD
:10229000FEF72EFAFFF79AFAFFF772FF72B60622E0
:1022A00031493248FEF780F862B62F4D304C28781D
:1022B000A0706978617069790026E1700C2824D0DB
:1022C000FF2822D00C2920D0022020717D27FF007A
:1022D0003846FFF7C7FAFFF7CBFA00280BD0207972
:1022E00000280BD00A2806D2012810D0401E2071E9
:1022F0003846FFF7B7FA20790A2808D020780C284A
:10230000E9D12670FEF77EFFE5E72671DEE7194882
:1023100000681949084001214907884223D172B653
:102320001822124C10492046FEF73EF82E70204627
:10233000FEF71EF806220C492046FEF748F862B662
:1023400072B6182208492046FEF72EF8C0206871A0
:102350002046FEF70DF8062203492046FEF737F81F
:1023600062B6FFF7E9F8FEE78800002000380008B1
:1023700000000020004000080000FE2F00000000C8
:10238000000000000000000000000000000000004D
:10239000000000000000000000000000010000003C
:1023A000020000000300000004000000060000001E
:1023B0000700000008000000090000000000000005
:1023C000000000000000000000000000010000000C
:1023D000020000000300000004000000FC230008CD
:1023E00000000020880000007022000884240008FB
:1023F00088000020200C000080220008000000005F
:1024000000000000000000000000000000000000CC
:1024100000000000000000000000000000000000BC
:1024200002000000000000005368656E5A68656E87
:1024300020536F77617920536369656E636520610E
:102440006E6420546563686E6F6C6F6779204465B5
:1024500076656C6F706D656E7420436F2E2C204C0A
:1024600074642E20202020000000000000000000E6
:102470000000000004000000010000000000000057
:042480000024F40040
:04000005080000B936
:00000001FF
