:020000040800F2
:10000000C8150020CD000008B918000895010008A7
:1000100000000000000000000000000000000000E0
:10002000000000000000000000000000BB180008F5
:10003000000000000000000013010008BD180008C7
:10004000DF00000800000000DF000008DF000008FB
:10005000DF000008DF000008DF000008DF00000804
:100060000000000069020008DF000008DF0000084F
:10007000DF000008DF000008DF00000800000000CB
:10008000DF000008DF000008DF000008DF000008D4
:10009000DF000008DF000008DF000008DF000008C4
:1000A000DF000008DF000008DF000008D51F00089F
:1000B000DF000008DF0000080348854600F0BCF8B8
:1000C000004800475D020008C8150020044880472A
:1000D00004480047FEE7FEE7FEE7FEE7FEE7FEE72F
:1000E000CD190008B9000008EFF3108072B6704710
:1000F00080F3108870472A4A1368012B03D001232C
:100100001360284A1060284A116028482849016075
:100110007047EFF3108272B62148016800291DD0A4
:10012000002101601F48016800290AD0EFF309810E
:10013000203900680160F0C144464D4656465F468E
:10014000F0C1194909680968F0C9F0B4F0C9A046BE
:10015000A946B246BB46F0BC81F3098882F31088F9
:10016000042040420047104908600E490020086002
:100170000B49012008600F480F49026811430160D4
:100180000A480B4901600D480068006880F3088840
:1001900062B67047EFF3098000B502F0E5F900BDE3
:1001A0008C000020840000208800002004ED00E086
:1001B0000000001020ED00E00000FF0008ED00E06E
:1001C00030B50B46014600202022012409E00D46EF
:1001D000D5409D4205D31D469540491B2546954077
:1001E00040191546521E002DF1DC30BD70B50024BB
:1001F0002546002801DA01244042002901DA0125C0
:100200004942FFF7DDFFAC4200D04042002C00D055
:10021000494270BDD2B201E00270401C491EFBD2BF
:1002200070470022F6E710B513460A460446194601
:10023000FFF7F0FF204610BD064C0125064E05E0F5
:10024000E36807CC2B430C3C98471034B442F7D3F7
:10025000FFF736FF683400088834000810B502F054
:1002600081FF002010BD000010B5024800F07EF9AB
:1002700010BD00002405002010B5044600781421AC
:100280000838FFF79DFF216C064A89088900891804
:10029000616404498031A1641C210840012181402E
:1002A000E16410BD000802400179074B8A00D218B2
:1002B0000265054A4432491E42658A07920F0121B0
:1002C0009140816570470000FC080240F0B5846CE5
:1002D000C56C6560046D002C02D0446D856D656051
:1002E0000B4C6568066C1C273E400127B7403D4318
:1002F0006560046863608368102B036803D09960AD
:100300000068C260F0BD9A600068C160F0BD000086
:10031000000002407047000002484169024A114350
:10032000416170470020024004000100054A516904
:10033000FF23F9339943C000084303490843506140
:1003400070470000002002400200010030B505495E
:100350004C6901252C434C610260BFF36F8F4360F1
:1003600030BD00000020024030B50B4C0023626914
:100370000125AD042A436261EFF3108272B620C9F1
:100380005B1C20C0DBB2402BF9D32069C003FCD436
:1003900082F3108830BD00000020024070B5054691
:1003A00000F0FCFA4619174C03E000F0F7FAB042EF
:1003B0001FD22069C043C003F7D52169124801400C
:1003C000401C2061A26901208007024003D0A0697F
:1003D0001043A0611143002903D00C484160012063
:1003E00070BD00F0DBFA451905E000F0D7FAA8422D
:1003F00001D3032070BD2069C0434003F5D5002020
:1004000070BD000000200240FA8300007C0E002036
:100410001F21C906401810B5C30A094901200B6005
:1004200048600849022288600CC1002400F002FAEA
:1004300003490448083100F08DF9204610BD000042
:1004400000000020700E0020F7B5002615460F466C
:10045000344600F0EFF909E0E00039180CC90099C2
:100460004118012000F0B6F9641CA4B2AC42F3D3E9
:100470003046FEBDF0B5002808D0014620314A794B
:10048000022A05D00422C263002008710120F0BDB9
:10049000026813680E24A3431360426C1468FF23A0
:1004A00001339C431460026814686408640014609B
:1004B0000C4A5568066C1C24264001242746B74088
:1004C0003D435560826CC56C5560026D002A05D0B5
:1004D00015689D431560826D406D42604C7100202F
:1004E0000871F0BD00000240F8B50146002420313B
:1004F00001220A714B79022B03D00421C16301242C
:100500002DE003681D680E26B5431D6003681D6855
:100510006D086D001D60436C1D68FF260136B543F4
:100520001D60104B5D68066C1C273E401746B740A7
:100530003D435D60836CC56C5D60036D002B07D02F
:100540001E68FF250135AE431E60436D856D5D60FD
:100550004A7100220A71816B002900D08847204629
:10056000F8BD000000000240C06B7047F0B42C4999
:100570000C6802681368056C1C273D400426AE40D9
:10058000264211D05E070FD513689B0603D414686A
:1005900004239C4314604B68046C04223C40A2403A
:1005A00013434B60016B1CE00227AF400646274017
:1005B0002036002F19D09F0717D513689B0605D446
:1005C00013680A24A3431360012272714B68046C00
:1005D0001C2214400222A24013434B6000213171BF
:1005E000C16A00291AD0F0BC08470827AF4027424B
:1005F00014D01B0712D513680E24A34313604B6855
:10060000046C1C22144001221546A5402B434B606C
:10061000C263727100213171416BE2E7F0BC704737
:100620000000024070B504003DD024482568142124
:100630002818FFF7C5FD80002064022026462036DA
:10064000707128681E4908402860E168A0686269E6
:100650000843216911430843A1690843E16908433C
:10066000216A084321680A68104308602046FFF7A2
:1006700003FE0121A06889030025884200D165603E
:10068000616C20790860A06CE16C41606068401E7C
:1006900003280AD82046FFF707FE206D0560606D2D
:1006A000A16D416004E0012070BD25656565A5650B
:1006B000E563012070713571002070BDF8FFFDBF4A
:1006C0000F80FFFFF8B5054604462035287900273E
:1006D0008C4601280AD0012028716879002601285B
:1006E00006D02E7102272E713846F8BD0220F8BDC3
:1006F00002206871E66320680168490849000160CA
:1007000061462046FFF7E2FD206B00282068016863
:1007100001D00E2205E004229143016020680168A7
:100720000A2211430160606C0168CA03084902D5BE
:1007300002680A430260206D002802D002680A4362
:10074000026020680168012211430160CBE70000CC
:1007500000010000F8B51D4D064628780F46012817
:100760000AD001202870002068607D20C000FFF7BB
:1007700015FE002802D026E00220F8BD31680429C9
:1007800004D00021C9433960746812E0FFF7C4FD4A
:100790007D20C000FFF702FE15E02046FFF7C6FDF2
:1007A0007D20C000FFF7FAFD002801D03C6005E085
:1007B000641CB26871688918A142EED804494A697C
:1007C00002239A434A6100212970F8BD7C0E002063
:1007D00000200240F0B51FB4144C064620781546A0
:1007E00001280AD00120207000277D20C00067600A
:1007F000FFF7D4FD002803D010E0022005B0F0BDC3
:10080000012E0DD029460198FFF7AEFD7D20C000D6
:10081000FFF7C4FD06494A69B2434A612770EDE714
:100820002A46039B0198FFF791FDEFE77C0E00201D
:1008300000200240064900204A69002A07DA054ADA
:100840008A60054A8A604969002900DA01207047F8
:100850000020024023016745AB89EFCDF0B50023AE
:1008600088E001229A409446144022007ED04C68D1
:10087000022C01D0122C0CD1DC08A40027183C6AF1
:100880005D07ED0E0F26AE40B4430E69AE40264321
:100890003E6205685E000324B4400F79A543BF079C
:1008A000BF0FB7402F4307604D68012D05D0022DC3
:1008B00003D0112D01D0122D0ED18568CF68A5432C
:1008C000B7402F43876047686546AF430D79ED0613
:1008D000ED0F9D403D434560C568A5438C68B4401D
:1008E0002C43C4604C68E40043D59D08244CAD0003
:1008F0002F193C6E9D07EE0E0F25B540AC43052524
:100900002D07A84201D100250FE01E4DA84201D1BC
:1009100001250AE01C4DA84201D1022505E01B4D2E
:10092000A84201D1032500E00525B5402543144C1C
:100930003D66134D80352E684F689643FF0300D502
:1009400016432E606E684F689643BF0300D516436A
:100950006E6025684E689543F60200D51543256004
:1009600065684E689543B60202D500E001E0154384
:1009700065605B1C0A681446DA4000D071E7F0BD80
:10098000001802400004005000080050000C005005
:10099000002A01D0816170478162704701488068F8
:1009A000704700000C00002010B5084800240168C2
:1009B000821511430160204600F00AF8002801D09A
:1009C000012401E000F028F8204610BD002002407C
:1009D00070B50F4E002471680546002915D07D20A2
:1009E000C000FFF7EDFB01460A480068FFF7E8FB8F
:1009F00000F004FC002808D1042D06D2002229466C
:100A0000401E00F02BF8356000E00124204670BD48
:100A10000C0000201800002008B5094801680122D8
:100A20001143016000681040009005484038C26BD7
:100A300001040A43C263C06B0840009008BD000077
:100A400040100240002805DBC106C90E0120884085
:100A5000014908607047000000E100E010B501F0B6
:100A6000F3FA10BD10B50F4C2168032252029143D6
:100A700001432160C11FFF39FA390ED10A4806210E
:100A8000006848430949FFF79BFB401C02E000282F
:100A900005D0401E61694905F9D4002010BD03202E
:100AA00010BD0000007000401800002040420F0000
:100AB000F8B5044600680026524D800358D55148C9
:100AC00000274038C06BC00009D44E484038C26B84
:100AD00001040A43C263C06B0840012700904A48E2
:100AE0000168821511430160FFF758FF009005E08F
:100AF000FFF754FF0099401A022825D842480068A1
:100B0000C005F5D5E8690321090208400FD0A169A5
:100B100081420CD0E86903210902EA698843012176
:100B200009040A43EA61EA698A43EA61E861C007A5
:100B30000FD0FFF733FF009008E0FFF72FFF009979
:100B4000411A3248814201D9032609E0E869800749
:100B5000F3D5E869032109028843A1690843E861E4
:100B6000002F05D027484038C16B02049143C16370
:100B70002078C00705D06869616880088000084354
:100B800068612078800705D568690C218843A168D1
:100B9000084368612078400606D568690321090387
:100BA0008843E168084368612088400411D568697A
:100BB00061698000800808436861012160698907D4
:100BC000884206D10F484038C168012212041143FF
:100BD000C1602088000512D5686903218903884314
:100BE000216908436861012120698903884206D18F
:100BF00004484038C168012212041143C1603046E4
:100C0000F8BD000040100240007000408813000052
:100C1000F8B50F46060043D04D4D28684007400FF9
:100C2000B84213D22868C008C00038432860FFF7D4
:100C3000B5FE044605E0FFF7B1FE011B45488142C1
:100C400061D828684007400FB842F4D13068424C60
:100C500081070DD5400704D5A06807210903084383
:100C6000A060A0680F2109028843B1680843A06012
:100C70003078C00732D0706801280AD002280BD023
:100C800000280FD03449403103280ED0C9698907A4
:100C900004E02168890301E021688901002906DB5D
:100CA0000120F8BD21684905F8E7096AEFE7A16866
:100CB000C908C9000143A160FFF770FE009006E07B
:100CC000FFF76CFE0099411A224881421BD8A068A8
:100CD000382108407168C9008842F1D1286840076E
:100CE000400FB84217D91A480168C908C9003943EA
:100CF0000160FFF753FE054607E0FFF74FFE411B7B
:100D00001448814201D90320F8BD1148006840070A
:100D1000400FB842F1D13078400706D5A0680721CE
:100D200009038843F1680843A06000F031F8A16826
:100D30003C2289091140094A515CC906C90EC840C4
:100D40000749086007480068FFF742FEF8BD000049
:100D5000002002408813000000100240D432000836
:100D6000180000200C000020064807490068896828
:100D7000064A4904490F8900515CC906C90EC8409A
:100D800070470000180000200010024014330008D3
:100D900010B5204CA068204A8006400F16D0A068ED
:100DA0008006410F501001290FD0A1688906490F14
:100DB000022912D0A0688006400F042823D0A06822
:100DC0008006400F032821D0002010BD206801219B
:100DD0008004400F8140104612E0E1688B07E16813
:100DE0009B0F4906490F491C032B00D01046FFF703
:100DF000E7F9E1684904490E4843E168490F491C95
:100E0000FFF7DEF910BD0120C00310BD7D200002F8
:100E100010BD0000001002400024F400F8B50400EA
:100E20007ED020783827C007EB4D002846D0A86830
:100E3000E96838408907890F102802D008280BD0AC
:100E400001E0032908D001206268000482420AD12F
:100E500029680143296015E0286880032ED5606861
:100E60000028DDD02AE0052301211B0489049A42D1
:100E70002A6802D10A432A60EAE782432A60286886
:100E800088432860606800280CD0FFF787FD06467D
:100E900004E0FFF783FD801B642873D82868800373
:100EA000F7D50BE0FFF77AFD064604E0FFF776FD85
:100EB000801B6428F1D828688003F7D42078800745
:100EC00069D5A868E96838408A070721920FC902E6
:100ED000102802D0002813D001E0022A10D0E068C8
:100EE000002846D02868884321690843286028687C
:100EF000FF21013108432860FFF750FD06462CE032
:100F00002A68520502D5E268002A89D06A687F23E0
:100F10001B029A4363691B021A436A60002800E0BF
:100F20008DE00ED12868884321690843286028682D
:100F300001218004400F8140A848FFF741F9A849EA
:100F40000860A8480068FFF743FD002877D122E039
:100F5000FFF724FD801B02289FD828684005F7D59D
:100F600068687F2109028843616909020843686053
:100F700011E02968FF20013081432960FFF70EFD51
:100F8000064605E098E0FFF709FD801B022884D89B
:100F900028684005F7D42078934E00072ED5A8681E
:100FA0008006400F03280AD0A0690028306A16D0B6
:100FB000012108433062FFF7F1FC07460BE0306A7D
:100FC00080071BD5A06900289FD017E0FFF7E6FC3B
:100FD000C01B022870D8306A8007F7D50EE04008A1
:100FE00040003062FFF7DAFC074604E0FFF7D6FC6A
:100FF000C01B022860D8306A8007F7D420784007E9
:101000006CD5A86800278006400F042818D0E86B2C
:10101000C00008D4E96B012000070143E963E96BD4
:1010200001400127009171480168C90519D4016880
:10103000821511430160FFF7B1FC00900DE083E0E1
:10104000F06980074AD5A06800287DD046E0FFF708
:10105000A5FC0099401A02282ED864480068C005F3
:10106000F5D5A168012910D004200529F16911D016
:1010700049084900F161F1698143F161A0680028E4
:1010800016D0FFF78BFC00900EE0F06901210843B9
:10109000F061F3E70143F161F7E7FFF77FFC0099A7
:1010A000411A534881426DD8F0698007F5D50EE0AA
:1010B000FFF774FC009007E064E0FFF76FFC009915
:1010C000411A4B4881425DD8F0698007F5D4002F62
:1010D00004D0E96B012000078143E963E06900283F
:1010E00077D0A9688906490F022951D00126360612
:1010F000022828680DD0B0432860E8688008800086
:10110000E860E8683B490840E860FFF747FC0446B0
:101110003AE0B0432860FFF741FC074604E0FFF7E0
:101120003DFCC01B02282DD828688001F7D4616AD5
:10113000206AA26A0843E16A120211430843216B44
:101140000843E9682C4A00E041E011400843E860A8
:10115000286830432860E868012109070843E860EF
:10116000FFF71CFC044604E0FFF718FC001B0228F4
:1011700008D828688001F7D52BE0FFF70FFC001B8B
:10118000022801D90320F8BD28688001F5D420E0A9
:101190000128F8D0E868226A8107890F914216D1A8
:1011A0007021626A0140914211D17F21A26A090235
:1011B0000140120291420AD11F214904E26A014012
:1011C000914204D1400F216B4007884201D0012099
:1011D000F8BD0020F8BD0000001002400024F4001B
:1011E000180000200C000020401002400070004059
:1011F00088130000FFFFFEEF8C80C11F094910B566
:10120000401E884201D9012010BD074C60610321B6
:10121000081F00F019FF0020A061072020610020B6
:1012200010BD0000FFFFFF0000E000E030B5014608
:1012300060310A7F012A18D001220A77242302464E
:1012400080321446136003681A681D686D086D00CB
:101250001D6001235B079A43002343660068026018
:10126000202020600B77184630BD022030BD70472B
:10127000F8B5054604466035287F01281DD00120B9
:1012800028772422204680300746026020680668BE
:1012900002685208520002602068826807235B06D9
:1012A0009A430A438260204600F098FB206806605B
:1012B0002020386000202877F8BD0220F8BDF8B55E
:1012C000054604466035287F01281CD00120287778
:1012D00024222046803007460260206806680268A3
:1012E00052085200026020688268D200D2080A4385
:1012F0008260204600F072FB206806602020386083
:1013000000202877F8BD0220F8BD70477047F8B577
:1013100005468035296804466E6800688268102793
:101320001206002A14DA212912D181688022914301
:101330008160606F002808D0FFF79CF8002804D077
:10134000606FFFF711F920281DD0204600F078FCCF
:1013500020688168490614D5222E12D18168402266
:1013600091438160A06F002808D0FFF783F8002820
:1013700004D0A06FFFF7F8F8202804D0204600F032
:101380004BFC0020F8BDAF600320F8BD70470000A3
:10139000F8B503680446DA6918689968160725469F
:1013A000360F8035002E60D0584EFF2721370E4073
:1013B0000740374372D0D70706D0C70504D50127A9
:1013C0001F62AB683B43AB60930708D5CB0706D0E1
:1013D000276802233B62AB6804273B43AB6053079B
:1013E00008D5CB0706D0276804233B62AB680227E9
:1013F0003B43AB60130709D520230340334305D09B
:10140000266808233362AE681E43AE60AB68002BCB
:1014100038D092060AD520221040D2051140084348
:1014200004D0E16E002901D020468847A8682168D1
:101430008968490601D4000729D5204600F0ECFB55
:101440002068816849061ED5826840218A438260EF
:10145000A06F002817D02E498163A06FFFF744F8D2
:1014600000280FD0A06F816B0BE0960616D50127E0
:1014700020263F0706400F403E430FD0E16E22E09A
:1014800020468847F8BD2046FFF780FFF8BD20467C
:10149000FFF77CFF0020A860F8BDFFE7D60208D563
:1014A0004E0206D50120000518622046FFF72EFFE8
:1014B000F2E716060AD501278026FF0506403940C7
:1014C0000E4303D0216F0029DAD1E5E751060DD58F
:1014D00041060BD51A68204640218A431A60202114
:1014E00029600021216700F071F9D5E7110205D5C7
:1014F000410003D52046FFF708FFCDE7D101CBD54A
:101500000028C9DA2046FFF7B2FEC5E70100001047
:101510006D1B000870B5040006D0204680300546DB
:101520000068002802D007E0012070BD00217C2067
:101530000155204600F026F8242028602068016824
:10154000490849000160204600F08AFB0128ECD0E0
:10155000A06A002802D0204600F070FA2068416896
:101560000922D20291434160206881682A22914376
:10157000816020680168012211430160204600F06B
:10158000C3FA70BD70B586B0064614216846FEF7F2
:1015900048FE2249306888423DD121480268012135
:1015A00089030A4302600068084005901C484038DF
:1015B000426B01210A434263406B002508400590BD
:1015C0000320400200900220019004910520029522
:1015D000039569460007FFF741F9134C1148206055
:1015E000A5603220E56060606561A561E5618020ED
:1015F000256220612046FFF715F8002801D0FEF78C
:1016000089FEB467002211461B20A662FFF726FA66
:101610001B20FFF717FA06B070BD0000003801402C
:10162000401002400800024024050020F8B505469D
:1016300004468035686820284ED100290BD0002A46
:1016400009D00123A0681B03984206D12069002815
:1016500003D1C80701D00120F8BD26466036307F8F
:10166000012839D0012030775C20A1650253002782
:10167000AF6022206860A06F00281AD01749C162AD
:10168000A16F17480863A16F16484863A06F1346FF
:101690008763A06D2168844662462431A06FFFF7FE
:1016A00011F8002805D01020A86037772020286086
:1016B000D1E7377720680168FF22013211430160CA
:1016C000206881680122114381602068816840227E
:1016D000114381600020F8BD0220F8BDCF1B000837
:1016E0000F1C0008811B000870477047FFB50746B4
:1016F00004468037386885B00D46202864D1002D17
:101700000CD00798002809D00120A168000381426D
:1017100007D12069002804D1E80702D0012009B0D0
:10172000F0BD204660300290007F01284CD0029826
:10173000012101770020B86021203860FFF72EF9E1
:101740000190264640360798B0820798F082012023
:10175000A1680003814202D12069002802D00395CC
:10176000002515E00020039012E000228021204691
:1017700000F0FCFB002818D10398002817D021683E
:10178000007888620398401C0390F08A401EF08223
:10179000F08A019B002808980090E6D100224021A1
:1017A000204600F0E3FB002808D00320B7E7288894
:1017B0002168C005C00D8862AD1CE6E720203860B6
:1017C000029900200877AAE70220A8E770470000E6
:1017D00008B50848816B012211438163806B10407A
:1017E0000022009011460920FFF738F90920FFF781
:1017F00029F908BD0010024030B587B014216846B1
:10180000FEF70FFD1048416B012421434163416BFA
:1018100021400591426B02210A434263406B0B4D0C
:1018200008400590002210212846FFF7B1F800215A
:101830001020029103910090019469462846FFF719
:101840000DF807B030BD0000001002400004005049
:1018500010B5184816490160E12149024160002194
:101860008160C16001618161C16101620C224162DC
:1018700042618162FFF74EFE002801D0FEF74AFD6B
:1018800000210C48FFF71BFD002801D0FEF742FDA8
:1018900000210848FFF7ECFC002801D0FEF73AFDD4
:1018A0000448FFF7C3FC002801D0FEF733FD10BD4C
:1018B00000380140980400207047704710B500F0D0
:1018C000E7FE01F02BFA00F0EFFE10BD30B599B045
:1018D00034216846FEF7A5FC00240D940E940F9465
:1018E0001C2111A81094FEF79CFC01204002FFF778
:1018F000B9F80225E80103900095402005900820E2
:101900000A9080030B900795000304940C900895AF
:1019100009946846FFF782FA07200D900F94022180
:101920000E9510940DA8FFF773F9012011901294F1
:1019300011A8FFF7BDF819B030BD000070B51F4DFC
:10194000A968382001401E481E4C08290DD04300CC
:1019500010291BD0182913D0202914D02868012160
:101960008004400F8140184624E02060A8683C2194
:10197000800908401449085C2168C140216070BD9D
:101980007D200002F1E70120C003EEE7E9688A0745
:10199000E968920F4906490F491C032A00D01846EE
:1019A000FEF70EFC0146E8684004400E4843E96833
:1019B000490F491CFEF704FCD7E700000010024065
:1019C00000127A0018000020D432000801200249D9
:1019D000C00688607047000000ED00E0F0B513A17C
:1019E00006C985B00192009112A206CA0392029123
:1019F0000446416E4034002915D000688168806833
:101A000009014D0F400F02AE315C6F46385CC000DB
:101A1000FEF7D6FB6085785D715DC000FEF7D0FBF8
:101A2000208505B0F0BD01206085F9E701010103C3
:101A300007010000080402040801010110B5018D2E
:101A4000C90707D001684A6801235B049A43C36A47
:101A50001A434A60018D890707D501684A68012346
:101A60001B049A43036B1A434A60018D490707D54B
:101A700001684A6801239B049A43436B1A434A60F6
:101A8000018D090707D501684A680123DB039A43E2
:101A9000836B1A434A60018DC90607D502689168B5
:101AA00001231B039943C36B19439160018D890680
:101AB00007D501688A6801235B039A43036C1A43C4
:101AC0008A60018D490612D503685A68012109050B
:101AD000446C8A4322435A60426C8A4207D10268AE
:101AE000516803235B059943836C19435160018D51
:101AF000090607D501684A680123DB04C06C9A43D4
:101B000002434A6010BD0000FEB505460026803540
:101B10000446AE60FEF742FF019020680068124F55
:101B2000000709D501210097002249052046019BA5
:101B300000F01CFA00280DD12068006840070BD582
:101B400001210097002289052046019B00F00EFA32
:101B5000002801D00320FEBD20202860686060348A
:101B600026770020FEBD0000FFFFFF0110B5806A50
:101B7000002201464031CA83CA82FFF707FC10BD2C
:101B8000F8B5846A204680300168054646682068BA
:101B9000806800270006002806DA212904D1562093
:101BA0000753204600F04CF820688068400606D5B0
:101BB000222E04D15E200753204600F02DF8A8689D
:101BC00010210843A8602046FFF7E0FBF8BD10B5E0
:101BD00001460968806A0968890615D400225E21D9
:101BE0000A5201680A68FF2301339A430A600168B8
:101BF0008A68520852008A6001688A6840239A43C2
:101C00008A60202284210A50FFF76EFD10BD10B5B6
:101C1000806AFFF76AFD10BD01680A68FF2321335F
:101C20009A430A6001688A68044B1A408A6020223D
:101C300084210A500021C16670470000FEFFFFEFBB
:101C400001680A68C0239A430A6001688A68012310
:101C5000DB059A438A6020218030016070470000D4
:101C6000F8B5044680682169E26908436169002685
:101C700011430843616E014320680268B24B1A4069
:101C80000A43026021684868032212039043E26815
:101C900010434860A169206A226808439168AB4BF1
:101CA0001940014391602068C16A626A090909010B
:101CB0001143C162A64A2068A64990420CD14869E6
:101CC0008007800F23D0012804D002281FD00328CA
:101CD0001CD111E004201AE09F4A90420ED14869BD
:101CE0000C21084013D0042811D0082802D00C2859
:101CF0000CD101E002200AE0082008E09749884260
:101D000002D09749884201D1002000E01020012232
:101D1000D203E169D511934B934F91426FD10028C3
:101D200006D0022835D004287AD0082869D17AE074
:101D3000FFF71AF876E0012815D0022815D00328FD
:101D400015D0042815D0052815D0062815D0072849
:101D500015D0082815D0092815D00A2815D00B2829
:101D600014D0012512E0022510E004250EE006251E
:101D70000CE008250AE00A2508E00C2506E01025FD
:101D800004E0202502E0402500E080252946104699
:101D90001BE0606A002815D001282AD002282AD02A
:101DA00003282AD004282DD005282DD006282DD090
:101DB00007282DD008282DD009282DD00A282DD06D
:101DC0000B2800D0012529461846FEF7F9F961686D
:101DD00040004A088018FEF7F3F980B20146103936
:101DE000B9420ED86049491C01400007400F084322
:101DF0007FE00225E7E70425E5E70625E3E716E0AF
:101E00000EE08CE00825DEE70A25DCE70C25DAE7A2
:101E10001025D8E72025D6E74025D4E78025D2E74E
:101E2000FEF7B6FF0246606A00289AD083E70028D2
:101E300006D0022835D0042874D0082879D174E05F
:101E4000FEF792FF70E0012815D0022815D0032874
:101E500015D0042815D0052815D0062815D0072838
:101E600015D0082815D0092815D00A2815D00B2818
:101E700014D0012512E0022510E004250EE006250D
:101E80000CE008250AE00A2508E00C2506E01025EC
:101E900004E0202502E0402500E080252946104688
:101EA0001BE0606A002815D0012825D0022825D023
:101EB000032825D0042825D0052825D0062825D09C
:101EC000072825D0082825D0092825D00A2827D07A
:101ED0000B2800D0012529461846FEF771F96168E4
:101EE0004A088018FEF76CF980B201461039B942F1
:101EF0001FD82168C8601DE00225ECE70425EAE749
:101F00000625E8E70825E6E70A25E4E70C25E2E7E9
:101F10001025E0E72025DEE74025DCE702E008E0C9
:101F20008025D8E7FEF734FF0246606A0028A0D07B
:101F300089E70126204601214030418501850020A6
:101F4000E06620673046F8BDF369FFCFFFF4FF116C
:101F5000003801404010024000440040004800406A
:101F6000004C00400024F400EFFF0000FFB581B0FA
:101F700017460E4604460A9D09E0681C07D0FEF786
:101F80000DFD0499401AA8420CD8002D0AD02068F3
:101F9000C169304688431AD00020B842EDD00020F5
:101FA00005B0F0BD20680168FF22A13291430160B5
:101FB00020688168490849008160202120468030DE
:101FC000016041600020603420770320E8E70120B1
:101FD000E3E7000010B5034800F006F80148FFF7FA
:101FE000D7F910BD9804002010B50068C069C0433F
:101FF000C00614D40A4C1020216808622046FFF75E
:1020000086F9A06F00684068012292020549101A03
:102010004880012008702046091DFFF707FB10BD0E
:1020200098040020940000200FB410B503A9044BBD
:10203000044A029800F064F810BC08BC04B01847C9
:10204000D5220008900000208307FF22DB0E9A4073
:102050008907090E9940002808DB830809489B007E
:102060001B18186890430843186070470007000F5A
:102070000838830804489B001B18D869904308431C
:10208000D861704700E400E000ED00E0002806D0D1
:1020900002060D49120E03D0C0B2085C401C704706
:1020A0000204120E04D00004000E085C09307047D0
:1020B0000202120E04D00002000E085C11307047BC
:1020C000000E085C193070473433000802E008C87D
:1020D000121F08C1002AFAD170477047002001E0A2
:1020E00001C1121F002AFBD170470000034801689C
:1020F000814201D00120704700207047700000200D
:10210000FFB58DB00446002506E025280AD0109AB8
:102110000F999047641C6D1C20780028F5D1284643
:1021200011B0F0BD00270121484A009700E00743A5
:10213000641C23780846203B98401042F7D1207851
:102140002E2817D1042007436078641C2A280CD15C
:102150000E98641C02C800910E900BE000990A22B0
:10216000514330394018641C0090207801463039C2
:102170000929F3D920780028D1D0642808D069280B
:1021800006D075281ED0109A0F9990476D1C5BE001
:102190000A200E99019001C90E91002802DA4042EE
:1021A0002D2102E0390504D52B216A461172012147
:1021B00003E0F90704D02021F7E70BAE0B910DE007
:1021C0000021FAE70A200E99019001C90E91F7E764
:1021D0000199FDF7F5FF3031761E31700028F7D1F7
:1021E00003A8801B20300190780701D5009801E0FA
:1021F000012000900199884201DD401A00E0002092
:102200000027009006E002A8109AC05D0F99904741
:102210006D1C7F1C0B988742F5DB04E0109A302080
:102220000F9990476D1C0099481E00900029F5DC1D
:1022300005E03078109A761C0F9990476D1C019933
:10224000481E01900029F4DC641C65E709280100A0
:10225000FEB5044609A8E0C8194620461430089B7C
:10226000A061226261626061E56218462A4623210C
:10227000A36200F04EFAE16AA06A0F4B4218121FE7
:10228000616A206A00F0E8F92146E06120318E752C
:102290004E750020E763A0632764206308752067FC
:1022A00060670090019023462046044A1946443056
:1022B00000F0A3FD0020FEBD392A0008652C0008AF
:1022C000143006C808384A6006C8083811604060F3
:1022D0000060704713B5044B012269460348FFF7BD
:1022E00005FA00981CBD0000FFFF000098040020C4
:1022F000FEF75AFBFFF7EAFAFFF77EFAFFF768FAF4
:10230000FFF7A6FA00F09CFFFF24F534204600F00A
:102310008EFBFBE710B500F0CFF8FFF7E9FF10BD2B
:10232000FFB589B00446149E1298139F0190009740
:10233000700601D54A4801E0494811380890F00676
:1023400001D576087600F00701D0302000E020208B
:10235000079000200690B0070DD5002A03DA2D2043
:102360005242069007E0700701D52B2002E03007AB
:1023700001D5202006900025002A04D1302069468E
:10238000087201250CE00C980A2815D01107090FD6
:1023900012090898415C02A841556D1C002AF2D12F
:1023A000BD4200DD2F460198112132460A40C01B74
:1023B0002021002A06D015E010460A21FDF700FF73
:1023C0000246E6E7069A002A08D0002806DD401EED
:1023D00004E00A9A944200D22170641C0246401E16
:1023E000002AF6DC069A002A06D00A9A944201D204
:1023F000069A2270401E641CF20606D509E00A9A6D
:10240000944201D2079A2270641C0246401E002AA0
:10241000F5DC30223B467F1EAB420CDD0A9B9C4222
:1024200000D22270641CF5E70A9B9C4201D2535DE6
:102430002370641C00E002AA2B466D1E002B08DDF1
:10244000009B002BF0D104E00A9A944200D2217044
:10245000641C0246401E002AF6DC20460DB0F0BD8A
:10246000453400081FB5094C14230222D1010393FF
:10247000601A6B4607C30023054A06A1204600F0F8
:102480005BFB204600F0B8FB1FBD0000980F00204A
:10249000152300086D61696E0000000070B5044CE2
:1024A000044D02E020688047241DAC42FAD370BD81
:1024B0005C3400086034000870B5044C044D02E040
:1024C00020688047241DAC42FAD370BD60340008F8
:1024D0006434000810B5FDF707FE034A5188491C13
:1024E0005180FDF705FE10BD6400002010B5FDF71A
:1024F000FBFD0A4C6188491E09B26180002909DC94
:1025000000216180FDF7F4FD6068002801D000F033
:102510006FF910BDFDF7ECFD10BD00006400002058
:1025200010B5FFF70BFA0B487D21C9000068FDF7D5
:1025300047FE0949401E884208D80849084A4861B0
:10254000FF20D0700020886107200861FFF7A6FFF8
:1025500010BD000018000020FFFFFF0000E000E0B9
:1025600020ED00E0704700000446C16912A000F0B1
:10257000A7F815A0A16900F0A3F817A0616900F001
:102580009FF819A0216900F09BF81BA0E16800F0FA
:1025900097F81DA0A16800F093F81FA0616800F0F3
:1025A0008FF821A0216800F08BF82348016823A050
:1025B00000F086F8FEE700007073723A203078254C
:1025C0003038780A000000002070633A2030782507
:1025D0003038780A00000000206C723A20307825EC
:1025E0003038780A000000007231323A2030782505
:1025F0003038780A000000007230333A20307825F5
:102600003038780A000000007230323A20307825E5
:102610003038780A000000007230313A20307825D6
:102620003038780A000000007230303A20307825C7
:102630003038780A00000000680000206861726489
:10264000206661756C74206F6E20746872656164B9
:102650003A2025730A000000F0B50546121DD00887
:10266000C0004038094E02460024A700641CD65121
:10267000102CFAD31162002151629162D162303282
:102680002AC201210906C163F0BD0000EFBEADDE24
:1026900010B5FDF729FD034A1178491C1170FDF7AB
:1026A00027FD10BD2000002010B5FDF71DFD034AD9
:1026B0001178491E1170FDF71BFD10BD2000002090
:1026C0000FB410B503AB7F210548029A00F00CFC53
:1026D0000348FFF747FF10BC08BC04B018470000D0
:1026E000081100200268516002680A6001604860B9
:1026F00070470268516002680A6001604860704774
:1027000006C808384A6006C8083811604060006092
:10271000704730B50346C9B2042A16D3840714D1D2
:102720000D020D432C042C4305E01C605C609C6092
:10273000103ADC601033102AF7D201E010C3121FE8
:10274000042AFBD201E019705B1C521EFBD230BD83
:1027500010B5044600202072FDF7C6FC0C3406CCF0
:10276000083C4A6006CC083C116064602460FDF7B8
:10277000BFFC10BD064A00210B01D35C834202D18D
:10278000080180187047491C0429F5DB00207047B8
:1027900024000020F8B5044617460E460846FFF709
:1027A000E9FF0546FFF796FE291D686800E000680E
:1027B0008842FCD1FFF79AFE802006432672082249
:1027C0003946204600F0EAF8FDF78EFC69680C34C3
:1027D0004C60696821606C602D1D6560FDF788FCA8
:1027E000F8BD007A000601D501207047002070472F
:1027F00070B5FDF779FC124C05466088002815D1AC
:10280000A068FFF743FC401E0E4AC10051586268A1
:10281000143991420AD020700B486160007800287A
:1028200008D010461C301C31FDF765FC2846FDF72A
:102830005FFC70BD10461C301C31FDF75CFCF5E7F9
:1028400064000020881100202000002010B50446FC
:10285000FDF74AFC024620462030017D09090901A6
:10286000491C0175407D0A49C000411820464B684B
:10287000143018604B68A361486061610548A16B22
:102880008368194381601046FDF732FC10BD0000DB
:10289000881100206400002010B50446FDF724FCD8
:1028A000214614310CC9083953600CC908391A6023
:1028B000496009603521095DCA0006498B585118E5
:1028C0008B4204D10449A36B8A689A438A60FDF75E
:1028D0000FFC10BD881100206400002008B509A07D
:1028E000FFF7EEFE0AA0FFF7EBFE12A00323009015
:1028F0000122194612A0FFF7E3FE19A0FFF7E0FE40
:1029000008BD00000A205C207C202F0A0000000087
:102910002D205254202D20202020205468726561E3
:1029200064204F7065726174696E672053797374A7
:10293000656D0A0041756720313420323032300035
:10294000202F207C205C202020202025642E256440
:102950002E2564206275696C642025730A000000CE
:102960002032303036202D203230313920436F7004
:102970007972696768742062792072742D74687244
:10298000656164207465616D0A000000014600E025
:10299000491C0A78002AFBD1081A704710B5002A92
:1029A00008D003460C781C70491C5B1C002C05D019
:1029B000521EF7D110BD19705B1C00E00021521EA1
:1029C000F9D110BD10B5002209480A4C42801146C9
:1029D000CB001B195B60491C1B600829F8DB072131
:1029E00001704260826002480C304060006010BD9F
:1029F000640000208811002010B5074CA068FFF784
:102A000045FB401E0549C0000858143860601C3062
:102A1000FDF7A9FB10BD0000640000208811002014
:102A200001484060006070477C000020704710B58E
:102A300000F0C2F810BD000070B513480468FDF73F
:102A400053FB05462046FFF727FF0421342001559C
:102A50002046443000F0C1F92046FFF7C2FE0128AD
:102A600002D1206F00280AD0214614310748FFF711
:102A700039FE2846FDF73CFBFFF7BAFE70BD204645
:102A8000FFF766FEF5E700006800002070000020F8
:102A900000F002F8FCE7000070B523E0FDF724FB2E
:102AA0000546FFF723FB002826D0154801680C4691
:102AB00005C90839426005C9083910604960143CED
:102AC0000960FFF707FD216F002901D020468847E4
:102AD0002046FFF786FE012809D0FFF707FD2846AC
:102AE000FDF706FBFFF702FB0028D7D170BD20469B
:102AF000FFF72EFEFFF7FAFC2846FDF7F9FA70BD46
:102B0000700000201FB508482023072280216C4652
:102B10000FC40023054A06A1783800F00DF80248DA
:102B2000783800F069F81FBD88100020912A00084D
:102B30007469646C65000000FFB585B00FADE0CD31
:102B40000C460A4601210598FFF724FE0E986A46B6
:102B5000E1C22146089B079A0598FFF779FB09B067
:102B6000F0BD10B500F0BCF800F026F810BD70B54F
:102B700004462030007D0007000F022802D000200C
:102B8000C04370BDFDF7B0FA054620461430FFF78C
:102B9000B7FD2046443000F08FF92846FDF7A8FA2B
:102BA0002046FFF753FE002070BD0000014800687A
:102BB0007047000068000020F1B5FDF795FA054662
:102BC0000C480468204600F02DF8204644306A4640
:102BD0000021064600F0E8F8304600F025F92846C6
:102BE000FDF786FAFFF704FE206B801C00D12063FE
:102BF0000020F8BD6800002010B5014620318A7D14
:102C000001234A759340022283630A75FFF7AFFFE1
:102C100003480068002801D0FFF7EAFD002010BD3E
:102C20006800002070B5054604462035287D000761
:102C3000000F012802D00020C04370BDFDF754FAF8
:102C40000646287D00090001801C28752046FFF7F4
:102C500023FE2046443000F02FF93046FDF748FAB5
:102C6000002070BD10B504460120C04320632046FB
:102C70001430FFF745FD2046FFF7E8FDFFF7B8FDEC
:102C800010BD000070B5FDF72FFA05461248006828
:102C900006462036317D0907090F012917D18269BF
:102CA0004169914213D014300446FFF729FD707D2D
:102CB0000A49C000401841680C6041686160446086
:102CC00020602846FDF714FAFFF792FD02E028463F
:102CD000FDF70EFA002070BD68000020881100206A
:102CE00070B5002802DA0020C04370BD7D25ED00DC
:102CF0002946FDF77BFA2A46424328464143401EB7
:102D0000081814462946FDF771FA001970BD000035
:102D100001480068704700001C00002010B50848FA
:102D20000168491C0160FFF741FF016C491E016405
:102D300003D1C16B0164FFF7A5FF00F003F810BDDC
:102D40001C000020F8B5FFF7E3FF0646FDF7CCF9BD
:102D50000746134D1DE060691249301A143C884241
:102D60001AD22046FFF7ACFAE169206A8847FFF7DC
:102D7000CFFF0646607A810708D5C10706D0400814
:102D800040006072204600F04FF802E0400840002A
:102D900060722C68AC42DED13846FDF7A9F9F8BD67
:102DA0007C000020FFFFFF7F002909D0012904D00B
:102DB000022908D003290ED109E0406A10600AE018
:102DC0001168416207E0417AFD22114002E0417A38
:102DD0000222114341720020704770B50546FDF78D
:102DE00083F904462846FFF76BFA2046FDF780F981
:102DF0002846FFF7ADFC002070BDF8B517460A461F
:102E00001E4604460A21079DFFF7C4FC69084900D5
:102E100006986172E76100212662A1626062143443
:102E200064602460F8BD0000F8B50446FDF75CF965
:102E300005462046FFF744FA607A40084000607279
:102E40002846FDF755F9FFF763FF616A4018A06255
:102E5000FDF74AF9164B0021CA000093D318054626
:102E6000684689005B6846580CE03668B446B61A76
:102E70007769A66AB74203D0BF1B0E4EB74203D391
:102E8000664646509E42F0D10948001F0168491C21
:102E90000160214614310098FFF72BFC607A012174
:102EA000084360722846FDF723F90020F8BD0000B2
:102EB0007C000020FFFFFF7F70B50446407AC0070A
:102EC0000ED0FDF711F905462046FFF7F9F928461F
:102ED000FDF70EF9607A400840006072002070BD76
:102EE0000020C04370BD0000FFB583B0039C049870
:102EF0002718A74203D20027FF43381B049006E19E
:102F0000252803D0BC4200D220700DE10026042207
:102F100008230599491C059108782D2812D02B28E3
:102F200012D0202812D0232812D0302812D00A78AC
:102F30000025ED43303A0A2A0FD205A800F027F900
:102F4000054616E0102006E01643E2E71E43E0E7E0
:102F5000202000E001200643DBE72A2809D1491C94
:102F60000698059120C80690002D02DA6D421020C7
:102F700006430020C0430090059801782E2918D1FF
:102F8000401C059001780A46303A0A2A04D205A866
:102F900000F0FDF8009008E02A2908D1401C0590B7
:102FA000069802C8069000910846002801DA002021
:102FB0000090059900200A78682A01D06C2A02D175
:102FC000491C1046059109780A236F297CD00CDC36
:102FD00063291FD004DC25297AD058290DD17DE042
:102FE00064297FD0692908D17CE070295ED07329DB
:102FF0002CD0752978D0782972D0BC4201D22520F6
:1030000020700599641C0878002800D07AE7491ED2
:10301000059179E0F00608D420206D1E002D04DD16
:10302000BC4200D22070641CF7E706980178001DAE
:103030000690BC4200D22170202002E0BC4200D2A7
:103040002070641C6D1E002DF8DC5DE0069808C839
:103050000690002B00D13DA31846FFF797FC00997E
:10306000002902DD884200DD0846F10609D420214E
:103070002A466D1E824204DDBC4200D22170641CCF
:10308000F6E7002106E0BC4201D21A782270491C02
:103090005B1C641C8142F6DB20212A466D1E8242A5
:1030A00032DDBC4200D22170641CF6E7681C02D1FC
:1030B0000825012006430098019006980296009585
:1030C00004C8102306901AE006E001E00CE007E0D7
:1030D000BC4229D2252017E7082305E040210E43F2
:1030E000102301E002210E436C2801D068281DD076
:1030F000069804C8069000980296009501903946FB
:103100002046FFF70DF904460598401C05900598E8
:103110000078002800D0F3E60498002811D00020A1
:10312000BC420CD220700CE0641CEDE706980188CC
:10313000001D06908AB2B007DDD512B2DBE7203F52
:10314000F877039807B0201AF0BD0000284E554CC0
:103150004C29000000207047002070470020704775
:103160000020704710B5FCF7BFFFFFF7D9F9FFF754
:10317000B5FBFFF755FCFFF725FCFFF773F9FFF7E9
:1031800055FCFFF7BFFCFFF737FC002010BD0146E0
:10319000002006E0531C0B600A2312785843303895
:1031A00010180A681378303B0A2BF3D370470000DD
:1031B0000027154D3E4628782C46C00718D0002021
:1031C0002070618811A0FEF72FFFFF22201D03E071
:1031D0000A546188491C618061884B07F8D1080452
:1031E000C20C0D48211D3818FDF72EF96088C7194B
:1031F000642E03D1002609A0FEF716FF0520761CD9
:10320000FFF7AFFCD7E700009400002073697A65F0
:103210003A25640A00000000000001087461736B25
:10322000310A0000FF24F53403A0FEF7FDFE20461E
:10323000FFF797FCF8E700007461736B320A000037
:103240007FB50124A402224617491848FEF7EEF97B
:103250001648006801681022114301601448FDF708
:10326000D7F814481425032600900023124A13A10E
:103270000296039501947838FFF75EFC0D48783884
:10328000FFF7BAFC0F48009000230F4A0FA10296E7
:10329000039501947838FFF74FFC0A487838FFF718
:1032A000ABFC012004B070BD980000209804002001
:1032B00000000108F8050020B13100087461736B4B
:1032C00031000000700A0020253200087461736B21
:1032D00032000000000000000000000000000000BC
:1032E00000000000000000000000000000000000DE
:1032F00000000000010000000200000003000000C8
:1033000004000000060000000700000008000000A4
:1033100009000000000000000000000000000000A4
:103320000000000001000000020000000300000097
:103330000400000000000100020001000300010081
:10334000020001000400010002000100030001006E
:10335000020001000500010002000100030001005D
:10336000020001000400010002000100030001004E
:10337000020001000600010002000100030001003C
:10338000020001000400010002000100030001002E
:10339000020001000500010002000100030001001D
:1033A000020001000400010002000100030001000E
:1033B00002000100070001000200010003000100FB
:1033C00002000100040001000200010003000100EE
:1033D00002000100050001000200010003000100DD
:1033E00002000100040001000200010003000100CE
:1033F00002000100060001000200010003000100BC
:1034000002000100040001000200010003000100AD
:10341000020001000500010002000100030001009C
:10342000020001000400010002000100030001008D
:1034300002000100303132333435363738396162B9
:10344000636465660030313233343536373839419C
:1034500042434445460000006131000859310008EC
:10346000553100085D310008883400080000002054
:1034700094000000CC2000081C35000894000020B7
:1034800034150000DC2000080000000000000000EF
:103490000000000004000000010000000000000027
:1034A0000024F40000000000000000000100000003
:1034B0002800002028000020780000000200000002
:1034C0003800002038000020200000000500000027
:1034D0004800002048000020300000000A000000E2
:1034E00058000020580000202C00000000000000C0
:1034F00000000000000000000000000000000000CC
:1035000000000000000000000000000000000000BB
:0C351000000000000000000000000000AF
:04000005080000B936
:00000001FF
