:020000040800F2
:10000000E8140020CD000008BD0A00089501000892
:1000100000000000000000000000000000000000E0
:10002000000000000000000000000000BF0A0008FF
:10003000000000000000000013010008C10A0008D1
:10004000DF00000800000000DF000008DF000008FB
:10005000DF000008DF000008DF000008DF00000804
:1000600000000000DF000008DF000008DF000008DB
:10007000DF000008DF000008DF00000800000000CB
:10008000DF000008DF000008DF000008DF000008D4
:10009000DF000008DF000008DF000008DF000008C4
:1000A000DF000008DF000008DF000008DF000008B4
:1000B000DF000008DF0000080348854600F0A8F8CC
:1000C0000048004735020008E81400200448804733
:1000D00004480047FEE7FEE7FEE7FEE7FEE7FEE72F
:1000E0002D0B0008B9000008EFF3108072B67047BE
:1000F00080F3108870472A4A1368012B03D001232C
:100100001360284A1060284A116028482849016075
:100110007047EFF3108272B62148016800291DD0A4
:10012000002101601F48016800290AD0EFF309810E
:10013000203900680160F0C144464D4656465F468E
:10014000F0C1194909680968F0C9F0B4F0C9A046BE
:10015000A946B246BB46F0BC81F3098882F31088F9
:10016000042040420047104908600E490020086002
:100170000B49012008600F480F49026811430160D4
:100180000A480B4901600D480068006880F3088840
:1001900062B67047EFF3098000B500F0D1FE00BDF4
:1001A00088000020800000208400002004ED00E092
:1001B0000000001020ED00E00000FF0008ED00E06E
:1001C00030B50B46014600202022012409E00D46EF
:1001D000D5409D4205D31D469540491B2546954077
:1001E00040191546521E002DF1DC30BDD2B201E09F
:1001F0000270401C491EFBD270470022F6E710B582
:1002000013460A4604461946FFF7F0FF204610BD84
:10021000064C0125064E05E0E36807CC2B430C3C59
:1002200098471034B442F7D3FFF74AFF141E000872
:10023000341E000810B501F0F1FC002010BD0000D4
:10024000F0B5002388E001229A4094461440220031
:100250007ED04C68022C01D0122C0CD1DC08A400FA
:1002600027183C6A5D07ED0E0F26AE40B4430E69B9
:10027000AE4026433E6205685E000324B4400F7919
:10028000A543BF07BF0FB7402F4307604D68012D3F
:1002900005D0022D03D0112D01D0122D0ED185686D
:1002A000CF68A543B7402F43876047686546AF4393
:1002B0000D79ED06ED0F9D403D434560C568A543B2
:1002C0008C68B4402C43C4604C68E40043D59D085E
:1002D000244CAD002F193C6E9D07EE0E0F25B54046
:1002E000AC4305252D07A84201D100250FE01E4D86
:1002F000A84201D101250AE01C4DA84201D10225E6
:1003000005E01B4DA84201D1032500E00525B540BD
:100310002543144C3D66134D80352E684F68964337
:10032000FF0300D516432E606E684F689643BF03E7
:1003300000D516436E6025684E689543F60200D5D9
:100340001543256065684E689543B60202D500E006
:1003500001E0154365605B1C0A681446DA4000D072
:1003600071E7F0BD00180240000400500008005082
:10037000000C0050002A01D08161704781627047F3
:1003800001488068704700000000002010B5084850
:1003900000240168821511430160204600F00AF82C
:1003A000002801D0012401E000F028F8204610BD0B
:1003B0000020024070B50F4E0024716805460029E8
:1003C00015D07D20C000FFF7FBFE01460A480068FB
:1003D000FFF7F6FE00F034FB002808D1042D06D20A
:1003E00000222946401E00F01FF8356000E001247D
:1003F000204670BD000000200C00002008B5094810
:100400000168012211430160006810400090054816
:100410004038C26B01040A43C263C06B08400090BD
:1004200008BD00004010024010B500F087FB10BD71
:1004300010B50F4C21680322520291430143216001
:10044000C11FFF39FA390ED10A4806210068484316
:100450000949FFF7B5FE401C02E0002805D0401E08
:1004600061694905F9D4002010BD032010BD0000CA
:10047000007000400C00002040420F00F8B50F460D
:10048000060043D04D4D28684007400FB84213D2B4
:100490002868C008C00038432860FFF771FF044691
:1004A00005E0FFF76DFF011B4548814261D82868D0
:1004B0004007400FB842F4D13068424C81070DD557
:1004C000400704D5A068072109030843A060A0687D
:1004D0000F2109028843B1680843A0603078C00743
:1004E00032D0706801280AD002280BD000280FD023
:1004F0003449403103280ED0C969890704E02168D6
:10050000890301E021688901002906DB0120F8BD8B
:1005100021684905F8E7096AEFE7A168C908C90039
:100520000143A160FFF72CFF009006E0FFF728FFD2
:100530000099411A224881421BD8A06838210840FE
:100540007168C9008842F1D128684007400FB8425D
:1005500017D91A480168C908C90039430160FFF773
:100560000FFF054607E0FFF70BFF411B14488142D0
:1005700001D90320F8BD114800684007400FB84278
:10058000F1D13078400706D5A068072109038843D8
:10059000F1680843A06000F01DF8A1683C228909B9
:1005A0001140094A515CC906C90EC8400749086094
:1005B00007480068FFF7FEFEF8BD0000002002407B
:1005C0008813000000100240A01C00080C0000204E
:1005D0000000002010B5204CA068204A8006400F83
:1005E00016D0A0688006410F501001290FD0A168D5
:1005F0008906490F022912D0A0688006400F0428FE
:1006000023D0A0688006400F032821D0002010BD11
:10061000206801218004400F8140104612E0E1680B
:100620008B07E1689B0F4906490F491C032B00D03B
:100630001046FFF7C5FDE1684904490E4843E168EB
:10064000490F491CFFF7BCFD10BD0120C00310BDC0
:100650007D20000210BD0000001002400024F400C4
:10066000F8B504007ED020783827C007EB4D00286D
:1006700046D0A868E96838408907890F102802D059
:1006800008280BD001E0032908D00120626800048B
:1006900082420AD129680143296015E02868800355
:1006A0002ED560680028DDD02AE0052301211B0437
:1006B00089049A422A6802D10A432A60EAE78243FF
:1006C0002A60286888432860606800280CD0FFF7FB
:1006D00057FE064604E0FFF753FE801B642873D8DC
:1006E00028688003F7D50BE0FFF74AFE064604E0D2
:1006F000FFF746FE801B6428F1D828688003F7D4F2
:100700002078800769D5A868E96838408A070721FA
:10071000920FC902102802D0002813D001E0022A4B
:1007200010D0E068002846D0286888432169084333
:1007300028602868FF21013108432860FFF720FE68
:1007400006462CE02A68520502D5E268002A89D0C4
:100750006A687F231B029A4363691B021A436A601B
:10076000002800E08DE00ED1286888432169084305
:100770002860286801218004400F8140A848FFF7C5
:100780001FFDA8490860A8480068FFF713FE00286D
:1007900077D122E0FFF7F4FD801B02289FD828685C
:1007A0004005F7D568687F2109028843616909021D
:1007B0000843686011E02968FF2001308143296007
:1007C000FFF7DEFD064605E098E0FFF7D9FD801B48
:1007D000022884D828684005F7D42078934E000773
:1007E0002ED5A8688006400F03280AD0A0690028EB
:1007F000306A16D0012108433062FFF7C1FD074679
:100800000BE0306A80071BD5A06900289FD017E055
:10081000FFF7B6FDC01B022870D8306A8007F7D5F5
:100820000EE0400840003062FFF7AAFD074604E0F2
:10083000FFF7A6FDC01B022860D8306A8007F7D4F6
:10084000207840076CD5A86800278006400F042850
:1008500018D0E86BC00008D4E96B01200007014301
:10086000E963E96B01400127009171480168C905FE
:1008700019D40168821511430160FFF781FD0090D2
:100880000DE083E0F06980074AD5A06800287DD09C
:1008900046E0FFF775FD0099401A02282ED86448FB
:1008A0000068C005F5D5A168012910D004200529EC
:1008B000F16911D049084900F161F1698143F161A1
:1008C000A068002816D0FFF75BFD00900EE0F069ED
:1008D00001210843F061F3E70143F161F7E7FFF716
:1008E0004FFD0099411A534881426DD8F069800745
:1008F000F5D50EE0FFF744FD009007E064E0FFF758
:100900003FFD0099411A4B4881425DD8F06980074C
:10091000F5D4002F04D0E96B012000078143E9637F
:10092000E069002877D0A9688906490F022951D0CB
:1009300001263606022828680DD0B0432860E868F2
:1009400080088000E860E8683B490840E860FFF7FD
:1009500017FD04463AE0B0432860FFF711FD074653
:1009600004E0FFF70DFDC01B02282DD82868800188
:10097000F7D4616A206AA26A0843E16A120211434D
:100980000843216B0843E9682C4A00E041E011402C
:100990000843E860286830432860E86801210907B7
:1009A0000843E860FFF7ECFC044604E0FFF7E8FCCE
:1009B000001B022808D828688001F7D52BE0FFF734
:1009C000DFFC001B022801D90320F8BD2868800144
:1009D000F5D420E00128F8D0E868226A8107890F61
:1009E000914216D17021626A0140914211D17F215A
:1009F000A26A09020140120291420AD11F21490450
:100A0000E26A0140914204D1400F216B40078842C5
:100A100001D00120F8BD0020F8BD00000010024008
:100A20000024F4000C0000200000002040100240D0
:100A30000070004088130000FFFFFEEF8C80C11F94
:100A4000094910B5401E884201D9012010BD074C4C
:100A500060610321081F00F071F80020A0610720E9
:100A60002061002010BD0000FFFFFF0000E000E05B
:100A700030B587B014216846FFF7BFFB0D48416BC6
:100A8000022421434163406B0B4D2040059000221E
:100A900010212846FFF76EFC1020009001200190E5
:100AA00000200290694603942846FFF7C9FB07B06F
:100AB00030BD000000100240000400507047704735
:100AC00010B500F0D1FA00F067FE00F0D9FA10BDC1
:100AD00030B591B034216846FFF78FFB0024012028
:100AE0000D940E940F9440021094FFF7A1FC022580
:100AF000E801039000954020059008200A908003AB
:100B00000B900795000304940C900895099468468F
:100B1000FFF7A6FD07200D900F9402210E9510946B
:100B20000DA8FFF7ABFC11B030BD00000120024959
:100B3000C00688607047000000ED00E08307FF22D8
:100B4000DB0E9A408907090E9940002808DB8308CC
:100B500009489B001B1818689043084318607047A9
:100B60000007000F0838830804489B001B18D86949
:100B700090430843D861704700E400E000ED00E0D6
:100B8000002806D002060D49120E03D0C0B2085C40
:100B9000401C70470204120E04D00004000E085CD2
:100BA000093070470202120E04D00002000E085CE9
:100BB00011307047000E085C19307047E01C0008C7
:100BC00002E008C8121F08C1002AFAD17047704716
:100BD000002001E001C1121F002AFBD17047000074
:100BE00003480168814201D001207047002070470E
:100BF00064000020FEB5044609A8E0C81946204656
:100C00001430089BA061226261626061E56218464F
:100C10002A462321A36200F068FAE16AA06A0F4B1A
:100C20004218121F616A206A00F002FA2146E06150
:100C300020318E754E750020E763A0632764206322
:100C40000875206760670090019023462046044A9B
:100C50001946443000F00FFE0020FEBDB914000814
:100C6000D9160008143006C808384A6006C8083883
:100C700011604060006070477FB5FFF787FBFFF7AA
:100C800027FFFFF7F5FE0124114814260325A402CF
:100C9000009000230F4A10A1039602950194783822
:100CA00000F08AFC0A48783800F0E0FC0C48039613
:100CB0006E4631C600230B4A0BA1783800F07CFC4D
:100CC0000748783800F0D2FC002004B070BD000066
:100CD00004010020691C00087461736B310000007E
:100CE0007C050020951C00087461736B32000000C5
:100CF00010B500F0CFF8FFF7BFFF10BDFFB589B00A
:100D00000446149E1298139F01900097700601D517
:100D10004A4801E0494811380890F00601D57608A4
:100D20007600F00701D0302000E02020079000205E
:100D30000690B0070DD5002A03DA2D205242069006
:100D400007E0700701D52B2002E0300701D52020F5
:100D500006900025002A04D130206946087201253A
:100D60000CE00C980A2815D01107090F12090898F1
:100D7000415C02A841556D1C002AF2D1BD4200DD44
:100D80002F460198112132460A40C01B2021002A1B
:100D900006D015E010460A21FFF712FA0246E6E7F0
:100DA000069A002A08D0002806DD401E04E00A9AB0
:100DB000944200D22170641C0246401E002AF6DCD8
:100DC000069A002A06D00A9A944201D2069A227004
:100DD000401E641CF20606D509E00A9A944201D22C
:100DE000079A2270641C0246401E002AF5DC30225D
:100DF0003B467F1EAB420CDD0A9B9C4200D2227018
:100E0000641CF5E70A9B9C4201D2535D2370641C6D
:100E100000E002AA2B466D1E002B08DD009B002B74
:100E2000F0D104E00A9A944200D22170641C024678
:100E3000401E002AF6DC20460DB0F0BDF11D000872
:100E40001FB5094C14230121490203930A22601A99
:100E50006B4607C30023054A05A1204600F0ACFB02
:100E6000204600F003FC1FBD800B0020F10C0008A1
:100E70006D61696E0000000070B5044C044D02E025
:100E800020688047241DAC42FAD370BD081E0008BC
:100E90000C1E000870B5044C044D02E02068804729
:100EA000241DAC42FAD370BD0C1E0008101E0008B1
:100EB00010B5FFF719F9034A5188491C5180FFF713
:100EC00017F910BD5800002010B5FFF70DF90A4CB6
:100ED0006188491E09B26180002909DC0021618016
:100EE000FFF706F96068002801D000F06DF910BD29
:100EF000FFF7FEF810BD00005800002010B50B48A9
:100F00007D21C9000068FFF75BF90949401E88424E
:100F100008D80849084A4861FF20D070002088613D
:100F200007200861FFF7A8FF10BD00000C0000209B
:100F3000FFFFFF0000E000E020ED00E07047000050
:100F40000446C16912A000F0A7F815A0A16900F03D
:100F5000A3F817A0616900F09FF819A0216900F0BB
:100F60009BF81BA0E16800F097F81DA0A16800F0B5
:100F700093F81FA0616800F08FF821A0216800F0AD
:100F80008BF82348016823A000F086F8FEE70000F4
:100F90007073723A203078253038780A00000000EB
:100FA0002070633A203078253038780A000000003D
:100FB000206C723A203078253038780A0000000022
:100FC0007231323A203078253038780A000000003B
:100FD0007230333A203078253038780A000000002B
:100FE0007230323A203078253038780A000000001C
:100FF0007230313A203078253038780A000000000D
:101000007230303A203078253038780A00000000FD
:101010005C00002068617264206661756C74206FEA
:101020006E207468726561643A2025730A000000BE
:10103000F0B50546121DD008C0004038094E0246E2
:101040000024A700641CD651102CFAD31162002191
:1010500051629162D16230322AC201210906C16314
:10106000F0BD0000EFBEADDE10B5FFF73DF8034A5E
:101070001178491C1170FFF73BF810BD14000020D7
:1010800010B5FFF731F8034A1178491E1170FFF7C8
:101090002FF810BD140000200FB410B503AB7F2152
:1010A0000548029A00F07CFC0348FFF747FF10BC9C
:1010B00008BC04B018470000F00C00200268516022
:1010C00002680A6001604860704702685160026807
:1010D0000A6001604860704706C808384A6006C860
:1010E0000838116040600060704730B50346C9B2EF
:1010F000042A16D3840714D10D020D432C042C436B
:1011000005E01C605C609C60103ADC601033102AC3
:10111000F7D201E010C3121F042AFBD201E01970BC
:101120005B1C521EFBD230BD10B50446002020725D
:10113000FEF7DAFF0C3406CC083C4A6006CC083CCB
:10114000116064602460FEF7D3FF10BD064A0021E1
:101150000B01D35C834202D1080180187047491CFF
:101160000429F5DB0020704718000020F8B504467C
:1011700017460E460846FFF7E9FF0546FFF798FEBB
:10118000291D686800E000688842FCD1FFF79CFEDA
:1011900080200643267208223946204600F020F9B6
:1011A000FEF7A2FF69680C344C60696821606C60CE
:1011B0002D1D6560FEF79CFFF8BD007A000601D585
:1011C000012070470020704770B5FEF78DFF124C6C
:1011D00005466088002815D1A068FFF7D1FC401EA5
:1011E0000E4AC10051586268143991420AD02070E9
:1011F0000B4861600078002808D010461C301C3174
:10120000FEF779FF2846FEF773FF70BD10461C30CD
:101210001C31FEF770FFF5E758000020700D00202C
:101220001400002010B50446FEF75EFF024620467B
:101230002030017D09090901491C0175407D0A49D9
:10124000C000411820464B68143018604B68A361F9
:10125000486061610548A16B83681943816010464D
:10126000FEF746FF10BD0000700D00205800002062
:1012700010B50446FEF738FF214614310CC9083971
:1012800053600CC908391A60496009603521095D4D
:10129000CA0006498B5851188B4204D10449A36BEC
:1012A0008A689A438A60FEF723FF10BD700D002004
:1012B0005800002008B509A0FFF7EEFE0AA0FFF7CE
:1012C000EBFE12A0032300900122194612A0FFF7A3
:1012D000E3FE19A0FFF7E0FE08BD00000A205C2035
:1012E0007C202F0A000000002D205254202D2020A9
:1012F000202020546872656164204F7065726174AB
:10130000696E672053797374656D0A004A756C20A5
:101310002032203230323000202F207C205C2020F0
:1013200020202025642E25642E2564206275696C9A
:10133000642025730A0000002032303036202D2032
:101340003230313920436F70797269676874206276
:10135000792072742D746872656164207465616DA2
:101360000A000000F8B500F011FA0646FFF7A0FDEC
:10137000154F3D6823E068692C461449143C301A27
:1013800088421ED22D682046FFF76CFCFFF79CFDBB
:10139000E169206A884700F0F9F90646FFF788FD01
:1013A000607A810708D5C10706D040084000607206
:1013B000204600F07FFA02E0400840006072BD4223
:1013C000D9D1FFF781FDF8BD78000020FFFFFF7F36
:1013D000014600E0491C0A78002AFBD1081A704730
:1013E00010B5002A08D003460C781C70491C5B1C01
:1013F000002C05D0521EF7D110BD19705B1C00E007
:101400000021521EF9D110BD10B5002209480A4C26
:1014100042801146CB001B195B60491C1B602029D0
:10142000F8DB1F2101704260826002480C3040608E
:10143000006010BD58000020700D002010B5074C52
:10144000A068FFF79DFB401E0549C00008581438EE
:1014500060601C30FEF787FE10BD000058000020C1
:10146000700D00200148406000607047700000204F
:101470001FB50A4804224060006009480A23D101D0
:101480006C460FC40023074A07A1783800F094F88F
:101490000348783800F0EAF81FBD0000780000200B
:1014A000E80E0020F916000874696D6572000000EE
:1014B00010B500F0BBF810BD70B513480468FEF716
:1014C00013FE05462046FFF7D3FE042134200155C4
:1014D0002046443000F0BFF92046FFF76EFE012899
:1014E00002D1206F00280AD0214614310748FFF7A7
:1014F000E5FD2846FEF7FCFDFFF766FE70BD2046C1
:10150000FFF712FEF5E700005C00002064000020F9
:1015100000F002F8FCE7000070B523E0FEF7E4FD00
:101520000546FFF75DFB002826D0154801680C46EC
:1015300005C90839426005C9083910604960143C82
:101540000960FFF7B5FC216F002901D020468847CC
:101550002046FFF732FE012809D0FFF7B5FC2846E8
:10156000FEF7C6FDFFF73CFB0028D7D170BD204633
:10157000FFF7DAFDFFF7A8FC2846FEF7B9FD70BDBE
:10158000640000201FB5084820231F2280216C46DC
:101590000FC40023054A06A1783800F00DF8024870
:1015A000783800F063F81FBD700C0020111500089A
:1015B0007469646C65000000FFB585B00FADE0CDC7
:1015C0000C460A4601210598FFF7D0FD0E986A46A1
:1015D000E1C22146089B079A0598FFF70BFB09B06B
:1015E000F0BD70B504462030007D0007000F0228D2
:1015F00002D00020C04370BDFEF776FD05462046B0
:101600001430FFF769FD2046443000F0B1F9284658
:10161000FEF76EFD2046FFF705FE002070BD0000BE
:1016200001480068704700005C000020F1B5FEF73B
:101630005BFD05460C480468204600F02DF8204666
:1016400044306A460021064600F0ECF8304600F0CF
:1016500031F92846FEF74CFDFFF7B6FD206B801CE4
:1016600000D120630020F8BD5C00002010B50146C9
:1016700020318A7D01234A759340022283630A75D3
:10168000FFF7AFFF03480068002801D0FFF79CFD7B
:10169000002010BD5C00002070B5054604462035D2
:1016A000287D0007000F012802D00020C04370BD34
:1016B000FEF71AFD0646287D00090001801C2875EA
:1016C0002046FFF7D5FD2046443000F051F9304662
:1016D000FEF70EFD002070BD10B504460120C0438A
:1016E000206320461430FFF7F7FC2046FFF79AFDF1
:1016F000FFF76AFD10BD00000B4D0C4800F0D1F85B
:101700000446401C09D000F041F8201AA84201D23A
:10171000FFF7CEFEFFF726FEEFE7FFF781FFFFF7AB
:10172000BBFFFFF751FDF5E7FFFFFF7F78000020CB
:1017300070B5FEF7D9FC054612480068064620360B
:10174000317D0907090F012917D182694169914249
:1017500013D014300446FFF7BFFC707D0A49C00067
:10176000401841680C604168616044602060284610
:10177000FEF7BEFCFFF728FD02E02846FEF7B8FCA6
:10178000002070BD5C000020700D00200148006842
:10179000704700001000002010B508480168491C7F
:1017A0000160FFF73DFF016C491E016403D1C16B6D
:1017B0000164FFF7BDFF00F003F810BD100000202A
:1017C000F8B5FFF7E3FF0646FEF78EFC0746134D1C
:1017D0001DE060691249301A143C88421AD2204632
:1017E000FFF740FAE169206A8847FFF7CFFF064616
:1017F000607A810708D5C10706D0400840006072B2
:10180000204600F057F802E04008400060722C6863
:10181000AC42DED13846FEF76BFCF8BD700000200C
:10182000FFFFFF7F002909D0012904D0022908D039
:1018300003290ED109E0406A10600AE01168416294
:1018400007E0417AFD22114002E0417A0222114371
:1018500041720020704770B50546FEF745FC04460E
:101860002846FFF7FFF92046FEF742FC2846FFF71F
:101870005BFC002070BDF8B517460A461E460446BC
:101880000A21079DFFF772FC6908490006986172FA
:10189000E76100212662A162606214346460246002
:1018A000F8BD0168814202D10020C04370474869F9
:1018B00070470000F8B50446FEF716FC05462046C2
:1018C000FFF7D0F9607A4008400060722846FEF7C2
:1018D0000FFCFFF75BFF616A4018A062FEF704FC93
:1018E0000546607A400701D51E4901E01D490839C7
:1018F0000026F200009151184B686846B100465826
:101900000CE03668B446B61A7769A66AB74203D0C7
:10191000BF1B154EB74203D3664646509E42F0D1D8
:1019200010480C380168491C0160214614310098A8
:10193000FFF7CBFB607A0121084360722846FEF76F
:10194000D7FB607A40070BD50848007D0007000FE1
:10195000012805D005482038FFF743FEFFF734FC87
:101960000020F8BD78000020FFFFFF7F900E0020D0
:1019700070B50446407AC0070ED0FEF7B5FB0546A9
:101980002046FFF76FF92846FEF7B2FB607A400861
:1019900040006072002070BD0020C04370BD000098
:1019A000FFB583B0039C04982718A74203D20027F1
:1019B000FF43381B049006E1252803D0BC4200D227
:1019C00020700DE10026042208230599491C059189
:1019D00008782D2812D02B2812D0202812D02328A6
:1019E00012D0302812D00A780025ED43303A0A2A66
:1019F0000FD205A800F027F9054616E0102006E0F2
:101A00001643E2E71E43E0E7202000E00120064302
:101A1000DBE72A2809D1491C0698059120C80690C1
:101A2000002D02DA6D42102006430020C0430090D2
:101A3000059801782E2918D1401C059001780A4696
:101A4000303A0A2A04D205A800F0FDF8009008E018
:101A50002A2908D1401C0590069802C806900091DA
:101A60000846002801DA00200090059900200A7835
:101A7000682A01D06C2A02D1491C104605910978C8
:101A80000A236F297CD00CDC63291FD004DC2529B4
:101A90007AD058290DD17DE064297FD0692908D1F9
:101AA0007CE070295ED073292CD0752978D07829F4
:101AB00072D0BC4201D2252020700599641C0878A0
:101AC000002800D07AE7491E059179E0F00608D495
:101AD00020206D1E002D04DDBC4200D22070641C4D
:101AE000F7E706980178001D0690BC4200D22170ED
:101AF000202002E0BC4200D22070641C6D1E002D2C
:101B0000F8DC5DE0069808C80690002B00D13DA3E4
:101B10001846FFF75DFC0099002902DD884200DDD0
:101B20000846F10609D420212A466D1E824204DDB2
:101B3000BC4200D22170641CF6E7002106E0BC42E2
:101B400001D21A782270491C5B1C641C8142F6DBAE
:101B500020212A466D1E824232DDBC4200D2217015
:101B6000641CF6E7681C02D1082501200643009892
:101B7000019006980296009504C8102306901AE07A
:101B800006E001E00CE007E0BC4229D2252017E77F
:101B9000082305E040210E43102301E002210E43FB
:101BA0006C2801D068281DD0069804C806900098BB
:101BB00002960095019039462046FFF79FF80446AB
:101BC0000598401C059005980078002800D0F3E6A1
:101BD0000498002811D00020BC420CD220700CE0E8
:101BE000641CEDE706980188001D06908AB2B007D4
:101BF000DDD512B2DBE7203FF877039807B0201A53
:101C0000F0BD0000284E554C4C29000000207047C4
:101C100000207047002070470020704710B5FEF785
:101C200063FAFFF76BF9FFF745FBFFF71BFCFFF7C4
:101C3000EBFBFFF705F9FFF71BFCFFF7A3FCFFF732
:101C4000FDFB002010BD0146002006E0531C0B6088
:101C50000A2312785843303810180A681378303B3A
:101C60000A2BF3D370470000094DFF24F5340022FE
:101C700010212846FEF77EFB2046FFF719FC0122C3
:101C800010212846FEF776FB2046FFF711FCEEE711
:101C900000040050FF24F5342046FFF709FCFBE761
:101CA0000000000000000000000000000000000034
:101CB0000000000000000000000000000000000024
:101CC000010000000200000003000000040000000A
:101CD00006000000070000000800000009000000E6
:101CE00000000100020001000300010002000100E9
:101CF00004000100020001000300010002000100D5
:101D000005000100020001000300010002000100C3
:101D100004000100020001000300010002000100B4
:101D200006000100020001000300010002000100A2
:101D30000400010002000100030001000200010094
:101D40000500010002000100030001000200010083
:101D50000400010002000100030001000200010074
:101D60000700010002000100030001000200010061
:101D70000400010002000100030001000200010054
:101D80000500010002000100030001000200010043
:101D90000400010002000100030001000200010034
:101DA0000600010002000100030001000200010022
:101DB0000400010002000100030001000200010014
:101DC0000500010002000100030001000200010003
:101DD00004000100020001000300010002000100F4
:101DE0003031323334353637383961626364656691
:101DF0000030313233343536373839414243444587
:101E000046000000191C0008111C00080D1C0008E9
:101E1000151C0008341E0008000000208C00000083
:101E2000C00B0008C01E00088C0000205C140000DD
:101E3000D00B0008040000000100000000000000BA
:101E40000024F40000000000000000000100000079
:101E50001C0000201C000020780000000200000090
:101E60002C0000202C0000202000000005000000B5
:101E70003C0000203C000020300000000A00000070
:101E80004C0000204C0000202C000000000000004E
:101E90000000000000000000000000000000000042
:101EA0000000000000000000000000000000000032
:101EB0000000000000000000000000000000000022
:04000005080000B936
:00000001FF
