:020000040800F2
:10400000702E0020CD400008F18600089541000880
:1040100000000000000000000000000000000000A0
:1040200000000000000000000000000021880008DF
:104030000000000000000000134100082388000871
:10404000DF40000800000000DF400008DF400008FB
:10405000DF400008DF400008DF400008DF400008C4
:10406000000000006D4300087D430008DF400008A9
:10407000DF400008DF400008DF40000800000000CB
:10408000E1880008DF400008DF400008DF4000084A
:10409000DF400008DF400008DF400008DF40000884
:1040A000DF400008DF400008DF400008C59400083A
:1040B000DF400008DF4000080348854600F014F99F
:1040C0000048004763430008702E002004488047E2
:1040D00004480047FEE7FEE7FEE7FEE7FEE7FEE7EF
:1040E000D1880008B9400008EFF3108072B670471D
:1040F00080F3108870472A4A1368012B03D00123EC
:104100001360284A1060284A116028482849016035
:104110007047EFF3108272B62148016800291DD064
:10412000002101601F48016800290AD0EFF30981CE
:10413000203900680160F0C144464D4656465F464E
:10414000F0C1194909680968F0C9F0B4F0C9A0467E
:10415000A946B246BB46F0BC81F3098882F31088B9
:10416000042040420047104908600E4900200860C2
:104170000B49012008600F480F4902681143016094
:104180000A480B4901600D480068006880F3088800
:1041900062B67047EFF3098000B506F023FF00BD5B
:1041A00068010020600100206401002004ED00E0AF
:1041B0000000001020ED00E00000FF0008ED00E02E
:1041C00030B50B46014600202022012409E00D46AF
:1041D000D5409D4205D31D469540491B2546954037
:1041E00040191546521E002DF1DC30BD70B500247B
:1041F0002546002801DA01244042002901DA012580
:104200004942FFF7DDFFAC4200D04042002C00D015
:10421000494270BD03460B439B0703D009E008C920
:10422000121F08C0042AFAD203E00B780370401C66
:10423000491C521EF9D27047D2B201E00270401CF4
:10424000491EFBD270470022F6E710B513460A4616
:1042500004461946FFF7F0FF204610BD421E537872
:10426000521C002BFBD10B781370491C521C002BE5
:10427000F9D1704710B5044605E00B780370401C77
:10428000002B00D0491C521EF7D2204610BD421C04
:104290000178401C0029FBD1801A704710B500221C
:1042A00000E0521C835C8C5CA34201D1002BF8D14E
:1042B000D8B2E1B2401A10BD03460A780270401C21
:1042C000491C002AF9D11846704730B50546002030
:1042D000034600E05B1C934205D2EC5CC85C201AEC
:1042E00001D1002CF6D130BD064C0125064E05E06B
:1042F000E36807CC2B430C3C98471034B442F7D307
:10430000FFF7DEFE48C9000868C9000870B58C18C0
:104310000578401C6B075B0F01D10378401C2A1104
:1043200006D10278401C03E006780E70401C491C40
:104330005B1EF9D12B0705D40023521E0DD40B7040
:10434000491CFAE70378401CCB1A921C03E01D7845
:104350000D70491C5B1C521EF9D5A142D8D3002018
:1043600070BD10B508F040F8002010BD10B502482F
:1043700000F0D4FF10BD00002825002010B5034830
:1043800000F0CCFF024800F0C9FF10BD8C230020D4
:10439000E823002070B50446217808460838142127
:1043A000FFF70EFF0546206C800880000549401885
:1043B000606404488030A0641C20284001218140B2
:1043C000E16470BD0008024001794A1E9200064B6C
:1043D000D2180265044A403242654A1E93079B0F79
:1043E00001229A40826570470009024070B5856CD1
:1043F000C46C6C60046D002C02D0456D846D6C60E3
:104400000C4C64681C26056C35400126AE403443D4
:10441000084D6C60046863608468102C04D10468E3
:10442000A2600468E16003E00468A1600468E260DF
:1044300070BD000000000240704700000348406962
:1044400003490843014948617047000000200240C9
:1044500004000100074A5269FF23F9339A431146C9
:10446000C20001231B041A43921C0A43014B5A61E8
:10447000704700000020024010B508494969012436
:104480002143064C6161026000BF00BF00BFBFF363
:104490006F8F00BF00BF00BF436010BD002002400F
:1044A000F0B50246002314460D46114E76690127E9
:1044B000BF043E430E4F7E6100BFEFF310863046CF
:1044C00072B605E02E6826602D1D241D5E1CF3B219
:1044D000402BF7D300BF064E366901273F043E400C
:1044E000002EF8D100BF80F3108800BFF0BD00009F
:1044F00000200240F8B5064601F028FA871905E0C9
:1045000001F024FAB84201D30320F8BD1A4800692B
:10451000012109040840000C0028F1D11648046963
:1045200016490C40481C1449086108468569410435
:104530000D40002D06D0806928430F498861204630
:1045400028430446002C03D00D4844600120DCE7DA
:1045500001F0FCF9871905E001F0F8F9B84201D340
:104560000320D2E704480069012189040840800C37
:104570000028F1D100BFC8E700200240FA83000004
:10458000582A002070B504460025204600F068F83F
:104590000C49086001200C49086002200B490860A2
:1045A00008480068486008480068886001F0BEF864
:1045B0000749064801F020F8054601F069F8284649
:1045C00070BD00009C000020A0000020902600206C
:1045D000A8000020F8B505460E46174601F0A6F8DB
:1045E000002406E0284600F009F8A10070502D1DB7
:1045F000641CBC42F6D301F04BF8F8BD01460868D4
:1046000070470000F7B584B005460E460027002429
:104610002846FFF7B7FF47B2002F00D0671E01F012
:1046200085F8002411E0E000301803C803910290DF
:10463000E000401909494018019001460120039B00
:10464000029A01F037F8601C84B206988442EADBD3
:1046500001F01EF8F8B207B0F0BD00000038000805
:1046600001460120C006081AC00A7047FEB505467B
:104670000C4600200190032189056068884200D122
:1046800000BF3C20405D012800D100E000BF00BF1A
:104690005420405D012801D10220FEBD012154209B
:1046A000415500BF286802F098FE002839D1FD4925
:1046B000206888423DD10121C9056068401A11D0A7
:1046C0004910401A14D17F23DB04A16899430123C8
:1046D000DB05C9185B1019430A46F249286802F045
:1046E00083FE0BE0F04AEF49286802F07DFE05E00A
:1046F0000022EC49286802F077FE00BF00BFA86DD9
:10470000012109048843A86528688021016000BF51
:10471000207B012806D1286841688022114341602E
:1047200000BFAAE12868416880229143416000BF30
:10473000A3E10121C9056068401A74D04910401AEC
:1047400072D1DA49206888426FD128688030006AC7
:10475000A1684903490B002905D11F229206A168CF
:104760001140890E93E0217AC907C90F002901D0B1
:1047700000218CE00222A1681140022901D101210F
:1047800085E00422A1681140042901D102217EE0C4
:104790000822A1681140082901D1032177E01022E5
:1047A000A1681140102901D1042170E02022A168E4
:1047B0001140202901D1052169E04022A168114062
:1047C000402901D1062162E08022A16811408029A0
:1047D00001D107215BE0FF220132A1681140914223
:1047E00001D1082153E001225202A16811409142F7
:1047F00001D109214BE001229202A16811409142AE
:1048000001D10A2143E00122D202A1681140914264
:1048100001D10B213BE001221203A168114091421A
:1048200004D10C2133E0DFE0E4E037E00122520361
:10483000A1681140914201D10D2128E0012292038B
:10484000A1681140914201D10E2120E00122D20342
:10485000A1681140914201D10F2118E001221204F8
:10486000A1681140914201D1102110E001225204AF
:10487000A1681140914201D1112108E00122920466
:10488000A1681140914201D1122100E000210122D2
:104890008A401043296880310862A4E0286880308B
:1048A000406AA1684903490B002905D11F229206DD
:1048B000A1681140890E90E0217AC907C90F00292B
:1048C00001D0002189E00222A1681140022901D112
:1048D000012182E00422A1681140042901D10221B2
:1048E0007BE00822A1681140082901D1032174E06E
:1048F0001022A1681140102901D104216DE020226D
:10490000A1681140202901D1052166E04022A1685B
:104910001140402901D106215FE08022A1681140A9
:10492000802901D1072158E0FF220132A1681140FE
:10493000914201D1082150E001225202A1681140A8
:10494000914201D1092148E001229202A16811405F
:10495000914201D10A2140E00122D202A168114016
:10496000914201D10B2138E001221203A1681140CC
:10497000914201D10C2130E001225203A168114083
:10498000914201D10D2128E001229203A16811403A
:10499000914201D10E2120E00122D203A1681140F1
:1049A000914201D10F2118E001221204A1681140A7
:1049B000914201D1102110E001225204A16811405E
:1049C000914201D1112108E001229204A168114015
:1049D000914201D1122100E0002101228A401043BE
:1049E0002968803148620BE021682F4A286802F06C
:1049F000FBFC05E021680022286802F0F5FC00BFFE
:104A000000BF2A49206888421BD1A86D01214904B2
:104A10008843A86528684912016000BF207B0128EF
:104A200007D128684168FF2201321143416000BF6D
:104A300023E028684168FF2201329143416000BFB2
:104A40001BE0A86D012189048843A86528684912E4
:104A5000016000BF207B012807D12868416801223E
:104A600052021143416000BF07E0286841680122FB
:104A700052029143416000BF00BF0A49206888424A
:104A800016D126692968C96818221140C908490049
:104A90008E4067692968C9681140C90849008F407C
:104AA00008E000000000C07CFFFF8700FFFF170048
:104AB000266967692968009120680321090501407A
:104AC000090D012252050240520D89188A000099F1
:104AD000203153181968074A114032043A431143F0
:104AE000196000BF00BF00215420415500BF01984C
:104AF000D3E5000000F000F0F0B585B005460C46A7
:104B00000020039002900121C9072869884203D040
:104B1000091D2869884200D100E000BF00BF542071
:104B2000405D012802D1022005B0F0BD01215420D2
:104B3000415500BF286802F050FC002876D160681B
:104B4000022874D00121C9072869884203D0091DB1
:104B50002869884208D128682168826A4B035B0B68
:104B60001A43826200BFC6E02179CA06D20E0F2125
:104B70009140286E884321684903490B002905D1DB
:104B80001F22920621681140890E92E02178C90700
:104B9000C90F002901D000218BE0022221681140B9
:104BA000022901D1012184E0042221681140042955
:104BB00001D102217DE0082221681140082901D19C
:104BC000032176E0102221681140102901D104212F
:104BD0006FE0202221681140202901D1052168E0E1
:104BE000402221681140402901D1062161E0802244
:104BF00021681140802901D107215AE0FF220132AA
:104C000021681140914201D1082152E00122520253
:104C100021681140914201D109214AE0012292020A
:104C200021681140914203D10A2142E0F7E0B7E048
:104C30000122D20221681140914201D10B2138E0BA
:104C40000122120321681140914201D10C2130E070
:104C50000122520321681140914201D10D2128E027
:104C60000122920321681140914201D10E2120E0DE
:104C70000122D20321681140914201D10F2118E095
:104C80000122120421681140914201D1102110E04B
:104C90000122520421681140914201D1112108E002
:104CA0000122920421681140914201D1122100E0B9
:104CB00000212279D206D20E91400843286660680E
:104CC0008008401CE969884215D828682268616814
:104CD0000192836ACF06FF0E0F22BA4093430F273B
:104CE000BF06019A3A40920ECF06FF0EBA40134318
:104CF000836200BF00BF286821680091A16801910C
:104D00004269009909028A4300990B024A4F0199AE
:104D100039400B401A43426100BF2068C00FC007F2
:104D200000281ED0454802F043FB0646444920684F
:104D3000884217D1C0023040002813D1C802304346
:104D400001463E4802F06EFB3E493F480068FFF7CF
:104D500037FA029002E00298401E02900298002862
:104D6000F9D162E03949206888420AD18002304096
:104D7000002806D1880230430146304802F052FB39
:104D800053E03349206888424FD140023040002828
:104D90004BD1480230430146284802F043FB44E02F
:104DA0000121C9072869884203D0091D2869884262
:104DB00008D128682168826A4B035B0B9A438262A0
:104DC00000BF00BF2068C00FC00700282DD01B48BF
:104DD00002F0EEFA06461A492068884207D1C2025C
:104DE000304690430146154802F01CFB1DE0174970
:104DF0002068884207D182023046904301460F481E
:104E000002F010FB11E01249206888420DD14202E5
:104E1000304690430146094802F004FB05E0A86DC6
:104E200020210843A8650120039000BF00215420E1
:104E3000415500BF039877E600FFFF0708270140B0
:104E4000001000B0400D030090010020004000B8A9
:104E5000002000B4FEB50446002001900025002685
:104E60000090002C01D10120FEBD2069002805D052
:104E7000012149052069884200D100BFA06D0028AA
:104E800007D1204600F042F90020E06500215420BF
:104E90000155206802F09AFA002816D1206881682E
:104EA000924A1140012212071143816000BF9049CC
:104EB00090480068FFF784F94000009002E00098F5
:104EC000401E009000980028F9D1206802F07EFA78
:104ED000002809D1A06D10210843A065E06D0121D3
:104EE0000843E06501200190206802F076FA074649
:104EF000A06D1021084000287ED1002FFCD1A06DAC
:104F00000901884302210843A065206802F056FA8F
:104F100000282AD12068C06818218843A168084366
:104F20002168C86020680069800080086168890F76
:104F3000890708432168086103218907606888425E
:104F400013D04942606888420FD0490060688842A7
:104F50000BD0694880680F21890488430F2292048E
:104F600061681140084364498860207E8003617E47
:104F7000C9030843A17E49030843216B002902D0DD
:104F80000121090300E000210843E1680843216989
:104F9000C90FC907002903D021694900490801E068
:104FA0000121490508432C21095D490008430543B7
:104FB0002020005D01280ED1A07E002803D1012011
:104FC0000004054307E0A06D20210843A065E06DC3
:104FD00001210843E065606A002806D0FF21C13145
:104FE000606A0840A16A08430543216C606C08436D
:104FF000A16C0843E16C00E070E0084306433C20EC
:10500000005D012800D106432068C0683B49084084
:1050100028432168C8602068006939490840304346
:10502000216808610021626B206802F002FA3549AC
:10503000A26B206802F0FDF92069002807D12068E2
:10504000806A0F21C9430843216888622AE0012150
:1050500049052069884225D1002008E08200216EA0
:10506000D1400907090F0F2900D102E0401C082890
:10507000F4D300BF012807D12168896A0F22D243E7
:105080001143226891620CE0217F491E4907CA0E34
:105090000F21C9439140226E11432268926A22680F
:1050A000916200BF2068C06817490840A84208D133
:1050B0000020E065A06D0221884301210843A0651E
:1050C00012E0A06D0221884310210843A065E06D25
:1050D00001210843E0650120019005E0A06D102149
:1050E0000843A065012001900198BDE6E8FFFF7F1D
:1050F000400D030090010020002701401902FEFF2F
:1051000002FCFFDF04FFFF07E7FF3F8310B586B017
:105110000446142101A8FFF796F827492068884221
:1051200047D100BF254800680121090508432349EC
:10513000086008460068012109050840009000BF8A
:1051400000BF00BF1D484038406B012108431B4988
:10515000403948630846406BC007C00F009000BF4D
:1051600000BF10200190032002900020039001A9AD
:105170000520000700F0F4FA1148124908600520E4
:10518000486000210F488160C160802101614900B1
:105190004161890081610021C161016200F04EF925
:1051A000002801D0FFF748F900BF06482065846257
:1051B00000BF06B010BD00000024014040100240B6
:1051C00008000240282500200146002901D10120C5
:1051D00070472520405C022808D00420C86300BF27
:1051E00000222420425400BF0120F1E70868006833
:1051F0000E2290430A681060486C0068FF2201325A
:1052000090434A6C106008680068400840000A68D3
:105210001060124840681C230A6C1A400123934016
:1052200018430E4A50608A6CC86C5060086D0028A4
:1052300009D0086D0068FF22013290430A6D1060AA
:105240004A6D886D506001222520425400BF002223
:105250002420425400BF0020BAE7000000000240B2
:1052600070B50446002500BF00212420015500BF71
:1052700000BF005D012801D1022070BD0121242062
:10528000015500BF2520005D022803D00420E06303
:1052900001253AE0206800680E21884321680860F3
:1052A000206800684008400021680860606C006861
:1052B000FF2101318843616C0860154840681C2259
:1052C000216C114001228A40104311494860A16CB1
:1052D000E06C4860206D002809D0206D0068FF2137
:1052E00001318843216D0860616DA06D4860012126
:1052F0002520015500BF00212420015500BFA06BCF
:10530000002802D02046A16B88472846B5E7000058
:10531000000002400146C86B7047000070B50446AB
:1053200045480568206806681C20216C014004205F
:1053300088402840002820D00420304000281CD07D
:105340002068006820210840002805D120680068F6
:105350000421884321680860374840681C22216C7A
:10536000114004228A40104333494860206B0028D2
:1053700060D02046216B88475CE01C20216C0140F6
:10538000022088402840002828D0022030400028F1
:1053900024D02068006820210840002808D1206817
:1053A00000680A21884321680860012125200155F1
:1053B000214841681C22206C104002228240114387
:1053C0001D48416000BF00212420015500BFE06A54
:1053D00000282FD02046E16A88472BE01C20216C52
:1053E0000140082088402840002823D00820304071
:1053F00000281FD0206800680E21884321680860BB
:105400000D4841681C22206C10400122824011434B
:10541000094841600120E06301212520015500BFBA
:1054200000212420015500BF606B002802D02046D7
:10543000616B884770BD00000000024010B5044653
:10544000002C01D1012010BD294A2168881A14219D
:10545000FEF7B6FE80002064022125200155206859
:1054600000682449084021680860E168A068084392
:105470002169084361690843A1690843E169084358
:10548000216A0843216809680843216808602046AA
:10549000FEF780FF01218903A068884201D1002026
:1054A00060602079616C0860A16CE06C48606068A5
:1054B00000280CD06068042809D82046FEF784FF35
:1054C0000020216D0860616DA06D486003E0002040
:1054D00020656065A0650020E0630121252001555D
:1054E00000BF00212420015500BF0020ABE70000D1
:1054F000080002400F80FFFFF8B504460D4616462F
:105500001F460020009000BF2420005D012801D12B
:105510000220F8BD01212420015500BF2520005D97
:10552000012844D10221252001550020E063206894
:10553000006840084000216808603B463246294622
:105540002046FEF753FF206B002806D02068006835
:105550000E210843216808600BE0206800680421E0
:10556000884321680860206800680A210843216890
:105570000860606C0068012109040840002805D01B
:10558000606C006809120843616C0860206D002897
:1055900006D0206D0068FF2101310843216D0860AD
:1055A00020680068012108432168086006E000BF08
:1055B00000212420015500BF0220009000BF0021DF
:1055C0002420015500BF0098A3E7000070B50446F1
:1055D00000F0BCF906462546681C002802D00548A4
:1055E00000682D1800BF00F0B1F9801BA842FAD363
:1055F00070BD00008C010020F8B504460F4600BFC6
:1056000021480078012801D10220F8BD01201E495F
:10561000087000BF002048607D20C000FEF76AFFD0
:105620000646002E28D12068042807D1FEF706FF81
:105630007D20C000FEF75EFF06461DE00020C0434F
:10564000386065680CE02846FEF704FF7D20C00046
:10565000FEF750FF0646002E01D03D6005E06D1CB0
:10566000A16860684018A842EDD800BF07484069AB
:10567000022188430549486100BF002002490870A3
:1056800000BF3046C1E70000582A00200020024039
:10569000012007494969C2071143054A5161114672
:1056A0004969C90FC907002900D0002070470000D0
:1056B00000200240F0B51FB4064614461D4600BF48
:1056C00018480078012802D1022005B0F0BD012061
:1056D0001449087000BF002048607D20C000FEF71C
:1056E00009FF0746002F15D1012E05D122462B4672
:1056F0000198FEF7C1FE03E021460198FEF7D0FEB7
:105700007D20C000FEF7F6FE074607484069B0431B
:105710000549486100BF00200249087000BF3846B3
:10572000D3E70000582A0020002002400020094949
:105730004969C90FC90700290BD00749054A91607B
:105740000649916011464969C90FC907002900D06F
:10575000012070470020024023016745AB89EFCD4F
:1057600070B503460022D5E0012696400C6834400F
:10577000002C71D04D68022D02D04D68122D15D12C
:10578000D508AE001D462035A8595507EE0E0F2549
:10579000B5400646AE4330465607F60E0D69B54095
:1057A0002843D508AD001E462036705118685600B3
:1057B0000325B5400646AE4330460D79AD07AD0F23
:1057C0005600B540284318604D68012D08D04D683B
:1057D000022D05D04D68112D02D04D68122D18D123
:1057E000986856000325B5400646AE43304656003D
:1057F000CD68B54028439860586801259540064615
:10580000AE43304610264D6835402D09954028435B
:105810005860D86856000325B5400646AE4330466A
:1058200056008D68B5402843D860012636074D687C
:105830003540B5426DD13A4D9608B600A859950746
:10584000EE0E0F25B5400646AE43304605252D0722
:10585000AB4202D1002510E05BE0324DAB4201D1FA
:1058600001250AE0304DAB4201D1022505E02F4D64
:10587000AB4201D1032500E005259607F60EB540A1
:105880002843274D9608B600A851254D2035286895
:105890000546A5432846012636044D683540B542E5
:1058A00002D10546254328461D4D203528606868ED
:1058B0000546A5432846012676044D683540B54285
:1058C00002D1054625432846154D20356860144D04
:1058D000603D28680546A5432846012636054D68E3
:1058E0003540B54202D10546254328460C4D603D62
:1058F000286068680546A5432846012676054D6858
:105900003540B54202D1054625432846044D603D49
:105910006860521C0D68D540002D00D024E770BD92
:10592000601802400004005000080050000C0050B5
:1059300042690A40002A01D0816200E0816170471B
:10594000002A01D0816100E081627047014800684F
:10595000704700008401002070B50446002C01D17E
:10596000012070BD1448216808601448216808604F
:105970002168606848602168A0688860FFF7E6FFDA
:10598000054606E0FFF7E2FF401B302801D903205F
:10599000E7E72068C0680028F4D120680169E06862
:1059A000814203D02168E068086102E00448216870
:1059B00008600020D5E70000CCCC00005555000061
:1059C000AAAA000010B5002408480068FF21013190
:1059D000084306490860002000F00AF8002801D0BA
:1059E000012401E000F034F8204610BD0020024000
:1059F000F8B5044600251348006800281ED0114859
:105A000001687D20C000FEF7DBFB074639460E48E3
:105A10000068FEF7D5FB064600F0D2FD00280BD14A
:105A2000042C07D200222146401E00F041F807480E
:105A3000046004E0012502E0012500E0012528467C
:105A4000F8BD00008C01002090010020880100209A
:105A500008B500BF0E480068012108430C490860E2
:105A600008460068C007C00F009000BF00BF00BF1D
:105A700007484038C06B8905084305494039C86369
:105A80000846C06B09040840009000BF00BF08BD75
:105A9000401002400146002905DBCB06DB0E012247
:105AA0009A40024B1A6000BF7047000000E100E01E
:105AB00070B504460D4616462946204603F066FD9D
:105AC00070BD000070B5044611480068032149020A
:105AD000884320430E4908604815844216D10D4979
:105AE00009680622514308460B49FEF769FB451C2D
:105AF00005E0002D01D06D1E01E0032070BD0448BB
:105B000040690121890208408842F2D00020F5E76F
:105B1000007000409001002040420F00FEB5044696
:105B20000027002002900121490420680840884293
:105B30007BD1002001907748C06BC9020840002843
:105B40000ED100BF7348C06B08437249C863084652
:105B5000C06B09040840009000BF00BF0120019005
:105B60006D480068FF21013108436B490860FFF769
:105B7000EDFE064606E0FFF7E9FE801B022801D98C
:105B8000032706E064480068FF210131084000282F
:105B9000F1D000BF002F4BD15E484030C5690321D2
:105BA00009020D40002D1AD0A069A84217D059480B
:105BB0004030C0698843054656484030C0690121DD
:105BC0000904084353494031C8610846C0690121AE
:105BD000090488434F494031C8610846C561E80758
:105BE000C00F002813D0FFF7B1FE064607E0FFF70D
:105BF000ADFE801B4949884201D9032706E045488C
:105C00004030C069022108400028F0D000BF002FBA
:105C10000CD140484030C069032109028843A16982
:105C200008433C494031C86103E00DE0029700E0C1
:105C300002970198012806D13648C06B0121090757
:105C400088433449C86300BF2078C007C00F0028CC
:105C500009D03048403040698008800061680843BE
:105C60002C4940314861022120680840022809D1AE
:105C70002848403040690C218843A16808432549E1
:105C80004031486140212068084040280AD121481D
:105C900040304069032109038843E16808431D49F6
:105CA000403148610121890320680840884213D1AE
:105CB00018484030406980008008616908431549F0
:105CC0004031486109066069884205D11148C068C1
:105CD000891308430F49C8600121C90220680840A0
:105CE000884215D10B48403040690321890388431D
:105CF000216908430749403148610121890320692E
:105D0000884205D10348C068890008430149C8603A
:105D10000298FEBD00100240007000408813000091
:105D200070B504460D46002C01D1012070BD6B48B2
:105D300000684007400FA84218D268480068C008B1
:105D4000C000284365490860FFF700FE064607E0EB
:105D5000FFF7FCFD801B6249884201D90320E5E77B
:105D60005E4800684007400FA842F1D10221206838
:105D70000840022815D1042120680840042807D1D2
:105D800058488068072109038843401855498860AE
:105D9000544880680F2109028843A168084351498B
:105DA00088602078C007C00F002854D060680128A0
:105DB00008D14C48006801214904084000282ED130
:105DC0000120B3E76068022808D146480068012135
:105DD00049060840002822D10120A7E76068002872
:105DE00008D140480068012189020840002816D1E6
:105DF00001209BE76068032808D13A484030006AD8
:105E00000221084000280AD101208FE735484030A0
:105E1000C06902210840002801D1012086E73148ED
:105E20008068C008C000616808432E498860FFF799
:105E30008DFD064607E0FFF789FD801B2849884253
:105E400001D9032072E7274880683821084061683B
:105E5000C9008842EFD1214800684007400FA8429E
:105E600018D91E480068C008C00028431B490860B4
:105E7000FFF76CFD064607E0FFF768FD801B184939
:105E8000884201D9032051E7144800684007400FB9
:105E9000A842F1D1042120680840042808D1114803
:105EA0008068072109038843E16808430D49886039
:105EB00000F03AF80B4989680F2212021140090AD2
:105EC0008900094A515CC906C90EC84007490860E3
:105ED00007480068FFF78CFD28E70000002002401B
:105EE0008813000000100240BCC700089001002089
:105EF00088010020014800687047000090010020E0
:105F000000B5FFF7F7FF0649896807221203114021
:105F1000090B8900034A515CC906C90EC84000BD7F
:105F200000100240FCC70008FEB5354880683821E3
:105F3000084000280DD13248006809020840C10A13
:105F40000120884000902F480099FEF739F9044657
:105F500054E02B48806838210840082801D12A4C99
:105F60004CE02748806838210840102834D1244864
:105F7000C0688607B60F2248C06870210840000933
:105F8000401C0190022E0FD0032E0CD11E48019907
:105F9000FEF716F91A49C9687F2212021140090A50
:105FA000484305460DE000BF16480199FEF708F981
:105FB0001349C9687F2212021140090A4843054665
:105FC00000BF00BF0E48C068400F471C3946284636
:105FD000FEF7F6F8044611E00948806838210840C9
:105FE000202801D1840209E0054880683821084052
:105FF000182802D17D24240200E000242046FEBDA2
:10600000001002400024F40000127A00FEB504469D
:10601000002C01D10120FEBD2078C007C00F002850
:106020006FD0F748876838210F40C0688607B60FE1
:10603000102F01D1032E01D0082F0BD1F04800689A
:1060400001214904084000285BD06068002858D12D
:106050000120E0E700BF012109046068884205D102
:10606000E74800680843E649086021E00521090483
:10607000606888420ED1E248006801218904084323
:10608000DF49086008460068012109040843DC492B
:1060900008600DE0DA480068012109048843D84906
:1060A000086008460068012189048843D4490860D3
:1060B00000BF6068002812D0FFF748FC054606E0E4
:1060C000FFF744FC401B642801D90320A3E7CC4818
:1060D00000680121490408400028F1D011E0FFF7D1
:1060E00035FC054606E0FFF731FC401B642801D96A
:1060F000032090E7C24800680121490408400028B5
:10610000F1D1022120680840022873D1BC48806880
:10611000382108400746BA48C0688607B60F102FD6
:1061200001D1022E01D0002F36D1B54800680121DF
:1061300089020840002804D0E068002801D101202D
:1061400069E7AF4840687F21090288436169090215
:106150000843AB494860002F16D108460068072164
:10616000C902884321690843A549086008460068B8
:106170000722D2021040C20A012090400146A148E5
:10618000FEF71EF8A0490860A0480068FFF730FC41
:10619000002849D001203EE7E06800282BD098482D
:1061A00000680721C90288432169084394490860AF
:1061B000084600688915084391490860FFF7C6FB47
:1061C000054606E0FFF7C2FB401B022801D9032069
:1061D00021E78B4800680121890208400028F1D09E
:1061E000874840687F2109028843616909020843A2
:1061F0008349486018E082480068FF2101318843E4
:106200007F490860FFF7A2FB054606E0FFF79EFB0B
:10621000401B022801D90320FDE6794800680121CE
:10622000890208400028F1D1082120680840082888
:1062300049D1734880683821084018280BD170482C
:106240004030006A0221084000283CD0A0690028A4
:1062500039D10120DFE6A06900281AD06848403013
:10626000006A01210843664940310862FFF76EFB6E
:10627000054606E0FFF76AFB401B022801D9032010
:10628000C9E65F484030006A022108400028F1D08A
:1062900019E05B484030006A4008400058494031EE
:1062A0000862FFF753FB054606E0FFF74FFB401B74
:1062B000022801D90320AEE651484030006A02218D
:1062C00008400028F1D104212068084004287CD12E
:1062D000002001904A4880683821084020280BD1CE
:1062E00047484030C0690221084000286ED0A068AD
:1062F00000286BD101208EE64148C06B010F0120C0
:106300008843002810D000BF3D48C06B0121090719
:1063100008433B49C8630846C06B09040840009025
:1063200000BF00BF0120019039480068FF21013102
:106330000840002816D136480068084334490860F0
:10634000FFF704FB054606E0FFF700FB401B0228B1
:1063500001D903205FE62E480068FF210131084083
:106360000028F1D000BFA068012808D1244840309F
:10637000C0690121084322494031C86120E0A0687A
:1063800005280FD11E484030C069042108431C492C
:106390004031C8610846C0690121084318494031AD
:1063A000C8610DE016484030C069410849001448F2
:1063B0004030C161C0690421884311494031C8613E
:1063C00000BFA068002816D001E040E03EE0FFF7E3
:1063D000BDFA054607E0FFF7B9FA401B0D498842B0
:1063E00001D9032017E606484030C0690221084061
:1063F0000028F0D01EE0FFF7A9FA054614E00000DF
:10640000001002400024F4009001002088010020C8
:106410000070004088130000FFF798FA401B6449A1
:10642000884201D90320F6E56248C069022108408C
:106430000028F1D10198012808D15E484038C06B8E
:106440000121090788435B494039C86300BFE069FF
:1064500000285AD057484038806838210840102812
:106460007ED0E069022851D15248403800680121AD
:10647000090688434F4940390860FFF767FA054627
:1064800006E0FFF763FA401B022801D90320C2E5AA
:106490004848403800680121490608400028F0D1EA
:1064A000616A206A0843A16A09020843E16A084355
:1064B000216B08433F494039C9683F4A11400843AE
:1064C0003C494039C8600846006801210906084374
:1064D0003849403908600846C0680904084335490E
:1064E0004039C860FFF732FA054606E0FFF72EFA9A
:1064F000401B022801D903208DE52E484038006852
:106500000121490608400028F0D04EE029484038D3
:106510000068012109068843264940390860084679
:10652000C06880088000C8600846C06823490840E9
:1065300020494039C860FFF709FA054607E0FFF730
:1065400005FA401B022802D9032064E508E0194837
:10655000403800680121490608400028EFD124E0B6
:10656000E069012800D156E512484038C668B107F5
:10657000890F206A814216D170203040616A8842BA
:1065800011D17F2000023040A16A090288420AD15D
:106590001F2040043040E16A884204D1710F49074E
:1065A000206B814201D0012035E5002033E5000059
:1065B00088130000401002408C80C11FFFFFFEEFD7
:1065C00070B504462546681E0949884201D9012054
:1065D0000CE0681E074948610321081F02F0D6FF3E
:1065E00000200449886107200861002070BD000078
:1065F000FFFFFF0000E000E07047704770470000B9
:1066000010B50346002200BF3C20C05C012801D128
:10661000022010BD01243C20C45400BF100A000217
:10662000CC6820430246104603242402A0438C6811
:106630002043024610460124A402A0434C68204394
:10664000024610460124E402A0430C68204302469F
:10665000104601242403A0430C692043024610463F
:1066600001246403A0434C692043024610460124E0
:10667000A403A0430C6B2043024610460F242404BD
:10668000A0430C8B2404204302461C4C1868A042F3
:1066900006D1104601242407A043CC6920430246BA
:1066A000164C1868A04220D110460F242405A043A0
:1066B0000C8D240520430246104601242406A043E5
:1066C0000C6A20430246104601246406A0434C6A2B
:1066D00020430246094C1868A04206D11046012406
:1066E0006407A043CC6A204302461868426400BF96
:1066F00000243C20C45400BF00208AE7002C014045
:1067000030B502460B4600BF3C20805C012801D119
:10671000022030BD01253C20855400BF02253D20CC
:1067200085541068416810688468124D1068A8424A
:1067300006D10F252D050846A84301465868014398
:1067400070250846A8430146186801438025204665
:10675000A843044698680443106841601068846048
:1067600001253D20855400BF00253C20855400BFF5
:106770000020CEE7002C014010B50446002C01D1CA
:10678000012010BD3D20005D002805D100213C20E6
:106790000155204600F00CF802213D200155211D35
:1067A000206802F0A5F801213D2001550020E8E70E
:1067B00038B504460D492068884215D100BF0C4801
:1067C000C06B022108430A49C8630846C06B022116
:1067D0000840009000BF00BF032201211020FFF7F6
:1067E00067F91020FFF756F938BD0000000400409B
:1067F0000010024001460868C068012318430B6876
:10680000D86008688068084B18400246062A08D0FD
:10681000D81F824205D008680068012318430B681E
:10682000186000207047000007000100F8B504461A
:106830000D4600BF3C20005D012801D10220F8BDBB
:1068400001213C20015500BF02213D200155206857
:10685000866839480640FF210902304688430646CB
:10686000206886602868502834D00CDC202851D05D
:1068700004DC00284CD0102852D14AE030284AD0FD
:1068800040284DD13AE060282ED0702807D0012151
:106890000903401A02D0401A42D10DE041E0EB68F2
:1068A0006A68A968206802F073F820688668772013
:1068B00006432068866034E0EB686A68A96820684F
:1068C00002F066F820688068012189030843216886
:1068D000886026E0EA686968206802F073F8502151
:1068E000206802F063F81CE0EA686968206802F03A
:1068F00082F86021206802F059F812E0EA686968BD
:10690000206802F05FF84021206802F04FF808E0AC
:1069100000BF00BF00BF2968206802F047F800E010
:1069200000BF00BF01213D20015500BF00213C20D8
:10693000015500BF002082E788FFCEFF70470000AE
:1069400010B504462068006902210840400800286C
:106950001CD02068C06808404008002816D0481F96
:106960002168086101202077206880698007800FF6
:10697000002803D02046FFF7E1FF05E0204600F0A5
:10698000DBF8204600F0D9F8002020772068006965
:1069900004210840800800281DD02068C0680840F5
:1069A0008008002817D0C84321680861022020779A
:1069B00020688069032109020840002803D020468E
:1069C000FFF7BCFF05E0204600F0B6F8204600F0D7
:1069D000B4F8002020772068006908210840C0082A
:1069E00000281CD02068C0680840C008002816D0C5
:1069F000C84321680861042020772068C0698007A7
:106A0000800F002803D02046FFF798FF05E02046BE
:106A100000F092F8204600F090F8002020772068DF
:106A2000006910210840000900281DD02068C068B6
:106A300008400009002817D0C843216808610820D1
:106A400020772068C069032109020840002803D08C
:106A50002046FFF773FF05E0204600F06DF8204662
:106A600000F06BF80020207720680069C007C00F95
:106A700001214840484000280CD02068C0680840E8
:106A800048404840002805D0C81E216808612046BB
:106A900000F054F82068006980210840C0090028EF
:106AA0000BD02068C0680840C009002805D0C84342
:106AB000216808612046FFF7A0FD20680069FF21DA
:106AC00001310840000A00280CD02068C0688021ED
:106AD0000840C009002805D01648216808612046F2
:106AE000FFF78AFD206800694021084080090028DE
:106AF0000BD02068C06808408009002805D0C84332
:106B000021680861204600F0A7F82068006920216C
:106B10000840400900280BD02068C06808404009A0
:106B2000002805D0C843216808612046FFF766FDAC
:106B300010BD0000FFFEFFFF7047704770B50546AF
:106B400000243949286888426CD138480088401CA4
:106B5000364908800888C10F091849104900411AB0
:106B600002D101203249087032480088401C314966
:106B700008803148406A84B200202F4948622F487B
:106B8000806900192D498861002C06D001202C490C
:106B9000087000202B4908700CE02A480078401C3F
:106BA0002849087008460078B42803DD00200870E2
:106BB0002349087000BF01202349087005211B48A4
:106BC0000088401CFDF712FB002902D101201F495B
:106BD00008701648008814280FDA1D48007800282D
:106BE0000BD112480088132802D1012018490870DF
:106BF000600020181149886014E014210B480088B7
:106C0000401CFDF7F3FA00290CD10C4880691149AA
:106C10000988401A41004018084988600846008BDE
:106C20000C49088070BD000000040040880000206E
:106C3000850000208A000020002C014094010020E3
:106C40008D000020870000208400002086000020A6
:106C50008C000020000000207047014600BF7C200F
:106C6000405C012801D10220704701237C2043545D
:106C700000BF242380204350086802680868006829
:106C8000400840000B68186001235B0710469843DA
:106C90000246002048660868026020238020435096
:106CA00000BF00237C20435400BF0020DCE7704776
:106CB00070B504460D4600BF7C20005D012801D15F
:106CC000022070BD01217C20015500BF24218020BD
:106CD000015120680668206800684008400021686B
:106CE0000860206880680721490688432843216896
:106CF0008860204601F098FE2068066020218020F0
:106D0000015100BF00217C20015500BF0020D8E7C1
:106D100070B504460D4600BF7C20005D012801D1FE
:106D2000022070BD01217C20015500BF242180205C
:106D3000015120680668206800684008400021680A
:106D4000086020688068C000C00828432168886007
:106D5000204601F069FE2068066020218020015154
:106D600000BF00217C20015500BF0020D9E77047FB
:106D7000704770B504468020055984200659206864
:106D800080688021084080281BD1212D19D12068DE
:106D90008068884321688860606F00280ED0606F2B
:106DA000FEF712FA002809D0606FFEF7B3FA202828
:106DB00004D1102188200151032070BD204601F02C
:106DC000E8FF206880684021084040281BD1222E1F
:106DD00019D120688068884321688860A06F0028E6
:106DE0000ED0A06FFEF7F0F9002809D0A06FFEF7D3
:106DF00091FA202804D11021882001510320DCE7DA
:106E0000204601F09FFF0020D7E77047FEB50446FB
:106E10002068C56920680668206887682807000F11
:106E200001900198002813D12020284000280FD07D
:106E300020203040002804D10120000738400028DD
:106E400006D0E06E002802D02046E16E8847FEBDE5
:106E5000019800287ED07A483840002804D1FF20CD
:106E6000213030400028F5D0E807C00F00280DD0B1
:106E7000FF2001303040002808D00120216808623E
:106E80008820005901210843882108510220284008
:106E900000280CD0F807C00F002808D00220216875
:106EA00008628820005904210843882108510420E1
:106EB000284000280CD0F807C00F002808D0042074
:106EC000216808628820005902210843882108515E
:106ED00008202840002810D020203040002803D16E
:106EE00057483840002808D00820216808628820C8
:106EF000005908210843882108518820005900289A
:106F00004DD02020284000280ED0202030400028DE
:106F100004D1012000073840002805D0E06E002889
:106F200002D02046E16E88478820005900902068F2
:106F3000806840210840402804D00821009808407B
:106F4000002826D0204601F0FDFE20688068402100
:106F5000084000E024E0402817D12068806888437A
:106F600021688860A06F00280BD03648A16F886325
:106F7000A06FFEF775F9002811D0A06F816B8847CC
:106F80000DE02046FFF741FF09E02046FFF73DFFF7
:106F900005E02046FFF739FF00218820015156E720
:106FA00001200005284000280CD001208005384031
:106FB000002807D001200005216808622046FFF75D
:106FC000D7FE44E78020284000280FD080203040A2
:106FD000002804D10120C0053840002806D0206FC9
:106FE000002802D02046216F884730E74020284003
:106FF000002807D040203040002803D0204601F070
:10700000B7FE24E70120C0052840002808D0012051
:1070100080073040002803D02046FFF7A8FE16E77F
:10702000012000062840002807D0F00FC0070028E4
:1070300003D02046FFF73BFE09E700BF07E700004B
:1070400001000010118C000810B50446002C01D17D
:10705000012010BDA069002800D000E000BF802002
:107060000059002805D100217C200155204600F060
:107070002DF824218020015120680068400840003C
:1070800021680860204601F095FE012800D1E0E764
:10709000A06A002802D0204601F008FD2068406860
:1070A0000921C902884321684860206880682A2134
:1070B00088432168886020680068012108432168AE
:1070C0000860204601F06AFDC3E7000010B586B0F5
:1070D0000446142101A8FDF7B6F83A492068884211
:1070E0006ED100BF38480068012189030843364942
:1070F000086008460068012189030840009000BF2D
:1071000000BF00BF30484038406B012108432E4982
:10711000403948630846406BC007C00F009000BF6D
:1071200000BF032040020190022002900020039043
:1071300004900120059001A905200007FEF710FB2F
:10714000224823490860322048600021204881609D
:10715000C16080210161002141618161C1610162E1
:10716000FEF76CF9002801D0FDF766F900BF18485A
:10717000A067846200BF15481430164908603320A8
:1071800048601021134881600021C16080210161A5
:10719000002141618161C1610162FEF74FF9002860
:1071A00001D0FDF749F900BF0A486067846200BF5B
:1071B000002211461B20FEF77BFC1B20FEF76AFC19
:1071C00006B010BD00380140401002401C000240D3
:1071D0008C230020E823002070B504460D46164697
:1071E00084200059202867D1002D01D0002E01D124
:1071F000012070BD01210903A068884208D12069DF
:10720000002805D1E807C00F002801D00120F0E7D1
:1072100000BF7C20005D012801D10220E9E70121A7
:107220007C20015500BFA5655C2006530021882005
:107230000151222184200151A06F002822D01F4833
:10724000A16FC8621E48A16F08631E48A16F486302
:107250000020A16F88632368194624313346A26D4C
:10726000A06FFEF749F900280CD0102188200151A9
:1072700000BF00217C20015500BF2021802001514A
:107280000120B6E700BF00217C20015500BF206827
:107290000068FF2101310843216808602068806888
:1072A00001210843216888602068806840210843E4
:1072B0002168886000209CE702209AE7838C000800
:1072C000CF8C0008298C00087047704770B50446C1
:1072D0000E4615468020005920285FD1002E01D08F
:1072E000002D01D1012070BD01210903A068884251
:1072F00008D12069002805D1F007C00F002801D06F
:107300000120F0E700BF7C20005D012801D10220B0
:10731000E9E701217C20015500BF26655420055373
:107320005620055300218820015121218020015140
:10733000606F002822D01A48616FC8621948616FD7
:1073400008631948616F48630020616F8863236890
:107350001A4628322B46216D606FFEF7CDF80028C3
:107360000CD010218820015100BF00217C20015544
:1073700000BF2021802001510120B4E74020216876
:10738000086200BF00217C20015500BF2068806892
:1073900080210843216888600020A4E70220A2E73A
:1073A000DD8C0008178D0008298C00087047704795
:1073B0000146086807229205104070470146886818
:1073C000C007C00F012250405040704701468868F6
:1073D000012212071040000F7047014688680422FE
:1073E000104080087047000030B503460B4CA142A6
:1073F00002D118460C3007E0032424050C40640D2C
:10740000A5001C46A03428190468054D0D40AC4366
:1074100015460D402C43046030BD00000000C07CC8
:10742000FFFFC77C026807239B059A430A4302605B
:10743000704730B5436904240D4625400724AC400D
:10744000A34304240C401546A5402B43436130BDA3
:10745000FEB500256F48807800906E48C4780079AA
:1074600000026C494979401885B200206A490870C9
:1074700068480078002802D06848007800E00020C2
:1074800065490A780978491C634B19706449885426
:107490000321184602780078401C18706048815417
:1074A0006806010E184602780078401C18705C4887
:1074B0008154302C0EDB4F2C0CDC6019502809DC79
:1074C000002D07D0554801780098814206D00098D9
:1074D000002803D0022000F013FDFEBD00208FE045
:1074E000214630390B0002F043F8201115191D20F8
:1074F0002326292C2F3235383B3C3F404346494C0C
:107500004F5255585B5E6164676A6D7043490978F4
:1075100001915DE041494978019159E03F498978FD
:10752000019155E00021019152E0002101914FE0CD
:10753000002101914CE00021019149E000210191DD
:1075400046E00021019143E00021019140E000214B
:1075500001913DE0002101913AE00021019137E0E5
:1075600036E00021019133E032E0002101912FE06B
:10757000002101912CE00021019129E000210191DD
:1075800026E00021019123E00021019120E000216B
:1075900001911DE0002101911AE00021019117E005
:1075A0000021019114E00021019111E000210191DD
:1075B0000EE0002101910BE00021019108E0002183
:1075C000019105E00021019102E00021019100BF3D
:1075D00000BF02260EE0711ECA0001991141CAB215
:1075E0000D490B780978491C0B4F39700C49CA5466
:1075F000711ECEB2002EEEDC611CCCB2411CC8B2B2
:10760000A84200DA6CE704480178054800F0A8FCBD
:1076100000BF62E7D42100209600002094010020E2
:1076200084250020FEB54B48807800904948C478F6
:107630000079000247494979401885B2002046493F
:10764000087044480078002802D04448007800E0E0
:10765000002041490A780978491C3F4B197040497C
:1076600088540421184602780078401C18703C4861
:1076700081546806010E184602780078401C187084
:10768000374881540E2C11DC601910280EDC002DB7
:107690000CD0E807C00F002808D1E007C00F002871
:1076A00004D12E4801780098814203D0022000F0D6
:1076B00027FCFEBD002044E0230001F059FF0F0924
:1076C000270D271127152719271D272127242700D4
:1076D0002249097901911CE020494979019118E07A
:1076E0001E498968019114E01C494969019110E023
:1076F0001A49896901910CE01849C969019108E0AA
:107700000021019105E00021019102E00021019199
:1077100000BF00BF04260EE0711ECA000199D140CF
:10772000CAB20D490B780978491C0B4F39700C49C6
:10773000CA54711ECEB2002EEEDCA11CCCB2811C4C
:10774000C8B2A842B8DB04480178054800F0FAFB4B
:1077500000BFAEE7D4210020960000209401002055
:10776000842500207CB53CA0006801903BA0006807
:10777000009000263A488578C4780020394908707E
:1077800037480078002802D03748007800E0002011
:1077900034490A780978491C324B197033498854A6
:1077A0000521184602780078401C18702F48815433
:1077B000502C05DB542C03DC2B480078A84203D066
:1077C000022000F09DFB7CBD25480079FF2803D1F5
:1077D0002348407900280BD021480079002803D1A4
:1077E0001F484079002803D0032000F089FBEAE716
:1077F000502C06D0512C0ED0522C20D0532C20D1FE
:107800001EE017480079002803D115484079002868
:1078100000D000BF16E01248007900280ED11048B1
:10782000407900280AD1012201A9FCF7EBFE00F003
:1078300061FF012269460020FCF7E4FE02E001E05E
:1078400000E000BF00BF012E00D100260621044841
:1078500000F078FB00BFB6E7020000000100000066
:10786000D4210020960000209401002084250020CF
:10787000F0B585B000240025002001908248807872
:1078800003908148C678007900027F494979401801
:1078900085B200207D4908707B480078002802D01E
:1078A0007B48007800E0002078490A780978491C74
:1078B000764B197077498854102118460278007861
:1078C000401C1870734881546806010E18460278EF
:1078D0000078401C18706F488154302E10DB4F2EFA
:1078E0000EDC701950280BDC002D09D068006649A9
:1078F0008979884204D1664801780398814204D08E
:10790000022000F0FDFA05B0F0BD00200090ACE0D0
:107910003046392E5CD009DC3038030001F028FEF7
:10792000091B2B3F5253545556579C003E287CD080
:1079300008DC3A2866D03B2878D03C2877D03D2810
:1079400076D183E0402874D0702873D0712872D02B
:107950007228F5D17FE0E01D4B49085C010220460A
:107960000830494A105C081849490870012210463D
:10797000FCF748FE71E0E01D4349085C0102204627
:107980000830414A105C0818C1B2414841700122D8
:10799000411C0220FCF736FE00F00EFE5DE0E01D0B
:1079A0003949085C010220460830374A105C081843
:1079B000374988700122891C0320FCF723FE00F060
:1079C000FBFD4AE049E048E047E046E045E044E0AE
:1079D000E01D2D49085C0102204608302A4A105C4F
:1079E000081887B22C4887420BD0294847610146C6
:1079F000486902A902F046FF042202A91046FCF7DA
:107A000001FE2AE0E01D2049085C01022046083002
:107A10001D4A105C081887B21F48874213D01C48C3
:107A200087610146886902A906E010E00CE00CE0DD
:107A300012E00DE00DE00DE002F024FF042202A9A7
:107A40001420FCF7DFFD08E007E006E005E004E0B5
:107A500003E002E001E000E000BF00BFA41C701CD6
:107A6000C6B20098401CC0B200900098A84200DA4C
:107A70004EE70198012801D100200190062102481B
:107A800000F060FA00BF3EE7D421002096000020FD
:107A90009401002084250020FFFF0000FEB5002691
:107AA00000240020019000258248007882498978CE
:107AB000884207D08048807800027F49C978401802
:107AC00084B204E07C48C0785121090244187A4805
:107AD0000079000278494979401886B20020774938
:107AE0000870754800F008FA002802D07148007844
:107AF00000E0002071490A780978491C6F4B197021
:107B00006F4988542B21184602780078401C187061
:107B10006B48815468480179184602780078401C07
:107B20001870674881546448417918460278007893
:107B3000401C1870624881546248844208DB401D32
:107B4000844205DCA0196049884201DC002E03D183
:107B5000022000F0D5F9FEBD002000909EE05948BB
:107B600040422018030001F003FD06042F39437D35
:107B70008791E021514802780078401C4F4B1870E3
:107B80004F4881540198002802D00198322811DD15
:107B900001214A4802780078401C484B1870484838
:107BA00081540021184602780078401C187044481F
:107BB000815408E041490A780978491C3F4B0198F3
:107BC00019703F49885462E0E1213C48027800780E
:107BD000401C3A4B18703A48815458E0E22137482B
:107BE00002780078401C354B1870354881544EE0BF
:107BF000E321324802780078401C304B187030483E
:107C000081540725002D01D0322D11DD01212B4893
:107C100002780078401C294B1870294881540021B3
:107C2000184602780078401C18702548815418E0E6
:107C3000224801780078401C204A107020484554A2
:107C400000200CE0214A411C525C1C490B78097849
:107C5000491C1A4F39701A49CA54411CC8B2A8426B
:107C6000F0DB14E0E421154802780078401C134B47
:107C70001870134881540AE0E52110480278007812
:107C8000401C0E4B18700E48815400E000BF00BF2E
:107C9000601C84B20098401CC0B200900098B042B2
:107CA00000DA5CE705480178054800F04BF900BFB1
:107CB00051E7000094010020D4210020960000200C
:107CC00084250020E0510000E67100007AC500081C
:107CD0007CB546A0006801900024002544488078C7
:107CE00000024349C978401884B241480079000233
:107CF0003F494979401885B200203E4908703C4808
:107D00004078002802D03C48007800E00020394943
:107D10000A780978491C374B197038498854412131
:107D2000184602780078401C1870344881540220AC
:107D30000BE02F490A5C2F490B780978491C2D4E1E
:107D400031702E49CA54411CC8B20628F1DB012CFF
:107D500001D1002D00D07CBD012201A92848FCF7EB
:107D600051FC012269462648FCF734FC684600783D
:107D70000C282AD100211F4802780078401C1D4B96
:107D800018701E488154184601781C4800F0DAF833
:107D900000BF1C4800780028FBD100BF00BF00BF17
:107DA00000BF00BFBFF34F8F00BF00BF00BF16482A
:107DB0001649C86000BF00BF00BFBFF34F8F00BFB0
:107DC00000BF00BF00BF00BFFDE7012109480278E6
:107DD0000078401C074B18700848815418460178F9
:107DE000064800F0AFF800BFB5E700000C00000047
:107DF000D42100209600002094010020842500203A
:107E0000FF0300007C0000200400FA0500ED00E004
:107E100008B50020009033480078012860D16946F9
:107E2000314800F0CFF9022800D108BD684600882B
:107E3000002800DCF9E72D4800782B4909788842B2
:107E400004D029480078002800D0EEE72648407882
:107E5000102815D006DC032809D004280AD00528EC
:107E600017D10AE02B280ED0412812D10EE0FFF7DF
:107E7000EFFA34E0FFF7D6FB31E0FFF773FC2EE0BA
:107E8000FFF7F6FC2BE0FFF709FE28E0FFF720FFE5
:107E900025E000201649087013480178144802783C
:107EA0000078401C124B1870124881540E484078DC
:107EB0008021084319460A780978491C19700D4930
:107EC00088540121184602780078401C187009482F
:107ED000815418460178074800F034F800BF00BF0D
:107EE00000BFA2E77F000020D421002094010020E1
:107EF0009600002084250020014608787047000085
:107F000010B5044601200D4908700A780978491C0B
:107F10000A4B19700A4950180178802211430170E8
:107F2000184601780078401C1A46107004484454E2
:107F300010460178024800F005F810BD96000020B8
:107F40008425002070B504460D462078002806D010
:107F50003220FDF73BFB2946204600F08BF970BD2F
:107F600070B504460D463220FDF730FB2946204609
:107F700000F080F970BDF0B506460B46174618466E
:107F8000D90F091849104900591A012901D10020B7
:107F9000F0BD1846D90F0918C9030D0C002406E0DE
:107FA0006100881900F007F83855601C84B2AC42B3
:107FB000F6DB2846ECE7014600200A78412A04DA7D
:107FC0000A78303A1218D0B20BE00A78612A04DA43
:107FD0000A78373A1218D0B203E00A78573A1218E2
:107FE000D0B20207100E4A78412A04DA4A78303AB1
:107FF0001218D0B20BE04A78612A04DA4A78373A8C
:108000001218D0B203E04A78573A1218D0B270472B
:1080100002460B46002117E0505C302800DA15E0DC
:10802000505C392803DD505C412800DA0EE0505CDA
:10803000462803DD505C612800DA07E0505C6628C2
:1080400000DD03E0481C81B29942E5DB00BF9942A4
:1080500001D1012070470020FCE770B506460B46B1
:108060001846D90F091849104900591A012901D198
:10807000002070BD1846D90F0918C9030B0C002445
:10808000002507E069008819FFF795FF0019C4B2C1
:10809000681C85B29D42F5DBE043C4B2601CC4B2EB
:1080A0002046E6E731490978002904D001291ED08D
:1080B000022954D142E03A2803D100212C4A1180F0
:1080C00004E00D2802D10121284A11702949284ACB
:1080D0001288885426490988491C254A118011466E
:1080E0000988962902DB0221204A11703BE03A28D8
:1080F0000ED100211E4A11801C4A11701D491C4AD4
:10810000128888541A490988491C194A118014E0B8
:108110000A280FD10221154A11701649144A1288F3
:10812000885413490988491C114A11800121124AB7
:10813000117002E002210D4A117014E03A280DD1AD
:1081400000210B4A1180094A11700A49084A128815
:10815000885407490988491C054A118003E0022117
:10816000024A117000BF00BF704700009800002055
:108170009A000020D42100207F00002010B50A467C
:108180000346C417240FE4182405210E0A2903DA34
:108190000B463033137002E00B463733137003463F
:1081A000C417240FE41824112401041BE1B20A2986
:1081B00003DA0B463033537002E00B46373353700B
:1081C00010BD0000F0B504460E46002C00D1F0BDF5
:1081D0001B480078002803D01A480088002801D1E5
:1081E0000020F4E700201649087016480088C01ED9
:1081F00081B21548FFF70CFF002801D10120E6E706
:1082000010480088401F81B20F48FFF726FF07463D
:108210000C490988091F0C4A521E8818FFF7CBFE2B
:10822000B84201D0022500E0032506480088401F1F
:1082300081B222460448FFF79EFE30802846C6E7FA
:108240007F0000209A000020D5210020F8B50646C6
:108250000D4617466804000C0090002406E06200FA
:10826000D119305DFFF78AFF601C84B2AC42F6DBA7
:108270000098F8BDF8B506460D46002D01D0002E39
:1082800001D10020F8BD6800401D962801DD0020C6
:10829000F8E73A201349087001244A1C2946304661
:1082A000FFF7D4FF001984B2601E81B20D48401C54
:1082B000FFF7D3FE00900B4801190098FFF75EFF0F
:1082C000A01C84B20D2007490855601C84B20A2006
:1082D0000855601C84B22146024800F023FD074681
:1082E0003846CFE7E825002000B589B0182103A85B
:1082F000FBF7A9FF00200090019002902D482E4925
:1083000008600005486000212B488160C1600121A0
:1083100049050161042141610021017641768176A0
:108320000321C1610021001D0177001F41628162AC
:108330002430017224380163416381632430017663
:108340002438C164FCF786FD002801D0FCF774F8DE
:1083500003208005049003A91748FCF787F900283B
:1083600001D0FCF769F815480090002001900290B8
:1083700069461148FCF7C0FB002801D0FCF75CF807
:108380000F4800900420019069460B48FCF7B4FBAD
:10839000002801D0FCF750F80A480090082001900E
:1083A00069460548FCF7A8FB002801D0FCF744F813
:1083B00009B000BD00240140C424002010000010BA
:1083C000001000B0002000B408B500BF0E48806B5C
:1083D000012108430C4988630846806BC007C00F21
:1083E000009000BF00BF002211460920FDF760FB8E
:1083F0000920FDF74FFB002211460A20FDF758FB2C
:108400000A20FDF747FB08BD0010024000B587B009
:10841000142102A8FBF717FF00BF1D48406B042181
:1084200008431B4948630846406B042108400190FB
:1084300000BF00BF00BF1648406B0121084314492C
:1084400048630846406BC007C00F019000BF00BFE3
:1084500000BF0846406B022108430D4948630846A7
:10846000406B02210840019000BF00BF0122102193
:108470000848FDF765FA10200290012003900020C3
:108480000490059002A90348FDF76AF907B000BD02
:10849000001002400004005000B595B0002011907B
:1084A0001290139014900E900F901090342101A808
:1084B000FBF7C9FE1E481F490860002048600021E4
:1084C0001C488160C160016141618161FEF754F91E
:1084D000002801D0FBF7B0FF0120400311900020DD
:1084E00012901390149011A91248FEF79FF90028DA
:1084F00001D0FBF7A1FF00200E900F9010900EA965
:108500000C48FEF7FDF8002801D0FBF795FF00208E
:1085100008900C9001A90748FEF772F8002801D0D6
:10852000FBF78AFF0348FEF765F915B000BD0000B0
:10853000002C01404424002000B587B000200390A7
:1085400004900590069000900190029016481749FB
:108550000860174848600021144881601549C160CF
:10856000002101618161FEF707F9002801D0FBF7C6
:1085700063FF01200003039003A90C48FEF756F99E
:10858000002801D0FBF758FF0020009002906946B8
:108590000648FEF7B5F8002801D0FBF74DFF034869
:1085A000FEF728F907B000BD000400408424002035
:1085B000FF1800000F27000010B54948494908601E
:1085C00049484078030000F0D3FF0828050A0F143B
:1085D000191E23284B2040014249486022E04B20CD
:1085E0008001404948601DE04B20C0013D49486082
:1085F00018E04B2000023B49486013E04B2040024A
:10860000384948600EE0E12000023649486009E040
:10861000E12040023349486004E04B20C001314969
:10862000486000BF00BF00212E488160C1602E4815
:10863000807801280BD0022804D003280CD12948C7
:1086400001610DE0012189022648016108E0032152
:1086500049022448016103E000212248016100BF72
:1086600000BF0C211F48416100218161C16101628D
:10867000416200201B4988620846FEF7E5FC00289D
:1086800001D0FBF7D9FE00211648FEF741FB002878
:1086900001D0FBF7D1FE00211248FEF709FB0028AC
:1086A00001D0FBF7C9FE0F48FEF7D7FA002801D02A
:1086B000FBF7C2FE0B480068006820210843094907
:1086C00009680860074800680068102108430549E8
:1086D00009680860962205490248FEF77DFD10BD35
:1086E000003801400023002094010020D421002004
:1086F000704700001CB5012201A94248FBF76AFF40
:108700004148007869460979884204D01C223E49D4
:108710000020FBF777FF1C223C493A48FBF75AFF41
:108720003A4840783A490870384880784870374865
:10873000C0788870002411E0201D3449085C694627
:1087400008556846005D0321091BC900884030496F
:10875000496940182E494861601CC4B2042CEBDB07
:10876000002412E0204610302849085C694608556C
:108770006846005D0321091BC90088402449096936
:10878000401823490861601CC4B2042CEADB20486D
:10879000006920490860002412E020460C301B4983
:1087A000085C694608556846005D0321091BC9003D
:1087B00088401749C96840181549C860601CC4B290
:1087C000042CEADB1248C06813490860002412E058
:1087D000204614300D49085C694608556846005D1E
:1087E0000321091BC90088400949896940180849C3
:1087F0008861601CC4B2042CEADB05488069074923
:1088000008601CBD003800080C000020B8010020E2
:108810009401002008000020040000200000002037
:10882000704710B502F078FC03F0ECFA02F084FC1B
:1088300010BD000000B599B034210CA8FBF703FD72
:108840000020089009900A900B901C2101A8FBF7CA
:10885000FAFC01204002FDF735F902200C90C0011E
:108860000F900020109040201190022013900221C0
:108870001491002115910821169101041791010707
:1088800018910CA8FDF7C2FB002801D0FBF7D4FD1E
:10889000072008900220099000200A900B900221E6
:1088A00008A8FDF73DFA002801D0FBF7C5FD0748F1
:1088B000019000200290069001A8FDF72FF90028F2
:1088C00001D0FBF7B9FD19B000BD00000140000068
:1088D00001480249886070470040000800ED00E050
:1088E00010B50248FEF72CF810BD000084240020CB
:1088F00010B50268204B984202D0204B984205D117
:1089000070241346A3431A464B681A431A4B9842E5
:108910000ED01A4B98420BD0194B984208D0194BE5
:10892000984205D0184B984202D0184B984206D175
:10893000032424021346A3431A46CB681A43802417
:108940001346A3434C6923431A4602608B68C362F3
:108950000B688362084B984208D00A4B984205D0B6
:10896000094B984202D0094B984201D10B6903632D
:108970000123436110BD0000002C014000040040B1
:1089800000200040004001400044014000480140F8
:1089900070B50C468168FF2636020D46B543294660
:1089A0001D02154325432943816070BD0A46816835
:1089B000034B19400723134319438160704700009C
:1089C0008FFFCFFF70B50B461446026A056A6D082B
:1089D0006D0005628169F0260D46B54329462501E3
:1089E00029430A261546B5432A4615461D432A46FD
:1089F0008161026270BD70B50B461446056A10268F
:108A0000B54305628169026A0F2636030D46B543F8
:108A1000294625032943A0261546B5432A461D01AC
:108A20002A438161026270BDF0B585B004461BA186
:108A300003C9039102901BA103C901910090606ECC
:108A4000002805D101216A2001536820015322E04A
:108A500008270822049220688068072149060840F8
:108A6000450E20688068460F6A46915D02AA935DB4
:108A7000049A53431846FBF7B9FB81B26A200153AD
:108A80006A46515D02AA525D7A431046FBF7AEFB7F
:108A900081B26820015305B0F0BD0000010101035F
:108AA000070100000804020408010101018DC90743
:108AB000C90F002908D00168496801225204914376
:108AC000C26A1143026851600222816A1140022980
:108AD00007D101684968D2039143026B11430268D0
:108AE00051600422816A1140042907D10168496854
:108AF00012049143426B1143026851600822816A5B
:108B00001140082907D10168496812039143826B1B
:108B10001143026851601022816A1140102907D167
:108B20000168896812029143C26B11430268916027
:108B30002022816A1140202907D101688968120228
:108B40009143026C1143026891604022816A114096
:108B5000402915D10168496892039143426C114341
:108B60000268516001221205416C914208D10168EE
:108B70004968032252059143826C11430268516097
:108B80008022816A1140802907D101684968120357
:108B90009143C26C114302685160704738B5044676
:108BA000002188200151FCF7D1FE054620680068AD
:108BB0000821084008280BD114482B4600228904BC
:108BC0000090204600F046FC002801D0032038BD6C
:108BD000206800680421084004280BD10B482B466C
:108BE000002209050090204600F034FC002801D046
:108BF0000320ECE72021802001518420015100BF97
:108C000000217C20015500BF0020E0E7FFFFFF01AD
:108C100070B50546AC6A00215E2001535620015311
:108C20002046FEF7F2F870BDF8B50546AC6A802024
:108C300006598420075920688068802108408028D0
:108C400007D1212E05D1002156200153204600F0E6
:108C5000A0F82068806840210840402807D1222FD2
:108C600005D100215E200153204600F06BF88820DA
:108C7000005910210843882108512046FEF7C5F805
:108C8000F8BD70B50546AC6A286800682021084028
:108C9000002818D100215E20015320680068FF21C0
:108CA00001318843216808602068806840084000DE
:108CB0002168886020688068402188432168886036
:108CC0002021842001512046FEF7FEFA70BD70B5C8
:108CD0000446A56A2846FEF7F8FA70BD70B5054649
:108CE000AC6A286800682021084000280FD10021C4
:108CF000562001532068806880218843216888605D
:108D000020680068402108432168086002E020468E
:108D1000FEF74CFB70BD70B50446A56A2846FEF709
:108D200046FB70BD70B504460D462A4621460448F0
:108D3000FEF7CCFA002801D0012070BD0020FCE72E
:108D40000023002001680968FF2221329143026854
:108D5000116001688968054A11400268916020220B
:108D600084210A500021C16670470000FEFFFFEF1A
:108D700010B50446206800684021884321680860D7
:108D8000202180200151002020672046FEF70EFBA5
:108D900010BD01680968C022914302681160016832
:108DA00089680122D20591430268916020228021C6
:108DB0000A507047F0B585B00446002600200290A6
:108DC00001902169A068084361690843E16908438B
:108DD0000490606E04990843049020680068F94983
:108DE000084004990843216808602068406803210E
:108DF00009038843E168084321684860A06904903A
:108E0000206A04990843049020688068EE4908406D
:108E100004990843216888602068C06A000900013D
:108E2000616A08432168C86200BFE8492068884237
:108E300017D1E74840698007800F002806D0012835
:108E400008D0022804D0032808D105E0002507E057
:108E5000022505E0042503E0082501E0102500BFF8
:108E600028E0DC492068884217D1D94840690C21A4
:108E70000840002806D0042808D0082804D00C2870
:108E800008D105E0002507E0022505E0042503E000
:108E9000082501E0102500BF0CE0CF49206888427A
:108EA00001D1002506E0CD492068884201D1002586
:108EB00000E0102500BF0121C903E069884270D19C
:108EC000002D06D0022D53D0042D6BD0082D6AD171
:108ED000ECE0FDF715F80746606A002801D1012093
:108EE00038E0606A012801D1022033E0606A02287C
:108EF00001D104202EE0606A032801D1062029E078
:108F0000606A042801D1082024E0606A052801D1A4
:108F10000A201FE0606A062801D10C201AE0606A6E
:108F2000072801D1102015E0606A082801D120200F
:108F300010E0606A092801D140200BE0606A0A282D
:108F400001D1802006E0606A0B2802D1FF200130A9
:108F500000E0012001463846FBF732F94000616825
:108F60004908401800906168FBF72AF986B2EDE0E5
:108F7000606A002801D101203BE0606A012801D12C
:108F8000022036E0606A022801D1042031E0606AE4
:108F9000032801D106202CE0606A042804D10820AF
:108FA00027E0E9E033E0CEE0606A052801D10A203D
:108FB0001FE0606A062801D10C201AE0606A0728C9
:108FC00001D1102015E0606A082801D1202010E0AE
:108FD000606A092801D140200BE0606A0A2801D1AB
:108FE000802006E0606A0B2802D1FF20013000E0FB
:108FF000012001467A48FBF7E3F840006168490820
:10900000401800906168FBF7DBF886B29EE0FCF741
:109010008BFF0746606A002801D1012038E0606AB2
:10902000012801D1022033E0606A022801D1042026
:109030002EE0606A032801D1062029E0606A042836
:1090400001D1082024E0606A052801D10A201FE030
:10905000606A062801D10C201AE0606A072801D155
:10906000102015E0606A082801D1202010E0606A15
:10907000092801D140200BE0606A0A2801D1802034
:1090800006E0606A0B2802D1FF20013000E00120D9
:1090900001463846FBF794F84000616849084018DB
:1090A00000906168FBF78CF886B24FE0606A002898
:1090B00001D1012038E0606A012801D1022033E0AB
:1090C000606A022801D104202EE0606A032801D1E1
:1090D000062029E0606A042801D1082024E0606AA3
:1090E000052801D10A201FE0606A062801D10C2062
:1090F0001AE0606A072801D1102015E0606A08288C
:1091000001D1202010E0606A092801D140200BE045
:10911000606A0A2801D1802006E0606A0B2802D12B
:10912000FF20013000E0012001460120C003FBF7D1
:1091300047F8400061684908401800906168FBF7F3
:109140003FF886B202E00120029000BF00BF102E5F
:109150000FD3244886420CD822480F383040039061
:109160003007400F03990843039003982168C860B3
:1091700061E1012002905EE1002D06D0022D65D054
:10918000042D72D0082D71D1FBE0FCF7B9FE074623
:10919000606A002801D101204BE0606A012801D1FA
:1091A000022046E0606A022801D1042041E0606AA2
:1091B000032801D106203CE0606A042814D108206D
:1091C00037E00000F369FFCFFFF4FF1100380140E2
:1091D000401002400044004000480040004C004065
:1091E0000024F400FFFF0000606A052801D10A2076
:1091F0001FE0606A062801D10C201AE0606A072887
:1092000001D1102015E0606A082801D1202010E06B
:10921000606A092801D140200BE0606A0A2801D168
:10922000802006E0606A0B2802D1FF20013000E0B8
:10923000012001463846FAF7C3FF61684908401823
:1092400000906168FAF7BCFF86B2E9E0606A002826
:1092500001D101203AE0606A012801D1022035E005
:10926000606A022803D1042030E03CE0D5E0606A67
:10927000032801D1062029E0606A042801D10820D2
:1092800024E0606A052801D10A201FE0606A0628F0
:1092900001D10C201AE0606A072801D1102015E0E6
:1092A000606A082801D1202010E0606A092801D1F5
:1092B00040200BE0606A0A2801D1802006E0606A45
:1092C0000B2802D1FF20013000E0012001465F4859
:1092D000FAF776FF61684908401800906168FAF76C
:1092E0006FFF86B29CE0FCF71FFE0746606A00280D
:1092F00001D1012038E0606A012801D1022033E069
:10930000606A022801D104202EE0606A032801D19E
:10931000062029E0606A042801D1082024E0606A60
:10932000052801D10A201FE0606A062801D10C201F
:109330001AE0606A072801D1102015E0606A082849
:1093400001D1202010E0606A092801D140200BE003
:10935000606A0A2801D1802006E0606A0B2802D1E9
:10936000FF20013000E0012001463846FAF728FFCF
:1093700061684908401800906168FAF721FF86B2D9
:109380004EE0606A002801D1012038E0606A0128BF
:1093900001D1022033E0606A022801D104202EE0CE
:1093A000606A032801D1062029E0606A042801D1FF
:1093B000082024E0606A052801D10A201FE0606AC5
:1093C000062801D10C201AE0606A072801D110207C
:1093D00015E0606A082801D1202010E0606A0928A1
:1093E00001D140200BE0606A0A2801D1802006E00C
:1093F000606A0B2802D1FF20013000E00120014605
:109400000120C003FAF7DCFE6168490840180090AB
:109410006168FAF7D5FE86B202E00120029000BF33
:1094200000BF102E05D30A48864202D82068C660C5
:1094300001E00120029001216A20015368200153BC
:109440000020E0662067029805B0F0BD0024F4001B
:10945000FFFF0000FFB581B004460D4617460A9E87
:1094600024E0701C002821D0FCF770FA0499401AFF
:10947000B04201D8002E19D120680068FF21A13127
:10948000884321680860206880684008400021689F
:1094900088602021802001518420015100BF0021DB
:1094A0007C20015500BF032005B0F0BD2068C069D5
:1094B0002840A84201D1012000E00020B842D0D0CD
:1094C0000020F1E710B51948FDF7A0FC1748006827
:1094D000C0691021084010281CD11449096808628D
:1094E0001248FDF746FC1248006840689621081AA9
:1094F000104908801048406AC4B2084601880F48E5
:10950000FFF710FC2046FEF7CDFD96220B490748D9
:10951000FDF762FE05480068C06908210840082878
:1095200002D102490968086210BD00000023002032
:109530008C2300208200002000380140D42100202C
:1095400010B50120064948607D2149010448816029
:10955000C1600448024908600846FCF7FDF910BDE7
:10956000802600200030004001E0FEF751FCFCE7BF
:1095700030B47446641E2578641CAB4204D3635D2A
:109580005B00E31830BC18471D46F8E710B500280B
:1095900019DB1A4A03231B02D21883089B00D258F6
:1095A0008307DC0EFF23A3409A438B071B0E84071F
:1095B000E40EA3401A43114B032424021B19840810
:1095C000A4001A5118E00E4A03071B0F083B9B0822
:1095D0009B00D2588307DC0EFF23A3409A438B07DE
:1095E0001B0E8407E40EA3401A43054B0407240F07
:1095F000083CA408A4001A5110BD000000E100E0DE
:109600001CED00E00146002900D17047C8B20028D7
:1096100004D0C8B2114A105C401CF6E7FF200002DB
:109620000840002807D0FF200002084000120B4A23
:10963000105C0930E9E7FF2000040840002807D04B
:10964000FF20000408400014044A105C1130DCE7DD
:10965000080E024A105C1930D7E7000082C50008E6
:1096600002E008C8121F08C1002AFAD170477047EB
:10967000002001E001C1121F002AFBD17047000049
:1096800003490868884201D0012070470020FCE7A8
:109690004C010020F7B588B00646002400E0641CA9
:1096A000305D202805D0305D092802D00998844219
:1096B000F5D3002C02D1601E0BB0F0BD2146304620
:1096C00001F088F90546002D01D1401EF4E7202164
:1096D0006846FAF7B8FD6A463046099901F0E8F99C
:1096E0000746002F01D1401EE6E769463846A847E5
:1096F0000A9908600020DFE7FEB5044615461E46BD
:109700000A9F20461C304060006000BFA562E662F0
:1097100008982063099860632321626B206B01F035
:10972000AAFE616B206B4018021FE06A0190A06ADC
:10973000124B0090019901F0CFFC60623E2007556A
:109740003D200755002020640B98E0640B982065AD
:109750000020A06300213C200155882001518C206D
:109760000151002000902346054A214601902046E1
:10977000543002F0CDFB0020FEBD0000C5BA000849
:1097800035BD0008FFB581B004460E4617460A985D
:109790006074607C4008400060746662A7620020CC
:1097A00020630498E062002506E0EA0021461C31AF
:1097B000501801F035FD6D1C012DF6DB05B0F0BD34
:1097C00010B50246002001460EE0CC0013461C33C3
:1097D000E01804684368636044680368236040607D
:1097E000006000BF481C01460129EEDB10BD70B5CA
:1097F00004460D4600F0A0FC002070BD70B5044684
:109800000D4600F09BFE002070BD000010B515480D
:1098100000682030407A8007C00F002803D1124929
:109820000870084610BD11480068002807D0802243
:109830000E4801680C48FAF71DFD0B48F2E701F0ED
:1098400035F9002804D00AA10748FAF735FD03E0EE
:1098500009A10548FAF730FD09A10348FAF7FEFC13
:109860000148DFE77C010020D4290020800100208E
:109870006D7368200000000066696E736820000048
:109880003E00000070470000074909682031497A0E
:1098900002229143420002231A401143024A1268F5
:1098A00020325172704700007C010020024A106093
:1098B000024A1160704700006C0100207001002016
:1098C0007CB5002518491948FFF7F0FF80210120D9
:1098D00001F098FA1649086008460068002804D18B
:1098E00014A001F07DFC681E7CBD0A201521012317
:1098F0009B02002200910190144915A002F0B9F8D2
:10990000044600231A4614A10948006801F000FF2C
:109910000120FFF7B9FF002C04D0002D02D1204612
:1099200002F0CEF90020DFE748C9000898C8000817
:109930007C0100206E6F206D656D6F727920666FFF
:1099400072207368656C6C0A000000006199000861
:10995000747368656C6C00007368727800000000B6
:10996000F04800682030407A40084000401CED4933
:10997000096820314872FFF749FF054601F030FCC5
:10998000CEE1FFF77FFF0446002C00DAC8E11B2C74
:1099900005D10121E348006820300172C0E1E148AF
:1099A00000682030007A01280DD15B2C05D10221FE
:1099B000DC48006820300172B2E10021D94800681B
:1099C0002030017248E0D74800682030007A022831
:1099D00042D10021D348006820300172412C00D1CF
:1099E0009EE1422C00D19BE1442C13D1CD4800686C
:1099F0004030808F00280CD0CBA001F0F1FBC9488B
:109A000000684030808F401E81B2C64800684030F8
:109A1000818785E1432C1FD1C24800684030818F87
:109A2000C04800684030408F814214DABD48006869
:109A30004030828FBB4800682A30815CBBA001F0B7
:109A4000CFFBB84800684030808F401C81B2B548D9
:109A500000684030818763E1002C01D0FF2C00D1E9
:109A60005EE1092C1FD1002503E0AFA001F0B8FB97
:109A70006D1CAC4800684030808FA842F5DCA948D6
:109A800000682A3002F0C6FCA64800682A30FAF7BF
:109A9000FEFB81B2A348006840304187A1480068BE
:109AA000403081873CE17F2C01D0082C72D19D4849
:109AB00000684030808F002800D131E1994800686B
:109AC0004030408F401E81B2964800684030418748
:109AD000944800684030808F401E81B291480068F1
