:020000040800F2
:10000000C0050020CD000008811E0008471C000824
:1000100000000000000000000000000000000000E0
:100020000000000000000000000000008F23000816
:100030000000000000000000CD210008912300080E
:10004000DF00000800000000DF000008DF000008FB
:10005000DF000008DF000008DF000008DF00000804
:10006000000000008501000895010008DF0000087D
:10007000DF000008DF000008DF00000800000000CB
:10008000DF000008DF000008DF000008DF000008D4
:10009000DF000008DF000008DF000008DF000008C4
:1000A000DF000008DF000008DF0000089D2D0008C9
:1000B000DF000008DF0000080348854600F050F824
:1000C00000480047F92E0008C0050020044880477A
:1000D00004480047FEE7FEE7FEE7FEE7FEE7FEE72F
:1000E0002D240008B900000830B50B460146002059
:1000F0002022012409E00D46D5409D4205D31D462E
:100100009540491B2546954040191546521E002D25
:10011000F1DC30BD70B500242546002801DA012449
:100120004042002901DA01254942FFF7DDFFAC42D8
:1001300000D04042002C00D0494270BDD2B201E054
:100140000270401C491EFBD270470022F6E710B532
:1001500013460A4604461946FFF7F0FF204610BD35
:10016000064C0125064E05E0E36807CC2B430C3C0A
:1001700098471034B442F7D3FFF7A2FF24380008A1
:100180004438000810B5024800F0A0F810BD000087
:10019000A000002010B5024800F098F810BD000043
:1001A000FC00002070B50446217808460838142168
:1001B000FFF79AFF0546206C80088000054940182B
:1001C000606404488030A0641C20284001218140E4
:1001D000E16470BD0008024001794A1E9200064B9E
:1001E000D2180265044A403242654A1E93079B0FAB
:1001F00001229A40826570470009024005E00449E7
:1002000000E0491E0029FCD1401E0028F7D17047AC
:10021000651800007047000070B50446002500BF57
:1002200000212420015500BF00BF005D012801D13D
:10023000022070BD01212420015500BF2520005D52
:10024000022803D00420E06301253AE0206800681A
:100250000E2188432168086020680068400840003B
:1002600021680860606C0068FF2101318843616C7F
:100270000860154840681C22216C114001228A4008
:10028000104311494860A16CE06C4860206D002863
:1002900009D0206D0068FF2101318843216D08607D
:1002A000616DA06D486001212520015500BF00212E
:1002B0002420015500BFA06B002802D02046A16B6E
:1002C00088472846B5E700000000024070B50446A4
:1002D00045480568206806681C20216C0140042000
:1002E00088402840002820D00420304000281CD01E
:1002F0002068006820210840002805D12068006897
:100300000421884321680860374840681C22216C1A
:10031000114004228A40104333494860206B002872
:1003200060D02046216B88475CE01C20216C014096
:10033000022088402840002828D002203040002891
:1003400024D02068006820210840002808D12068B7
:1003500000680A2188432168086001212520015591
:10036000214841681C22206C104002228240114327
:100370001D48416000BF00212420015500BFE06AF4
:1003800000282FD02046E16A88472BE01C20216CF2
:100390000140082088402840002823D00820304011
:1003A00000281FD0206800680E218843216808605B
:1003B0000D4841681C22206C1040012282401143EC
:1003C000094841600120E06301212520015500BF5B
:1003D00000212420015500BF606B002802D0204678
:1003E000616B884770BD00000000024010B50446F4
:1003F000002C01D1012010BD294A2168881A14213E
:10040000FFF772FE8000206402212520015520683C
:1004100000682449084021680860E168A068084332
:100420002169084361690843A1690843E1690843F8
:10043000216A08432168096808432168086020464A
:10044000FFF7B0FE01218903A068884201D1002096
:1004500060602079616C0860A16CE06C4860606845
:1004600000280CD06068042809D82046FFF7B4FEA5
:100470000020216D0860616DA06D486003E00020E0
:1004800020656065A0650020E063012125200155FD
:1004900000BF00212420015500BF0020ABE7000071
:1004A000080002400F80FFFF70B5044600F008F915
:1004B00006462546681C002802D0054800682D180D
:1004C00000BF00F0FDF8801BA842FAD370BD000009
:1004D0000C00002070B503460022D5E001269640AE
:1004E0000C683440002C71D04D68022D02D04D684C
:1004F000122D15D1D508AE001D462035A859550737
:10050000EE0E0F25B5400646AE4330465607F60EB2
:100510000D69B5402843D508AD001E462036705100
:10052000186856000325B5400646AE4330460D799F
:10053000AD07AD0F5600B540284318604D68012D3A
:1005400008D04D68022D05D04D68112D02D04D68A0
:10055000122D18D1986856000325B5400646AE43C3
:1005600030465600CD68B54028439860586801254C
:1005700095400646AE43304610264D6835402D095D
:10058000954028435860D86856000325B540064674
:10059000AE43304656008D68B5402843D8600126EA
:1005A00036074D683540B5426DD13A4D9608B600D4
:1005B000A8599507EE0E0F25B5400646AE433046C6
:1005C00005252D07AB4202D1002510E05BE0324D3E
:1005D000AB4201D101250AE0304DAB4201D10225E9
:1005E00005E02F4DAB4201D1032500E0052596071C
:1005F000F60EB5402843274D9608B600A851254D64
:10060000203528680546A5432846012636044D684E
:100610003540B54202D10546254328461D4D2035BB
:10062000286068680546A5432846012676044D687B
:100630003540B54202D1054625432846154D2035A3
:100640006860144D603D28680546A543284601268C
:1006500036054D683540B54202D10546254328464A
:100660000C4D603D286068680546A5432846012674
:1006700076054D683540B54202D1054625432846EA
:10068000044D603D6860521C0D68D540002D00D0BF
:1006900024E770BD601802400004005000080050BC
:1006A000000C005042690A40002A01D0816200E03B
:1006B00081617047002A01D0816100E0816270474A
:1006C00001480068704700000400002003480068EB
:1006D0000349096840180149086070470400002078
:1006E0000C00002010B5002408480068FF210131EB
:1006F000084306490860002000F00AF8002801D0ED
:10070000012401E000F034F8204610BD0020024032
:10071000F8B5044600251348006800281ED011488B
:1007200001687D20C000FFF7DFFC074639460E4810
:100730000068FFF7D9FC064600F0F0FF00280BD157
:10074000042C07D200222146401E00F041F8074841
:10075000046004E0012502E0012500E001252846AF
:10076000F8BD00000C000020100000200800002050
:1007700008B500BF0E480068012108430C49086015
:1007800008460068C007C00F009000BF00BF00BF50
:1007900007484038C06B8905084305494039C8639C
:1007A0000846C06B09040840009000BF00BF08BDA8
:1007B000401002400146002905DBCB06DB0E01227A
:1007C0009A40024B1A6000BF7047000000E100E051
:1007D00070B504460D4616462946204602F040FBF9
:1007E00070BD000070B5044611480068032149023D
:1007F000884320430E4908604815844216D10D49AC
:1008000009680622514308460B49FFF76DFC451C59
:1008100005E0002D01D06D1E01E0032070BD0448ED
:1008200040690121890208408842F2D00020F5E7A2
:10083000007000401000002040420F00FEB504464A
:1008400000270020029001214904206808408842C6
:100850007BD1002001907748C06BC9020840002876
:100860000ED100BF7348C06B08437249C863084685
:10087000C06B09040840009000BF00BF0120019038
:100880006D480068FF21013108436B490860FFF79C
:1008900017FF064606E0FFF713FF801B022801D969
:1008A000032706E064480068FF2101310840002862
:1008B000F1D000BF002F4BD15E484030C569032105
:1008C00009020D40002D1AD0A069A84217D059483E
:1008D0004030C0698843054656484030C069012110
:1008E0000904084353494031C8610846C0690121E1
:1008F000090488434F494031C8610846C561E8078B
:10090000C00F002813D0FFF7DBFE064607E0FFF715
:10091000D7FE801B4949884201D9032706E0454894
:100920004030C069022108400028F0D000BF002FED
:100930000CD140484030C069032109028843A169B5
:1009400008433C494031C86103E00DE0029700E0F4
:1009500002970198012806D13648C06B012109078A
:1009600088433449C86300BF2078C007C00F0028FF
:1009700009D03048403040698008800061680843F1
:100980002C4940314861022120680840022809D1E1
:100990002848403040690C218843A1680843254914
:1009A0004031486140212068084040280AD1214850
:1009B00040304069032109038843E16808431D4929
:1009C000403148610121890320680840884213D1E1
:1009D0001848403040698000800861690843154923
:1009E0004031486109066069884205D11148C068F4
:1009F000891308430F49C8600121C90220680840D3
:100A0000884215D10B48403040690321890388434F
:100A10002169084307494031486101218903206960
:100A2000884205D10348C068890008430149C8606D
:100A30000298FEBD001002400070004088130000C4
:100A400070B504460D46002C01D1012070BD6B48E5
:100A500000684007400FA84218D268480068C008E4
:100A6000C000284365490860FFF72AFE064607E0F4
:100A7000FFF726FE801B6249884201D90320E5E783
:100A80005E4800684007400FA842F1D1022120686B
:100A90000840022815D1042120680840042807D105
:100AA00058488068072109038843401855498860E1
:100AB000544880680F2109028843A16808435149BE
:100AC00088602078C007C00F002854D060680128D3
:100AD00008D14C48006801214904084000282ED163
:100AE0000120B3E76068022808D146480068012168
:100AF00049060840002822D10120A7E760680028A5
:100B000008D140480068012189020840002816D118
:100B100001209BE76068032808D13A484030006A0A
:100B20000221084000280AD101208FE735484030D3
:100B3000C06902210840002801D1012086E7314820
:100B40008068C008C000616808432E498860FFF7CC
:100B5000B7FD064607E0FFF7B3FD801B2849884232
:100B600001D9032072E7274880683821084061686E
:100B7000C9008842EFD1214800684007400FA842D1
:100B800018D91E480068C008C00028431B490860E7
:100B9000FFF796FD064607E0FFF792FD801B184918
:100BA000884201D9032051E7144800684007400FEC
:100BB000A842F1D1042120680840042808D1114836
:100BC0008068072109038843E16808430D4988606C
:100BD00000F03AF80B4989680F2212021140090A05
:100BE0008900094A515CC906C90EC8400749086016
:100BF00007480068FFF78CFD28E70000002002404E
:100C00008813000000100240AC2F000810000020E4
:100C10000800002001480068704700001000002014
:100C200000B5FFF7F7FF0649896807221203114054
:100C3000090B8900034A515CC906C90EC84000BDB2
:100C400000100240EC2F0008FEB5354880683821BE
:100C5000084000280DD13248006809020840C10A46
:100C60000120884000902F480099FFF73DFA044684
:100C700054E02B48806838210840082801D12A4CCC
:100C80004CE02748806838210840102834D1244897
:100C9000C0688607B60F2248C06870210840000966
:100CA000401C0190022E0FD0032E0CD11E4801993A
:100CB000FFF71AFA1A49C9687F2212021140090A7D
:100CC000484305460DE000BF16480199FFF70CFAAE
:100CD0001349C9687F2212021140090A4843054698
:100CE00000BF00BF0E48C068400F471C3946284669
:100CF000FFF7FAF9044611E00948806838210840F6
:100D0000202801D1840209E0054880683821084084
:100D1000182802D17D24240200E000242046FEBDD4
:100D2000001002400024F40000127A00FEB50446D0
:100D3000002C01D10120FEBD2078C007C00F002883
:100D40006FD0F748876838210F40C0688607B60F14
:100D5000102F01D1032E01D0082F0BD1F0480068CD
:100D600001214904084000285BD06068002858D160
:100D70000120E0E700BF012109046068884205D135
:100D8000E74800680843E649086021E005210904B6
:100D9000606888420ED1E248006801218904084356
:100DA000DF49086008460068012109040843DC495E
:100DB00008600DE0DA480068012109048843D84939
:100DC000086008460068012189048843D449086006
:100DD00000BF6068002812D0FFF772FC054606E0ED
:100DE000FFF76EFC401B642801D90320A3E7CC4821
:100DF00000680121490408400028F1D011E0FFF704
:100E00005FFC054606E0FFF75BFC401B642801D948
:100E1000032090E7C24800680121490408400028E7
:100E2000F1D1022120680840022873D1BC488068B3
:100E3000382108400746BA48C0688607B60F102F09
:100E400001D1022E01D0002F36D1B5480068012112
:100E500089020840002804D0E068002801D1012060
:100E600069E7AF4840687F21090288436169090248
:100E70000843AB494860002F16D108460068072197
:100E8000C902884321690843A549086008460068EB
:100E90000722D2021040C20A012090400146A14818
:100EA000FFF722F9A0490860A0480068FFF730FC6E
:100EB000002849D001203EE7E06800282BD0984860
:100EC00000680721C90288432169084394490860E2
:100ED000084600688915084391490860FFF7F0FB50
:100EE000054606E0FFF7ECFB401B022801D9032072
:100EF00021E78B4800680121890208400028F1D0D1
:100F0000874840687F2109028843616909020843D4
:100F10008349486018E082480068FF210131884316
:100F20007F490860FFF7CCFB054606E0FFF7C8FBEA
:100F3000401B022801D90320FDE679480068012101
:100F4000890208400028F1D10821206808400828BB
:100F500049D1734880683821084018280BD170485F
:100F60004030006A0221084000283CD0A0690028D7
:100F700039D10120DFE6A06900281AD06848403046
:100F8000006A01210843664940310862FFF798FB77
:100F9000054606E0FFF794FB401B022801D9032019
:100FA000C9E65F484030006A022108400028F1D0BD
:100FB00019E05B484030006A400840005849403121
:100FC0000862FFF77DFB054606E0FFF779FB401B53
:100FD000022801D90320AEE651484030006A0221C0
:100FE00008400028F1D104212068084004287CD161
:100FF000002001904A4880683821084020280BD101
:1010000047484030C0690221084000286ED0A068DF
:1010100000286BD101208EE64148C06B010F0120F2
:101020008843002810D000BF3D48C06B012109074C
:1010300008433B49C8630846C06B09040840009058
:1010400000BF00BF0120019039480068FF21013135
:101050000840002816D13648006808433449086023
:10106000FFF72EFB054606E0FFF72AFB401B022890
:1010700001D903205FE62E480068FF2101310840B6
:101080000028F1D000BFA068012808D124484030D2
:10109000C0690121084322494031C86120E0A068AD
:1010A00005280FD11E484030C069042108431C495F
:1010B0004031C8610846C0690121084318494031E0
:1010C000C8610DE016484030C06941084900144825
:1010D0004030C161C0690421884311494031C86171
:1010E00000BFA068002816D001E040E03EE0FFF716
:1010F000E7FA054607E0FFF7E3FA401B0D4988428F
:1011000001D9032017E606484030C0690221084093
:101110000028F0D01EE0FFF7D3FA054614E00000E7
:10112000001002400024F4001000002008000020FD
:101130000070004088130000FFF7C2FA401B6449AA
:10114000884201D90320F6E56248C06902210840BF
:101150000028F1D10198012808D15E484038C06BC1
:101160000121090788435B494039C86300BFE06932
:1011700000285AD057484038806838210840102845
:101180007ED0E069022851D15248403800680121E0
:10119000090688434F4940390860FFF791FA054630
:1011A00006E0FFF78DFA401B022801D90320C2E5B3
:1011B0004848403800680121490608400028F0D11D
:1011C000616A206A0843A16A09020843E16A084388
:1011D000216B08433F494039C9683F4A11400843E1
:1011E0003C494039C86008460068012109060843A7
:1011F0003849403908600846C06809040843354941
:101200004039C860FFF75CFA054606E0FFF758FA78
:10121000401B022801D903208DE52E484038006884
:101220000121490608400028F0D04EE02948403806
:1012300000680121090688432649403908600846AC
:10124000C06880088000C8600846C068234908401C
:1012500020494039C860FFF733FA054607E0FFF739
:101260002FFA401B022802D9032064E508E0194840
:10127000403800680121490608400028EFD124E0E9
:10128000E069012800D156E512484038C668B10728
:10129000890F206A814216D170203040616A8842ED
:1012A00011D17F2000023040A16A090288420AD190
:1012B0001F2040043040E16A884204D1710F490781
:1012C000206B814201D0012035E5002033E500008C
:1012D00088130000401002408C80C11FFFFFFEEF0A
:1012E00070B50446002C01D1012070BD606A002851
:1012F00000D100BF0021A1625D20005D002804D163
:101300005C200155204600F059F802215D2001556E
:10131000206800684021884321680860072109028D
:10132000E068884201D9002501E001252D030F2145
:101330000902E068884206D007210902E068884275
:1013400001D00021A162206B002809D107210902E8
:10135000E068884202D90221216301E00121216372
:10136000A168606808432169084361690843012254
:101370005202A16911400843E1690843216A084308
:10138000A16A084321680860A069000C0421084094
:10139000616A0843616B0843E16808432843216898
:1013A00048602068C069910088432168C8610020B6
:1013B000206601215D200155002096E710B586B01A
:1013C0000446142101A8FEF7C0FE1949206888428E
:1013D0002CD100BF174800688914084315490860DC
:1013E0000846006889140840009000BF00BF00BF95
:1013F00010484038406B012108430E49403948638A
:101400000846406BC007C00F009000BF00BF4620D9
:1014100001900220029000200390032004900020FD
:10142000059001A905200007FFF754F806B010BD8C
:101430000030014040100240FFB587B004461D4611
:10144000109E012002900020019000BF5C20005DF2
:10145000012802D102200BB0F0BD01215C20015512
:1014600000BFFFF72DF907465D20005D039060681F
:10147000049006950595039801280DD0FF210531AC
:101480000498884205D1A068002802D10398042856
:1014900002D00220019036E10898002804D0099873
:1014A000002801D0002D02D1012001902BE15D2008
:1014B000005D042802D005215D2001550020206632
:1014C0000998206446200553442005530898A063DA
:1014D000E587A5870020E064206507210902E06810
:1014E000884202D80598012807D920684068012160
:1014F000090388432168486006E0206840680121AC
:1015000009030843216848602068006840210840BA
:10151000402804D02068006808432168086007213B
:101520000902E068884254D96068002802D0069811
:10153000012809D1A06B00882168C860A06B801CBD
:10154000A063E08F401EE0873BE0206880680221B6
:101550000840022811D1E08F00280ED002980128FF
:101560000BD1A06B00882168C860A06B801CA063B1
:10157000E08F401EE0870020029020688068C0074E
:10158000C00F002812D04620005B00280ED0206833
:10159000C068216C0880206C801C20644620005BA1
:1015A000401E81B24620015301200290FFF788F8C7
:1015B000C01BB04205D3701C002802D0032001904C
:1015C000A1E0E08F0028C0D14620005B0028BCD1FC
:1015D0008DE06068002802D00698012817D1E08FBE
:1015E00001280AD9A06B00882168C860A06B801C04
:1015F000A063E08F801EE08709E0A06B007821687F
:101600000873A06B401CA063E08F401EE08767E07A
:10161000206880680221084002281FD1E08F00283E
:101620001CD00298012819D1E08F01280AD9A06B9B
:1016300000882168C860A06B801CA063E08F801EBA
:10164000E08709E0A06B007821680873A06B401C5C
:10165000A063E08F401EE087002002902068806831
:10166000C007C00F00282ED04620005B00282AD0DB
:101670004620005B012817D92068C068216C0880CB
:10168000206C801C20644620005B801E81B24620B6
:101690000153005B012814D8206840680121090328
:1016A0000843216848600CE02068007B216C0870CA
:1016B000206C401C20644620005B401E81B2462006
:1016C000015301200290FEF7FBFFC01BB04202D382
:1016D000701C002801D1002E02D10320019012E0DD
:1016E000E08F002894D14620005B002890D13A4634
:1016F0003146204600F06BFD002803D00120019008
:101700002020206600BF01215D20015500BF00217F
:101710005C20015500BF01989DE6000070B50446AD
:101720002546681E0949884201D901200CE0681E3F
:10173000074948610321081F01F092FB002004497A
:10174000886107200861002070BD0000FFFFFF00D6
:1017500000E000E0014600BF7C20405C012801D190
:101760000220704701237C20435400BF24238020A3
:1017700043500868026808680068400840000B6829
:10178000186001235B071046984302460020486614
:101790000868026020238020435000BF00237C2083
:1017A000435400BF0020DCE7704770B504460D4687
:1017B00000BF7C20005D012801D1022070BD012105
:1017C0007C20015500BF242180200151206806683B
:1017D0002068006840084000216808602068806830
:1017E000072149068843284321688860204600F085
:1017F00025FE2068066020218020015100BF0021C5
:101800007C20015500BF0020D8E770B504460D4686
:1018100000BF7C20005D012801D1022070BD0121A4
:101820007C20015500BF24218020015120680668DA
:1018300020680068400840002168086020688068CF
:10184000C000C008284321688860204600F0F6FDEB
:101850002068066020218020015100BF00217C20EB
:10186000015500BF0020D9E770477047704700005E
:10187000FEB504462068C569206806682068876848
:101880002807000F01900198002813D1202028403C
:1018900000280FD020203040002804D1012000076C
:1018A0003840002806D0E06E002802D02046E16EC5
:1018B0008847FEBD019800287ED07A48384000282D
:1018C00004D1FF20213030400028F5D0E807C00FB8
:1018D00000280DD0FF2001303040002808D0012022
:1018E0002168086288200059012108438821085195
:1018F0000220284000280CD0F807C00F002808D08C
:1019000002202168086288200059042108438821A8
:1019100008510420284000280CD0F807C00F0028E8
:1019200008D0042021680862882000590221084359
:101930008821085108202840002810D0202030405D
:10194000002803D157483840002808D008202168D3
:1019500008628820005908210843882108518820FE
:10196000005900284DD02020284000280ED02020EB
:101970003040002804D1012000073840002805D05D
:10198000E06E002802D02046E16E8847882000598A
:1019900000902068806840210840402804D0082139
:1019A00000980840002826D0204600F047FE206816
:1019B00080684021084000E024E0402817D12068DA
:1019C0008068884321688860A06F00280BD0364863
:1019D000A16F8863A06FFEF71FFC002811D0A06FD5
:1019E000816B88470DE02046FFF740FF09E0204665
:1019F000FFF73CFF05E02046FFF738FF0021882075
:101A0000015156E701200005284000280CD0012094
:101A100080053840002807D00120000521680862B1
:101A20002046FFF722FF44E78020284000280FD0FF
:101A300080203040002804D10120C0053840002813
:101A400006D0206F002802D02046216F884730E75B
:101A500040202840002807D040203040002803D0F4
:101A6000204600F001FE24E70120C00528400028A0
:101A700008D0012080073040002803D02046FFF71F
:101A8000F3FE16E7012000062840002807D0F00FDB
:101A9000C007002803D02046FFF786FE09E700BFF5
:101AA00007E70000010000102526000810B50446D5
:101AB000002C01D1012010BDA069002800D000E059
:101AC00000BF80200059002805D100217C2001554D
:101AD000204600F02DF82421802001512068006864
:101AE0004008400021680860204600F0CFFD012832
:101AF00000D1E0E7A06A002802D0204600F0E0FC18
:101B0000206840680921C90288432168486020682C
:101B100080682A2188432168886020680068012144
:101B2000084321680860204600F042FDC3E700003A
:101B300010B586B00446142101A8FEF706FB3C4907
:101B40002068884272D100BF3A48006801218903A9
:101B500008433849086008460068012189030840A5
:101B6000009000BF00BF00BF32484038406B0121E9
:101B700008433049403948630846406BC007C00FEE
:101B8000009000BF00BF032040020190022002909D
:101B90000020039004900120059001A90520000772
:101BA000FEF798FC2448254908603220486000214F
:101BB00022488160C1608021016100214161816111
:101BC0002021C161C9010162FEF710FC002801D08B
:101BD000FEF720FB00BF1948A067846200BF1648CB
:101BE0001430174908603320486010211448816080
:101BF0000021C16080210161002141618161C161D9
:101C0000012109030162FEF7F1FB002801D0FEF774
:101C100001FB00BF0A486067846200BF00221146D2
:101C20001B20FEF7D5FD1B20FEF7C4FD06B010BD3E
:101C3000003801404010024008000240A00000208F
:101C4000FC000020704700BFFEE7000010B5012235
:101C500040210948FEF72EFD012280210648FEF7AB
:101C600029FD002280210448FEF724FD00224021A6
:101C70000148FEF71FFD10BD0004005010B5012201
:101C800040210748FEF716FD002280210448FEF798
:101C900011FD012280210248FEF70CFD10BD00005D
:101CA0000004005010B5012240210448FEF702FD57
:101CB000002240210148FEF7FDFC10BD0004005049
:101CC00008B500BF0E48806B012108430C498863AA
:101CD0000846806BC007C00F009000BF00BF002205
:101CE00011460920FEF774FD0920FEF763FD00226E
:101CF00011460A20FEF76CFD0A20FEF75BFD08BDC9
:101D00000010024000B587B0142102A8FEF71DFAAA
:101D100000BF2748406B0421084325494863084613
:101D2000406B04210840019000BF00BF00BF204865
:101D3000406B012108431E4948630846406BC007B9
:101D4000C00F019000BF00BF00BF0846406B0221DA
:101D50000843174948630846406B02210840019038
:101D600000BF00BF0022802105200007FEF7A2FC73
:101D7000002210210F48FEF79DFC802002900120D8
:101D80000390002004900220059002A9052000077E
:101D9000FEF7A0FB10200290012003900020049089
:101DA000059002A90348FEF795FB07B000BD0000AF
:101DB000001002400004005010B51248124908609B
:101DC000FF200530486000210F488160072109028B
:101DD000C160002101614161012149028161282125
:101DE000C16100210162416281620721C16200215B
:101DF000016308214163FFF773FA002801D0FEF761
:101E000009FA10BD003001405801002010B51A48F1
:101E10001A490860E12040024860002117488160AB
:101E2000C16001610C21416100218161C1610162D8
:101E300041620020114988620846FFF737FE0028FA
:101E400001D0FEF7E7F900210C48FFF7DEFC00287F
:101E500001D0FEF7DFF900210848FFF7A6FC0028B3
:101E600001D0FEF7D7F90548FFF774FC002801D030
:101E7000FEF7D0F910BD000000380140140000202A
:101E8000704770B5002418E02046B030002100F003
:101E900090F90021084600F08CF90021102000F094
:101EA00088F9002505E00121002000F082F9681C76
:101EB000C5B2802DF7DB601CC4B2082CE4DB70BD1A
:101EC00000B585B0402000900120019000200290D4
:101ED000039069465148FEF7FDFA802000900120EA
:101EE000019000200290039069464C48FEF7F2FAF8
:101EF000FF2001300090012001900020029003900B
:101F0000694605200007FEF7E5FA0022FF210131AE
:101F100005200007FEF7CEFB042000900120019071
:101F200000200290039069463C48FEF7D3FA002255
:101F300004213A48FEF7BEFB0A20FEF75FF90021B4
:101F4000AE2000F036F90021084600F032F90021F9
:101F5000102000F02EF90021402000F02AF9002185
:101F6000B02000F026F90021812000F022F90021A4
:101F7000FF2000F01EF90021A12000F01AF9002135
:101F8000A62000F016F90021A82000F012F9002187
:101F90003F2000F00EF90021C82000F00AF90021CE
:101FA000D32000F006F90021084600F002F90021D4
:101FB000D52000F0FEF80021802000F0FAF8002182
:101FC000D82000F0F6F80021052000F0F2F80021FA
:101FD000D92000F0EEF80021F12000F0EAF800210D
:101FE000DA2000F0E6F80021122000F0E2F80021EB
:101FF000DB2000F0DEF80021302000F0DAF80021CC
:102000008D2000F0D6F80021142000F0D2F8002135
:10201000AF2000F0CEF805B000BD00000004005075
:1020200070B504460D462846B030002100F0C1F8D6
:10203000F0212140091108461030002100F0B9F8C4
:102040002007000F002100F0B4F870BDFFB581B08B
:1020500007460D460026002403982038C6B27F2F7D
:1020600002DD0027A81CC5B20498102824D12946F7
:102070003846FFF7D5FF002408E031010919184A56
:10208000505C012100F095F8601CC4B2082CF4DB10
:10209000681CC1B23846FFF7C3FF002409E03101D4
:1020A000091908310E4A505C012100F082F8601CC9
:1020B000C4B2082CF3DB11E029463846FFF7B0FF25
:1020C000002409E006217143064A8918085D0121B0
:1020D00000F06FF8601CC4B2062CF3DB05B0F0BD55
:1020E000343200080C300008FFB583B01E460C9C4B
:1020F0000020029000253CE0701B401EC1B20A2067
:1021000000F046FF014600900598FDF7EDFF0A211B
:102110000190FDF7E9FF0F460298002815D1701EC7
:10212000A84212DD002F0ED1E00F001940106843C5
:10213000019403994018C0B22346202200900499CC
:10214000FFF784FF13E001200290E00F0019401018
:102150006843019403994018C0B20090384630306B
:10216000C2B2234604990098FFF770FF00BF681CB5
:10217000C5B2B542C0DB07B0F0BDFFB581B00446C3
:102180000F46154600260FE0AA5D39462046049BFF
:10219000FFF75CFF20460830C4B2782C02DD002433
:1021A000B81CC7B2701CC6B2A85D0028ECD105B03F
:1021B000F0BD70B504460D46002D03D0E0B200F02E
:1021C00039FE02E0E0B200F01FFE70BD7047F8B5C6
:1021D00004460E461546334600220321C902204616
:1021E000009500F029F8002805D0206E2021084332
:1021F00020660320F8BD334600228021204600954A
:1022000000F071F8002805D0206E202108432066D8
:102210000320EFE7334600220321490220460095C0
:1022200000F00AF8002805D0206E2021084320661F
:102230000320DFE70020DDE7F8B504460E46174629
:102240001D4649E003204002864203D1002F01D100
:102250002068007B681C00283ED0FEF731FA069902
:10226000401AA84201D2002D36D120684068E021F2
:10227000884321684860FF210531606888420ED19B
:102280000121C903A068884203D04911A06888428F
:1022900005D1206800684021884321680860012139
:1022A0004903A06A88420DD100BF206800688843B6
:1022B00021680860206800680121490308432168FB
:1022C000086000BF01215D20015500BF00215C2096
:1022D000015500BF0320F8BD206880683040B84237
:1022E000B0D10020F7E7F8B504460E4617461D4664
:1022F00041E0681C00283ED0FEF7E2F90699401A3A
:10230000A84201D2002D36D120684068E0218843E0
:1023100021684860FF210531606888420ED10121A3
:10232000C903A068884203D04911A068884205D13A
:102330002068006840218843216808600121490322
:10234000A06A88420DD100BF2068006888432168D8
:10235000086020680068012149030843216808607B
:1023600000BF01215D20015500BF00215C20015507
:1023700000BF0320F8BD206880683040B04201D122
:10238000012000E00020B842B3D10020F2E77047FE
:1023900010B5FEF79BF910BD00B599B034210CA81B
:1023A000FDF7D3FE0020089009900A900B901C21A5
:1023B00001A8FDF7CAFE01204002FEF713FA022031
:1023C0000C90C0010F90002010904020119002202E
:1023D00013900221149100211591082116910104F6
:1023E0001791010718910CA8FEF7A0FC002801D056
:1023F000FDF710FF072008900220099000200A90A6
:102400000B90022108A8FEF71BFB002801D0FDF766
:1024100001FF012001900020029001A8FEF70EFAB2
:10242000002801D0FDF7F6FE19B000BD0120C0065E
:10243000014988607047000000ED00E0F0B585B00C
:1024400004461BA103C9039102901BA103C901917A
:102450000090606E002805D101216A200153682098
:10246000015322E00827082204922068806807218F
:1024700049060840450E20688068460F6A46915D0F
:1024800002AA935D049A53431846FDF743FE81B2B6
:102490006A2001536A46515D02AA525D7A43104692
:1024A000FDF738FE81B26820015305B0F0BD000091
:1024B00001010103070100000804020408010101F1
:1024C000018DC907C90F002908D001684968012298
:1024D00052049143C26A1143026851600222816A28
:1024E0001140022907D101684968D2039143026B68
:1024F0001143026851600422816A1140042907D106
:102500000168496812049143426B114302685160AB
:102510000822816A1140082907D10168496812031D
:102520009143826B1143026851601022816A11400D
:10253000102907D10168896812029143C26B1143C7
:10254000026891602022816A1140202907D1016828
:10255000896812029143026C114302689160402223
:10256000816A1140402915D101684968920391435D
:10257000426C11430268516001221205416C914284
:1025800008D101684968032252059143826C1143C6
:10259000026851608022816A1140802907D1016858
:1025A000496812039143C26C11430268516070473D
:1025B00038B50446002188200151FEF781F8054610
:1025C000206800680821084008280BD114482B46D1
:1025D000002289040090204600F0A8FB002801D0CA
:1025E000032038BD206800680421084004280BD16E
:1025F0000B482B46002209050090204600F096FB70
:10260000002801D00320ECE7202180200151842004
:10261000015100BF00217C20015500BF0020E0E7F0
:10262000FFFFFF0170B50546AC6A00215E20015333
:10263000562001532046FFF719F970BD016809685B
:10264000FF22213291430268116001688968054ABE
:10265000114002689160202284210A500021C16645
:1026600070470000FEFFFFEF10B5044620680068C9
:1026700040218843216808602021802001510020EA
:1026800020672046FFF7DEFA10BD0000F0B585B0E8
:10269000044600260020029001902169A0680843AA
:1026A00061690843E16908430490606E0499084336
:1026B000049020680068F94908400499084321689B
:1026C000086020684068032109038843E1680843E3
:1026D00021684860A0690490206A04990843049026
:1026E00020688068EE4908400499084321688860A2
:1026F0002068C06A00090001616A08432168C86255
:1027000000BFE8492068884217D1E7484069800740
:10271000800F002806D0012808D0022804D0032802
:1027200008D105E0002507E0022505E0042503E0C7
:10273000082501E0102500BF28E0DC492068884218
:1027400017D1D94840690C210840002806D0042838
:1027500008D0082804D00C2808D105E0002507E09F
:10276000022505E0042503E0082501E0102500BF4F
:102770000CE0CF492068884201D1002506E0CD4910
:102780002068884201D1002500E0102500BF01210A
:10279000C903E069884270D1002D06D0022D53D0C4
:1027A000042D6BD0082D6AD1ECE0FEF739FA07460C
:1027B000606A002801D1012038E0606A012801D157
:1027C000022033E0606A022801D104202EE0606A12
:1027D000032801D1062029E0606A042801D10820DD
:1027E00024E0606A052801D10A201FE0606A0628FB
:1027F00001D10C201AE0606A072801D1102015E0F1
:10280000606A082801D1202010E0606A092801D1FF
:1028100040200BE0606A0A2801D1802006E0606A4F
:102820000B2802D1FF20013000E00120014638468C
:10283000FDF75AFC40006168490840180090616843
:10284000FDF752FC86B2EDE0606A002801D101205C
:102850003BE0606A012801D1022036E0606A02286C
:1028600001D1042031E0606A032801D106202CE068
:10287000606A042804D1082027E0E9E033E0CEE0D4
:10288000606A052801D10A201FE0606A062801D18C
:102890000C201AE0606A072801D1102015E0606A58
:1028A000082801D1202010E0606A092801D14020C9
:1028B0000BE0606A0A2801D1802006E0606A0B28DC
:1028C00002D1FF20013000E0012001467A48FDF7E7
:1028D0000BFC400061684908401800906168FDF7F2
:1028E00003FC86B29EE0FEF7AFF90746606A002857
:1028F00001D1012038E0606A012801D1022033E0D3
:10290000606A022801D104202EE0606A032801D108
:10291000062029E0606A042801D1082024E0606ACA
:10292000052801D10A201FE0606A062801D10C2089
:102930001AE0606A072801D1102015E0606A0828B3
:1029400001D1202010E0606A092801D140200BE06D
:10295000606A0A2801D1802006E0606A0B2802D153
:10296000FF20013000E0012001463846FDF7BCFBA6
:10297000400061684908401800906168FDF7B4FBA9
:1029800086B24FE0606A002801D1012038E0606A19
:10299000012801D1022033E0606A022801D104201D
:1029A0002EE0606A032801D1062029E0606A04282D
:1029B00001D1082024E0606A052801D10A201FE027
:1029C000606A062801D10C201AE0606A072801D14C
:1029D000102015E0606A082801D1202010E0606A0C
:1029E000092801D140200BE0606A0A2801D180202B
:1029F00006E0606A0B2802D1FF20013000E00120D0
:102A000001460120C003FDF76FFB400061684908E3
:102A1000401800906168FDF767FB86B202E0012074
:102A2000029000BF00BF102E0FD3244886420CD85E
:102A300022480F38304003903007400F0399084375
:102A4000039003982168C86061E1012002905EE173
:102A5000002D06D0022D65D0042D72D0082D71D125
:102A6000FBE0FEF7DDF80746606A002801D101208F
:102A70004BE0606A012801D1022046E0606A02282A
:102A800001D1042041E0606A032801D106203CE026
:102A9000606A042814D1082037E00000F369FFCFF2
:102AA000FFF4FF1100380140401002400044004094
:102AB00000480040004C00400024F400FFFF0000EC
:102AC000606A052801D10A201FE0606A062801D14A
:102AD0000C201AE0606A072801D1102015E0606A16
:102AE000082801D1202010E0606A092801D1402087
:102AF0000BE0606A0A2801D1802006E0606A0B289A
:102B000002D1FF20013000E0012001463846FDF7E8
:102B1000EBFA61684908401800906168FDF7E4FA33
:102B200086B2E9E0606A002801D101203AE0606ADB
:102B3000012801D1022035E0606A022803D1042077
:102B400030E03CE0D5E0606A032801D1062029E0AE
:102B5000606A042801D1082024E0606A052801D1B8
:102B60000A201FE0606A062801D10C201AE0606A82
:102B7000072801D1102015E0606A082801D1202023
:102B800010E0606A092801D140200BE0606A0A2841
:102B900001D1802006E0606A0B2802D1FF200130BD
:102BA00000E0012001465F48FDF79EFA6168490890
:102BB000401800906168FDF797FA86B29CE0FEF736
:102BC00043F80746606A002801D1012038E0606AB6
:102BD000012801D1022033E0606A022801D10420DB
:102BE0002EE0606A032801D1062029E0606A0428EB
:102BF00001D1082024E0606A052801D10A201FE0E5
:102C0000606A062801D10C201AE0606A072801D109
:102C1000102015E0606A082801D1202010E0606AC9
:102C2000092801D140200BE0606A0A2801D18020E8
:102C300006E0606A0B2802D1FF20013000E001208D
:102C400001463846FDF750FA61684908401800907F
:102C50006168FDF749FA86B24EE0606A002801D14A
:102C6000012038E0606A012801D1022033E0606A67
:102C7000022801D104202EE0606A032801D1062039
:102C800029E0606A042801D1082024E0606A052850
:102C900001D10A201FE0606A062801D10C201AE049
:102CA000606A072801D1102015E0606A082801D168
:102CB000202010E0606A092801D140200BE0606A02
:102CC0000A2801D1802006E0606A0B2802D1FF208B
:102CD000013000E0012001460120C003FDF704FAA5
:102CE00061684908401800906168FDF7FDF986B2F7
:102CF00002E00120029000BF00BF102E05D30A4859
:102D0000864202D82068C66001E0012002900121BD
:102D10006A200153682001530020E0662067029872
:102D200005B0F0BD0024F400FFFF0000FFB581B046
:102D300004460D4617460A9E24E0701C002821D048
:102D4000FDF7BEFC0499401AB04201D8002E19D1FB
:102D500020680068FF21A13188432168086020684D
:102D6000806840084000216888602021802001514F
:102D70008420015100BF00217C20015500BF0320A9
:102D800005B0F0BD2068C0692840A84201D10120EB
:102D900000E00020B842D0D00020F1E710B5024892
:102DA000FEF766FD10BD000014000020F8B50546D2
:102DB0002C46002240211348FDF77CFC00261DE034
:102DC000274680200740802F05D1012280210D4811
:102DD000FDF770FC04E0002280210A48FDF76AFC40
:102DE0006006040E012240210648FDF763FC002224
:102DF00040210448FDF75EFC701CC6B2082EDFDBE4
:102E0000F8BD00000004005010B50446FEF71EFF98
:102E10007820FFF7CBFFFEF745FF0020FFF7C6FF46
:102E2000FEF740FF2046FFF7C1FFFEF73BFFFEF72E
:102E300025FF10BD10B50446FEF708FF7820FFF708
:102E4000B5FFFEF72FFF4020FFF7B0FFFEF72AFF88
:102E50002046FFF7ABFFFEF725FFFEF70FFF10BD83
:102E600010B5002819DB1A4A03231B02D218830865
:102E70009B00D2588307DC0EFF23A3409A438B07A5
:102E80001B0E8407E40EA3401A43114B03242402B3
:102E90001B198408A4001A5118E00E4A03071B0FDF
:102EA000083B9B089B00D2588307DC0EFF23A340FE
:102EB0009A438B071B0E8407E40EA3401A43054B6D
:102EC0000407240F083CA408A4001A5110BD0000F8
:102ED00000E100E01CED00E002E008C8121F08C19C
:102EE000002AFAD170477047002001E001C1121F8B
:102EF000002AFBD17047000008B5FDF7F3FBFFF790
:102F00004BFAFEF7FFFEFEF7DBFEFEF755FFFEF77E
:102F10007DFFFEF7D5FFFEF7B4FF102316A20021B8
:102F20000846FFF72AF925E0002280210520000746
:102F3000FDF7C0FBFF200123124A511E00901248EA
:102F4000FEF77AFA102000900E48401E42780323C4
:102F500000214820FFF7C8F810210C48FDF7A2FB1C
:102F60000122802105200007FDF7A4FBFF20F5309A
:102F7000FDF79AFAD8E70000726563656976653AED
:102F80000000000001000020580100200004005053
:102F900010B50246012002E00346534318460B4693
:102FA0004C1EE1B2002BF7D110BD00000000000064
:102FB0000000000000000000000000000000000011
:102FC0000000000000000000000000000100000000
:102FD00002000000030000000400000006000000E2
:102FE00007000000080000000900000000000000C9
:102FF00000000000000000000000000001000000D0
:1030000002000000030000000400000000000000B7
:1030100000000000002F000000000700070000145F
:103020007F147F1400242A7F2A120062640813236D
:1030300000364955225000000503000000001C2204
:103040004100000041221C000014083E0814000842
:10305000083E0808000000A06000000808080808F2
:10306000000060600000002010080402003E51498A
:10307000453E0000427F4000004261514946002128
:1030800041454B31001814127F1000274545453942
:10309000003C4A494930000171090503003649499D
:1030A000493600064949291E000036360000000056
:1030B00056360000000814224100001414141414A1
:1030C000000041221408000201510906003249594A
:1030D000513E007C1211127C007F49494936003E66
:1030E00041414122007F4141221C007F4949494121
:1030F000007F09090901003E4149497A007F08081B
:10310000087F0000417F4100002040413F01007FD7
:1031100008142241007F40404040007F020C027FA3
:10312000007F0408107F003E4141413E007F0909B5
:103130000906003E4151215E007F091929460046DB
:10314000494949310001017F0101003F4040403FB2
:10315000001F2040201F003F4038403F00631408FC
:1031600014630007087008070061514945430000D7
:103170007F41410000552A552A55000041417F00FA
:1031800000040201020400404040404000000102EF
:103190000400002054545478007F484444380038D8
:1031A0004444442000384444487F00385454541860
:1031B00000087E0901020018A4A4A47C007F080472
:1031C00004780000447D4000004080847D00007F42
:1031D000102844000000417F4000007C041804785F
:1031E000007C0804047800384444443800FC24245B
:1031F00024180018242418FC007C08040408004843
:103200005454542000043F444020003C4040207C63
:10321000001C2040201C003C4030403C0044281052
:103220002844001CA0A0A07C004464544C44141406
:10323000141414140000000000000000000000003E
:1032400000000000000000F8000000000000003353
:103250003000000000100C06100C060000000000FA
:103260000000000040C07840C0784000043F0404E3
:103270003F040400007088FC08300000001820FFA4
:10328000211E0000F008F000E018000000211C03DF
:103290001E211E0000F00888700000001E2123245B
:1032A0001927211010160E00000000000000000079
:1032B00000000000000000E0180402000000000709
:1032C0001820400000020418E00000000040201810
:1032D00007000000404080F0804040000202010FE3
:1032E00001020200000000F0000000000101011FC7
:1032F00001010100000000000000000080B070002B
:1033000000000000000000000000000000010101BA
:103310000101010100000000000000000030300049
:103320000000000000000000806018040060180623
:103330000100000000E010080810E000000F10205D
:1033400020100F00001010F8000000000020203FA7
:103350002020000000700808088870000030282431
:1033600022213000003008888848300000182020D2
:1033700020110E000000C02010F8000000070424F7
:10338000243F240000F8088888080800001921203C
:1033900020110E0000E0108888180000000F112096
:1033A00020110E0000380808C83808000000003F4F
:1033B000000000000070880808887000001C2221AE
:1033C00021221C0000E010080810E000000031225B
:1033D00022110F00000000C0C000000000000030FB
:1033E000300000000000008000000000000080604D
:1033F00000000000000080402010080000010204CE
:1034000008102000404040404040400004040404B4
:103410000404040000081020408000000020100870
:1034200004020100007048080808F00000000030A5
:1034300036010000C030C828E810E0000718272433
:1034400023140B000000C038E0000000203C2302E1
:103450000227382008F8888888700000203F202044
:1034600020110E00C0300808080838000718202076
:103470002010080008F808080810E000203F20206D
:1034800020100F0008F88888E8081000203F20204E
:103490002320180008F88888E8081000203F200042
:1034A00003000000C030080808380000071820207A
:1034B000221E020008F808000008F808203F210139
:1034C00001213F20000808F8080800000020203FE4
:1034D0002020000000000808F8080800C080808054
:1034E0007F00000008F888C028180800203F20014D
:1034F0002638200008F8080000000000203F2020A7
:103500002020300008F8F800F8F80800203F003FBD
:10351000003F200008F830C00008F808203F2000D5
:1035200007183F00E01008080810E0000F102020E6
:1035300020100F0008F808080808F000203F2101BB
:1035400001010000E01008080810E0000F18242412
:1035500038504F0008F8888888887000203F200085
:10356000030C30200070880808083800003820213B
:1035700021221C00180808F8080818000000203F45
:103580002000000008F808000008F808001F2020AC
:1035900020201F000878880000C83808000007387D
:1035A0000E010000F80800F80008F800033C0700CE
:1035B000073C0300081868808068180820302C0336
:1035C000032C30200838C800C83808000000203F0D
:1035D0002000000010080808C838080020382621FC
:1035E00020201800000000FE020202000000007F00
:1035F00040404000000C30C000000000000000010E
:103600000638C00000020202FE00000000404040F8
:103610007F0000000000040202020400000000001D
:10362000000000000000000000000000808080809A
:103630008080808000020204000000000000000082
:10364000000000000000808080800000001924221B
:1036500022223F2008F8008080000000003F112057
:1036600020110E000000008080800000000E11205C
:1036700020201100000000808088F800000E11203A
:1036800020103F200000808080800000001F222248
:1036900022221300008080F0888888180020203FB4
:1036A000202000000000808080808000006B9494C7
:1036B0009493600008F8008080800000203F210083
:1036C00000203F2000809898000000000020203F4C
:1036D00020200000000000809898000000C080803A
:1036E000807F000008F8000080808000203F2402D6
:1036F0002D302000000808F8000000000020203FC6
:10370000202000008080808080808000203F20007A
:103710003F20003F8080008080800000203F21000B
:1037200000203F200000808080800000001F2020BB
:1037300020201F00808000808000000080FFA120EA
:1037400020110E000000008080808000000E1120FB
:1037500020A0FF80808080008080800020203F218A
:10376000200001000000808080808000003324243D
:1037700024241900008080E0808000000000001FE9
:10378000202000008080000000808000001F20209A
:1037900020103F20808080000080808000010E305B
:1037A0000806010080800080008080800F300C03BC
:1037B0000C300F0000808000808080000020312EBF
:1037C0000E312000808080000080808080818E709B
:1037D0001806010000808080808080000021302C4D
:1037E0002221300000000000807C02020000000066
:1037F000003F404000000000FF000000000000000B
:10380000FF0000000002027C800000000040403FFA
:103810000000000000060101020204040000000094
:1038200000000000443800080000002014000000E0
:10383000D82E00085838000814000020AC050000FD
:10384000E82E0008AA0000000000000004000000AC
:08385000010000000024F40057
:04000005080000B936
:00000001FF
